{
  "_format": "hh-sol-artifact-1",
  "contractName": "SimulateTxAccessor",
  "sourceName": "contracts/accessors/SimulateTxAccessor.sol",
  "abi": [
    {
      "inputs": [],
      "stateMutability": "nonpayable",
      "type": "constructor"
    },
    {
      "inputs": [
        {
          "internalType": "address",
          "name": "to",
          "type": "address"
        },
        {
          "internalType": "uint256",
          "name": "value",
          "type": "uint256"
        },
        {
          "internalType": "bytes",
          "name": "data",
          "type": "bytes"
        },
        {
          "internalType": "enum Enum.Operation",
          "name": "operation",
          "type": "uint8"
        }
      ],
      "name": "simulate",
      "outputs": [
        {
          "internalType": "uint256",
          "name": "estimate",
          "type": "uint256"
        },
        {
          "internalType": "bool",
          "name": "success",
          "type": "bool"
        },
        {
          "internalType": "bytes",
          "name": "returnData",
          "type": "bytes"
        }
      ],
      "stateMutability": "nonpayable",
      "type": "function"
    }
  ],
  "bytecode": "0x60a060405234801561001057600080fd5b503073ffffffffffffffffffffffffffffffffffffffff1660808173ffffffffffffffffffffffffffffffffffffffff16815250506080516105ee61005f6000396000606901526105ee6000f3fe608060405234801561001057600080fd5b506004361061002b5760003560e01c80631c5fb21114610030575b600080fd5b61004a60048036038101906100459190610303565b610062565b60405161005993929190610445565b60405180910390f35b60008060607f000000000000000000000000000000000000000000000000000000000000000073ffffffffffffffffffffffffffffffffffffffff163073ffffffffffffffffffffffffffffffffffffffff16036100f5576040517f08c379a00000000000000000000000000000000000000000000000000000000081526004016100ec90610506565b60405180910390fd5b60005a905061014b898989898080601f016020809104026020016040519081016040528093929190818152602001838380828437600081840152601f19601f82011690508083019250505050505050885a610182565b92505a816101599190610555565b935060405160203d0181016040523d81523d6000602083013e8092505050955095509592505050565b600060018081111561019757610196610589565b5b8360018111156101aa576101a9610589565b5b036101c2576000808551602087018986f490506101d2565b600080855160208701888a87f190505b95945050505050565b600080fd5b600080fd5b600073ffffffffffffffffffffffffffffffffffffffff82169050919050565b6000610210826101e5565b9050919050565b61022081610205565b811461022b57600080fd5b50565b60008135905061023d81610217565b92915050565b6000819050919050565b61025681610243565b811461026157600080fd5b50565b6000813590506102738161024d565b92915050565b600080fd5b600080fd5b600080fd5b60008083601f84011261029e5761029d610279565b5b8235905067ffffffffffffffff8111156102bb576102ba61027e565b5b6020830191508360018202830111156102d7576102d6610283565b5b9250929050565b600281106102eb57600080fd5b50565b6000813590506102fd816102de565b92915050565b60008060008060006080868803121561031f5761031e6101db565b5b600061032d8882890161022e565b955050602061033e88828901610264565b945050604086013567ffffffffffffffff81111561035f5761035e6101e0565b5b61036b88828901610288565b9350935050606061037e888289016102ee565b9150509295509295909350565b61039481610243565b82525050565b60008115159050919050565b6103af8161039a565b82525050565b600081519050919050565b600082825260208201905092915050565b60005b838110156103ef5780820151818401526020810190506103d4565b60008484015250505050565b6000601f19601f8301169050919050565b6000610417826103b5565b61042181856103c0565b93506104318185602086016103d1565b61043a816103fb565b840191505092915050565b600060608201905061045a600083018661038b565b61046760208301856103a6565b8181036040830152610479818461040c565b9050949350505050565b600082825260208201905092915050565b7f53696d756c61746554784163636573736f722073686f756c64206f6e6c79206260008201527f652063616c6c6564207669612064656c656761746563616c6c00000000000000602082015250565b60006104f0603983610483565b91506104fb82610494565b604082019050919050565b6000602082019050818103600083015261051f816104e3565b9050919050565b7f4e487b7100000000000000000000000000000000000000000000000000000000600052601160045260246000fd5b600061056082610243565b915061056b83610243565b925082820390508181111561058357610582610526565b5b92915050565b7f4e487b7100000000000000000000000000000000000000000000000000000000600052602160045260246000fdfea2646970667358221220d6ae941ff74fc6cae75b5daea7c826d88ee772df8b93ff0c91c6ee7f8acace7564736f6c63430008140033",
  "linkReferences": {},
  "deployedLinkReferences": {}
}