{
  "_format": "hh3-artifact-1",
  "contractName": "ExtensibleFallbackHandler",
  "sourceName": "contracts/handler/ExtensibleFallbackHandler.sol",
  "abi": [
    {
      "anonymous": false,
      "inputs": [
        {
          "indexed": true,
          "internalType": "contract ISafe",
          "name": "safe",
          "type": "address"
        },
        {
          "indexed": false,
          "internalType": "bytes4",
          "name": "interfaceId",
          "type": "bytes4"
        }
      ],
      "name": "AddedInterface",
      "type": "event"
    },
    {
      "anonymous": false,
      "inputs": [
        {
          "indexed": true,
          "internalType": "contract ISafe",
          "name": "safe",
          "type": "address"
        },
        {
          "indexed": false,
          "internalType": "bytes32",
          "name": "domainSeparator",
          "type": "bytes32"
        },
        {
          "indexed": false,
          "internalType": "contract ISafeSignatureVerifier",
          "name": "oldVerifier",
          "type": "address"
        },
        {
          "indexed": false,
          "internalType": "contract ISafeSignatureVerifier",
          "name": "newVerifier",
          "type": "address"
        }
      ],
      "name": "ChangedDomainVerifier",
      "type": "event"
    },
    {
      "anonymous": false,
      "inputs": [
        {
          "indexed": true,
          "internalType": "contract ISafe",
          "name": "safe",
          "type": "address"
        },
        {
          "indexed": false,
          "internalType": "bytes4",
          "name": "selector",
          "type": "bytes4"
        },
        {
          "indexed": false,
          "internalType": "bytes32",
          "name": "oldMethod",
          "type": "bytes32"
        },
        {
          "indexed": false,
          "internalType": "bytes32",
          "name": "newMethod",
          "type": "bytes32"
        }
      ],
      "name": "ChangedSafeMethod",
      "type": "event"
    },
    {
      "anonymous": false,
      "inputs": [
        {
          "indexed": true,
          "internalType": "contract ISafe",
          "name": "safe",
          "type": "address"
        },
        {
          "indexed": false,
          "internalType": "bytes4",
          "name": "interfaceId",
          "type": "bytes4"
        }
      ],
      "name": "RemovedInterface",
      "type": "event"
    },
    {
      "stateMutability": "nonpayable",
      "type": "fallback"
    },
    {
      "inputs": [
        {
          "internalType": "bytes4",
          "name": "_interfaceId",
          "type": "bytes4"
        },
        {
          "internalType": "bytes32[]",
          "name": "handlerWithSelectors",
          "type": "bytes32[]"
        }
      ],
      "name": "addSupportedInterfaceBatch",
      "outputs": [],
      "stateMutability": "nonpayable",
      "type": "function"
    },
    {
      "inputs": [
        {
          "internalType": "contract ISafe",
          "name": "",
          "type": "address"
        },
        {
          "internalType": "bytes32",
          "name": "",
          "type": "bytes32"
        }
      ],
      "name": "domainVerifiers",
      "outputs": [
        {
          "internalType": "contract ISafeSignatureVerifier",
          "name": "",
          "type": "address"
        }
      ],
      "stateMutability": "view",
      "type": "function"
    },
    {
      "inputs": [
        {
          "internalType": "bytes32",
          "name": "_hash",
          "type": "bytes32"
        },
        {
          "internalType": "bytes",
          "name": "signature",
          "type": "bytes"
        }
      ],
      "name": "isValidSignature",
      "outputs": [
        {
          "internalType": "bytes4",
          "name": "magic",
          "type": "bytes4"
        }
      ],
      "stateMutability": "view",
      "type": "function"
    },
    {
      "inputs": [
        {
          "internalType": "address",
          "name": "",
          "type": "address"
        },
        {
          "internalType": "address",
          "name": "",
          "type": "address"
        },
        {
          "internalType": "uint256[]",
          "name": "",
          "type": "uint256[]"
        },
        {
          "internalType": "uint256[]",
          "name": "",
          "type": "uint256[]"
        },
        {
          "internalType": "bytes",
          "name": "",
          "type": "bytes"
        }
      ],
      "name": "onERC1155BatchReceived",
      "outputs": [
        {
          "internalType": "bytes4",
          "name": "",
          "type": "bytes4"
        }
      ],
      "stateMutability": "view",
      "type": "function"
    },
    {
      "inputs": [
        {
          "internalType": "address",
          "name": "",
          "type": "address"
        },
        {
          "internalType": "address",
          "name": "",
          "type": "address"
        },
        {
          "internalType": "uint256",
          "name": "",
          "type": "uint256"
        },
        {
          "internalType": "uint256",
          "name": "",
          "type": "uint256"
        },
        {
          "internalType": "bytes",
          "name": "",
          "type": "bytes"
        }
      ],
      "name": "onERC1155Received",
      "outputs": [
        {
          "internalType": "bytes4",
          "name": "",
          "type": "bytes4"
        }
      ],
      "stateMutability": "view",
      "type": "function"
    },
    {
      "inputs": [
        {
          "internalType": "address",
          "name": "",
          "type": "address"
        },
        {
          "internalType": "address",
          "name": "",
          "type": "address"
        },
        {
          "internalType": "uint256",
          "name": "",
          "type": "uint256"
        },
        {
          "internalType": "bytes",
          "name": "",
          "type": "bytes"
        }
      ],
      "name": "onERC721Received",
      "outputs": [
        {
          "internalType": "bytes4",
          "name": "",
          "type": "bytes4"
        }
      ],
      "stateMutability": "view",
      "type": "function"
    },
    {
      "inputs": [
        {
          "internalType": "bytes4",
          "name": "_interfaceId",
          "type": "bytes4"
        },
        {
          "internalType": "bytes4[]",
          "name": "selectors",
          "type": "bytes4[]"
        }
      ],
      "name": "removeSupportedInterfaceBatch",
      "outputs": [],
      "stateMutability": "nonpayable",
      "type": "function"
    },
    {
      "inputs": [
        {
          "internalType": "contract ISafe",
          "name": "",
          "type": "address"
        },
        {
          "internalType": "bytes4",
          "name": "",
          "type": "bytes4"
        }
      ],
      "name": "safeInterfaces",
      "outputs": [
        {
          "internalType": "bool",
          "name": "",
          "type": "bool"
        }
      ],
      "stateMutability": "view",
      "type": "function"
    },
    {
      "inputs": [
        {
          "internalType": "contract ISafe",
          "name": "",
          "type": "address"
        },
        {
          "internalType": "bytes4",
          "name": "",
          "type": "bytes4"
        }
      ],
      "name": "safeMethods",
      "outputs": [
        {
          "internalType": "bytes32",
          "name": "",
          "type": "bytes32"
        }
      ],
      "stateMutability": "view",
      "type": "function"
    },
    {
      "inputs": [
        {
          "internalType": "bytes32",
          "name": "domainSeparator",
          "type": "bytes32"
        },
        {
          "internalType": "contract ISafeSignatureVerifier",
          "name": "newVerifier",
          "type": "address"
        }
      ],
      "name": "setDomainVerifier",
      "outputs": [],
      "stateMutability": "nonpayable",
      "type": "function"
    },
    {
      "inputs": [
        {
          "internalType": "bytes4",
          "name": "selector",
          "type": "bytes4"
        },
        {
          "internalType": "bytes32",
          "name": "newMethod",
          "type": "bytes32"
        }
      ],
      "name": "setSafeMethod",
      "outputs": [],
      "stateMutability": "nonpayable",
      "type": "function"
    },
    {
      "inputs": [
        {
          "internalType": "bytes4",
          "name": "interfaceId",
          "type": "bytes4"
        },
        {
          "internalType": "bool",
          "name": "supported",
          "type": "bool"
        }
      ],
      "name": "setSupportedInterface",
      "outputs": [],
      "stateMutability": "nonpayable",
      "type": "function"
    },
    {
      "inputs": [
        {
          "internalType": "bytes4",
          "name": "interfaceId",
          "type": "bytes4"
        }
      ],
      "name": "supportsInterface",
      "outputs": [
        {
          "internalType": "bool",
          "name": "",
          "type": "bool"
        }
      ],
      "stateMutability": "view",
      "type": "function"
    }
  ],
  "bytecode": "0x6080604052348015600e575f5ffd5b506130978061001c5f395ff3fe608060405234801561000f575f5ffd5b50600436106100d1575f3560e01c806351cad5ee1161008a5780637f73528b116100645780637f73528b14610463578063b435a13b1461047f578063bc197c81146104af578063f23a6e61146104df576100d2565b806351cad5ee146103fb57806361f5401b1461042b57806364f95acc14610447576100d2565b806301ffc9a7146103035780630a3fe05414610333578063150b7a02146103635780631626ba7e14610393578063327b533c146103c35780633365582c146103df576100d2565b5b5f36606060185f369050101561011d576040517f08c379a000000000000000000000000000000000000000000000000000000000815260040161011490611c32565b60405180910390fd5b5f5f5f5f61012961050f565b93509350935093505f73ffffffffffffffffffffffffffffffffffffffff168173ffffffffffffffffffffffffffffffffffffffff160361019f576040517f08c379a000000000000000000000000000000000000000000000000000000000815260040161019690611c9a565b60405180910390fd5b811561024e578073ffffffffffffffffffffffffffffffffffffffff166325d6803f85855f5f365f9060145f3690506101d89190611cee565b926101e593929190611d32565b6040518663ffffffff1660e01b8152600401610205959493929190611e99565b5f60405180830381865afa15801561021f573d5f5f3e3d5ffd5b505050506040513d5f823e3d601f19601f820116820180604052508101906102479190612019565b94506102f4565b8073ffffffffffffffffffffffffffffffffffffffff166325d6803f85855f5f365f9060145f3690506102819190611cee565b9261028e93929190611d32565b6040518663ffffffff1660e01b81526004016102ae959493929190611e99565b5f604051808303815f875af11580156102c9573d5f5f3e3d5ffd5b505050506040513d5f823e3d601f19601f820116820180604052508101906102f19190612019565b94505b50505050915050805190602001f35b61031d600480360381019061031891906120b5565b6105e6565b60405161032a91906120fa565b60405180910390f35b61034d6004803603810190610348919061215f565b61076c565b60405161035a91906121b5565b60405180910390f35b61037d6004803603810190610378919061227f565b61078b565b60405161038a9190612312565b60405180910390f35b6103ad60048036038101906103a89190612355565b6107a7565b6040516103ba9190612312565b60405180910390f35b6103dd60048036038101906103d89190612407565b610a22565b005b6103f960048036038101906103f4919061249f565b610baa565b005b610415600480360381019061041091906124dd565b610d82565b604051610422919061254c565b60405180910390f35b610445600480360381019061044091906125ba565b610dbf565b005b610461600480360381019061045c9190612617565b610f5f565b005b61047d6004803603810190610478919061267f565b610ff1565b005b6104996004803603810190610494919061215f565b61129e565b6040516104a691906120fa565b60405180910390f35b6104c960048036038101906104c49190612712565b6112c8565b6040516104d69190612312565b60405180910390f35b6104f960048036038101906104f491906127e9565b6112e7565b6040516105069190612312565b60405180910390f35b5f5f5f5f61051b611304565b80945081955050506105d85f5f8673ffffffffffffffffffffffffffffffffffffffff1673ffffffffffffffffffffffffffffffffffffffff1681526020019081526020015f205f5f357fffffffff00000000000000000000000000000000000000000000000000000000167bffffffffffffffffffffffffffffffffffffffffffffffffffffffff19167bffffffffffffffffffffffffffffffffffffffffffffffffffffffff191681526020019081526020015f205461131e565b809250819350505090919293565b5f7f01ffc9a7000000000000000000000000000000000000000000000000000000007bffffffffffffffffffffffffffffffffffffffffffffffffffffffff1916827bffffffffffffffffffffffffffffffffffffffffffffffffffffffff191614806106b057507f98c8e097000000000000000000000000000000000000000000000000000000007bffffffffffffffffffffffffffffffffffffffffffffffffffffffff1916827bffffffffffffffffffffffffffffffffffffffffffffffffffffffff1916145b806106c057506106bf82611345565b5b80610765575060025f6106d16115b6565b73ffffffffffffffffffffffffffffffffffffffff1673ffffffffffffffffffffffffffffffffffffffff1681526020019081526020015f205f837bffffffffffffffffffffffffffffffffffffffffffffffffffffffff19167bffffffffffffffffffffffffffffffffffffffffffffffffffffffff191681526020019081526020015f205f9054906101000a900460ff165b9050919050565b5f602052815f5260405f20602052805f5260405f205f91509150505481565b5f6107946115bd565b63150b7a0260e01b905095945050505050565b5f5f5f6107b2611304565b91509150600485859050106109c8575f85359050635fd7e97d60e01b7bffffffffffffffffffffffffffffffffffffffffffffffffffffffff1916817bffffffffffffffffffffffffffffffffffffffffffffffffffffffff191614801561081e575060448686905010155b156109c6575f5f878760049060449261083993929190611d32565b810190610846919061287f565b915091505f60015f8773ffffffffffffffffffffffffffffffffffffffff1673ffffffffffffffffffffffffffffffffffffffff1681526020019081526020015f205f8481526020019081526020015f205f9054906101000a900473ffffffffffffffffffffffffffffffffffffffff1690505f73ffffffffffffffffffffffffffffffffffffffff168173ffffffffffffffffffffffffffffffffffffffff16146109c2575f5f8a8a600490809261090193929190611d32565b81019061090e919061292b565b9350935050508b6109208686856116eb565b80519060200120036109bf578273ffffffffffffffffffffffffffffffffffffffff166353f00b1489898f898988886040518863ffffffff1660e01b81526004016109719796959493929190612a09565b602060405180830381865afa15801561098c573d5f5f3e3d5ffd5b505050506040513d601f19601f820116820180604052508101906109b09190612a98565b98505050505050505050610a1b565b50505b5050505b505b610a16828787878080601f0160208091040260200160405190810160405280939291908181526020018383808284375f81840152601f19601f8201169050808301925050505050505061174c565b925050505b9392505050565b610a2a6115b6565b73ffffffffffffffffffffffffffffffffffffffff16610a4861197c565b73ffffffffffffffffffffffffffffffffffffffff1614610a9e576040517f08c379a0000000000000000000000000000000000000000000000000000000008152600401610a9590612b0d565b60405180910390fd5b5f610aa761197c565b90505f5f60e01b90505f8484905090505f5f90505b81811015610b16575f5f5f610ae9898986818110610add57610adc612b2b565b5b905060200201356119d1565b925092509250610b038783610afe8685611a04565b611a54565b8186189550505050806001019050610abc565b50857bffffffffffffffffffffffffffffffffffffffffffffffffffffffff1916827bffffffffffffffffffffffffffffffffffffffffffffffffffffffff191614610b97576040517f08c379a0000000000000000000000000000000000000000000000000000000008152600401610b8e90612ba2565b60405180910390fd5b610ba2866001610ff1565b505050505050565b610bb26115b6565b73ffffffffffffffffffffffffffffffffffffffff16610bd061197c565b73ffffffffffffffffffffffffffffffffffffffff1614610c26576040517f08c379a0000000000000000000000000000000000000000000000000000000008152600401610c1d90612b0d565b60405180910390fd5b5f610c2f61197c565b90505f60015f8373ffffffffffffffffffffffffffffffffffffffff1673ffffffffffffffffffffffffffffffffffffffff1681526020019081526020015f205f8581526020019081526020015f205f9054906101000a900473ffffffffffffffffffffffffffffffffffffffff1690508260015f8473ffffffffffffffffffffffffffffffffffffffff1673ffffffffffffffffffffffffffffffffffffffff1681526020019081526020015f205f8681526020019081526020015f205f6101000a81548173ffffffffffffffffffffffffffffffffffffffff021916908373ffffffffffffffffffffffffffffffffffffffff1602179055508173ffffffffffffffffffffffffffffffffffffffff167f06341ac2f62eb79165de8c8b54ab89a8825b12746c2b98e01dff1007837d2ba8858386604051610d7493929190612bc0565b60405180910390a250505050565b6001602052815f5260405f20602052805f5260405f205f915091509054906101000a900473ffffffffffffffffffffffffffffffffffffffff1681565b610dc76115b6565b73ffffffffffffffffffffffffffffffffffffffff16610de561197c565b73ffffffffffffffffffffffffffffffffffffffff1614610e3b576040517f08c379a0000000000000000000000000000000000000000000000000000000008152600401610e3290612b0d565b60405180910390fd5b5f610e4461197c565b90505f5f60e01b90505f8484905090505f5f90505b81811015610ecc57610e9584878784818110610e7857610e77612b2b565b5b9050602002016020810190610e8d91906120b5565b5f5f1b611a54565b858582818110610ea857610ea7612b2b565b5b9050602002016020810190610ebd91906120b5565b83189250806001019050610e59565b50857bffffffffffffffffffffffffffffffffffffffffffffffffffffffff1916827bffffffffffffffffffffffffffffffffffffffffffffffffffffffff191614610f4d576040517f08c379a0000000000000000000000000000000000000000000000000000000008152600401610f4490612ba2565b60405180910390fd5b610f57865f610ff1565b505050505050565b610f676115b6565b73ffffffffffffffffffffffffffffffffffffffff16610f8561197c565b73ffffffffffffffffffffffffffffffffffffffff1614610fdb576040517f08c379a0000000000000000000000000000000000000000000000000000000008152600401610fd290612b0d565b60405180910390fd5b610fed610fe661197c565b8383611a54565b5050565b610ff96115b6565b73ffffffffffffffffffffffffffffffffffffffff1661101761197c565b73ffffffffffffffffffffffffffffffffffffffff161461106d576040517f08c379a000000000000000000000000000000000000000000000000000000000815260040161106490612b0d565b60405180910390fd5b5f6110766115b6565b905063ffffffff60e01b837bffffffffffffffffffffffffffffffffffffffffffffffffffffffff1916036110e0576040517f08c379a00000000000000000000000000000000000000000000000000000000081526004016110d790612c3f565b60405180910390fd5b5f60025f8373ffffffffffffffffffffffffffffffffffffffff1673ffffffffffffffffffffffffffffffffffffffff1681526020019081526020015f2090505f815f867bffffffffffffffffffffffffffffffffffffffffffffffffffffffff19167bffffffffffffffffffffffffffffffffffffffffffffffffffffffff191681526020019081526020015f205f9054906101000a900460ff169050801515841515146112975783825f877bffffffffffffffffffffffffffffffffffffffffffffffffffffffff19167bffffffffffffffffffffffffffffffffffffffffffffffffffffffff191681526020019081526020015f205f6101000a81548160ff0219169083151502179055508315611247578273ffffffffffffffffffffffffffffffffffffffff167f3d5024c13f12fa602dbf52b1979058940c224ebf170c83a4e358725ae50db36d8660405161123a9190612312565b60405180910390a2611296565b8273ffffffffffffffffffffffffffffffffffffffff167ff159d834f487747c1b3f17e2107743e42e6eecff444d894e511c18943072b29f8660405161128d9190612312565b60405180910390a25b5b5050505050565b6002602052815f5260405f20602052805f5260405f205f915091509054906101000a900460ff1681565b5f6112d16115bd565b63bc197c8160e01b905098975050505050505050565b5f6112f06115bd565b63f23a6e6160e01b90509695505050505050565b5f5f61130e6115b6565b915061131861197c565b90509091565b5f5f8260f81c15915073ffffffffffffffffffffffffffffffffffffffff83169050915091565b5f7f150b7a02000000000000000000000000000000000000000000000000000000007bffffffffffffffffffffffffffffffffffffffffffffffffffffffff1916827bffffffffffffffffffffffffffffffffffffffffffffffffffffffff1916148061140f57507f4e2312e0000000000000000000000000000000000000000000000000000000007bffffffffffffffffffffffffffffffffffffffffffffffffffffffff1916827bffffffffffffffffffffffffffffffffffffffffffffffffffffffff1916145b8061147757507f1626ba7e000000000000000000000000000000000000000000000000000000007bffffffffffffffffffffffffffffffffffffffffffffffffffffffff1916827bffffffffffffffffffffffffffffffffffffffffffffffffffffffff1916145b806114df57507f62af8dc2000000000000000000000000000000000000000000000000000000007bffffffffffffffffffffffffffffffffffffffffffffffffffffffff1916827bffffffffffffffffffffffffffffffffffffffffffffffffffffffff1916145b8061154757507f99372930000000000000000000000000000000000000000000000000000000007bffffffffffffffffffffffffffffffffffffffffffffffffffffffff1916827bffffffffffffffffffffffffffffffffffffffffffffffffffffffff1916145b806115af57507f64f95acc000000000000000000000000000000000000000000000000000000007bffffffffffffffffffffffffffffffffffffffffffffffffffffffff1916827bffffffffffffffffffffffffffffffffffffffffffffffffffffffff1916145b9050919050565b5f33905090565b5f3373ffffffffffffffffffffffffffffffffffffffff16635624b25b7f6c9a6c4a39284e37ed1cf53d337577d14212a4870fb976a4366c693b939918d55f1b5f1c60016040518363ffffffff1660e01b815260040161161e929190612ca5565b5f60405180830381865afa158015611638573d5f5f3e3d5ffd5b505050506040513d5f823e3d601f19601f820116820180604052508101906116609190612019565b90505f818060200190518101906116779190612cf6565b90503073ffffffffffffffffffffffffffffffffffffffff168173ffffffffffffffffffffffffffffffffffffffff16146116e7576040517f08c379a00000000000000000000000000000000000000000000000000000000081526004016116de90612d6b565b60405180910390fd5b5050565b6060601960f81b600160f81b85858560405160200161170b929190612de3565b604051602081830303815290604052805190602001206040516020016117349493929190612e55565b60405160208183030381529060405290509392505050565b5f5f61182c8573ffffffffffffffffffffffffffffffffffffffff1663f698da256040518163ffffffff1660e01b8152600401602060405180830381865afa15801561179a573d5f5f3e3d5ffd5b505050506040513d601f19601f820116820180604052508101906117be9190612eb6565b7f60b3cbf8b4a223d68d641b3b6ddf9a298e7f33710cf3d3a9d1146b5a6150fbca5f1b866040516020016117f291906121b5565b6040516020818303038152906040528051906020012060405160200161181891906121b5565b6040516020818303038152906040526116eb565b90505f818051906020012090505f8451036118ff575f8673ffffffffffffffffffffffffffffffffffffffff16635ae6bd37836040518263ffffffff1660e01b815260040161187b91906121b5565b602060405180830381865afa158015611896573d5f5f3e3d5ffd5b505050506040513d601f19601f820116820180604052508101906118ba9190612ef5565b036118fa576040517f08c379a00000000000000000000000000000000000000000000000000000000081526004016118f190612f6a565b60405180910390fd5b611969565b8573ffffffffffffffffffffffffffffffffffffffff1663f855438b5f83876040518463ffffffff1660e01b815260040161193c93929190612f88565b5f6040518083038186803b158015611952575f5ffd5b505afa158015611964573d5f5f3e3d5ffd5b505050505b631626ba7e60e01b925050509392505050565b5f60145f36905010156119c4576040517f08c379a00000000000000000000000000000000000000000000000000000000081526004016119bb9061300e565b60405180910390fd5b601436033560601c905090565b5f5f5f8360f81c15925073ffffffffffffffffffffffffffffffffffffffff841690508360a01c60a81b91509193909250565b5f82611a30577f0100000000000000000000000000000000000000000000000000000000000000611a32565b5f5b8273ffffffffffffffffffffffffffffffffffffffff16175f1b905092915050565b5f5f5f8573ffffffffffffffffffffffffffffffffffffffff1673ffffffffffffffffffffffffffffffffffffffff1681526020019081526020015f2090505f815f857bffffffffffffffffffffffffffffffffffffffffffffffffffffffff19167bffffffffffffffffffffffffffffffffffffffffffffffffffffffff191681526020019081526020015f205490505f611aef8461131e565b9150505f73ffffffffffffffffffffffffffffffffffffffff168173ffffffffffffffffffffffffffffffffffffffff1603611b2b575f5f1b93505b83835f877bffffffffffffffffffffffffffffffffffffffffffffffffffffffff19167bffffffffffffffffffffffffffffffffffffffffffffffffffffffff191681526020019081526020015f20819055508573ffffffffffffffffffffffffffffffffffffffff167fe6e8ad7e5547dc860775f9f0638e195a4751a4cfbb7fd2ab60a52eb6c07082ec868487604051611bc89392919061302c565b60405180910390a2505050505050565b5f82825260208201905092915050565b7f696e76616c6964206d6574686f642073656c6563746f720000000000000000005f82015250565b5f611c1c601783611bd8565b9150611c2782611be8565b602082019050919050565b5f6020820190508181035f830152611c4981611c10565b9050919050565b7f6d6574686f642068616e646c6572206e6f7420736574000000000000000000005f82015250565b5f611c84601683611bd8565b9150611c8f82611c50565b602082019050919050565b5f6020820190508181035f830152611cb181611c78565b9050919050565b5f819050919050565b7f4e487b71000000000000000000000000000000000000000000000000000000005f52601160045260245ffd5b5f611cf882611cb8565b9150611d0383611cb8565b9250828203905081811115611d1b57611d1a611cc1565b5b92915050565b5f604051905090565b5f5ffd5b5f5ffd5b5f5f85851115611d4557611d44611d2a565b5b83861115611d5657611d55611d2e565b5b6001850283019150848603905094509492505050565b5f73ffffffffffffffffffffffffffffffffffffffff82169050919050565b5f819050919050565b5f611dae611da9611da484611d6c565b611d8b565b611d6c565b9050919050565b5f611dbf82611d94565b9050919050565b5f611dd082611db5565b9050919050565b611de081611dc6565b82525050565b5f611df082611d6c565b9050919050565b611e0081611de6565b82525050565b5f819050919050565b5f611e29611e24611e1f84611e06565b611d8b565b611cb8565b9050919050565b611e3981611e0f565b82525050565b5f82825260208201905092915050565b828183375f83830152505050565b5f601f19601f8301169050919050565b5f611e788385611e3f565b9350611e85838584611e4f565b611e8e83611e5d565b840190509392505050565b5f608082019050611eac5f830188611dd7565b611eb96020830187611df7565b611ec66040830186611e30565b8181036060830152611ed9818486611e6d565b90509695505050505050565b5f5ffd5b5f5ffd5b5f5ffd5b5f5ffd5b7f4e487b71000000000000000000000000000000000000000000000000000000005f52604160045260245ffd5b611f2b82611e5d565b810181811067ffffffffffffffff82111715611f4a57611f49611ef5565b5b80604052505050565b5f611f5c611d21565b9050611f688282611f22565b919050565b5f67ffffffffffffffff821115611f8757611f86611ef5565b5b611f9082611e5d565b9050602081019050919050565b8281835e5f83830152505050565b5f611fbd611fb884611f6d565b611f53565b905082815260208101848484011115611fd957611fd8611ef1565b5b611fe4848285611f9d565b509392505050565b5f82601f83011261200057611fff611eed565b5b8151612010848260208601611fab565b91505092915050565b5f6020828403121561202e5761202d611ee5565b5b5f82015167ffffffffffffffff81111561204b5761204a611ee9565b5b61205784828501611fec565b91505092915050565b5f7fffffffff0000000000000000000000000000000000000000000000000000000082169050919050565b61209481612060565b811461209e575f5ffd5b50565b5f813590506120af8161208b565b92915050565b5f602082840312156120ca576120c9611ee5565b5b5f6120d7848285016120a1565b91505092915050565b5f8115159050919050565b6120f4816120e0565b82525050565b5f60208201905061210d5f8301846120eb565b92915050565b5f61211d82611d6c565b9050919050565b5f61212e82612113565b9050919050565b61213e81612124565b8114612148575f5ffd5b50565b5f8135905061215981612135565b92915050565b5f5f6040838503121561217557612174611ee5565b5b5f6121828582860161214b565b9250506020612193858286016120a1565b9150509250929050565b5f819050919050565b6121af8161219d565b82525050565b5f6020820190506121c85f8301846121a6565b92915050565b6121d781611de6565b81146121e1575f5ffd5b50565b5f813590506121f2816121ce565b92915050565b61220181611cb8565b811461220b575f5ffd5b50565b5f8135905061221c816121f8565b92915050565b5f5ffd5b5f5ffd5b5f5f83601f84011261223f5761223e611eed565b5b8235905067ffffffffffffffff81111561225c5761225b612222565b5b60208301915083600182028301111561227857612277612226565b5b9250929050565b5f5f5f5f5f6080868803121561229857612297611ee5565b5b5f6122a5888289016121e4565b95505060206122b6888289016121e4565b94505060406122c78882890161220e565b935050606086013567ffffffffffffffff8111156122e8576122e7611ee9565b5b6122f48882890161222a565b92509250509295509295909350565b61230c81612060565b82525050565b5f6020820190506123255f830184612303565b92915050565b6123348161219d565b811461233e575f5ffd5b50565b5f8135905061234f8161232b565b92915050565b5f5f5f6040848603121561236c5761236b611ee5565b5b5f61237986828701612341565b935050602084013567ffffffffffffffff81111561239a57612399611ee9565b5b6123a68682870161222a565b92509250509250925092565b5f5f83601f8401126123c7576123c6611eed565b5b8235905067ffffffffffffffff8111156123e4576123e3612222565b5b602083019150836020820283011115612400576123ff612226565b5b9250929050565b5f5f5f6040848603121561241e5761241d611ee5565b5b5f61242b868287016120a1565b935050602084013567ffffffffffffffff81111561244c5761244b611ee9565b5b612458868287016123b2565b92509250509250925092565b5f61246e82611de6565b9050919050565b61247e81612464565b8114612488575f5ffd5b50565b5f8135905061249981612475565b92915050565b5f5f604083850312156124b5576124b4611ee5565b5b5f6124c285828601612341565b92505060206124d38582860161248b565b9150509250929050565b5f5f604083850312156124f3576124f2611ee5565b5b5f6125008582860161214b565b925050602061251185828601612341565b9150509250929050565b5f61252582611d94565b9050919050565b5f6125368261251b565b9050919050565b6125468161252c565b82525050565b5f60208201905061255f5f83018461253d565b92915050565b5f5f83601f84011261257a57612579611eed565b5b8235905067ffffffffffffffff81111561259757612596612222565b5b6020830191508360208202830111156125b3576125b2612226565b5b9250929050565b5f5f5f604084860312156125d1576125d0611ee5565b5b5f6125de868287016120a1565b935050602084013567ffffffffffffffff8111156125ff576125fe611ee9565b5b61260b86828701612565565b92509250509250925092565b5f5f6040838503121561262d5761262c611ee5565b5b5f61263a858286016120a1565b925050602061264b85828601612341565b9150509250929050565b61265e816120e0565b8114612668575f5ffd5b50565b5f8135905061267981612655565b92915050565b5f5f6040838503121561269557612694611ee5565b5b5f6126a2858286016120a1565b92505060206126b38582860161266b565b9150509250929050565b5f5f83601f8401126126d2576126d1611eed565b5b8235905067ffffffffffffffff8111156126ef576126ee612222565b5b60208301915083602082028301111561270b5761270a612226565b5b9250929050565b5f5f5f5f5f5f5f5f60a0898b03121561272e5761272d611ee5565b5b5f61273b8b828c016121e4565b985050602061274c8b828c016121e4565b975050604089013567ffffffffffffffff81111561276d5761276c611ee9565b5b6127798b828c016126bd565b9650965050606089013567ffffffffffffffff81111561279c5761279b611ee9565b5b6127a88b828c016126bd565b9450945050608089013567ffffffffffffffff8111156127cb576127ca611ee9565b5b6127d78b828c0161222a565b92509250509295985092959890939650565b5f5f5f5f5f5f60a0878903121561280357612802611ee5565b5b5f61281089828a016121e4565b965050602061282189828a016121e4565b955050604061283289828a0161220e565b945050606061284389828a0161220e565b935050608087013567ffffffffffffffff81111561286457612863611ee9565b5b61287089828a0161222a565b92509250509295509295509295565b5f5f6040838503121561289557612894611ee5565b5b5f6128a285828601612341565b92505060206128b385828601612341565b9150509250929050565b5f6128cf6128ca84611f6d565b611f53565b9050828152602081018484840111156128eb576128ea611ef1565b5b6128f6848285611e4f565b509392505050565b5f82601f83011261291257612911611eed565b5b81356129228482602086016128bd565b91505092915050565b5f5f5f5f6080858703121561294357612942611ee5565b5b5f61295087828801612341565b945050602061296187828801612341565b935050604085013567ffffffffffffffff81111561298257612981611ee9565b5b61298e878288016128fe565b925050606085013567ffffffffffffffff8111156129af576129ae611ee9565b5b6129bb878288016128fe565b91505092959194509250565b5f81519050919050565b5f6129db826129c7565b6129e58185611e3f565b93506129f5818560208601611f9d565b6129fe81611e5d565b840191505092915050565b5f60e082019050612a1c5f83018a611dd7565b612a296020830189611df7565b612a3660408301886121a6565b612a4360608301876121a6565b612a5060808301866121a6565b81810360a0830152612a6281856129d1565b905081810360c0830152612a7681846129d1565b905098975050505050505050565b5f81519050612a928161208b565b92915050565b5f60208284031215612aad57612aac611ee5565b5b5f612aba84828501612a84565b91505092915050565b7f6f6e6c7920736166652063616e2063616c6c2074686973206d6574686f6400005f82015250565b5f612af7601e83611bd8565b9150612b0282612ac3565b602082019050919050565b5f6020820190508181035f830152612b2481612aeb565b9050919050565b7f4e487b71000000000000000000000000000000000000000000000000000000005f52603260045260245ffd5b7f696e74657266616365206964206d69736d6174636800000000000000000000005f82015250565b5f612b8c601583611bd8565b9150612b9782612b58565b602082019050919050565b5f6020820190508181035f830152612bb981612b80565b9050919050565b5f606082019050612bd35f8301866121a6565b612be0602083018561253d565b612bed604083018461253d565b949350505050565b7f696e76616c696420696e746572666163652069640000000000000000000000005f82015250565b5f612c29601483611bd8565b9150612c3482612bf5565b602082019050919050565b5f6020820190508181035f830152612c5681612c1d565b9050919050565b612c6681611cb8565b82525050565b5f819050919050565b5f612c8f612c8a612c8584612c6c565b611d8b565b611cb8565b9050919050565b612c9f81612c75565b82525050565b5f604082019050612cb85f830185612c5d565b612cc56020830184612c96565b9392505050565b612cd581612113565b8114612cdf575f5ffd5b50565b5f81519050612cf081612ccc565b92915050565b5f60208284031215612d0b57612d0a611ee5565b5b5f612d1884828501612ce2565b91505092915050565b7f6e6f7420612066616c6c6261636b2063616c6c000000000000000000000000005f82015250565b5f612d55601383611bd8565b9150612d6082612d21565b602082019050919050565b5f6020820190508181035f830152612d8281612d49565b9050919050565b5f819050919050565b612da3612d9e8261219d565b612d89565b82525050565b5f81905092915050565b5f612dbd826129c7565b612dc78185612da9565b9350612dd7818560208601611f9d565b80840191505092915050565b5f612dee8285612d92565b602082019150612dfe8284612db3565b91508190509392505050565b5f7fff0000000000000000000000000000000000000000000000000000000000000082169050919050565b5f819050919050565b612e4f612e4a82612e0a565b612e35565b82525050565b5f612e608287612e3e565b600182019150612e708286612e3e565b600182019150612e808285612d92565b602082019150612e908284612d92565b60208201915081905095945050505050565b5f81519050612eb08161232b565b92915050565b5f60208284031215612ecb57612eca611ee5565b5b5f612ed884828501612ea2565b91505092915050565b5f81519050612eef816121f8565b92915050565b5f60208284031215612f0a57612f09611ee5565b5b5f612f1784828501612ee1565b91505092915050565b7f48617368206e6f7420617070726f7665640000000000000000000000000000005f82015250565b5f612f54601183611bd8565b9150612f5f82612f20565b602082019050919050565b5f6020820190508181035f830152612f8181612f48565b9050919050565b5f606082019050612f9b5f830186611df7565b612fa860208301856121a6565b8181036040830152612fba81846129d1565b9050949350505050565b7f496e76616c69642063616c6c64617461206c656e6774680000000000000000005f82015250565b5f612ff8601783611bd8565b915061300382612fc4565b602082019050919050565b5f6020820190508181035f83015261302581612fec565b9050919050565b5f60608201905061303f5f830186612303565b61304c60208301856121a6565b61305960408301846121a6565b94935050505056fea2646970667358221220f1e54709a215c00fd86c385c11fa8edc3468bc95f961e8eb1e4104f71e39669664736f6c634300081c0033",
  "linkReferences": {},
  "deployedLinkReferences": {},
  "immutableReferences": {},
  "inputSourceName": "project/contracts/handler/ExtensibleFallbackHandler.sol",
  "buildInfoId": "solc-0_8_28-ed2d128c3ac1e98a551cdd21051ecbf6dd081352"
}