{"project/contracts/examples/libraries/Migrate_1_3_0_to_1_2_0.sol":{"Migration":{"abi":[{"inputs":[{"internalType":"address","name":"targetSingleton","type":"address"}],"stateMutability":"nonpayable","type":"constructor"},{"anonymous":false,"inputs":[{"indexed":false,"internalType":"address","name":"singleton","type":"address"}],"name":"ChangedMasterCopy","type":"event"},{"inputs":[],"name":"MIGRATION_SINGLETON","outputs":[{"internalType":"address","name":"","type":"address"}],"stateMutability":"view","type":"function"},{"inputs":[],"name":"SAFE_120_SINGLETON","outputs":[{"internalType":"address","name":"","type":"address"}],"stateMutability":"view","type":"function"},{"inputs":[],"name":"migrate","outputs":[],"stateMutability":"nonpayable","type":"function"}],"evm":{"bytecode":{"linkReferences":{},"object":"60c060405234801561000f575f5ffd5b5060405161034838038061034883398101604081905261002e916100a8565b6001600160a01b0381166100935760405162461bcd60e51b815260206004820152602260248201527f496e76616c69642073696e676c65746f6e20616464726573732070726f766964604482015261195960f21b606482015260840160405180910390fd5b6001600160a01b031660a052306080526100d5565b5f602082840312156100b8575f5ffd5b81516001600160a01b03811681146100ce575f5ffd5b9392505050565b60805160a0516102476101015f395f81816048015261015b01525f8181608b015260c101526102475ff3fe608060405234801561000f575f5ffd5b506004361061003f575f3560e01c806310dfd5061461004357806372f7a956146100865780638fd3ab80146100ad575b5f5ffd5b61006a7f000000000000000000000000000000000000000000000000000000000000000081565b6040516001600160a01b03909116815260200160405180910390f35b61006a7f000000000000000000000000000000000000000000000000000000000000000081565b6100b56100b7565b005b6001600160a01b037f000000000000000000000000000000000000000000000000000000000000000016300361014c5760405162461bcd60e51b815260206004820152603060248201527f4d6967726174696f6e2073686f756c64206f6e6c792062652063616c6c65642060448201526f1d9a584819195b1959d85d1958d85b1b60821b606482015260840160405180910390fd5b5f80546001600160a01b0319167f00000000000000000000000000000000000000000000000000000000000000006001600160a01b0316179055604080517f035aff83d86937d35b32e04f0ddc6ff469290eef2f1b692d8a815c89404d47496020820152309181019190915260600160408051808303601f190181529082905280516020918201206006555f546001600160a01b031682527f75e41bc35ff1bf14d81d1d2f649c0084a0f974f9289c803ec9898eeec4c8d0b8910160405180910390a156fea264697066735822122031d4f5cd23de2547f3e4e5304833c335b9b6d6c7fe91f53beae7996d5e36f96764736f6c634300081c0033","opcodes":"PUSH1 0xC0 PUSH1 0x40 MSTORE CALLVALUE DUP1 ISZERO PUSH2 0xF JUMPI PUSH0 PUSH0 REVERT JUMPDEST POP PUSH1 0x40 MLOAD PUSH2 0x348 CODESIZE SUB DUP1 PUSH2 0x348 DUP4 CODECOPY DUP2 ADD PUSH1 0x40 DUP2 SWAP1 MSTORE PUSH2 0x2E SWAP2 PUSH2 0xA8 JUMP JUMPDEST PUSH1 0x1 PUSH1 0x1 PUSH1 0xA0 SHL SUB DUP2 AND PUSH2 0x93 JUMPI PUSH1 0x40 MLOAD PUSH3 0x461BCD PUSH1 0xE5 SHL DUP2 MSTORE PUSH1 0x20 PUSH1 0x4 DUP3 ADD MSTORE PUSH1 0x22 PUSH1 0x24 DUP3 ADD MSTORE PUSH32 0x496E76616C69642073696E676C65746F6E20616464726573732070726F766964 PUSH1 0x44 DUP3 ADD MSTORE PUSH2 0x1959 PUSH1 0xF2 SHL PUSH1 0x64 DUP3 ADD MSTORE PUSH1 0x84 ADD PUSH1 0x40 MLOAD DUP1 SWAP2 SUB SWAP1 REVERT JUMPDEST PUSH1 0x1 PUSH1 0x1 PUSH1 0xA0 SHL SUB AND PUSH1 0xA0 MSTORE ADDRESS PUSH1 0x80 MSTORE PUSH2 0xD5 JUMP JUMPDEST PUSH0 PUSH1 0x20 DUP3 DUP5 SUB SLT ISZERO PUSH2 0xB8 JUMPI PUSH0 PUSH0 REVERT JUMPDEST DUP2 MLOAD PUSH1 0x1 PUSH1 0x1 PUSH1 0xA0 SHL SUB DUP2 AND DUP2 EQ PUSH2 0xCE JUMPI PUSH0 PUSH0 REVERT JUMPDEST SWAP4 SWAP3 POP POP POP JUMP JUMPDEST PUSH1 0x80 MLOAD PUSH1 0xA0 MLOAD PUSH2 0x247 PUSH2 0x101 PUSH0 CODECOPY PUSH0 DUP2 DUP2 PUSH1 0x48 ADD MSTORE PUSH2 0x15B ADD MSTORE PUSH0 DUP2 DUP2 PUSH1 0x8B ADD MSTORE PUSH1 0xC1 ADD MSTORE PUSH2 0x247 PUSH0 RETURN INVALID PUSH1 0x80 PUSH1 0x40 MSTORE CALLVALUE DUP1 ISZERO PUSH2 0xF JUMPI PUSH0 PUSH0 REVERT JUMPDEST POP PUSH1 0x4 CALLDATASIZE LT PUSH2 0x3F JUMPI PUSH0 CALLDATALOAD PUSH1 0xE0 SHR DUP1 PUSH4 0x10DFD506 EQ PUSH2 0x43 JUMPI DUP1 PUSH4 0x72F7A956 EQ PUSH2 0x86 JUMPI DUP1 PUSH4 0x8FD3AB80 EQ PUSH2 0xAD JUMPI JUMPDEST PUSH0 PUSH0 REVERT JUMPDEST PUSH2 0x6A PUSH32 0x0 DUP2 JUMP JUMPDEST PUSH1 0x40 MLOAD PUSH1 0x1 PUSH1 0x1 PUSH1 0xA0 SHL SUB SWAP1 SWAP2 AND DUP2 MSTORE PUSH1 0x20 ADD PUSH1 0x40 MLOAD DUP1 SWAP2 SUB SWAP1 RETURN JUMPDEST PUSH2 0x6A PUSH32 0x0 DUP2 JUMP JUMPDEST PUSH2 0xB5 PUSH2 0xB7 JUMP JUMPDEST STOP JUMPDEST PUSH1 0x1 PUSH1 0x1 PUSH1 0xA0 SHL SUB PUSH32 0x0 AND ADDRESS SUB PUSH2 0x14C JUMPI PUSH1 0x40 MLOAD PUSH3 0x461BCD PUSH1 0xE5 SHL DUP2 MSTORE PUSH1 0x20 PUSH1 0x4 DUP3 ADD MSTORE PUSH1 0x30 PUSH1 0x24 DUP3 ADD MSTORE PUSH32 0x4D6967726174696F6E2073686F756C64206F6E6C792062652063616C6C656420 PUSH1 0x44 DUP3 ADD MSTORE PUSH16 0x1D9A584819195B1959D85D1958D85B1B PUSH1 0x82 SHL PUSH1 0x64 DUP3 ADD MSTORE PUSH1 0x84 ADD PUSH1 0x40 MLOAD DUP1 SWAP2 SUB SWAP1 REVERT JUMPDEST PUSH0 DUP1 SLOAD PUSH1 0x1 PUSH1 0x1 PUSH1 0xA0 SHL SUB NOT AND PUSH32 0x0 PUSH1 0x1 PUSH1 0x1 PUSH1 0xA0 SHL SUB AND OR SWAP1 SSTORE PUSH1 0x40 DUP1 MLOAD PUSH32 0x35AFF83D86937D35B32E04F0DDC6FF469290EEF2F1B692D8A815C89404D4749 PUSH1 0x20 DUP3 ADD MSTORE ADDRESS SWAP2 DUP2 ADD SWAP2 SWAP1 SWAP2 MSTORE PUSH1 0x60 ADD PUSH1 0x40 DUP1 MLOAD DUP1 DUP4 SUB PUSH1 0x1F NOT ADD DUP2 MSTORE SWAP1 DUP3 SWAP1 MSTORE DUP1 MLOAD PUSH1 0x20 SWAP2 DUP3 ADD KECCAK256 PUSH1 0x6 SSTORE PUSH0 SLOAD PUSH1 0x1 PUSH1 0x1 PUSH1 0xA0 SHL SUB AND DUP3 MSTORE PUSH32 0x75E41BC35FF1BF14D81D1D2F649C0084A0F974F9289C803EC9898EEEC4C8D0B8 SWAP2 ADD PUSH1 0x40 MLOAD DUP1 SWAP2 SUB SWAP1 LOG1 JUMP INVALID LOG2 PUSH5 0x6970667358 0x22 SLT KECCAK256 BALANCE 0xD4 CREATE2 0xCD 0x23 0xDE 0x25 SELFBALANCE RETURN 0xE4 0xE5 ADDRESS BASEFEE CALLER 0xC3 CALLDATALOAD 0xB9 0xB6 0xD6 0xC7 INVALID SWAP2 CREATE2 EXTCODESIZE 0xEA 0xE7 SWAP10 PUSH14 0x5E36F96764736F6C634300081C00 CALLER "},"methodIdentifiers":{"MIGRATION_SINGLETON()":"72f7a956","SAFE_120_SINGLETON()":"10dfd506","migrate()":"8fd3ab80"}}}}}