{"project/contracts/proxies/SafeProxyFactory.sol":{"SafeProxyFactory":{"abi":[{"anonymous":false,"inputs":[{"indexed":true,"internalType":"contract SafeProxy","name":"proxy","type":"address"},{"indexed":false,"internalType":"address","name":"singleton","type":"address"},{"indexed":false,"internalType":"bytes","name":"initializer","type":"bytes"},{"indexed":false,"internalType":"uint256","name":"saltNonce","type":"uint256"},{"indexed":false,"internalType":"uint256","name":"chainId","type":"uint256"}],"name":"ChainSpecificProxyCreationL2","type":"event"},{"anonymous":false,"inputs":[{"indexed":true,"internalType":"contract SafeProxy","name":"proxy","type":"address"},{"indexed":false,"internalType":"address","name":"singleton","type":"address"}],"name":"ProxyCreation","type":"event"},{"anonymous":false,"inputs":[{"indexed":true,"internalType":"contract SafeProxy","name":"proxy","type":"address"},{"indexed":false,"internalType":"address","name":"singleton","type":"address"},{"indexed":false,"internalType":"bytes","name":"initializer","type":"bytes"},{"indexed":false,"internalType":"uint256","name":"saltNonce","type":"uint256"}],"name":"ProxyCreationL2","type":"event"},{"inputs":[{"internalType":"address","name":"_singleton","type":"address"},{"internalType":"bytes","name":"initializer","type":"bytes"},{"internalType":"uint256","name":"saltNonce","type":"uint256"}],"name":"createChainSpecificProxyWithNonce","outputs":[{"internalType":"contract SafeProxy","name":"proxy","type":"address"}],"stateMutability":"nonpayable","type":"function"},{"inputs":[{"internalType":"address","name":"_singleton","type":"address"},{"internalType":"bytes","name":"initializer","type":"bytes"},{"internalType":"uint256","name":"saltNonce","type":"uint256"}],"name":"createChainSpecificProxyWithNonceL2","outputs":[{"internalType":"contract SafeProxy","name":"proxy","type":"address"}],"stateMutability":"nonpayable","type":"function"},{"inputs":[{"internalType":"address","name":"_singleton","type":"address"},{"internalType":"bytes","name":"initializer","type":"bytes"},{"internalType":"uint256","name":"saltNonce","type":"uint256"}],"name":"createProxyWithNonce","outputs":[{"internalType":"contract SafeProxy","name":"proxy","type":"address"}],"stateMutability":"nonpayable","type":"function"},{"inputs":[{"internalType":"address","name":"_singleton","type":"address"},{"internalType":"bytes","name":"initializer","type":"bytes"},{"internalType":"uint256","name":"saltNonce","type":"uint256"}],"name":"createProxyWithNonceL2","outputs":[{"internalType":"contract SafeProxy","name":"proxy","type":"address"}],"stateMutability":"nonpayable","type":"function"},{"inputs":[],"name":"getChainId","outputs":[{"internalType":"uint256","name":"","type":"uint256"}],"stateMutability":"view","type":"function"},{"inputs":[],"name":"proxyCreationCode","outputs":[{"internalType":"bytes","name":"","type":"bytes"}],"stateMutability":"pure","type":"function"}],"evm":{"bytecode":{"linkReferences":{},"object":"6080604052348015600e575f5ffd5b506107038061001c5f395ff3fe608060405234801561000f575f5ffd5b5060043610610060575f3560e01c80631688f0b9146100645780631a334b0b146100945780633408e470146100a75780634662f9d6146100b557806353e5d935146100c8578063ec9e80bb146100dd575b5f5ffd5b6100776100723660046103cb565b6100f0565b6040516001600160a01b0390911681526020015b60405180910390f35b6100776100a23660046103cb565b610184565b60405146815260200161008b565b6100776100c33660046103cb565b6101e0565b6100d061022b565b60405161008b91906104d3565b6100776100eb3660046103cb565b610255565b5f5f838051906020012083604051602001610115929190918252602082015260400190565b604051602081830303815290604052805190602001209050610138858583610286565b6040516001600160a01b038781168252919350908316907f4f51faf6c4561ff95f067657e43439f0f856d97c04d9ec9070a6199ad418e2359060200160405180910390a2509392505050565b5f610190848484610255565b90506001600160a01b0381167f7a1c96f74273709828c0e67ab96189772005d3b4948bc6902693eb21e4e2cc6a858585466040516101d194939291906104ec565b60405180910390a29392505050565b5f6101ec8484846100f0565b9050806001600160a01b03167f6e78ae8c51534f0b801d7aa7cce5a2113f3c3368c61b06fa61415f361d4004318585856040516101d193929190610522565b60606040518060200161023d906103aa565b601f1982820381018352601f90910116604052919050565b5f5f8380519060200120836102674690565b6040805160208101949094528301919091526060820152608001610115565b5f833b6102da5760405162461bcd60e51b815260206004820152601f60248201527f53696e676c65746f6e20636f6e7472616374206e6f74206465706c6f7965640060448201526064015b60405180910390fd5b5f604051806020016102eb906103aa565b601f1982820381018352601f90910116604081905261031891906001600160a01b03881690602001610555565b6040516020818303038152906040529050828151826020015ff591506001600160a01b0382166103805760405162461bcd60e51b815260206004820152601360248201527210dc99585d194c8818d85b1b0819985a5b1959606a1b60448201526064016102d1565b8351156103a2575f5f8551602087015f865af16103a2576040513d5f823e3d81fd5b509392505050565b61015e8061057083390190565b634e487b7160e01b5f52604160045260245ffd5b5f5f5f606084860312156103dd575f5ffd5b83356001600160a01b03811681146103f3575f5ffd5b9250602084013567ffffffffffffffff81111561040e575f5ffd5b8401601f8101861361041e575f5ffd5b803567ffffffffffffffff811115610438576104386103b7565b604051601f8201601f19908116603f0116810167ffffffffffffffff81118282101715610467576104676103b7565b60405281815282820160200188101561047e575f5ffd5b816020840160208301375f9181016020019190915293969395505050506040919091013590565b5f81518084528060208401602086015e5f602082860101526020601f19601f83011685010191505092915050565b602081525f6104e560208301846104a5565b9392505050565b6001600160a01b03851681526080602082018190525f9061050f908301866104a5565b6040830194909452506060015292915050565b6001600160a01b03841681526060602082018190525f90610545908301856104a5565b9050826040830152949350505050565b5f83518060208601845e919091019182525060200191905056fe6080604052348015600e575f5ffd5b5060405161015e38038061015e833981016040819052602b9160b2565b6001600160a01b038116608f5760405162461bcd60e51b815260206004820152602260248201527f496e76616c69642073696e676c65746f6e20616464726573732070726f766964604482015261195960f21b606482015260840160405180910390fd5b5f80546001600160a01b0319166001600160a01b039290921691909117905560dd565b5f6020828403121560c1575f5ffd5b81516001600160a01b038116811460d6575f5ffd5b9392505050565b6075806100e95f395ff3fe60806040525f5463a619486e5f3560e01c036021578060601b606c5260206060f35b365f5f375f5f365f845af490503d5f5f3e80603a573d5ffd5b503d5ff3fea2646970667358221220581452328d0713ff79e978fa8d6275a5fecf2d28d063be3f86e3742ba19ea05264736f6c634300081c0033a26469706673582212208051af31068249a908f964ef1ee9c316e8dc45ecc00e568475cdd451dcf0ac4664736f6c634300081c0033","opcodes":"PUSH1 0x80 PUSH1 0x40 MSTORE CALLVALUE DUP1 ISZERO PUSH1 0xE JUMPI PUSH0 PUSH0 REVERT JUMPDEST POP PUSH2 0x703 DUP1 PUSH2 0x1C PUSH0 CODECOPY PUSH0 RETURN INVALID PUSH1 0x80 PUSH1 0x40 MSTORE CALLVALUE DUP1 ISZERO PUSH2 0xF JUMPI PUSH0 PUSH0 REVERT JUMPDEST POP PUSH1 0x4 CALLDATASIZE LT PUSH2 0x60 JUMPI PUSH0 CALLDATALOAD PUSH1 0xE0 SHR DUP1 PUSH4 0x1688F0B9 EQ PUSH2 0x64 JUMPI DUP1 PUSH4 0x1A334B0B EQ PUSH2 0x94 JUMPI DUP1 PUSH4 0x3408E470 EQ PUSH2 0xA7 JUMPI DUP1 PUSH4 0x4662F9D6 EQ PUSH2 0xB5 JUMPI DUP1 PUSH4 0x53E5D935 EQ PUSH2 0xC8 JUMPI DUP1 PUSH4 0xEC9E80BB EQ PUSH2 0xDD JUMPI JUMPDEST PUSH0 PUSH0 REVERT JUMPDEST PUSH2 0x77 PUSH2 0x72 CALLDATASIZE PUSH1 0x4 PUSH2 0x3CB JUMP JUMPDEST PUSH2 0xF0 JUMP JUMPDEST PUSH1 0x40 MLOAD PUSH1 0x1 PUSH1 0x1 PUSH1 0xA0 SHL SUB SWAP1 SWAP2 AND DUP2 MSTORE PUSH1 0x20 ADD JUMPDEST PUSH1 0x40 MLOAD DUP1 SWAP2 SUB SWAP1 RETURN JUMPDEST PUSH2 0x77 PUSH2 0xA2 CALLDATASIZE PUSH1 0x4 PUSH2 0x3CB JUMP JUMPDEST PUSH2 0x184 JUMP JUMPDEST PUSH1 0x40 MLOAD CHAINID DUP2 MSTORE PUSH1 0x20 ADD PUSH2 0x8B JUMP JUMPDEST PUSH2 0x77 PUSH2 0xC3 CALLDATASIZE PUSH1 0x4 PUSH2 0x3CB JUMP JUMPDEST PUSH2 0x1E0 JUMP JUMPDEST PUSH2 0xD0 PUSH2 0x22B JUMP JUMPDEST PUSH1 0x40 MLOAD PUSH2 0x8B SWAP2 SWAP1 PUSH2 0x4D3 JUMP JUMPDEST PUSH2 0x77 PUSH2 0xEB CALLDATASIZE PUSH1 0x4 PUSH2 0x3CB JUMP JUMPDEST PUSH2 0x255 JUMP JUMPDEST PUSH0 PUSH0 DUP4 DUP1 MLOAD SWAP1 PUSH1 0x20 ADD KECCAK256 DUP4 PUSH1 0x40 MLOAD PUSH1 0x20 ADD PUSH2 0x115 SWAP3 SWAP2 SWAP1 SWAP2 DUP3 MSTORE PUSH1 0x20 DUP3 ADD MSTORE PUSH1 0x40 ADD SWAP1 JUMP JUMPDEST PUSH1 0x40 MLOAD PUSH1 0x20 DUP2 DUP4 SUB SUB DUP2 MSTORE SWAP1 PUSH1 0x40 MSTORE DUP1 MLOAD SWAP1 PUSH1 0x20 ADD KECCAK256 SWAP1 POP PUSH2 0x138 DUP6 DUP6 DUP4 PUSH2 0x286 JUMP JUMPDEST PUSH1 0x40 MLOAD PUSH1 0x1 PUSH1 0x1 PUSH1 0xA0 SHL SUB DUP8 DUP2 AND DUP3 MSTORE SWAP2 SWAP4 POP SWAP1 DUP4 AND SWAP1 PUSH32 0x4F51FAF6C4561FF95F067657E43439F0F856D97C04D9EC9070A6199AD418E235 SWAP1 PUSH1 0x20 ADD PUSH1 0x40 MLOAD DUP1 SWAP2 SUB SWAP1 LOG2 POP SWAP4 SWAP3 POP POP POP JUMP JUMPDEST PUSH0 PUSH2 0x190 DUP5 DUP5 DUP5 PUSH2 0x255 JUMP JUMPDEST SWAP1 POP PUSH1 0x1 PUSH1 0x1 PUSH1 0xA0 SHL SUB DUP2 AND PUSH32 0x7A1C96F74273709828C0E67AB96189772005D3B4948BC6902693EB21E4E2CC6A DUP6 DUP6 DUP6 CHAINID PUSH1 0x40 MLOAD PUSH2 0x1D1 SWAP5 SWAP4 SWAP3 SWAP2 SWAP1 PUSH2 0x4EC JUMP JUMPDEST PUSH1 0x40 MLOAD DUP1 SWAP2 SUB SWAP1 LOG2 SWAP4 SWAP3 POP POP POP JUMP JUMPDEST PUSH0 PUSH2 0x1EC DUP5 DUP5 DUP5 PUSH2 0xF0 JUMP JUMPDEST SWAP1 POP DUP1 PUSH1 0x1 PUSH1 0x1 PUSH1 0xA0 SHL SUB AND PUSH32 0x6E78AE8C51534F0B801D7AA7CCE5A2113F3C3368C61B06FA61415F361D400431 DUP6 DUP6 DUP6 PUSH1 0x40 MLOAD PUSH2 0x1D1 SWAP4 SWAP3 SWAP2 SWAP1 PUSH2 0x522 JUMP JUMPDEST PUSH1 0x60 PUSH1 0x40 MLOAD DUP1 PUSH1 0x20 ADD PUSH2 0x23D SWAP1 PUSH2 0x3AA JUMP JUMPDEST PUSH1 0x1F NOT DUP3 DUP3 SUB DUP2 ADD DUP4 MSTORE PUSH1 0x1F SWAP1 SWAP2 ADD AND PUSH1 0x40 MSTORE SWAP2 SWAP1 POP JUMP JUMPDEST PUSH0 PUSH0 DUP4 DUP1 MLOAD SWAP1 PUSH1 0x20 ADD KECCAK256 DUP4 PUSH2 0x267 CHAINID SWAP1 JUMP JUMPDEST PUSH1 0x40 DUP1 MLOAD PUSH1 0x20 DUP2 ADD SWAP5 SWAP1 SWAP5 MSTORE DUP4 ADD SWAP2 SWAP1 SWAP2 MSTORE PUSH1 0x60 DUP3 ADD MSTORE PUSH1 0x80 ADD PUSH2 0x115 JUMP JUMPDEST PUSH0 DUP4 EXTCODESIZE PUSH2 0x2DA JUMPI PUSH1 0x40 MLOAD PUSH3 0x461BCD PUSH1 0xE5 SHL DUP2 MSTORE PUSH1 0x20 PUSH1 0x4 DUP3 ADD MSTORE PUSH1 0x1F PUSH1 0x24 DUP3 ADD MSTORE PUSH32 0x53696E676C65746F6E20636F6E7472616374206E6F74206465706C6F79656400 PUSH1 0x44 DUP3 ADD MSTORE PUSH1 0x64 ADD JUMPDEST PUSH1 0x40 MLOAD DUP1 SWAP2 SUB SWAP1 REVERT JUMPDEST PUSH0 PUSH1 0x40 MLOAD DUP1 PUSH1 0x20 ADD PUSH2 0x2EB SWAP1 PUSH2 0x3AA JUMP JUMPDEST PUSH1 0x1F NOT DUP3 DUP3 SUB DUP2 ADD DUP4 MSTORE PUSH1 0x1F SWAP1 SWAP2 ADD AND PUSH1 0x40 DUP2 SWAP1 MSTORE PUSH2 0x318 SWAP2 SWAP1 PUSH1 0x1 PUSH1 0x1 PUSH1 0xA0 SHL SUB DUP9 AND SWAP1 PUSH1 0x20 ADD PUSH2 0x555 JUMP JUMPDEST PUSH1 0x40 MLOAD PUSH1 0x20 DUP2 DUP4 SUB SUB DUP2 MSTORE SWAP1 PUSH1 0x40 MSTORE SWAP1 POP DUP3 DUP2 MLOAD DUP3 PUSH1 0x20 ADD PUSH0 CREATE2 SWAP2 POP PUSH1 0x1 PUSH1 0x1 PUSH1 0xA0 SHL SUB DUP3 AND PUSH2 0x380 JUMPI PUSH1 0x40 MLOAD PUSH3 0x461BCD PUSH1 0xE5 SHL DUP2 MSTORE PUSH1 0x20 PUSH1 0x4 DUP3 ADD MSTORE PUSH1 0x13 PUSH1 0x24 DUP3 ADD MSTORE PUSH19 0x10DC99585D194C8818D85B1B0819985A5B1959 PUSH1 0x6A SHL PUSH1 0x44 DUP3 ADD MSTORE PUSH1 0x64 ADD PUSH2 0x2D1 JUMP JUMPDEST DUP4 MLOAD ISZERO PUSH2 0x3A2 JUMPI PUSH0 PUSH0 DUP6 MLOAD PUSH1 0x20 DUP8 ADD PUSH0 DUP7 GAS CALL PUSH2 0x3A2 JUMPI PUSH1 0x40 MLOAD RETURNDATASIZE PUSH0 DUP3 RETURNDATACOPY RETURNDATASIZE DUP2 REVERT JUMPDEST POP SWAP4 SWAP3 POP POP POP JUMP JUMPDEST PUSH2 0x15E DUP1 PUSH2 0x570 DUP4 CODECOPY ADD SWAP1 JUMP JUMPDEST PUSH4 0x4E487B71 PUSH1 0xE0 SHL PUSH0 MSTORE PUSH1 0x41 PUSH1 0x4 MSTORE PUSH1 0x24 PUSH0 REVERT JUMPDEST PUSH0 PUSH0 PUSH0 PUSH1 0x60 DUP5 DUP7 SUB SLT ISZERO PUSH2 0x3DD JUMPI PUSH0 PUSH0 REVERT JUMPDEST DUP4 CALLDATALOAD PUSH1 0x1 PUSH1 0x1 PUSH1 0xA0 SHL SUB DUP2 AND DUP2 EQ PUSH2 0x3F3 JUMPI PUSH0 PUSH0 REVERT JUMPDEST SWAP3 POP PUSH1 0x20 DUP5 ADD CALLDATALOAD PUSH8 0xFFFFFFFFFFFFFFFF DUP2 GT ISZERO PUSH2 0x40E JUMPI PUSH0 PUSH0 REVERT JUMPDEST DUP5 ADD PUSH1 0x1F DUP2 ADD DUP7 SGT PUSH2 0x41E JUMPI PUSH0 PUSH0 REVERT JUMPDEST DUP1 CALLDATALOAD PUSH8 0xFFFFFFFFFFFFFFFF DUP2 GT ISZERO PUSH2 0x438 JUMPI PUSH2 0x438 PUSH2 0x3B7 JUMP JUMPDEST PUSH1 0x40 MLOAD PUSH1 0x1F DUP3 ADD PUSH1 0x1F NOT SWAP1 DUP2 AND PUSH1 0x3F ADD AND DUP2 ADD PUSH8 0xFFFFFFFFFFFFFFFF DUP2 GT DUP3 DUP3 LT OR ISZERO PUSH2 0x467 JUMPI PUSH2 0x467 PUSH2 0x3B7 JUMP JUMPDEST PUSH1 0x40 MSTORE DUP2 DUP2 MSTORE DUP3 DUP3 ADD PUSH1 0x20 ADD DUP9 LT ISZERO PUSH2 0x47E JUMPI PUSH0 PUSH0 REVERT JUMPDEST DUP2 PUSH1 0x20 DUP5 ADD PUSH1 0x20 DUP4 ADD CALLDATACOPY PUSH0 SWAP2 DUP2 ADD PUSH1 0x20 ADD SWAP2 SWAP1 SWAP2 MSTORE SWAP4 SWAP7 SWAP4 SWAP6 POP POP POP POP PUSH1 0x40 SWAP2 SWAP1 SWAP2 ADD CALLDATALOAD SWAP1 JUMP JUMPDEST PUSH0 DUP2 MLOAD DUP1 DUP5 MSTORE DUP1 PUSH1 0x20 DUP5 ADD PUSH1 0x20 DUP7 ADD MCOPY PUSH0 PUSH1 0x20 DUP3 DUP7 ADD ADD MSTORE PUSH1 0x20 PUSH1 0x1F NOT PUSH1 0x1F DUP4 ADD AND DUP6 ADD ADD SWAP2 POP POP SWAP3 SWAP2 POP POP JUMP JUMPDEST PUSH1 0x20 DUP2 MSTORE PUSH0 PUSH2 0x4E5 PUSH1 0x20 DUP4 ADD DUP5 PUSH2 0x4A5 JUMP JUMPDEST SWAP4 SWAP3 POP POP POP JUMP JUMPDEST PUSH1 0x1 PUSH1 0x1 PUSH1 0xA0 SHL SUB DUP6 AND DUP2 MSTORE PUSH1 0x80 PUSH1 0x20 DUP3 ADD DUP2 SWAP1 MSTORE PUSH0 SWAP1 PUSH2 0x50F SWAP1 DUP4 ADD DUP7 PUSH2 0x4A5 JUMP JUMPDEST PUSH1 0x40 DUP4 ADD SWAP5 SWAP1 SWAP5 MSTORE POP PUSH1 0x60 ADD MSTORE SWAP3 SWAP2 POP POP JUMP JUMPDEST PUSH1 0x1 PUSH1 0x1 PUSH1 0xA0 SHL SUB DUP5 AND DUP2 MSTORE PUSH1 0x60 PUSH1 0x20 DUP3 ADD DUP2 SWAP1 MSTORE PUSH0 SWAP1 PUSH2 0x545 SWAP1 DUP4 ADD DUP6 PUSH2 0x4A5 JUMP JUMPDEST SWAP1 POP DUP3 PUSH1 0x40 DUP4 ADD MSTORE SWAP5 SWAP4 POP POP POP POP JUMP JUMPDEST PUSH0 DUP4 MLOAD DUP1 PUSH1 0x20 DUP7 ADD DUP5 MCOPY SWAP2 SWAP1 SWAP2 ADD SWAP2 DUP3 MSTORE POP PUSH1 0x20 ADD SWAP2 SWAP1 POP JUMP INVALID PUSH1 0x80 PUSH1 0x40 MSTORE CALLVALUE DUP1 ISZERO PUSH1 0xE JUMPI PUSH0 PUSH0 REVERT JUMPDEST POP PUSH1 0x40 MLOAD PUSH2 0x15E CODESIZE SUB DUP1 PUSH2 0x15E DUP4 CODECOPY DUP2 ADD PUSH1 0x40 DUP2 SWAP1 MSTORE PUSH1 0x2B SWAP2 PUSH1 0xB2 JUMP JUMPDEST PUSH1 0x1 PUSH1 0x1 PUSH1 0xA0 SHL SUB DUP2 AND PUSH1 0x8F JUMPI PUSH1 0x40 MLOAD PUSH3 0x461BCD PUSH1 0xE5 SHL DUP2 MSTORE PUSH1 0x20 PUSH1 0x4 DUP3 ADD MSTORE PUSH1 0x22 PUSH1 0x24 DUP3 ADD MSTORE PUSH32 0x496E76616C69642073696E676C65746F6E20616464726573732070726F766964 PUSH1 0x44 DUP3 ADD MSTORE PUSH2 0x1959 PUSH1 0xF2 SHL PUSH1 0x64 DUP3 ADD MSTORE PUSH1 0x84 ADD PUSH1 0x40 MLOAD DUP1 SWAP2 SUB SWAP1 REVERT JUMPDEST PUSH0 DUP1 SLOAD PUSH1 0x1 PUSH1 0x1 PUSH1 0xA0 SHL SUB NOT AND PUSH1 0x1 PUSH1 0x1 PUSH1 0xA0 SHL SUB SWAP3 SWAP1 SWAP3 AND SWAP2 SWAP1 SWAP2 OR SWAP1 SSTORE PUSH1 0xDD JUMP JUMPDEST PUSH0 PUSH1 0x20 DUP3 DUP5 SUB SLT ISZERO PUSH1 0xC1 JUMPI PUSH0 PUSH0 REVERT JUMPDEST DUP2 MLOAD PUSH1 0x1 PUSH1 0x1 PUSH1 0xA0 SHL SUB DUP2 AND DUP2 EQ PUSH1 0xD6 JUMPI PUSH0 PUSH0 REVERT JUMPDEST SWAP4 SWAP3 POP POP POP JUMP JUMPDEST PUSH1 0x75 DUP1 PUSH2 0xE9 PUSH0 CODECOPY PUSH0 RETURN INVALID PUSH1 0x80 PUSH1 0x40 MSTORE PUSH0 SLOAD PUSH4 0xA619486E PUSH0 CALLDATALOAD PUSH1 0xE0 SHR SUB PUSH1 0x21 JUMPI DUP1 PUSH1 0x60 SHL PUSH1 0x6C MSTORE PUSH1 0x20 PUSH1 0x60 RETURN JUMPDEST CALLDATASIZE PUSH0 PUSH0 CALLDATACOPY PUSH0 PUSH0 CALLDATASIZE PUSH0 DUP5 GAS DELEGATECALL SWAP1 POP RETURNDATASIZE PUSH0 PUSH0 RETURNDATACOPY DUP1 PUSH1 0x3A JUMPI RETURNDATASIZE PUSH0 REVERT JUMPDEST POP RETURNDATASIZE PUSH0 RETURN INVALID LOG2 PUSH5 0x6970667358 0x22 SLT KECCAK256 PC EQ MSTORE ORIGIN DUP14 SMOD SGT SELFDESTRUCT PUSH26 0xE978FA8D6275A5FECF2D28D063BE3F86E3742BA19EA05264736F PUSH13 0x634300081C0033A26469706673 PC 0x22 SLT KECCAK256 DUP1 MLOAD 0xAF BALANCE MOD DUP3 BLOBHASH 0xA9 ADDMOD 0xF9 PUSH5 0xEF1EE9C316 0xE8 0xDC GASLIMIT 0xEC 0xC0 0xE JUMP DUP5 PUSH22 0xCDD451DCF0AC4664736F6C634300081C003300000000 "},"methodIdentifiers":{"createChainSpecificProxyWithNonce(address,bytes,uint256)":"ec9e80bb","createChainSpecificProxyWithNonceL2(address,bytes,uint256)":"1a334b0b","createProxyWithNonce(address,bytes,uint256)":"1688f0b9","createProxyWithNonceL2(address,bytes,uint256)":"4662f9d6","getChainId()":"3408e470","proxyCreationCode()":"53e5d935"}}}}}