{"project/contracts/examples/guards/OnlyOwnersGuard.sol":{"OnlyOwnersGuard":{"abi":[{"inputs":[],"stateMutability":"nonpayable","type":"constructor"},{"stateMutability":"nonpayable","type":"fallback"},{"inputs":[{"internalType":"bytes32","name":"","type":"bytes32"},{"internalType":"bool","name":"","type":"bool"}],"name":"checkAfterExecution","outputs":[],"stateMutability":"view","type":"function"},{"inputs":[{"internalType":"address","name":"","type":"address"},{"internalType":"uint256","name":"","type":"uint256"},{"internalType":"bytes","name":"","type":"bytes"},{"internalType":"enum Enum.Operation","name":"","type":"uint8"},{"internalType":"uint256","name":"","type":"uint256"},{"internalType":"uint256","name":"","type":"uint256"},{"internalType":"uint256","name":"","type":"uint256"},{"internalType":"address","name":"","type":"address"},{"internalType":"address payable","name":"","type":"address"},{"internalType":"bytes","name":"","type":"bytes"},{"internalType":"address","name":"msgSender","type":"address"}],"name":"checkTransaction","outputs":[],"stateMutability":"view","type":"function"},{"inputs":[{"internalType":"bytes4","name":"interfaceId","type":"bytes4"}],"name":"supportsInterface","outputs":[{"internalType":"bool","name":"","type":"bool"}],"stateMutability":"view","type":"function"}],"evm":{"bytecode":{"linkReferences":{},"object":"6080604052348015600e575f5ffd5b506103f28061001c5f395ff3fe608060405234801561000f575f5ffd5b506004361061003f575f3560e01c806301ffc9a71461004157806375f0bb5214610068578063932713681461007b575b005b61005461004f366004610190565b61008d565b604051901515815260200160405180910390f35b61003f610076366004610286565b6100c3565b61003f610089366004610373565b5050565b5f6001600160e01b0319821663736bd41d60e11b14806100bd57506001600160e01b031982166301ffc9a760e01b145b92915050565b6040516317aa5fb760e11b81526001600160a01b03821660048201523390632f54bf6e90602401602060405180830381865afa158015610105573d5f5f3e3d5ffd5b505050506040513d601f19601f8201168201806040525081019061012991906103a1565b6101835760405162461bcd60e51b815260206004820152602160248201527f6d73672073656e646572206973206e6f7420616c6c6f77656420746f206578656044820152606360f81b606482015260840160405180910390fd5b5050505050505050505050565b5f602082840312156101a0575f5ffd5b81356001600160e01b0319811681146101b7575f5ffd5b9392505050565b80356001600160a01b03811681146101d4575f5ffd5b919050565b634e487b7160e01b5f52604160045260245ffd5b5f82601f8301126101fc575f5ffd5b813567ffffffffffffffff811115610216576102166101d9565b604051601f8201601f19908116603f0116810167ffffffffffffffff81118282101715610245576102456101d9565b60405281815283820160200185101561025c575f5ffd5b816020850160208301375f918101602001919091529392505050565b8035600281106101d4575f5ffd5b5f5f5f5f5f5f5f5f5f5f5f6101608c8e0312156102a1575f5ffd5b6102aa8c6101be565b9a5060208c0135995060408c013567ffffffffffffffff8111156102cc575f5ffd5b6102d88e828f016101ed565b9950506102e760608d01610278565b975060808c0135965060a08c0135955060c08c0135945061030a60e08d016101be565b93506103196101008d016101be565b92506101208c013567ffffffffffffffff811115610335575f5ffd5b6103418e828f016101ed565b9250506103516101408d016101be565b90509295989b509295989b9093969950565b8015158114610370575f5ffd5b50565b5f5f60408385031215610384575f5ffd5b82359150602083013561039681610363565b809150509250929050565b5f602082840312156103b1575f5ffd5b81516101b78161036356fea26469706673582212200e86fca489ce1210f73cfe764023ac762664f2d86427f12b8d4a68943e1a4cd764736f6c634300081c0033","opcodes":"PUSH1 0x80 PUSH1 0x40 MSTORE CALLVALUE DUP1 ISZERO PUSH1 0xE JUMPI PUSH0 PUSH0 REVERT JUMPDEST POP PUSH2 0x3F2 DUP1 PUSH2 0x1C PUSH0 CODECOPY PUSH0 RETURN INVALID PUSH1 0x80 PUSH1 0x40 MSTORE CALLVALUE DUP1 ISZERO PUSH2 0xF JUMPI PUSH0 PUSH0 REVERT JUMPDEST POP PUSH1 0x4 CALLDATASIZE LT PUSH2 0x3F JUMPI PUSH0 CALLDATALOAD PUSH1 0xE0 SHR DUP1 PUSH4 0x1FFC9A7 EQ PUSH2 0x41 JUMPI DUP1 PUSH4 0x75F0BB52 EQ PUSH2 0x68 JUMPI DUP1 PUSH4 0x93271368 EQ PUSH2 0x7B JUMPI JUMPDEST STOP JUMPDEST PUSH2 0x54 PUSH2 0x4F CALLDATASIZE PUSH1 0x4 PUSH2 0x190 JUMP JUMPDEST PUSH2 0x8D JUMP JUMPDEST PUSH1 0x40 MLOAD SWAP1 ISZERO ISZERO DUP2 MSTORE PUSH1 0x20 ADD PUSH1 0x40 MLOAD DUP1 SWAP2 SUB SWAP1 RETURN JUMPDEST PUSH2 0x3F PUSH2 0x76 CALLDATASIZE PUSH1 0x4 PUSH2 0x286 JUMP JUMPDEST PUSH2 0xC3 JUMP JUMPDEST PUSH2 0x3F PUSH2 0x89 CALLDATASIZE PUSH1 0x4 PUSH2 0x373 JUMP JUMPDEST POP POP JUMP JUMPDEST PUSH0 PUSH1 0x1 PUSH1 0x1 PUSH1 0xE0 SHL SUB NOT DUP3 AND PUSH4 0x736BD41D PUSH1 0xE1 SHL EQ DUP1 PUSH2 0xBD JUMPI POP PUSH1 0x1 PUSH1 0x1 PUSH1 0xE0 SHL SUB NOT DUP3 AND PUSH4 0x1FFC9A7 PUSH1 0xE0 SHL EQ JUMPDEST SWAP3 SWAP2 POP POP JUMP JUMPDEST PUSH1 0x40 MLOAD PUSH4 0x17AA5FB7 PUSH1 0xE1 SHL DUP2 MSTORE PUSH1 0x1 PUSH1 0x1 PUSH1 0xA0 SHL SUB DUP3 AND PUSH1 0x4 DUP3 ADD MSTORE CALLER SWAP1 PUSH4 0x2F54BF6E SWAP1 PUSH1 0x24 ADD PUSH1 0x20 PUSH1 0x40 MLOAD DUP1 DUP4 SUB DUP2 DUP7 GAS STATICCALL ISZERO DUP1 ISZERO PUSH2 0x105 JUMPI RETURNDATASIZE PUSH0 PUSH0 RETURNDATACOPY RETURNDATASIZE PUSH0 REVERT JUMPDEST POP POP POP POP PUSH1 0x40 MLOAD RETURNDATASIZE PUSH1 0x1F NOT PUSH1 0x1F DUP3 ADD AND DUP3 ADD DUP1 PUSH1 0x40 MSTORE POP DUP2 ADD SWAP1 PUSH2 0x129 SWAP2 SWAP1 PUSH2 0x3A1 JUMP JUMPDEST PUSH2 0x183 JUMPI PUSH1 0x40 MLOAD PUSH3 0x461BCD PUSH1 0xE5 SHL DUP2 MSTORE PUSH1 0x20 PUSH1 0x4 DUP3 ADD MSTORE PUSH1 0x21 PUSH1 0x24 DUP3 ADD MSTORE PUSH32 0x6D73672073656E646572206973206E6F7420616C6C6F77656420746F20657865 PUSH1 0x44 DUP3 ADD MSTORE PUSH1 0x63 PUSH1 0xF8 SHL PUSH1 0x64 DUP3 ADD MSTORE PUSH1 0x84 ADD PUSH1 0x40 MLOAD DUP1 SWAP2 SUB SWAP1 REVERT JUMPDEST POP POP POP POP POP POP POP POP POP POP POP JUMP JUMPDEST PUSH0 PUSH1 0x20 DUP3 DUP5 SUB SLT ISZERO PUSH2 0x1A0 JUMPI PUSH0 PUSH0 REVERT JUMPDEST DUP2 CALLDATALOAD PUSH1 0x1 PUSH1 0x1 PUSH1 0xE0 SHL SUB NOT DUP2 AND DUP2 EQ PUSH2 0x1B7 JUMPI PUSH0 PUSH0 REVERT JUMPDEST SWAP4 SWAP3 POP POP POP JUMP JUMPDEST DUP1 CALLDATALOAD PUSH1 0x1 PUSH1 0x1 PUSH1 0xA0 SHL SUB DUP2 AND DUP2 EQ PUSH2 0x1D4 JUMPI PUSH0 PUSH0 REVERT JUMPDEST SWAP2 SWAP1 POP JUMP JUMPDEST PUSH4 0x4E487B71 PUSH1 0xE0 SHL PUSH0 MSTORE PUSH1 0x41 PUSH1 0x4 MSTORE PUSH1 0x24 PUSH0 REVERT JUMPDEST PUSH0 DUP3 PUSH1 0x1F DUP4 ADD SLT PUSH2 0x1FC JUMPI PUSH0 PUSH0 REVERT JUMPDEST DUP2 CALLDATALOAD PUSH8 0xFFFFFFFFFFFFFFFF DUP2 GT ISZERO PUSH2 0x216 JUMPI PUSH2 0x216 PUSH2 0x1D9 JUMP JUMPDEST PUSH1 0x40 MLOAD PUSH1 0x1F DUP3 ADD PUSH1 0x1F NOT SWAP1 DUP2 AND PUSH1 0x3F ADD AND DUP2 ADD PUSH8 0xFFFFFFFFFFFFFFFF DUP2 GT DUP3 DUP3 LT OR ISZERO PUSH2 0x245 JUMPI PUSH2 0x245 PUSH2 0x1D9 JUMP JUMPDEST PUSH1 0x40 MSTORE DUP2 DUP2 MSTORE DUP4 DUP3 ADD PUSH1 0x20 ADD DUP6 LT ISZERO PUSH2 0x25C JUMPI PUSH0 PUSH0 REVERT JUMPDEST DUP2 PUSH1 0x20 DUP6 ADD PUSH1 0x20 DUP4 ADD CALLDATACOPY PUSH0 SWAP2 DUP2 ADD PUSH1 0x20 ADD SWAP2 SWAP1 SWAP2 MSTORE SWAP4 SWAP3 POP POP POP JUMP JUMPDEST DUP1 CALLDATALOAD PUSH1 0x2 DUP2 LT PUSH2 0x1D4 JUMPI PUSH0 PUSH0 REVERT JUMPDEST PUSH0 PUSH0 PUSH0 PUSH0 PUSH0 PUSH0 PUSH0 PUSH0 PUSH0 PUSH0 PUSH0 PUSH2 0x160 DUP13 DUP15 SUB SLT ISZERO PUSH2 0x2A1 JUMPI PUSH0 PUSH0 REVERT JUMPDEST PUSH2 0x2AA DUP13 PUSH2 0x1BE JUMP JUMPDEST SWAP11 POP PUSH1 0x20 DUP13 ADD CALLDATALOAD SWAP10 POP PUSH1 0x40 DUP13 ADD CALLDATALOAD PUSH8 0xFFFFFFFFFFFFFFFF DUP2 GT ISZERO PUSH2 0x2CC JUMPI PUSH0 PUSH0 REVERT JUMPDEST PUSH2 0x2D8 DUP15 DUP3 DUP16 ADD PUSH2 0x1ED JUMP JUMPDEST SWAP10 POP POP PUSH2 0x2E7 PUSH1 0x60 DUP14 ADD PUSH2 0x278 JUMP JUMPDEST SWAP8 POP PUSH1 0x80 DUP13 ADD CALLDATALOAD SWAP7 POP PUSH1 0xA0 DUP13 ADD CALLDATALOAD SWAP6 POP PUSH1 0xC0 DUP13 ADD CALLDATALOAD SWAP5 POP PUSH2 0x30A PUSH1 0xE0 DUP14 ADD PUSH2 0x1BE JUMP JUMPDEST SWAP4 POP PUSH2 0x319 PUSH2 0x100 DUP14 ADD PUSH2 0x1BE JUMP JUMPDEST SWAP3 POP PUSH2 0x120 DUP13 ADD CALLDATALOAD PUSH8 0xFFFFFFFFFFFFFFFF DUP2 GT ISZERO PUSH2 0x335 JUMPI PUSH0 PUSH0 REVERT JUMPDEST PUSH2 0x341 DUP15 DUP3 DUP16 ADD PUSH2 0x1ED JUMP JUMPDEST SWAP3 POP POP PUSH2 0x351 PUSH2 0x140 DUP14 ADD PUSH2 0x1BE JUMP JUMPDEST SWAP1 POP SWAP3 SWAP6 SWAP9 SWAP12 POP SWAP3 SWAP6 SWAP9 SWAP12 SWAP1 SWAP4 SWAP7 SWAP10 POP JUMP JUMPDEST DUP1 ISZERO ISZERO DUP2 EQ PUSH2 0x370 JUMPI PUSH0 PUSH0 REVERT JUMPDEST POP JUMP JUMPDEST PUSH0 PUSH0 PUSH1 0x40 DUP4 DUP6 SUB SLT ISZERO PUSH2 0x384 JUMPI PUSH0 PUSH0 REVERT JUMPDEST DUP3 CALLDATALOAD SWAP2 POP PUSH1 0x20 DUP4 ADD CALLDATALOAD PUSH2 0x396 DUP2 PUSH2 0x363 JUMP JUMPDEST DUP1 SWAP2 POP POP SWAP3 POP SWAP3 SWAP1 POP JUMP JUMPDEST PUSH0 PUSH1 0x20 DUP3 DUP5 SUB SLT ISZERO PUSH2 0x3B1 JUMPI PUSH0 PUSH0 REVERT JUMPDEST DUP2 MLOAD PUSH2 0x1B7 DUP2 PUSH2 0x363 JUMP INVALID LOG2 PUSH5 0x6970667358 0x22 SLT KECCAK256 0xE DUP7 0xFC LOG4 DUP10 0xCE SLT LT 0xF7 EXTCODECOPY INVALID PUSH23 0x4023AC762664F2D86427F12B8D4A68943E1A4CD764736F PUSH13 0x634300081C0033000000000000 "},"methodIdentifiers":{"checkAfterExecution(bytes32,bool)":"93271368","checkTransaction(address,uint256,bytes,uint8,uint256,uint256,uint256,address,address,bytes,address)":"75f0bb52","supportsInterface(bytes4)":"01ffc9a7"}}}}}