{"project/contracts/examples/guards/DebugTransactionGuard.sol":{"DebugTransactionGuard":{"abi":[{"anonymous":false,"inputs":[{"indexed":true,"internalType":"address","name":"safe","type":"address"},{"indexed":true,"internalType":"bytes32","name":"txHash","type":"bytes32"},{"indexed":true,"internalType":"uint256","name":"nonce","type":"uint256"},{"indexed":false,"internalType":"bool","name":"success","type":"bool"}],"name":"GasUsage","type":"event"},{"anonymous":false,"inputs":[{"indexed":true,"internalType":"bytes32","name":"txHash","type":"bytes32"},{"indexed":false,"internalType":"address","name":"to","type":"address"},{"indexed":false,"internalType":"uint256","name":"value","type":"uint256"},{"indexed":false,"internalType":"bytes","name":"data","type":"bytes"},{"indexed":false,"internalType":"enum Enum.Operation","name":"operation","type":"uint8"},{"indexed":false,"internalType":"address","name":"module","type":"address"}],"name":"ModuleTransactionDetails","type":"event"},{"anonymous":false,"inputs":[{"indexed":true,"internalType":"address","name":"safe","type":"address"},{"indexed":true,"internalType":"bytes32","name":"txHash","type":"bytes32"},{"indexed":false,"internalType":"address","name":"to","type":"address"},{"indexed":false,"internalType":"uint256","name":"value","type":"uint256"},{"indexed":false,"internalType":"bytes","name":"data","type":"bytes"},{"indexed":false,"internalType":"enum Enum.Operation","name":"operation","type":"uint8"},{"indexed":false,"internalType":"uint256","name":"safeTxGas","type":"uint256"},{"indexed":false,"internalType":"bool","name":"usesRefund","type":"bool"},{"indexed":false,"internalType":"uint256","name":"nonce","type":"uint256"},{"indexed":false,"internalType":"bytes","name":"signatures","type":"bytes"},{"indexed":false,"internalType":"address","name":"executor","type":"address"}],"name":"TransactionDetails","type":"event"},{"stateMutability":"nonpayable","type":"fallback"},{"inputs":[{"internalType":"bytes32","name":"txHash","type":"bytes32"},{"internalType":"bool","name":"success","type":"bool"}],"name":"checkAfterExecution","outputs":[],"stateMutability":"nonpayable","type":"function"},{"inputs":[{"internalType":"bytes32","name":"txHash","type":"bytes32"},{"internalType":"bool","name":"success","type":"bool"}],"name":"checkAfterModuleExecution","outputs":[],"stateMutability":"nonpayable","type":"function"},{"inputs":[{"internalType":"address","name":"to","type":"address"},{"internalType":"uint256","name":"value","type":"uint256"},{"internalType":"bytes","name":"data","type":"bytes"},{"internalType":"enum Enum.Operation","name":"operation","type":"uint8"},{"internalType":"address","name":"module","type":"address"}],"name":"checkModuleTransaction","outputs":[{"internalType":"bytes32","name":"moduleTxHash","type":"bytes32"}],"stateMutability":"nonpayable","type":"function"},{"inputs":[{"internalType":"address","name":"to","type":"address"},{"internalType":"uint256","name":"value","type":"uint256"},{"internalType":"bytes","name":"data","type":"bytes"},{"internalType":"enum Enum.Operation","name":"operation","type":"uint8"},{"internalType":"uint256","name":"safeTxGas","type":"uint256"},{"internalType":"uint256","name":"baseGas","type":"uint256"},{"internalType":"uint256","name":"gasPrice","type":"uint256"},{"internalType":"address","name":"gasToken","type":"address"},{"internalType":"address payable","name":"refundReceiver","type":"address"},{"internalType":"bytes","name":"signatures","type":"bytes"},{"internalType":"address","name":"executor","type":"address"}],"name":"checkTransaction","outputs":[],"stateMutability":"nonpayable","type":"function"},{"inputs":[{"internalType":"bytes4","name":"interfaceId","type":"bytes4"}],"name":"supportsInterface","outputs":[{"internalType":"bool","name":"","type":"bool"}],"stateMutability":"view","type":"function"},{"inputs":[{"internalType":"bytes32","name":"","type":"bytes32"}],"name":"txNonces","outputs":[{"internalType":"uint256","name":"","type":"uint256"}],"stateMutability":"view","type":"function"}],"evm":{"bytecode":{"linkReferences":{},"object":"6080604052348015600e575f5ffd5b506108f08061001c5f395ff3fe608060405234801561000f575f5ffd5b5060043610610060575f3560e01c806301ffc9a7146100625780632acc37aa1461008a578063728c29721461009c57806375f0bb52146100bd57806393271368146100d0578063ddbdba63146100e3575b005b6100756100703660046103d8565b610102565b60405190151581526020015b60405180910390f35b610060610098366004610406565b5050565b6100af6100aa36600461050c565b610153565b604051908152602001610081565b6100606100cb366004610586565b6101ce565b6100606100de366004610406565b610331565b6100af6100f1366004610663565b5f6020819052908152604090205481565b5f6001600160e01b0319821663736bd41d60e11b148061013257506001600160e01b03198216630b0803db60e31b145b8061014d57506001600160e01b031982166301ffc9a760e01b145b92915050565b5f858585858560405160200161016d95949392919061067a565b604051602081830303815290604052805190602001209050807f1725771f9d6c4dbc65eb80aabd07685699bb88d63af391840cf6749871bfb43f87878787876040516101bd959493929190610744565b60405180910390a295945050505050565b5f5f5f3390506001816001600160a01b031663affed0e06040518163ffffffff1660e01b8152600401602060405180830381865afa158015610212573d5f5f3e3d5ffd5b505050506040513d601f19601f820116820180604052508101906102369190610794565b61024091906107ab565b9250806001600160a01b031663d8d11f788f8f8f8f8f8f8f8f8f8d6040518b63ffffffff1660e01b81526004016102809a999897969594939291906107ca565b602060405180830381865afa15801561029b573d5f5f3e3d5ffd5b505050506040513d601f19601f820116820180604052508101906102bf9190610794565b91505080336001600160a01b03167fa65fef32cd19a6639a4bf7a6d196f132c151e4f0bbd2706f7f831b3a778e1ac08f8f8f8f8f5f8f118a8d8d60405161030e9998979695949392919061083f565b60405180910390a35f908152602081905260409020555050505050505050505050565b5f82815260208190526040812054908190036103895760405162461bcd60e51b8152602060048201526013602482015272436f756c64206e6f7420676574206e6f6e636560681b604482015260640160405180910390fd5b5f8381526020818152604080832092909255905183151581528291859133917f0dcc0fb56a30b6fe6b188f45b47369bc7f3c928a9748e245a79fc3f54ddd0568910160405180910390a4505050565b5f602082840312156103e8575f5ffd5b81356001600160e01b0319811681146103ff575f5ffd5b9392505050565b5f5f60408385031215610417575f5ffd5b823591506020830135801515811461042d575f5ffd5b809150509250929050565b6001600160a01b038116811461044c575f5ffd5b50565b803561045a81610438565b919050565b634e487b7160e01b5f52604160045260245ffd5b5f82601f830112610482575f5ffd5b813567ffffffffffffffff81111561049c5761049c61045f565b604051601f8201601f19908116603f0116810167ffffffffffffffff811182821017156104cb576104cb61045f565b6040528181528382016020018510156104e2575f5ffd5b816020850160208301375f918101602001919091529392505050565b80356002811061045a575f5ffd5b5f5f5f5f5f60a08688031215610520575f5ffd5b853561052b81610438565b945060208601359350604086013567ffffffffffffffff81111561054d575f5ffd5b61055988828901610473565b935050610568606087016104fe565b9150608086013561057881610438565b809150509295509295909350565b5f5f5f5f5f5f5f5f5f5f5f6101608c8e0312156105a1575f5ffd5b6105aa8c61044f565b9a5060208c0135995060408c013567ffffffffffffffff8111156105cc575f5ffd5b6105d88e828f01610473565b9950506105e760608d016104fe565b975060808c0135965060a08c0135955060c08c0135945061060a60e08d0161044f565b93506106196101008d0161044f565b92506101208c013567ffffffffffffffff811115610635575f5ffd5b6106418e828f01610473565b9250506106516101408d0161044f565b90509295989b509295989b9093969950565b5f60208284031215610673575f5ffd5b5035919050565b6bffffffffffffffffffffffff198660601b1681528460148201525f84518060208701603485015e8083019050603481015f8152600286106106ca57634e487b7160e01b5f52602160045260245ffd5b60f89590951b909452505060601b6bffffffffffffffffffffffff191660358201526049019392505050565b5f81518084528060208401602086015e5f602082860101526020601f19601f83011685010191505092915050565b6002811061074057634e487b7160e01b5f52602160045260245ffd5b9052565b60018060a01b038616815284602082015260a060408201525f61076a60a08301866106f6565b90506107796060830185610724565b6001600160a01b039290921660809190910152949350505050565b5f602082840312156107a4575f5ffd5b5051919050565b8181038181111561014d57634e487b7160e01b5f52601160045260245ffd5b60018060a01b038b16815289602082015261014060408201525f6107f261014083018b6106f6565b9050610801606083018a610724565b608082019790975260a081019590955260c08501939093526001600160a01b0391821660e08501521661010083015261012090910152949350505050565b60018060a01b038a16815288602082015261012060408201525f61086761012083018a6106f6565b610874606084018a610724565b87608084015286151560a08401528560c084015282810360e084015261089a81866106f6565b91505060018060a01b0383166101008301529a995050505050505050505056fea2646970667358221220ddddd537d7229b9b0c0491e6137192f94870616c903c233f1b554825678b42fd64736f6c634300081c0033","opcodes":"PUSH1 0x80 PUSH1 0x40 MSTORE CALLVALUE DUP1 ISZERO PUSH1 0xE JUMPI PUSH0 PUSH0 REVERT JUMPDEST POP PUSH2 0x8F0 DUP1 PUSH2 0x1C PUSH0 CODECOPY PUSH0 RETURN INVALID PUSH1 0x80 PUSH1 0x40 MSTORE CALLVALUE DUP1 ISZERO PUSH2 0xF JUMPI PUSH0 PUSH0 REVERT JUMPDEST POP PUSH1 0x4 CALLDATASIZE LT PUSH2 0x60 JUMPI PUSH0 CALLDATALOAD PUSH1 0xE0 SHR DUP1 PUSH4 0x1FFC9A7 EQ PUSH2 0x62 JUMPI DUP1 PUSH4 0x2ACC37AA EQ PUSH2 0x8A JUMPI DUP1 PUSH4 0x728C2972 EQ PUSH2 0x9C JUMPI DUP1 PUSH4 0x75F0BB52 EQ PUSH2 0xBD JUMPI DUP1 PUSH4 0x93271368 EQ PUSH2 0xD0 JUMPI DUP1 PUSH4 0xDDBDBA63 EQ PUSH2 0xE3 JUMPI JUMPDEST STOP JUMPDEST PUSH2 0x75 PUSH2 0x70 CALLDATASIZE PUSH1 0x4 PUSH2 0x3D8 JUMP JUMPDEST PUSH2 0x102 JUMP JUMPDEST PUSH1 0x40 MLOAD SWAP1 ISZERO ISZERO DUP2 MSTORE PUSH1 0x20 ADD JUMPDEST PUSH1 0x40 MLOAD DUP1 SWAP2 SUB SWAP1 RETURN JUMPDEST PUSH2 0x60 PUSH2 0x98 CALLDATASIZE PUSH1 0x4 PUSH2 0x406 JUMP JUMPDEST POP POP JUMP JUMPDEST PUSH2 0xAF PUSH2 0xAA CALLDATASIZE PUSH1 0x4 PUSH2 0x50C JUMP JUMPDEST PUSH2 0x153 JUMP JUMPDEST PUSH1 0x40 MLOAD SWAP1 DUP2 MSTORE PUSH1 0x20 ADD PUSH2 0x81 JUMP JUMPDEST PUSH2 0x60 PUSH2 0xCB CALLDATASIZE PUSH1 0x4 PUSH2 0x586 JUMP JUMPDEST PUSH2 0x1CE JUMP JUMPDEST PUSH2 0x60 PUSH2 0xDE CALLDATASIZE PUSH1 0x4 PUSH2 0x406 JUMP JUMPDEST PUSH2 0x331 JUMP JUMPDEST PUSH2 0xAF PUSH2 0xF1 CALLDATASIZE PUSH1 0x4 PUSH2 0x663 JUMP JUMPDEST PUSH0 PUSH1 0x20 DUP2 SWAP1 MSTORE SWAP1 DUP2 MSTORE PUSH1 0x40 SWAP1 KECCAK256 SLOAD DUP2 JUMP JUMPDEST PUSH0 PUSH1 0x1 PUSH1 0x1 PUSH1 0xE0 SHL SUB NOT DUP3 AND PUSH4 0x736BD41D PUSH1 0xE1 SHL EQ DUP1 PUSH2 0x132 JUMPI POP PUSH1 0x1 PUSH1 0x1 PUSH1 0xE0 SHL SUB NOT DUP3 AND PUSH4 0xB0803DB PUSH1 0xE3 SHL EQ JUMPDEST DUP1 PUSH2 0x14D JUMPI POP PUSH1 0x1 PUSH1 0x1 PUSH1 0xE0 SHL SUB NOT DUP3 AND PUSH4 0x1FFC9A7 PUSH1 0xE0 SHL EQ JUMPDEST SWAP3 SWAP2 POP POP JUMP JUMPDEST PUSH0 DUP6 DUP6 DUP6 DUP6 DUP6 PUSH1 0x40 MLOAD PUSH1 0x20 ADD PUSH2 0x16D SWAP6 SWAP5 SWAP4 SWAP3 SWAP2 SWAP1 PUSH2 0x67A JUMP JUMPDEST PUSH1 0x40 MLOAD PUSH1 0x20 DUP2 DUP4 SUB SUB DUP2 MSTORE SWAP1 PUSH1 0x40 MSTORE DUP1 MLOAD SWAP1 PUSH1 0x20 ADD KECCAK256 SWAP1 POP DUP1 PUSH32 0x1725771F9D6C4DBC65EB80AABD07685699BB88D63AF391840CF6749871BFB43F DUP8 DUP8 DUP8 DUP8 DUP8 PUSH1 0x40 MLOAD PUSH2 0x1BD SWAP6 SWAP5 SWAP4 SWAP3 SWAP2 SWAP1 PUSH2 0x744 JUMP JUMPDEST PUSH1 0x40 MLOAD DUP1 SWAP2 SUB SWAP1 LOG2 SWAP6 SWAP5 POP POP POP POP POP JUMP JUMPDEST PUSH0 PUSH0 PUSH0 CALLER SWAP1 POP PUSH1 0x1 DUP2 PUSH1 0x1 PUSH1 0x1 PUSH1 0xA0 SHL SUB AND PUSH4 0xAFFED0E0 PUSH1 0x40 MLOAD DUP2 PUSH4 0xFFFFFFFF AND PUSH1 0xE0 SHL DUP2 MSTORE PUSH1 0x4 ADD PUSH1 0x20 PUSH1 0x40 MLOAD DUP1 DUP4 SUB DUP2 DUP7 GAS STATICCALL ISZERO DUP1 ISZERO PUSH2 0x212 JUMPI RETURNDATASIZE PUSH0 PUSH0 RETURNDATACOPY RETURNDATASIZE PUSH0 REVERT JUMPDEST POP POP POP POP PUSH1 0x40 MLOAD RETURNDATASIZE PUSH1 0x1F NOT PUSH1 0x1F DUP3 ADD AND DUP3 ADD DUP1 PUSH1 0x40 MSTORE POP DUP2 ADD SWAP1 PUSH2 0x236 SWAP2 SWAP1 PUSH2 0x794 JUMP JUMPDEST PUSH2 0x240 SWAP2 SWAP1 PUSH2 0x7AB JUMP JUMPDEST SWAP3 POP DUP1 PUSH1 0x1 PUSH1 0x1 PUSH1 0xA0 SHL SUB AND PUSH4 0xD8D11F78 DUP16 DUP16 DUP16 DUP16 DUP16 DUP16 DUP16 DUP16 DUP16 DUP14 PUSH1 0x40 MLOAD DUP12 PUSH4 0xFFFFFFFF AND PUSH1 0xE0 SHL DUP2 MSTORE PUSH1 0x4 ADD PUSH2 0x280 SWAP11 SWAP10 SWAP9 SWAP8 SWAP7 SWAP6 SWAP5 SWAP4 SWAP3 SWAP2 SWAP1 PUSH2 0x7CA JUMP JUMPDEST PUSH1 0x20 PUSH1 0x40 MLOAD DUP1 DUP4 SUB DUP2 DUP7 GAS STATICCALL ISZERO DUP1 ISZERO PUSH2 0x29B JUMPI RETURNDATASIZE PUSH0 PUSH0 RETURNDATACOPY RETURNDATASIZE PUSH0 REVERT JUMPDEST POP POP POP POP PUSH1 0x40 MLOAD RETURNDATASIZE PUSH1 0x1F NOT PUSH1 0x1F DUP3 ADD AND DUP3 ADD DUP1 PUSH1 0x40 MSTORE POP DUP2 ADD SWAP1 PUSH2 0x2BF SWAP2 SWAP1 PUSH2 0x794 JUMP JUMPDEST SWAP2 POP POP DUP1 CALLER PUSH1 0x1 PUSH1 0x1 PUSH1 0xA0 SHL SUB AND PUSH32 0xA65FEF32CD19A6639A4BF7A6D196F132C151E4F0BBD2706F7F831B3A778E1AC0 DUP16 DUP16 DUP16 DUP16 DUP16 PUSH0 DUP16 GT DUP11 DUP14 DUP14 PUSH1 0x40 MLOAD PUSH2 0x30E SWAP10 SWAP9 SWAP8 SWAP7 SWAP6 SWAP5 SWAP4 SWAP3 SWAP2 SWAP1 PUSH2 0x83F JUMP JUMPDEST PUSH1 0x40 MLOAD DUP1 SWAP2 SUB SWAP1 LOG3 PUSH0 SWAP1 DUP2 MSTORE PUSH1 0x20 DUP2 SWAP1 MSTORE PUSH1 0x40 SWAP1 KECCAK256 SSTORE POP POP POP POP POP POP POP POP POP POP POP JUMP JUMPDEST PUSH0 DUP3 DUP2 MSTORE PUSH1 0x20 DUP2 SWAP1 MSTORE PUSH1 0x40 DUP2 KECCAK256 SLOAD SWAP1 DUP2 SWAP1 SUB PUSH2 0x389 JUMPI PUSH1 0x40 MLOAD PUSH3 0x461BCD PUSH1 0xE5 SHL DUP2 MSTORE PUSH1 0x20 PUSH1 0x4 DUP3 ADD MSTORE PUSH1 0x13 PUSH1 0x24 DUP3 ADD MSTORE PUSH19 0x436F756C64206E6F7420676574206E6F6E6365 PUSH1 0x68 SHL PUSH1 0x44 DUP3 ADD MSTORE PUSH1 0x64 ADD PUSH1 0x40 MLOAD DUP1 SWAP2 SUB SWAP1 REVERT JUMPDEST PUSH0 DUP4 DUP2 MSTORE PUSH1 0x20 DUP2 DUP2 MSTORE PUSH1 0x40 DUP1 DUP4 KECCAK256 SWAP3 SWAP1 SWAP3 SSTORE SWAP1 MLOAD DUP4 ISZERO ISZERO DUP2 MSTORE DUP3 SWAP2 DUP6 SWAP2 CALLER SWAP2 PUSH32 0xDCC0FB56A30B6FE6B188F45B47369BC7F3C928A9748E245A79FC3F54DDD0568 SWAP2 ADD PUSH1 0x40 MLOAD DUP1 SWAP2 SUB SWAP1 LOG4 POP POP POP JUMP JUMPDEST PUSH0 PUSH1 0x20 DUP3 DUP5 SUB SLT ISZERO PUSH2 0x3E8 JUMPI PUSH0 PUSH0 REVERT JUMPDEST DUP2 CALLDATALOAD PUSH1 0x1 PUSH1 0x1 PUSH1 0xE0 SHL SUB NOT DUP2 AND DUP2 EQ PUSH2 0x3FF JUMPI PUSH0 PUSH0 REVERT JUMPDEST SWAP4 SWAP3 POP POP POP JUMP JUMPDEST PUSH0 PUSH0 PUSH1 0x40 DUP4 DUP6 SUB SLT ISZERO PUSH2 0x417 JUMPI PUSH0 PUSH0 REVERT JUMPDEST DUP3 CALLDATALOAD SWAP2 POP PUSH1 0x20 DUP4 ADD CALLDATALOAD DUP1 ISZERO ISZERO DUP2 EQ PUSH2 0x42D JUMPI PUSH0 PUSH0 REVERT JUMPDEST DUP1 SWAP2 POP POP SWAP3 POP SWAP3 SWAP1 POP JUMP JUMPDEST PUSH1 0x1 PUSH1 0x1 PUSH1 0xA0 SHL SUB DUP2 AND DUP2 EQ PUSH2 0x44C JUMPI PUSH0 PUSH0 REVERT JUMPDEST POP JUMP JUMPDEST DUP1 CALLDATALOAD PUSH2 0x45A DUP2 PUSH2 0x438 JUMP JUMPDEST SWAP2 SWAP1 POP JUMP JUMPDEST PUSH4 0x4E487B71 PUSH1 0xE0 SHL PUSH0 MSTORE PUSH1 0x41 PUSH1 0x4 MSTORE PUSH1 0x24 PUSH0 REVERT JUMPDEST PUSH0 DUP3 PUSH1 0x1F DUP4 ADD SLT PUSH2 0x482 JUMPI PUSH0 PUSH0 REVERT JUMPDEST DUP2 CALLDATALOAD PUSH8 0xFFFFFFFFFFFFFFFF DUP2 GT ISZERO PUSH2 0x49C JUMPI PUSH2 0x49C PUSH2 0x45F JUMP JUMPDEST PUSH1 0x40 MLOAD PUSH1 0x1F DUP3 ADD PUSH1 0x1F NOT SWAP1 DUP2 AND PUSH1 0x3F ADD AND DUP2 ADD PUSH8 0xFFFFFFFFFFFFFFFF DUP2 GT DUP3 DUP3 LT OR ISZERO PUSH2 0x4CB JUMPI PUSH2 0x4CB PUSH2 0x45F JUMP JUMPDEST PUSH1 0x40 MSTORE DUP2 DUP2 MSTORE DUP4 DUP3 ADD PUSH1 0x20 ADD DUP6 LT ISZERO PUSH2 0x4E2 JUMPI PUSH0 PUSH0 REVERT JUMPDEST DUP2 PUSH1 0x20 DUP6 ADD PUSH1 0x20 DUP4 ADD CALLDATACOPY PUSH0 SWAP2 DUP2 ADD PUSH1 0x20 ADD SWAP2 SWAP1 SWAP2 MSTORE SWAP4 SWAP3 POP POP POP JUMP JUMPDEST DUP1 CALLDATALOAD PUSH1 0x2 DUP2 LT PUSH2 0x45A JUMPI PUSH0 PUSH0 REVERT JUMPDEST PUSH0 PUSH0 PUSH0 PUSH0 PUSH0 PUSH1 0xA0 DUP7 DUP9 SUB SLT ISZERO PUSH2 0x520 JUMPI PUSH0 PUSH0 REVERT JUMPDEST DUP6 CALLDATALOAD PUSH2 0x52B DUP2 PUSH2 0x438 JUMP JUMPDEST SWAP5 POP PUSH1 0x20 DUP7 ADD CALLDATALOAD SWAP4 POP PUSH1 0x40 DUP7 ADD CALLDATALOAD PUSH8 0xFFFFFFFFFFFFFFFF DUP2 GT ISZERO PUSH2 0x54D JUMPI PUSH0 PUSH0 REVERT JUMPDEST PUSH2 0x559 DUP9 DUP3 DUP10 ADD PUSH2 0x473 JUMP JUMPDEST SWAP4 POP POP PUSH2 0x568 PUSH1 0x60 DUP8 ADD PUSH2 0x4FE JUMP JUMPDEST SWAP2 POP PUSH1 0x80 DUP7 ADD CALLDATALOAD PUSH2 0x578 DUP2 PUSH2 0x438 JUMP JUMPDEST DUP1 SWAP2 POP POP SWAP3 SWAP6 POP SWAP3 SWAP6 SWAP1 SWAP4 POP JUMP JUMPDEST PUSH0 PUSH0 PUSH0 PUSH0 PUSH0 PUSH0 PUSH0 PUSH0 PUSH0 PUSH0 PUSH0 PUSH2 0x160 DUP13 DUP15 SUB SLT ISZERO PUSH2 0x5A1 JUMPI PUSH0 PUSH0 REVERT JUMPDEST PUSH2 0x5AA DUP13 PUSH2 0x44F JUMP JUMPDEST SWAP11 POP PUSH1 0x20 DUP13 ADD CALLDATALOAD SWAP10 POP PUSH1 0x40 DUP13 ADD CALLDATALOAD PUSH8 0xFFFFFFFFFFFFFFFF DUP2 GT ISZERO PUSH2 0x5CC JUMPI PUSH0 PUSH0 REVERT JUMPDEST PUSH2 0x5D8 DUP15 DUP3 DUP16 ADD PUSH2 0x473 JUMP JUMPDEST SWAP10 POP POP PUSH2 0x5E7 PUSH1 0x60 DUP14 ADD PUSH2 0x4FE JUMP JUMPDEST SWAP8 POP PUSH1 0x80 DUP13 ADD CALLDATALOAD SWAP7 POP PUSH1 0xA0 DUP13 ADD CALLDATALOAD SWAP6 POP PUSH1 0xC0 DUP13 ADD CALLDATALOAD SWAP5 POP PUSH2 0x60A PUSH1 0xE0 DUP14 ADD PUSH2 0x44F JUMP JUMPDEST SWAP4 POP PUSH2 0x619 PUSH2 0x100 DUP14 ADD PUSH2 0x44F JUMP JUMPDEST SWAP3 POP PUSH2 0x120 DUP13 ADD CALLDATALOAD PUSH8 0xFFFFFFFFFFFFFFFF DUP2 GT ISZERO PUSH2 0x635 JUMPI PUSH0 PUSH0 REVERT JUMPDEST PUSH2 0x641 DUP15 DUP3 DUP16 ADD PUSH2 0x473 JUMP JUMPDEST SWAP3 POP POP PUSH2 0x651 PUSH2 0x140 DUP14 ADD PUSH2 0x44F JUMP JUMPDEST SWAP1 POP SWAP3 SWAP6 SWAP9 SWAP12 POP SWAP3 SWAP6 SWAP9 SWAP12 SWAP1 SWAP4 SWAP7 SWAP10 POP JUMP JUMPDEST PUSH0 PUSH1 0x20 DUP3 DUP5 SUB SLT ISZERO PUSH2 0x673 JUMPI PUSH0 PUSH0 REVERT JUMPDEST POP CALLDATALOAD SWAP2 SWAP1 POP JUMP JUMPDEST PUSH12 0xFFFFFFFFFFFFFFFFFFFFFFFF NOT DUP7 PUSH1 0x60 SHL AND DUP2 MSTORE DUP5 PUSH1 0x14 DUP3 ADD MSTORE PUSH0 DUP5 MLOAD DUP1 PUSH1 0x20 DUP8 ADD PUSH1 0x34 DUP6 ADD MCOPY DUP1 DUP4 ADD SWAP1 POP PUSH1 0x34 DUP2 ADD PUSH0 DUP2 MSTORE PUSH1 0x2 DUP7 LT PUSH2 0x6CA JUMPI PUSH4 0x4E487B71 PUSH1 0xE0 SHL PUSH0 MSTORE PUSH1 0x21 PUSH1 0x4 MSTORE PUSH1 0x24 PUSH0 REVERT JUMPDEST PUSH1 0xF8 SWAP6 SWAP1 SWAP6 SHL SWAP1 SWAP5 MSTORE POP POP PUSH1 0x60 SHL PUSH12 0xFFFFFFFFFFFFFFFFFFFFFFFF NOT AND PUSH1 0x35 DUP3 ADD MSTORE PUSH1 0x49 ADD SWAP4 SWAP3 POP POP POP JUMP JUMPDEST PUSH0 DUP2 MLOAD DUP1 DUP5 MSTORE DUP1 PUSH1 0x20 DUP5 ADD PUSH1 0x20 DUP7 ADD MCOPY PUSH0 PUSH1 0x20 DUP3 DUP7 ADD ADD MSTORE PUSH1 0x20 PUSH1 0x1F NOT PUSH1 0x1F DUP4 ADD AND DUP6 ADD ADD SWAP2 POP POP SWAP3 SWAP2 POP POP JUMP JUMPDEST PUSH1 0x2 DUP2 LT PUSH2 0x740 JUMPI PUSH4 0x4E487B71 PUSH1 0xE0 SHL PUSH0 MSTORE PUSH1 0x21 PUSH1 0x4 MSTORE PUSH1 0x24 PUSH0 REVERT JUMPDEST SWAP1 MSTORE JUMP JUMPDEST PUSH1 0x1 DUP1 PUSH1 0xA0 SHL SUB DUP7 AND DUP2 MSTORE DUP5 PUSH1 0x20 DUP3 ADD MSTORE PUSH1 0xA0 PUSH1 0x40 DUP3 ADD MSTORE PUSH0 PUSH2 0x76A PUSH1 0xA0 DUP4 ADD DUP7 PUSH2 0x6F6 JUMP JUMPDEST SWAP1 POP PUSH2 0x779 PUSH1 0x60 DUP4 ADD DUP6 PUSH2 0x724 JUMP JUMPDEST PUSH1 0x1 PUSH1 0x1 PUSH1 0xA0 SHL SUB SWAP3 SWAP1 SWAP3 AND PUSH1 0x80 SWAP2 SWAP1 SWAP2 ADD MSTORE SWAP5 SWAP4 POP POP POP POP JUMP JUMPDEST PUSH0 PUSH1 0x20 DUP3 DUP5 SUB SLT ISZERO PUSH2 0x7A4 JUMPI PUSH0 PUSH0 REVERT JUMPDEST POP MLOAD SWAP2 SWAP1 POP JUMP JUMPDEST DUP2 DUP2 SUB DUP2 DUP2 GT ISZERO PUSH2 0x14D JUMPI PUSH4 0x4E487B71 PUSH1 0xE0 SHL PUSH0 MSTORE PUSH1 0x11 PUSH1 0x4 MSTORE PUSH1 0x24 PUSH0 REVERT JUMPDEST PUSH1 0x1 DUP1 PUSH1 0xA0 SHL SUB DUP12 AND DUP2 MSTORE DUP10 PUSH1 0x20 DUP3 ADD MSTORE PUSH2 0x140 PUSH1 0x40 DUP3 ADD MSTORE PUSH0 PUSH2 0x7F2 PUSH2 0x140 DUP4 ADD DUP12 PUSH2 0x6F6 JUMP JUMPDEST SWAP1 POP PUSH2 0x801 PUSH1 0x60 DUP4 ADD DUP11 PUSH2 0x724 JUMP JUMPDEST PUSH1 0x80 DUP3 ADD SWAP8 SWAP1 SWAP8 MSTORE PUSH1 0xA0 DUP2 ADD SWAP6 SWAP1 SWAP6 MSTORE PUSH1 0xC0 DUP6 ADD SWAP4 SWAP1 SWAP4 MSTORE PUSH1 0x1 PUSH1 0x1 PUSH1 0xA0 SHL SUB SWAP2 DUP3 AND PUSH1 0xE0 DUP6 ADD MSTORE AND PUSH2 0x100 DUP4 ADD MSTORE PUSH2 0x120 SWAP1 SWAP2 ADD MSTORE SWAP5 SWAP4 POP POP POP POP JUMP JUMPDEST PUSH1 0x1 DUP1 PUSH1 0xA0 SHL SUB DUP11 AND DUP2 MSTORE DUP9 PUSH1 0x20 DUP3 ADD MSTORE PUSH2 0x120 PUSH1 0x40 DUP3 ADD MSTORE PUSH0 PUSH2 0x867 PUSH2 0x120 DUP4 ADD DUP11 PUSH2 0x6F6 JUMP JUMPDEST PUSH2 0x874 PUSH1 0x60 DUP5 ADD DUP11 PUSH2 0x724 JUMP JUMPDEST DUP8 PUSH1 0x80 DUP5 ADD MSTORE DUP7 ISZERO ISZERO PUSH1 0xA0 DUP5 ADD MSTORE DUP6 PUSH1 0xC0 DUP5 ADD MSTORE DUP3 DUP2 SUB PUSH1 0xE0 DUP5 ADD MSTORE PUSH2 0x89A DUP2 DUP7 PUSH2 0x6F6 JUMP JUMPDEST SWAP2 POP POP PUSH1 0x1 DUP1 PUSH1 0xA0 SHL SUB DUP4 AND PUSH2 0x100 DUP4 ADD MSTORE SWAP11 SWAP10 POP POP POP POP POP POP POP POP POP POP JUMP INVALID LOG2 PUSH5 0x6970667358 0x22 SLT KECCAK256 0xDD 0xDD 0xD5 CALLDATACOPY 0xD7 0x22 SWAP12 SWAP12 0xC DIV SWAP2 0xE6 SGT PUSH18 0x92F94870616C903C233F1B554825678B42FD PUSH5 0x736F6C6343 STOP ADDMOD SHR STOP CALLER "},"methodIdentifiers":{"checkAfterExecution(bytes32,bool)":"93271368","checkAfterModuleExecution(bytes32,bool)":"2acc37aa","checkModuleTransaction(address,uint256,bytes,uint8,address)":"728c2972","checkTransaction(address,uint256,bytes,uint8,uint256,uint256,uint256,address,address,bytes,address)":"75f0bb52","supportsInterface(bytes4)":"01ffc9a7","txNonces(bytes32)":"ddbdba63"}}}}}