{"project/contracts/libraries/CreateCall.sol":{"CreateCall":{"abi":[{"anonymous":false,"inputs":[{"indexed":true,"internalType":"address","name":"newContract","type":"address"}],"name":"ContractCreation","type":"event"},{"inputs":[{"internalType":"uint256","name":"value","type":"uint256"},{"internalType":"bytes","name":"deploymentData","type":"bytes"}],"name":"performCreate","outputs":[{"internalType":"address","name":"newContract","type":"address"}],"stateMutability":"nonpayable","type":"function"},{"inputs":[{"internalType":"uint256","name":"value","type":"uint256"},{"internalType":"bytes","name":"deploymentData","type":"bytes"},{"internalType":"bytes32","name":"salt","type":"bytes32"}],"name":"performCreate2","outputs":[{"internalType":"address","name":"newContract","type":"address"}],"stateMutability":"nonpayable","type":"function"}],"evm":{"bytecode":{"linkReferences":{},"object":"6080604052348015600e575f5ffd5b506103128061001c5f395ff3fe608060405234801561000f575f5ffd5b5060043610610034575f3560e01c80634847be6f146100385780634c8c9ea114610067575b5f5ffd5b61004b61004636600461024c565b61007a565b6040516001600160a01b03909116815260200160405180910390f35b61004b610075366004610298565b610117565b5f8183516020850186f590506001600160a01b0381166100dd5760405162461bcd60e51b815260206004820152601960248201527810dbdd5b19081b9bdd0819195c1b1bde4818dbdb9d1c9858dd603a1b60448201526064015b60405180910390fd5b6040516001600160a01b038216907f4db17dd5e4732fb6da34a148104a592783ca119a1e7bb8829eba6cbadef0b511905f90a29392505050565b5f81516020830184f090506001600160a01b0381166101745760405162461bcd60e51b815260206004820152601960248201527810dbdd5b19081b9bdd0819195c1b1bde4818dbdb9d1c9858dd603a1b60448201526064016100d4565b6040516001600160a01b038216907f4db17dd5e4732fb6da34a148104a592783ca119a1e7bb8829eba6cbadef0b511905f90a292915050565b634e487b7160e01b5f52604160045260245ffd5b5f82601f8301126101d0575f5ffd5b813567ffffffffffffffff8111156101ea576101ea6101ad565b604051601f8201601f19908116603f0116810167ffffffffffffffff81118282101715610219576102196101ad565b604052818152838201602001851015610230575f5ffd5b816020850160208301375f918101602001919091529392505050565b5f5f5f6060848603121561025e575f5ffd5b83359250602084013567ffffffffffffffff81111561027b575f5ffd5b610287868287016101c1565b925050604084013590509250925092565b5f5f604083850312156102a9575f5ffd5b82359150602083013567ffffffffffffffff8111156102c6575f5ffd5b6102d2858286016101c1565b915050925092905056fea264697066735822122010f33bf99dbcdf7f017b7a2e5b47d0aeee24780413c75fec90c2e5fca1e9bc7664736f6c634300081c0033","opcodes":"PUSH1 0x80 PUSH1 0x40 MSTORE CALLVALUE DUP1 ISZERO PUSH1 0xE JUMPI PUSH0 PUSH0 REVERT JUMPDEST POP PUSH2 0x312 DUP1 PUSH2 0x1C PUSH0 CODECOPY PUSH0 RETURN INVALID PUSH1 0x80 PUSH1 0x40 MSTORE CALLVALUE DUP1 ISZERO PUSH2 0xF JUMPI PUSH0 PUSH0 REVERT JUMPDEST POP PUSH1 0x4 CALLDATASIZE LT PUSH2 0x34 JUMPI PUSH0 CALLDATALOAD PUSH1 0xE0 SHR DUP1 PUSH4 0x4847BE6F EQ PUSH2 0x38 JUMPI DUP1 PUSH4 0x4C8C9EA1 EQ PUSH2 0x67 JUMPI JUMPDEST PUSH0 PUSH0 REVERT JUMPDEST PUSH2 0x4B PUSH2 0x46 CALLDATASIZE PUSH1 0x4 PUSH2 0x24C JUMP JUMPDEST PUSH2 0x7A JUMP JUMPDEST PUSH1 0x40 MLOAD PUSH1 0x1 PUSH1 0x1 PUSH1 0xA0 SHL SUB SWAP1 SWAP2 AND DUP2 MSTORE PUSH1 0x20 ADD PUSH1 0x40 MLOAD DUP1 SWAP2 SUB SWAP1 RETURN JUMPDEST PUSH2 0x4B PUSH2 0x75 CALLDATASIZE PUSH1 0x4 PUSH2 0x298 JUMP JUMPDEST PUSH2 0x117 JUMP JUMPDEST PUSH0 DUP2 DUP4 MLOAD PUSH1 0x20 DUP6 ADD DUP7 CREATE2 SWAP1 POP PUSH1 0x1 PUSH1 0x1 PUSH1 0xA0 SHL SUB DUP2 AND PUSH2 0xDD JUMPI PUSH1 0x40 MLOAD PUSH3 0x461BCD PUSH1 0xE5 SHL DUP2 MSTORE PUSH1 0x20 PUSH1 0x4 DUP3 ADD MSTORE PUSH1 0x19 PUSH1 0x24 DUP3 ADD MSTORE PUSH25 0x10DBDD5B19081B9BDD0819195C1B1BDE4818DBDB9D1C9858DD PUSH1 0x3A SHL PUSH1 0x44 DUP3 ADD MSTORE PUSH1 0x64 ADD JUMPDEST PUSH1 0x40 MLOAD DUP1 SWAP2 SUB SWAP1 REVERT JUMPDEST PUSH1 0x40 MLOAD PUSH1 0x1 PUSH1 0x1 PUSH1 0xA0 SHL SUB DUP3 AND SWAP1 PUSH32 0x4DB17DD5E4732FB6DA34A148104A592783CA119A1E7BB8829EBA6CBADEF0B511 SWAP1 PUSH0 SWAP1 LOG2 SWAP4 SWAP3 POP POP POP JUMP JUMPDEST PUSH0 DUP2 MLOAD PUSH1 0x20 DUP4 ADD DUP5 CREATE SWAP1 POP PUSH1 0x1 PUSH1 0x1 PUSH1 0xA0 SHL SUB DUP2 AND PUSH2 0x174 JUMPI PUSH1 0x40 MLOAD PUSH3 0x461BCD PUSH1 0xE5 SHL DUP2 MSTORE PUSH1 0x20 PUSH1 0x4 DUP3 ADD MSTORE PUSH1 0x19 PUSH1 0x24 DUP3 ADD MSTORE PUSH25 0x10DBDD5B19081B9BDD0819195C1B1BDE4818DBDB9D1C9858DD PUSH1 0x3A SHL PUSH1 0x44 DUP3 ADD MSTORE PUSH1 0x64 ADD PUSH2 0xD4 JUMP JUMPDEST PUSH1 0x40 MLOAD PUSH1 0x1 PUSH1 0x1 PUSH1 0xA0 SHL SUB DUP3 AND SWAP1 PUSH32 0x4DB17DD5E4732FB6DA34A148104A592783CA119A1E7BB8829EBA6CBADEF0B511 SWAP1 PUSH0 SWAP1 LOG2 SWAP3 SWAP2 POP POP JUMP JUMPDEST PUSH4 0x4E487B71 PUSH1 0xE0 SHL PUSH0 MSTORE PUSH1 0x41 PUSH1 0x4 MSTORE PUSH1 0x24 PUSH0 REVERT JUMPDEST PUSH0 DUP3 PUSH1 0x1F DUP4 ADD SLT PUSH2 0x1D0 JUMPI PUSH0 PUSH0 REVERT JUMPDEST DUP2 CALLDATALOAD PUSH8 0xFFFFFFFFFFFFFFFF DUP2 GT ISZERO PUSH2 0x1EA JUMPI PUSH2 0x1EA PUSH2 0x1AD JUMP JUMPDEST PUSH1 0x40 MLOAD PUSH1 0x1F DUP3 ADD PUSH1 0x1F NOT SWAP1 DUP2 AND PUSH1 0x3F ADD AND DUP2 ADD PUSH8 0xFFFFFFFFFFFFFFFF DUP2 GT DUP3 DUP3 LT OR ISZERO PUSH2 0x219 JUMPI PUSH2 0x219 PUSH2 0x1AD JUMP JUMPDEST PUSH1 0x40 MSTORE DUP2 DUP2 MSTORE DUP4 DUP3 ADD PUSH1 0x20 ADD DUP6 LT ISZERO PUSH2 0x230 JUMPI PUSH0 PUSH0 REVERT JUMPDEST DUP2 PUSH1 0x20 DUP6 ADD PUSH1 0x20 DUP4 ADD CALLDATACOPY PUSH0 SWAP2 DUP2 ADD PUSH1 0x20 ADD SWAP2 SWAP1 SWAP2 MSTORE SWAP4 SWAP3 POP POP POP JUMP JUMPDEST PUSH0 PUSH0 PUSH0 PUSH1 0x60 DUP5 DUP7 SUB SLT ISZERO PUSH2 0x25E JUMPI PUSH0 PUSH0 REVERT JUMPDEST DUP4 CALLDATALOAD SWAP3 POP PUSH1 0x20 DUP5 ADD CALLDATALOAD PUSH8 0xFFFFFFFFFFFFFFFF DUP2 GT ISZERO PUSH2 0x27B JUMPI PUSH0 PUSH0 REVERT JUMPDEST PUSH2 0x287 DUP7 DUP3 DUP8 ADD PUSH2 0x1C1 JUMP JUMPDEST SWAP3 POP POP PUSH1 0x40 DUP5 ADD CALLDATALOAD SWAP1 POP SWAP3 POP SWAP3 POP SWAP3 JUMP JUMPDEST PUSH0 PUSH0 PUSH1 0x40 DUP4 DUP6 SUB SLT ISZERO PUSH2 0x2A9 JUMPI PUSH0 PUSH0 REVERT JUMPDEST DUP3 CALLDATALOAD SWAP2 POP PUSH1 0x20 DUP4 ADD CALLDATALOAD PUSH8 0xFFFFFFFFFFFFFFFF DUP2 GT ISZERO PUSH2 0x2C6 JUMPI PUSH0 PUSH0 REVERT JUMPDEST PUSH2 0x2D2 DUP6 DUP3 DUP7 ADD PUSH2 0x1C1 JUMP JUMPDEST SWAP2 POP POP SWAP3 POP SWAP3 SWAP1 POP JUMP INVALID LOG2 PUSH5 0x6970667358 0x22 SLT KECCAK256 LT RETURN EXTCODESIZE 0xF9 SWAP14 0xBC 0xDF PUSH32 0x17B7A2E5B47D0AEEE24780413C75FEC90C2E5FCA1E9BC7664736F6C63430008 SHR STOP CALLER "},"methodIdentifiers":{"performCreate(uint256,bytes)":"4c8c9ea1","performCreate2(uint256,bytes,bytes32)":"4847be6f"}}}}}