{"project/contracts/libraries/SafeToL2Setup.sol":{"SafeToL2Setup":{"abi":[{"inputs":[],"stateMutability":"nonpayable","type":"constructor"},{"anonymous":false,"inputs":[{"indexed":false,"internalType":"address","name":"singleton","type":"address"}],"name":"ChangedMasterCopy","type":"event"},{"inputs":[{"internalType":"address","name":"l2Singleton","type":"address"}],"name":"setupToL2","outputs":[],"stateMutability":"nonpayable","type":"function"}],"evm":{"bytecode":{"linkReferences":{},"object":"60a0604052348015600e575f5ffd5b503060805260805161024861002a5f395f604c01526102485ff3fe608060405234801561000f575f5ffd5b5060043610610029575f3560e01c8063fe51f6431461002d575b5f5ffd5b61004061003b3660046101e5565b610042565b005b6001600160a01b037f00000000000000000000000000000000000000000000000000000000000000001630036100dc5760405162461bcd60e51b815260206004820152603460248201527f53616665546f4c3253657475702073686f756c64206f6e6c792062652063616c6044820152731b1959081d9a584819195b1959d85d1958d85b1b60621b60648201526084015b60405180910390fd5b600554156101375760405162461bcd60e51b815260206004820152602260248201527f53616665206d7573742068617665206e6f7420657865637574656420616e79206044820152610e8f60f31b60648201526084016100d3565b80803b5f036101885760405162461bcd60e51b815260206004820152601c60248201527f4163636f756e7420646f65736e277420636f6e7461696e20636f64650000000060448201526064016100d3565b466001146101e1575f80546001600160a01b0319166001600160a01b0384169081179091556040519081527f75e41bc35ff1bf14d81d1d2f649c0084a0f974f9289c803ec9898eeec4c8d0b89060200160405180910390a15b5050565b5f602082840312156101f5575f5ffd5b81356001600160a01b038116811461020b575f5ffd5b939250505056fea26469706673582212207605f7f3306438168d04a348394ac3a5782d6cbe211ed12f8a74e710bca0caa364736f6c634300081c0033","opcodes":"PUSH1 0xA0 PUSH1 0x40 MSTORE CALLVALUE DUP1 ISZERO PUSH1 0xE JUMPI PUSH0 PUSH0 REVERT JUMPDEST POP ADDRESS PUSH1 0x80 MSTORE PUSH1 0x80 MLOAD PUSH2 0x248 PUSH2 0x2A PUSH0 CODECOPY PUSH0 PUSH1 0x4C ADD MSTORE PUSH2 0x248 PUSH0 RETURN INVALID PUSH1 0x80 PUSH1 0x40 MSTORE CALLVALUE DUP1 ISZERO PUSH2 0xF JUMPI PUSH0 PUSH0 REVERT JUMPDEST POP PUSH1 0x4 CALLDATASIZE LT PUSH2 0x29 JUMPI PUSH0 CALLDATALOAD PUSH1 0xE0 SHR DUP1 PUSH4 0xFE51F643 EQ PUSH2 0x2D JUMPI JUMPDEST PUSH0 PUSH0 REVERT JUMPDEST PUSH2 0x40 PUSH2 0x3B CALLDATASIZE PUSH1 0x4 PUSH2 0x1E5 JUMP JUMPDEST PUSH2 0x42 JUMP JUMPDEST STOP JUMPDEST PUSH1 0x1 PUSH1 0x1 PUSH1 0xA0 SHL SUB PUSH32 0x0 AND ADDRESS SUB PUSH2 0xDC JUMPI PUSH1 0x40 MLOAD PUSH3 0x461BCD PUSH1 0xE5 SHL DUP2 MSTORE PUSH1 0x20 PUSH1 0x4 DUP3 ADD MSTORE PUSH1 0x34 PUSH1 0x24 DUP3 ADD MSTORE PUSH32 0x53616665546F4C3253657475702073686F756C64206F6E6C792062652063616C PUSH1 0x44 DUP3 ADD MSTORE PUSH20 0x1B1959081D9A584819195B1959D85D1958D85B1B PUSH1 0x62 SHL PUSH1 0x64 DUP3 ADD MSTORE PUSH1 0x84 ADD JUMPDEST PUSH1 0x40 MLOAD DUP1 SWAP2 SUB SWAP1 REVERT JUMPDEST PUSH1 0x5 SLOAD ISZERO PUSH2 0x137 JUMPI PUSH1 0x40 MLOAD PUSH3 0x461BCD PUSH1 0xE5 SHL DUP2 MSTORE PUSH1 0x20 PUSH1 0x4 DUP3 ADD MSTORE PUSH1 0x22 PUSH1 0x24 DUP3 ADD MSTORE PUSH32 0x53616665206D7573742068617665206E6F7420657865637574656420616E7920 PUSH1 0x44 DUP3 ADD MSTORE PUSH2 0xE8F PUSH1 0xF3 SHL PUSH1 0x64 DUP3 ADD MSTORE PUSH1 0x84 ADD PUSH2 0xD3 JUMP JUMPDEST DUP1 DUP1 EXTCODESIZE PUSH0 SUB PUSH2 0x188 JUMPI PUSH1 0x40 MLOAD PUSH3 0x461BCD PUSH1 0xE5 SHL DUP2 MSTORE PUSH1 0x20 PUSH1 0x4 DUP3 ADD MSTORE PUSH1 0x1C PUSH1 0x24 DUP3 ADD MSTORE PUSH32 0x4163636F756E7420646F65736E277420636F6E7461696E20636F646500000000 PUSH1 0x44 DUP3 ADD MSTORE PUSH1 0x64 ADD PUSH2 0xD3 JUMP JUMPDEST CHAINID PUSH1 0x1 EQ PUSH2 0x1E1 JUMPI PUSH0 DUP1 SLOAD PUSH1 0x1 PUSH1 0x1 PUSH1 0xA0 SHL SUB NOT AND PUSH1 0x1 PUSH1 0x1 PUSH1 0xA0 SHL SUB DUP5 AND SWAP1 DUP2 OR SWAP1 SWAP2 SSTORE PUSH1 0x40 MLOAD SWAP1 DUP2 MSTORE PUSH32 0x75E41BC35FF1BF14D81D1D2F649C0084A0F974F9289C803EC9898EEEC4C8D0B8 SWAP1 PUSH1 0x20 ADD PUSH1 0x40 MLOAD DUP1 SWAP2 SUB SWAP1 LOG1 JUMPDEST POP POP JUMP JUMPDEST PUSH0 PUSH1 0x20 DUP3 DUP5 SUB SLT ISZERO PUSH2 0x1F5 JUMPI PUSH0 PUSH0 REVERT JUMPDEST DUP2 CALLDATALOAD PUSH1 0x1 PUSH1 0x1 PUSH1 0xA0 SHL SUB DUP2 AND DUP2 EQ PUSH2 0x20B JUMPI PUSH0 PUSH0 REVERT JUMPDEST SWAP4 SWAP3 POP POP POP JUMP INVALID LOG2 PUSH5 0x6970667358 0x22 SLT KECCAK256 PUSH23 0x5F7F3306438168D04A348394AC3A5782D6CBE211ED12F DUP11 PUSH21 0xE710BCA0CAA364736F6C634300081C003300000000 "},"methodIdentifiers":{"setupToL2(address)":"fe51f643"}}}}}