{"project/contracts/handler/ExtensibleFallbackHandler.sol":{"ExtensibleFallbackHandler":{"abi":[{"anonymous":false,"inputs":[{"indexed":true,"internalType":"contract ISafe","name":"safe","type":"address"},{"indexed":false,"internalType":"bytes4","name":"interfaceId","type":"bytes4"}],"name":"AddedInterface","type":"event"},{"anonymous":false,"inputs":[{"indexed":true,"internalType":"contract ISafe","name":"safe","type":"address"},{"indexed":false,"internalType":"bytes32","name":"domainSeparator","type":"bytes32"},{"indexed":false,"internalType":"contract ISafeSignatureVerifier","name":"oldVerifier","type":"address"},{"indexed":false,"internalType":"contract ISafeSignatureVerifier","name":"newVerifier","type":"address"}],"name":"ChangedDomainVerifier","type":"event"},{"anonymous":false,"inputs":[{"indexed":true,"internalType":"contract ISafe","name":"safe","type":"address"},{"indexed":false,"internalType":"bytes4","name":"selector","type":"bytes4"},{"indexed":false,"internalType":"bytes32","name":"oldMethod","type":"bytes32"},{"indexed":false,"internalType":"bytes32","name":"newMethod","type":"bytes32"}],"name":"ChangedSafeMethod","type":"event"},{"anonymous":false,"inputs":[{"indexed":true,"internalType":"contract ISafe","name":"safe","type":"address"},{"indexed":false,"internalType":"bytes4","name":"interfaceId","type":"bytes4"}],"name":"RemovedInterface","type":"event"},{"stateMutability":"nonpayable","type":"fallback"},{"inputs":[{"internalType":"bytes4","name":"_interfaceId","type":"bytes4"},{"internalType":"bytes32[]","name":"handlerWithSelectors","type":"bytes32[]"}],"name":"addSupportedInterfaceBatch","outputs":[],"stateMutability":"nonpayable","type":"function"},{"inputs":[{"internalType":"contract ISafe","name":"","type":"address"},{"internalType":"bytes32","name":"","type":"bytes32"}],"name":"domainVerifiers","outputs":[{"internalType":"contract ISafeSignatureVerifier","name":"","type":"address"}],"stateMutability":"view","type":"function"},{"inputs":[{"internalType":"bytes32","name":"_hash","type":"bytes32"},{"internalType":"bytes","name":"signature","type":"bytes"}],"name":"isValidSignature","outputs":[{"internalType":"bytes4","name":"magic","type":"bytes4"}],"stateMutability":"view","type":"function"},{"inputs":[{"internalType":"address","name":"","type":"address"},{"internalType":"address","name":"","type":"address"},{"internalType":"uint256[]","name":"","type":"uint256[]"},{"internalType":"uint256[]","name":"","type":"uint256[]"},{"internalType":"bytes","name":"","type":"bytes"}],"name":"onERC1155BatchReceived","outputs":[{"internalType":"bytes4","name":"","type":"bytes4"}],"stateMutability":"view","type":"function"},{"inputs":[{"internalType":"address","name":"","type":"address"},{"internalType":"address","name":"","type":"address"},{"internalType":"uint256","name":"","type":"uint256"},{"internalType":"uint256","name":"","type":"uint256"},{"internalType":"bytes","name":"","type":"bytes"}],"name":"onERC1155Received","outputs":[{"internalType":"bytes4","name":"","type":"bytes4"}],"stateMutability":"view","type":"function"},{"inputs":[{"internalType":"address","name":"","type":"address"},{"internalType":"address","name":"","type":"address"},{"internalType":"uint256","name":"","type":"uint256"},{"internalType":"bytes","name":"","type":"bytes"}],"name":"onERC721Received","outputs":[{"internalType":"bytes4","name":"","type":"bytes4"}],"stateMutability":"view","type":"function"},{"inputs":[{"internalType":"bytes4","name":"_interfaceId","type":"bytes4"},{"internalType":"bytes4[]","name":"selectors","type":"bytes4[]"}],"name":"removeSupportedInterfaceBatch","outputs":[],"stateMutability":"nonpayable","type":"function"},{"inputs":[{"internalType":"contract ISafe","name":"","type":"address"},{"internalType":"bytes4","name":"","type":"bytes4"}],"name":"safeInterfaces","outputs":[{"internalType":"bool","name":"","type":"bool"}],"stateMutability":"view","type":"function"},{"inputs":[{"internalType":"contract ISafe","name":"","type":"address"},{"internalType":"bytes4","name":"","type":"bytes4"}],"name":"safeMethods","outputs":[{"internalType":"bytes32","name":"","type":"bytes32"}],"stateMutability":"view","type":"function"},{"inputs":[{"internalType":"bytes32","name":"domainSeparator","type":"bytes32"},{"internalType":"contract ISafeSignatureVerifier","name":"newVerifier","type":"address"}],"name":"setDomainVerifier","outputs":[],"stateMutability":"nonpayable","type":"function"},{"inputs":[{"internalType":"bytes4","name":"selector","type":"bytes4"},{"internalType":"bytes32","name":"newMethod","type":"bytes32"}],"name":"setSafeMethod","outputs":[],"stateMutability":"nonpayable","type":"function"},{"inputs":[{"internalType":"bytes4","name":"interfaceId","type":"bytes4"},{"internalType":"bool","name":"supported","type":"bool"}],"name":"setSupportedInterface","outputs":[],"stateMutability":"nonpayable","type":"function"},{"inputs":[{"internalType":"bytes4","name":"interfaceId","type":"bytes4"}],"name":"supportsInterface","outputs":[{"internalType":"bool","name":"","type":"bool"}],"stateMutability":"view","type":"function"}],"evm":{"bytecode":{"linkReferences":{},"object":"6080604052348015600e575f5ffd5b506118f38061001c5f395ff3fe608060405234801561000f575f5ffd5b50600436106100cd575f3560e01c806351cad5ee1161008a5780637f73528b116100645780637f73528b146103fd578063b435a13b14610410578063bc197c811461043d578063f23a6e6114610450576100cd565b806351cad5ee1461038c57806361f5401b146103d757806364f95acc146103ea576100cd565b806301ffc9a7146102c85780630a3fe054146102f0578063150b7a02146103255780631626ba7e14610351578063327b533c146103645780633365582c14610379575b5f36606060188210156101275760405162461bcd60e51b815260206004820152601760248201527f696e76616c6964206d6574686f642073656c6563746f7200000000000000000060448201526064015b60405180910390fd5b5f5f5f5f610133610463565b929650909450925090506001600160a01b03811661018c5760405162461bcd60e51b81526020600482015260166024820152751b595d1a1bd9081a185b991b195c881b9bdd081cd95d60521b604482015260640161011e565b8115610227576001600160a01b0381166325d6803f85855f8080366101b2601482611125565b926101bf93929190611144565b6040518663ffffffff1660e01b81526004016101df95949392919061116b565b5f60405180830381865afa1580156101f9573d5f5f3e3d5ffd5b505050506040513d5f823e601f3d908101601f191682016040526102209190810190611225565b94506102b9565b6001600160a01b0381166325d6803f85855f808036610247601482611125565b9261025493929190611144565b6040518663ffffffff1660e01b815260040161027495949392919061116b565b5f604051808303815f875af115801561028f573d5f5f3e3d5ffd5b505050506040513d5f823e601f3d908101601f191682016040526102b69190810190611225565b94505b50505050915050805190602001f35b6102db6102d63660046112b6565b6104b3565b60405190151581526020015b60405180910390f35b6103176102fe3660046112e5565b5f60208181529281526040808220909352908152205481565b6040519081526020016102e7565b610338610333366004611360565b610526565b6040516001600160e01b031990911681526020016102e7565b61033861035f3660046113cd565b610541565b610377610372366004611454565b6106e4565b005b610377610387366004611497565b6107fd565b6103bf61039a3660046114ba565b600160209081525f92835260408084209091529082529020546001600160a01b031681565b6040516001600160a01b0390911681526020016102e7565b6103776103e5366004611454565b6108b9565b6103776103f83660046114e4565b6109c2565b61037761040b366004611500565b610a07565b6102db61041e3660046112e5565b600260209081525f928352604080842090915290825290205460ff1681565b61033861044b366004611530565b610b8f565b61033861045e3660046115f0565b610bad565b5f5f5f5f61046f610bc9565b6001600160a01b038281165f908152602081815260408083206001600160e01b03198435168452909152902054929791965060f883901c1595509190911692509050565b5f6001600160e01b031982166301ffc9a760e01b14806104e357506001600160e01b031982166398c8e09760e01b145b806104f257506104f282610bd9565b806105205750335f9081526002602090815260408083206001600160e01b03198616845290915290205460ff165b92915050565b5f61052f610c7a565b50630a85bd0160e11b95945050505050565b5f5f5f61054c610bc9565b9092509050600484106106985784356001600160e01b03198116635fd7e97d60e01b14801561057c575060448510155b15610696575f8061059160446004898b611144565b81019061059e9190611666565b6001600160a01b038088165f908152600160209081526040808320868452909152902054929450909250168015610692575f806105de8a6004818e611144565b8101906105eb91906116d3565b9350935050508b6105fd868685610d69565b805190602001200361068f57826001600160a01b03166353f00b1489898f898988886040518863ffffffff1660e01b81526004016106419796959493929190611776565b602060405180830381865afa15801561065c573d5f5f3e3d5ffd5b505050506040513d601f19601f8201168201806040525081019061068091906117d6565b985050505050505050506106dd565b50505b5050505b505b6106d8828787878080601f0160208091040260200160405190810160405280939291908181526020018383808284375f92019190915250610de392505050565b925050505b9392505050565b336106ed610fd7565b6001600160a01b0316146107135760405162461bcd60e51b815260040161011e906117f1565b5f61071c610fd7565b90505f82815b81811015610795575f5f5f61076c89898681811061074257610742611828565b9050602002013560f881901c15916001600160a81b0319600883901b16916001600160a01b031690565b92509250925061078687836107818685611036565b61105d565b50939093189250600101610722565b506001600160e01b0319828116908716146107ea5760405162461bcd60e51b81526020600482015260156024820152740d2dce8cae4ccc2c6ca40d2c840dad2e6dac2e8c6d605b1b604482015260640161011e565b6107f5866001610a07565b505050505050565b33610806610fd7565b6001600160a01b03161461082c5760405162461bcd60e51b815260040161011e906117f1565b5f610835610fd7565b6001600160a01b038181165f81815260016020908152604080832089845282529182902080548886166001600160a01b03198216811790925583518a8152951691850182905291840191909152929350907f06341ac2f62eb79165de8c8b54ab89a8825b12746c2b98e01dff1007837d2ba89060600160405180910390a250505050565b336108c2610fd7565b6001600160a01b0316146108e85760405162461bcd60e51b815260040161011e906117f1565b5f6108f1610fd7565b90505f82815b81811015610963576109308487878481811061091557610915611828565b905060200201602081019061092a91906112b6565b5f61105d565b85858281811061094257610942611828565b905060200201602081019061095791906112b6565b909218916001016108f7565b506001600160e01b0319828116908716146109b85760405162461bcd60e51b81526020600482015260156024820152740d2dce8cae4ccc2c6ca40d2c840dad2e6dac2e8c6d605b1b604482015260640161011e565b6107f5865f610a07565b336109cb610fd7565b6001600160a01b0316146109f15760405162461bcd60e51b815260040161011e906117f1565b610a036109fc610fd7565b838361105d565b5050565b33610a10610fd7565b6001600160a01b031614610a365760405162461bcd60e51b815260040161011e906117f1565b336001600160e01b03198381169003610a885760405162461bcd60e51b81526020600482015260146024820152731a5b9d985b1a59081a5b9d195c999858d9481a5960621b604482015260640161011e565b6001600160a01b0381165f9081526002602090815260408083206001600160e01b031987168452918290529091205460ff1683151581151514610b88576001600160e01b031985165f908152602083905260409020805460ff19168515801591909117909155610b3f576040516001600160e01b0319861681526001600160a01b038416907f3d5024c13f12fa602dbf52b1979058940c224ebf170c83a4e358725ae50db36d9060200160405180910390a2610b88565b6040516001600160e01b0319861681526001600160a01b038416907ff159d834f487747c1b3f17e2107743e42e6eecff444d894e511c18943072b29f9060200160405180910390a25b5050505050565b5f610b98610c7a565b5063bc197c8160e01b98975050505050505050565b5f610bb6610c7a565b5063f23a6e6160e01b9695505050505050565b335f610bd3610fd7565b90509091565b5f6001600160e01b03198216630a85bd0160e11b1480610c0957506001600160e01b03198216630271189760e51b145b80610c2457506001600160e01b03198216630b135d3f60e11b145b80610c3f57506001600160e01b03198216633157c6e160e11b145b80610c5a57506001600160e01b03198216630993729360e41b145b8061052057506001600160e01b0319821663193e56b360e21b1492915050565b604051635624b25b60e01b81527f6c9a6c4a39284e37ed1cf53d337577d14212a4870fb976a4366c693b939918d56004820152600160248201525f903390635624b25b906044015f60405180830381865afa158015610cdb573d5f5f3e3d5ffd5b505050506040513d5f823e601f3d908101601f19168201604052610d029190810190611225565b90505f81806020019051810190610d19919061183c565b90506001600160a01b0381163014610a035760405162461bcd60e51b81526020600482015260136024820152721b9bdd08184819985b1b189858dac818d85b1b606a1b604482015260640161011e565b6060601960f81b600160f81b858585604051602001610d89929190611857565b60408051808303601f190181529082905280516020918201206001600160f81b0319958616918301919091529290931660218401526022830152604282015260620160405160208183030381529060405290509392505050565b5f5f610ea7856001600160a01b031663f698da256040518163ffffffff1660e01b8152600401602060405180830381865afa158015610e24573d5f5f3e3d5ffd5b505050506040513d601f19601f82011682018060405250810190610e489190611877565b60408051602081018890527f60b3cbf8b4a223d68d641b3b6ddf9a298e7f33710cf3d3a9d1146b5a6150fbca910160408051601f1981840301815282825280516020918201209083015201604051602081830303815290604052610d69565b805160208201208451919250905f03610f6857604051635ae6bd3760e01b8152600481018290526001600160a01b03871690635ae6bd3790602401602060405180830381865afa158015610efd573d5f5f3e3d5ffd5b505050506040513d601f19601f82011682018060405250810190610f219190611877565b5f03610f635760405162461bcd60e51b815260206004820152601160248201527012185cda081b9bdd08185c1c1c9bdd9959607a1b604482015260640161011e565b610fc5565b60405163f855438b60e01b81526001600160a01b0387169063f855438b90610f98905f908590899060040161188e565b5f6040518083038186803b158015610fae575f5ffd5b505afa158015610fc0573d5f5f3e3d5ffd5b505050505b50630b135d3f60e11b95945050505050565b5f60143610156110295760405162461bcd60e51b815260206004820152601760248201527f496e76616c69642063616c6c64617461206c656e677468000000000000000000604482015260640161011e565b5060131936013560601c90565b5f8261104657600160f81b611048565b5f5b826001600160a01b0316175f1b905092915050565b6001600160a01b0383165f908152602081815260408083206001600160e01b0319861684529182905282205490916110a48460f881901c15916001600160a01b0390911690565b9150506001600160a01b0381166110b9575f93505b6001600160e01b031985165f81815260208581526040918290208790558151928352820184905281018590526001600160a01b038716907fe6e8ad7e5547dc860775f9f0638e195a4751a4cfbb7fd2ab60a52eb6c07082ec9060600160405180910390a2505050505050565b8181038181111561052057634e487b7160e01b5f52601160045260245ffd5b5f5f85851115611152575f5ffd5b8386111561115e575f5ffd5b5050820193919092039150565b6001600160a01b03868116825285166020820152604081018490526080606082018190528101829052818360a08301375f81830160a090810191909152601f909201601f19160101949350505050565b634e487b7160e01b5f52604160045260245ffd5b604051601f8201601f191681016001600160401b03811182821017156111f7576111f76111bb565b604052919050565b5f6001600160401b03821115611217576112176111bb565b50601f01601f191660200190565b5f60208284031215611235575f5ffd5b81516001600160401b0381111561124a575f5ffd5b8201601f8101841361125a575f5ffd5b805161126d611268826111ff565b6111cf565b818152856020838501011115611281575f5ffd5b8160208401602083015e5f91810160200191909152949350505050565b6001600160e01b0319811681146112b3575f5ffd5b50565b5f602082840312156112c6575f5ffd5b81356106dd8161129e565b6001600160a01b03811681146112b3575f5ffd5b5f5f604083850312156112f6575f5ffd5b8235611301816112d1565b915060208301356113118161129e565b809150509250929050565b5f5f83601f84011261132c575f5ffd5b5081356001600160401b03811115611342575f5ffd5b602083019150836020828501011115611359575f5ffd5b9250929050565b5f5f5f5f5f60808688031215611374575f5ffd5b853561137f816112d1565b9450602086013561138f816112d1565b93506040860135925060608601356001600160401b038111156113b0575f5ffd5b6113bc8882890161131c565b969995985093965092949392505050565b5f5f5f604084860312156113df575f5ffd5b8335925060208401356001600160401b038111156113fb575f5ffd5b6114078682870161131c565b9497909650939450505050565b5f5f83601f840112611424575f5ffd5b5081356001600160401b0381111561143a575f5ffd5b6020830191508360208260051b8501011115611359575f5ffd5b5f5f5f60408486031215611466575f5ffd5b83356114718161129e565b925060208401356001600160401b0381111561148b575f5ffd5b61140786828701611414565b5f5f604083850312156114a8575f5ffd5b823591506020830135611311816112d1565b5f5f604083850312156114cb575f5ffd5b82356114d6816112d1565b946020939093013593505050565b5f5f604083850312156114f5575f5ffd5b82356114d68161129e565b5f5f60408385031215611511575f5ffd5b823561151c8161129e565b915060208301358015158114611311575f5ffd5b5f5f5f5f5f5f5f5f60a0898b031215611547575f5ffd5b8835611552816112d1565b97506020890135611562816112d1565b965060408901356001600160401b0381111561157c575f5ffd5b6115888b828c01611414565b90975095505060608901356001600160401b038111156115a6575f5ffd5b6115b28b828c01611414565b90955093505060808901356001600160401b038111156115d0575f5ffd5b6115dc8b828c0161131c565b999c989b5096995094979396929594505050565b5f5f5f5f5f5f60a08789031215611605575f5ffd5b8635611610816112d1565b95506020870135611620816112d1565b9450604087013593506060870135925060808701356001600160401b03811115611648575f5ffd5b61165489828a0161131c565b979a9699509497509295939492505050565b5f5f60408385031215611677575f5ffd5b50508035926020909101359150565b5f82601f830112611695575f5ffd5b81356116a3611268826111ff565b8181528460208386010111156116b7575f5ffd5b816020850160208301375f918101602001919091529392505050565b5f5f5f5f608085870312156116e6575f5ffd5b843593506020850135925060408501356001600160401b03811115611709575f5ffd5b61171587828801611686565b92505060608501356001600160401b03811115611730575f5ffd5b61173c87828801611686565b91505092959194509250565b5f81518084528060208401602086015e5f602082860101526020601f19601f83011685010191505092915050565b6001600160a01b0388811682528716602082015260408101869052606081018590526080810184905260e060a082018190525f906117b690830185611748565b82810360c08401526117c88185611748565b9a9950505050505050505050565b5f602082840312156117e6575f5ffd5b81516106dd8161129e565b6020808252601e908201527f6f6e6c7920736166652063616e2063616c6c2074686973206d6574686f640000604082015260600190565b634e487b7160e01b5f52603260045260245ffd5b5f6020828403121561184c575f5ffd5b81516106dd816112d1565b8281525f82518060208501602085015e5f92016020019182525092915050565b5f60208284031215611887575f5ffd5b5051919050565b60018060a01b0384168152826020820152606060408201525f6118b46060830184611748565b9594505050505056fea2646970667358221220d92f532c1171729d65f0119bb2ec8b2526d0ea1de05a57f3090b8df84181c4de64736f6c634300081c0033","opcodes":"PUSH1 0x80 PUSH1 0x40 MSTORE CALLVALUE DUP1 ISZERO PUSH1 0xE JUMPI PUSH0 PUSH0 REVERT JUMPDEST POP PUSH2 0x18F3 DUP1 PUSH2 0x1C PUSH0 CODECOPY PUSH0 RETURN INVALID PUSH1 0x80 PUSH1 0x40 MSTORE CALLVALUE DUP1 ISZERO PUSH2 0xF JUMPI PUSH0 PUSH0 REVERT JUMPDEST POP PUSH1 0x4 CALLDATASIZE LT PUSH2 0xCD JUMPI PUSH0 CALLDATALOAD PUSH1 0xE0 SHR DUP1 PUSH4 0x51CAD5EE GT PUSH2 0x8A JUMPI DUP1 PUSH4 0x7F73528B GT PUSH2 0x64 JUMPI DUP1 PUSH4 0x7F73528B EQ PUSH2 0x3FD JUMPI DUP1 PUSH4 0xB435A13B EQ PUSH2 0x410 JUMPI DUP1 PUSH4 0xBC197C81 EQ PUSH2 0x43D JUMPI DUP1 PUSH4 0xF23A6E61 EQ PUSH2 0x450 JUMPI PUSH2 0xCD JUMP JUMPDEST DUP1 PUSH4 0x51CAD5EE EQ PUSH2 0x38C JUMPI DUP1 PUSH4 0x61F5401B EQ PUSH2 0x3D7 JUMPI DUP1 PUSH4 0x64F95ACC EQ PUSH2 0x3EA JUMPI PUSH2 0xCD JUMP JUMPDEST DUP1 PUSH4 0x1FFC9A7 EQ PUSH2 0x2C8 JUMPI DUP1 PUSH4 0xA3FE054 EQ PUSH2 0x2F0 JUMPI DUP1 PUSH4 0x150B7A02 EQ PUSH2 0x325 JUMPI DUP1 PUSH4 0x1626BA7E EQ PUSH2 0x351 JUMPI DUP1 PUSH4 0x327B533C EQ PUSH2 0x364 JUMPI DUP1 PUSH4 0x3365582C EQ PUSH2 0x379 JUMPI JUMPDEST PUSH0 CALLDATASIZE PUSH1 0x60 PUSH1 0x18 DUP3 LT ISZERO PUSH2 0x127 JUMPI PUSH1 0x40 MLOAD PUSH3 0x461BCD PUSH1 0xE5 SHL DUP2 MSTORE PUSH1 0x20 PUSH1 0x4 DUP3 ADD MSTORE PUSH1 0x17 PUSH1 0x24 DUP3 ADD MSTORE PUSH32 0x696E76616C6964206D6574686F642073656C6563746F72000000000000000000 PUSH1 0x44 DUP3 ADD MSTORE PUSH1 0x64 ADD JUMPDEST PUSH1 0x40 MLOAD DUP1 SWAP2 SUB SWAP1 REVERT JUMPDEST PUSH0 PUSH0 PUSH0 PUSH0 PUSH2 0x133 PUSH2 0x463 JUMP JUMPDEST SWAP3 SWAP7 POP SWAP1 SWAP5 POP SWAP3 POP SWAP1 POP PUSH1 0x1 PUSH1 0x1 PUSH1 0xA0 SHL SUB DUP2 AND PUSH2 0x18C JUMPI PUSH1 0x40 MLOAD PUSH3 0x461BCD PUSH1 0xE5 SHL DUP2 MSTORE PUSH1 0x20 PUSH1 0x4 DUP3 ADD MSTORE PUSH1 0x16 PUSH1 0x24 DUP3 ADD MSTORE PUSH22 0x1B595D1A1BD9081A185B991B195C881B9BDD081CD95D PUSH1 0x52 SHL PUSH1 0x44 DUP3 ADD MSTORE PUSH1 0x64 ADD PUSH2 0x11E JUMP JUMPDEST DUP2 ISZERO PUSH2 0x227 JUMPI PUSH1 0x1 PUSH1 0x1 PUSH1 0xA0 SHL SUB DUP2 AND PUSH4 0x25D6803F DUP6 DUP6 PUSH0 DUP1 DUP1 CALLDATASIZE PUSH2 0x1B2 PUSH1 0x14 DUP3 PUSH2 0x1125 JUMP JUMPDEST SWAP3 PUSH2 0x1BF SWAP4 SWAP3 SWAP2 SWAP1 PUSH2 0x1144 JUMP JUMPDEST PUSH1 0x40 MLOAD DUP7 PUSH4 0xFFFFFFFF AND PUSH1 0xE0 SHL DUP2 MSTORE PUSH1 0x4 ADD PUSH2 0x1DF SWAP6 SWAP5 SWAP4 SWAP3 SWAP2 SWAP1 PUSH2 0x116B JUMP JUMPDEST PUSH0 PUSH1 0x40 MLOAD DUP1 DUP4 SUB DUP2 DUP7 GAS STATICCALL ISZERO DUP1 ISZERO PUSH2 0x1F9 JUMPI RETURNDATASIZE PUSH0 PUSH0 RETURNDATACOPY RETURNDATASIZE PUSH0 REVERT JUMPDEST POP POP POP POP PUSH1 0x40 MLOAD RETURNDATASIZE PUSH0 DUP3 RETURNDATACOPY PUSH1 0x1F RETURNDATASIZE SWAP1 DUP2 ADD PUSH1 0x1F NOT AND DUP3 ADD PUSH1 0x40 MSTORE PUSH2 0x220 SWAP2 SWAP1 DUP2 ADD SWAP1 PUSH2 0x1225 JUMP JUMPDEST SWAP5 POP PUSH2 0x2B9 JUMP JUMPDEST PUSH1 0x1 PUSH1 0x1 PUSH1 0xA0 SHL SUB DUP2 AND PUSH4 0x25D6803F DUP6 DUP6 PUSH0 DUP1 DUP1 CALLDATASIZE PUSH2 0x247 PUSH1 0x14 DUP3 PUSH2 0x1125 JUMP JUMPDEST SWAP3 PUSH2 0x254 SWAP4 SWAP3 SWAP2 SWAP1 PUSH2 0x1144 JUMP JUMPDEST PUSH1 0x40 MLOAD DUP7 PUSH4 0xFFFFFFFF AND PUSH1 0xE0 SHL DUP2 MSTORE PUSH1 0x4 ADD PUSH2 0x274 SWAP6 SWAP5 SWAP4 SWAP3 SWAP2 SWAP1 PUSH2 0x116B JUMP JUMPDEST PUSH0 PUSH1 0x40 MLOAD DUP1 DUP4 SUB DUP2 PUSH0 DUP8 GAS CALL ISZERO DUP1 ISZERO PUSH2 0x28F JUMPI RETURNDATASIZE PUSH0 PUSH0 RETURNDATACOPY RETURNDATASIZE PUSH0 REVERT JUMPDEST POP POP POP POP PUSH1 0x40 MLOAD RETURNDATASIZE PUSH0 DUP3 RETURNDATACOPY PUSH1 0x1F RETURNDATASIZE SWAP1 DUP2 ADD PUSH1 0x1F NOT AND DUP3 ADD PUSH1 0x40 MSTORE PUSH2 0x2B6 SWAP2 SWAP1 DUP2 ADD SWAP1 PUSH2 0x1225 JUMP JUMPDEST SWAP5 POP JUMPDEST POP POP POP POP SWAP2 POP POP DUP1 MLOAD SWAP1 PUSH1 0x20 ADD RETURN JUMPDEST PUSH2 0x2DB PUSH2 0x2D6 CALLDATASIZE PUSH1 0x4 PUSH2 0x12B6 JUMP JUMPDEST PUSH2 0x4B3 JUMP JUMPDEST PUSH1 0x40 MLOAD SWAP1 ISZERO ISZERO DUP2 MSTORE PUSH1 0x20 ADD JUMPDEST PUSH1 0x40 MLOAD DUP1 SWAP2 SUB SWAP1 RETURN JUMPDEST PUSH2 0x317 PUSH2 0x2FE CALLDATASIZE PUSH1 0x4 PUSH2 0x12E5 JUMP JUMPDEST PUSH0 PUSH1 0x20 DUP2 DUP2 MSTORE SWAP3 DUP2 MSTORE PUSH1 0x40 DUP1 DUP3 KECCAK256 SWAP1 SWAP4 MSTORE SWAP1 DUP2 MSTORE KECCAK256 SLOAD DUP2 JUMP JUMPDEST PUSH1 0x40 MLOAD SWAP1 DUP2 MSTORE PUSH1 0x20 ADD PUSH2 0x2E7 JUMP JUMPDEST PUSH2 0x338 PUSH2 0x333 CALLDATASIZE PUSH1 0x4 PUSH2 0x1360 JUMP JUMPDEST PUSH2 0x526 JUMP JUMPDEST PUSH1 0x40 MLOAD PUSH1 0x1 PUSH1 0x1 PUSH1 0xE0 SHL SUB NOT SWAP1 SWAP2 AND DUP2 MSTORE PUSH1 0x20 ADD PUSH2 0x2E7 JUMP JUMPDEST PUSH2 0x338 PUSH2 0x35F CALLDATASIZE PUSH1 0x4 PUSH2 0x13CD JUMP JUMPDEST PUSH2 0x541 JUMP JUMPDEST PUSH2 0x377 PUSH2 0x372 CALLDATASIZE PUSH1 0x4 PUSH2 0x1454 JUMP JUMPDEST PUSH2 0x6E4 JUMP JUMPDEST STOP JUMPDEST PUSH2 0x377 PUSH2 0x387 CALLDATASIZE PUSH1 0x4 PUSH2 0x1497 JUMP JUMPDEST PUSH2 0x7FD JUMP JUMPDEST PUSH2 0x3BF PUSH2 0x39A CALLDATASIZE PUSH1 0x4 PUSH2 0x14BA JUMP JUMPDEST PUSH1 0x1 PUSH1 0x20 SWAP1 DUP2 MSTORE PUSH0 SWAP3 DUP4 MSTORE PUSH1 0x40 DUP1 DUP5 KECCAK256 SWAP1 SWAP2 MSTORE SWAP1 DUP3 MSTORE SWAP1 KECCAK256 SLOAD PUSH1 0x1 PUSH1 0x1 PUSH1 0xA0 SHL SUB AND DUP2 JUMP JUMPDEST PUSH1 0x40 MLOAD PUSH1 0x1 PUSH1 0x1 PUSH1 0xA0 SHL SUB SWAP1 SWAP2 AND DUP2 MSTORE PUSH1 0x20 ADD PUSH2 0x2E7 JUMP JUMPDEST PUSH2 0x377 PUSH2 0x3E5 CALLDATASIZE PUSH1 0x4 PUSH2 0x1454 JUMP JUMPDEST PUSH2 0x8B9 JUMP JUMPDEST PUSH2 0x377 PUSH2 0x3F8 CALLDATASIZE PUSH1 0x4 PUSH2 0x14E4 JUMP JUMPDEST PUSH2 0x9C2 JUMP JUMPDEST PUSH2 0x377 PUSH2 0x40B CALLDATASIZE PUSH1 0x4 PUSH2 0x1500 JUMP JUMPDEST PUSH2 0xA07 JUMP JUMPDEST PUSH2 0x2DB PUSH2 0x41E CALLDATASIZE PUSH1 0x4 PUSH2 0x12E5 JUMP JUMPDEST PUSH1 0x2 PUSH1 0x20 SWAP1 DUP2 MSTORE PUSH0 SWAP3 DUP4 MSTORE PUSH1 0x40 DUP1 DUP5 KECCAK256 SWAP1 SWAP2 MSTORE SWAP1 DUP3 MSTORE SWAP1 KECCAK256 SLOAD PUSH1 0xFF AND DUP2 JUMP JUMPDEST PUSH2 0x338 PUSH2 0x44B CALLDATASIZE PUSH1 0x4 PUSH2 0x1530 JUMP JUMPDEST PUSH2 0xB8F JUMP JUMPDEST PUSH2 0x338 PUSH2 0x45E CALLDATASIZE PUSH1 0x4 PUSH2 0x15F0 JUMP JUMPDEST PUSH2 0xBAD JUMP JUMPDEST PUSH0 PUSH0 PUSH0 PUSH0 PUSH2 0x46F PUSH2 0xBC9 JUMP JUMPDEST PUSH1 0x1 PUSH1 0x1 PUSH1 0xA0 SHL SUB DUP3 DUP2 AND PUSH0 SWAP1 DUP2 MSTORE PUSH1 0x20 DUP2 DUP2 MSTORE PUSH1 0x40 DUP1 DUP4 KECCAK256 PUSH1 0x1 PUSH1 0x1 PUSH1 0xE0 SHL SUB NOT DUP5 CALLDATALOAD AND DUP5 MSTORE SWAP1 SWAP2 MSTORE SWAP1 KECCAK256 SLOAD SWAP3 SWAP8 SWAP2 SWAP7 POP PUSH1 0xF8 DUP4 SWAP1 SHR ISZERO SWAP6 POP SWAP2 SWAP1 SWAP2 AND SWAP3 POP SWAP1 POP JUMP JUMPDEST PUSH0 PUSH1 0x1 PUSH1 0x1 PUSH1 0xE0 SHL SUB NOT DUP3 AND PUSH4 0x1FFC9A7 PUSH1 0xE0 SHL EQ DUP1 PUSH2 0x4E3 JUMPI POP PUSH1 0x1 PUSH1 0x1 PUSH1 0xE0 SHL SUB NOT DUP3 AND PUSH4 0x98C8E097 PUSH1 0xE0 SHL EQ JUMPDEST DUP1 PUSH2 0x4F2 JUMPI POP PUSH2 0x4F2 DUP3 PUSH2 0xBD9 JUMP JUMPDEST DUP1 PUSH2 0x520 JUMPI POP CALLER PUSH0 SWAP1 DUP2 MSTORE PUSH1 0x2 PUSH1 0x20 SWAP1 DUP2 MSTORE PUSH1 0x40 DUP1 DUP4 KECCAK256 PUSH1 0x1 PUSH1 0x1 PUSH1 0xE0 SHL SUB NOT DUP7 AND DUP5 MSTORE SWAP1 SWAP2 MSTORE SWAP1 KECCAK256 SLOAD PUSH1 0xFF AND JUMPDEST SWAP3 SWAP2 POP POP JUMP JUMPDEST PUSH0 PUSH2 0x52F PUSH2 0xC7A JUMP JUMPDEST POP PUSH4 0xA85BD01 PUSH1 0xE1 SHL SWAP6 SWAP5 POP POP POP POP POP JUMP JUMPDEST PUSH0 PUSH0 PUSH0 PUSH2 0x54C PUSH2 0xBC9 JUMP JUMPDEST SWAP1 SWAP3 POP SWAP1 POP PUSH1 0x4 DUP5 LT PUSH2 0x698 JUMPI DUP5 CALLDATALOAD PUSH1 0x1 PUSH1 0x1 PUSH1 0xE0 SHL SUB NOT DUP2 AND PUSH4 0x5FD7E97D PUSH1 0xE0 SHL EQ DUP1 ISZERO PUSH2 0x57C JUMPI POP PUSH1 0x44 DUP6 LT ISZERO JUMPDEST ISZERO PUSH2 0x696 JUMPI PUSH0 DUP1 PUSH2 0x591 PUSH1 0x44 PUSH1 0x4 DUP10 DUP12 PUSH2 0x1144 JUMP JUMPDEST DUP2 ADD SWAP1 PUSH2 0x59E SWAP2 SWAP1 PUSH2 0x1666 JUMP JUMPDEST PUSH1 0x1 PUSH1 0x1 PUSH1 0xA0 SHL SUB DUP1 DUP9 AND PUSH0 SWAP1 DUP2 MSTORE PUSH1 0x1 PUSH1 0x20 SWAP1 DUP2 MSTORE PUSH1 0x40 DUP1 DUP4 KECCAK256 DUP7 DUP5 MSTORE SWAP1 SWAP2 MSTORE SWAP1 KECCAK256 SLOAD SWAP3 SWAP5 POP SWAP1 SWAP3 POP AND DUP1 ISZERO PUSH2 0x692 JUMPI PUSH0 DUP1 PUSH2 0x5DE DUP11 PUSH1 0x4 DUP2 DUP15 PUSH2 0x1144 JUMP JUMPDEST DUP2 ADD SWAP1 PUSH2 0x5EB SWAP2 SWAP1 PUSH2 0x16D3 JUMP JUMPDEST SWAP4 POP SWAP4 POP POP POP DUP12 PUSH2 0x5FD DUP7 DUP7 DUP6 PUSH2 0xD69 JUMP JUMPDEST DUP1 MLOAD SWAP1 PUSH1 0x20 ADD KECCAK256 SUB PUSH2 0x68F JUMPI DUP3 PUSH1 0x1 PUSH1 0x1 PUSH1 0xA0 SHL SUB AND PUSH4 0x53F00B14 DUP10 DUP10 DUP16 DUP10 DUP10 DUP9 DUP9 PUSH1 0x40 MLOAD DUP9 PUSH4 0xFFFFFFFF AND PUSH1 0xE0 SHL DUP2 MSTORE PUSH1 0x4 ADD PUSH2 0x641 SWAP8 SWAP7 SWAP6 SWAP5 SWAP4 SWAP3 SWAP2 SWAP1 PUSH2 0x1776 JUMP JUMPDEST PUSH1 0x20 PUSH1 0x40 MLOAD DUP1 DUP4 SUB DUP2 DUP7 GAS STATICCALL ISZERO DUP1 ISZERO PUSH2 0x65C JUMPI RETURNDATASIZE PUSH0 PUSH0 RETURNDATACOPY RETURNDATASIZE PUSH0 REVERT JUMPDEST POP POP POP POP PUSH1 0x40 MLOAD RETURNDATASIZE PUSH1 0x1F NOT PUSH1 0x1F DUP3 ADD AND DUP3 ADD DUP1 PUSH1 0x40 MSTORE POP DUP2 ADD SWAP1 PUSH2 0x680 SWAP2 SWAP1 PUSH2 0x17D6 JUMP JUMPDEST SWAP9 POP POP POP POP POP POP POP POP POP PUSH2 0x6DD JUMP JUMPDEST POP POP JUMPDEST POP POP POP JUMPDEST POP JUMPDEST PUSH2 0x6D8 DUP3 DUP8 DUP8 DUP8 DUP1 DUP1 PUSH1 0x1F ADD PUSH1 0x20 DUP1 SWAP2 DIV MUL PUSH1 0x20 ADD PUSH1 0x40 MLOAD SWAP1 DUP2 ADD PUSH1 0x40 MSTORE DUP1 SWAP4 SWAP3 SWAP2 SWAP1 DUP2 DUP2 MSTORE PUSH1 0x20 ADD DUP4 DUP4 DUP1 DUP3 DUP5 CALLDATACOPY PUSH0 SWAP3 ADD SWAP2 SWAP1 SWAP2 MSTORE POP PUSH2 0xDE3 SWAP3 POP POP POP JUMP JUMPDEST SWAP3 POP POP POP JUMPDEST SWAP4 SWAP3 POP POP POP JUMP JUMPDEST CALLER PUSH2 0x6ED PUSH2 0xFD7 JUMP JUMPDEST PUSH1 0x1 PUSH1 0x1 PUSH1 0xA0 SHL SUB AND EQ PUSH2 0x713 JUMPI PUSH1 0x40 MLOAD PUSH3 0x461BCD PUSH1 0xE5 SHL DUP2 MSTORE PUSH1 0x4 ADD PUSH2 0x11E SWAP1 PUSH2 0x17F1 JUMP JUMPDEST PUSH0 PUSH2 0x71C PUSH2 0xFD7 JUMP JUMPDEST SWAP1 POP PUSH0 DUP3 DUP2 JUMPDEST DUP2 DUP2 LT ISZERO PUSH2 0x795 JUMPI PUSH0 PUSH0 PUSH0 PUSH2 0x76C DUP10 DUP10 DUP7 DUP2 DUP2 LT PUSH2 0x742 JUMPI PUSH2 0x742 PUSH2 0x1828 JUMP JUMPDEST SWAP1 POP PUSH1 0x20 MUL ADD CALLDATALOAD PUSH1 0xF8 DUP2 SWAP1 SHR ISZERO SWAP2 PUSH1 0x1 PUSH1 0x1 PUSH1 0xA8 SHL SUB NOT PUSH1 0x8 DUP4 SWAP1 SHL AND SWAP2 PUSH1 0x1 PUSH1 0x1 PUSH1 0xA0 SHL SUB AND SWAP1 JUMP JUMPDEST SWAP3 POP SWAP3 POP SWAP3 POP PUSH2 0x786 DUP8 DUP4 PUSH2 0x781 DUP7 DUP6 PUSH2 0x1036 JUMP JUMPDEST PUSH2 0x105D JUMP JUMPDEST POP SWAP4 SWAP1 SWAP4 XOR SWAP3 POP PUSH1 0x1 ADD PUSH2 0x722 JUMP JUMPDEST POP PUSH1 0x1 PUSH1 0x1 PUSH1 0xE0 SHL SUB NOT DUP3 DUP2 AND SWAP1 DUP8 AND EQ PUSH2 0x7EA JUMPI PUSH1 0x40 MLOAD PUSH3 0x461BCD PUSH1 0xE5 SHL DUP2 MSTORE PUSH1 0x20 PUSH1 0x4 DUP3 ADD MSTORE PUSH1 0x15 PUSH1 0x24 DUP3 ADD MSTORE PUSH21 0xD2DCE8CAE4CCC2C6CA40D2C840DAD2E6DAC2E8C6D PUSH1 0x5B SHL PUSH1 0x44 DUP3 ADD MSTORE PUSH1 0x64 ADD PUSH2 0x11E JUMP JUMPDEST PUSH2 0x7F5 DUP7 PUSH1 0x1 PUSH2 0xA07 JUMP JUMPDEST POP POP POP POP POP POP JUMP JUMPDEST CALLER PUSH2 0x806 PUSH2 0xFD7 JUMP JUMPDEST PUSH1 0x1 PUSH1 0x1 PUSH1 0xA0 SHL SUB AND EQ PUSH2 0x82C JUMPI PUSH1 0x40 MLOAD PUSH3 0x461BCD PUSH1 0xE5 SHL DUP2 MSTORE PUSH1 0x4 ADD PUSH2 0x11E SWAP1 PUSH2 0x17F1 JUMP JUMPDEST PUSH0 PUSH2 0x835 PUSH2 0xFD7 JUMP JUMPDEST PUSH1 0x1 PUSH1 0x1 PUSH1 0xA0 SHL SUB DUP2 DUP2 AND PUSH0 DUP2 DUP2 MSTORE PUSH1 0x1 PUSH1 0x20 SWAP1 DUP2 MSTORE PUSH1 0x40 DUP1 DUP4 KECCAK256 DUP10 DUP5 MSTORE DUP3 MSTORE SWAP2 DUP3 SWAP1 KECCAK256 DUP1 SLOAD DUP9 DUP7 AND PUSH1 0x1 PUSH1 0x1 PUSH1 0xA0 SHL SUB NOT DUP3 AND DUP2 OR SWAP1 SWAP3 SSTORE DUP4 MLOAD DUP11 DUP2 MSTORE SWAP6 AND SWAP2 DUP6 ADD DUP3 SWAP1 MSTORE SWAP2 DUP5 ADD SWAP2 SWAP1 SWAP2 MSTORE SWAP3 SWAP4 POP SWAP1 PUSH32 0x6341AC2F62EB79165DE8C8B54AB89A8825B12746C2B98E01DFF1007837D2BA8 SWAP1 PUSH1 0x60 ADD PUSH1 0x40 MLOAD DUP1 SWAP2 SUB SWAP1 LOG2 POP POP POP POP JUMP JUMPDEST CALLER PUSH2 0x8C2 PUSH2 0xFD7 JUMP JUMPDEST PUSH1 0x1 PUSH1 0x1 PUSH1 0xA0 SHL SUB AND EQ PUSH2 0x8E8 JUMPI PUSH1 0x40 MLOAD PUSH3 0x461BCD PUSH1 0xE5 SHL DUP2 MSTORE PUSH1 0x4 ADD PUSH2 0x11E SWAP1 PUSH2 0x17F1 JUMP JUMPDEST PUSH0 PUSH2 0x8F1 PUSH2 0xFD7 JUMP JUMPDEST SWAP1 POP PUSH0 DUP3 DUP2 JUMPDEST DUP2 DUP2 LT ISZERO PUSH2 0x963 JUMPI PUSH2 0x930 DUP5 DUP8 DUP8 DUP5 DUP2 DUP2 LT PUSH2 0x915 JUMPI PUSH2 0x915 PUSH2 0x1828 JUMP JUMPDEST SWAP1 POP PUSH1 0x20 MUL ADD PUSH1 0x20 DUP2 ADD SWAP1 PUSH2 0x92A SWAP2 SWAP1 PUSH2 0x12B6 JUMP JUMPDEST PUSH0 PUSH2 0x105D JUMP JUMPDEST DUP6 DUP6 DUP3 DUP2 DUP2 LT PUSH2 0x942 JUMPI PUSH2 0x942 PUSH2 0x1828 JUMP JUMPDEST SWAP1 POP PUSH1 0x20 MUL ADD PUSH1 0x20 DUP2 ADD SWAP1 PUSH2 0x957 SWAP2 SWAP1 PUSH2 0x12B6 JUMP JUMPDEST SWAP1 SWAP3 XOR SWAP2 PUSH1 0x1 ADD PUSH2 0x8F7 JUMP JUMPDEST POP PUSH1 0x1 PUSH1 0x1 PUSH1 0xE0 SHL SUB NOT DUP3 DUP2 AND SWAP1 DUP8 AND EQ PUSH2 0x9B8 JUMPI PUSH1 0x40 MLOAD PUSH3 0x461BCD PUSH1 0xE5 SHL DUP2 MSTORE PUSH1 0x20 PUSH1 0x4 DUP3 ADD MSTORE PUSH1 0x15 PUSH1 0x24 DUP3 ADD MSTORE PUSH21 0xD2DCE8CAE4CCC2C6CA40D2C840DAD2E6DAC2E8C6D PUSH1 0x5B SHL PUSH1 0x44 DUP3 ADD MSTORE PUSH1 0x64 ADD PUSH2 0x11E JUMP JUMPDEST PUSH2 0x7F5 DUP7 PUSH0 PUSH2 0xA07 JUMP JUMPDEST CALLER PUSH2 0x9CB PUSH2 0xFD7 JUMP JUMPDEST PUSH1 0x1 PUSH1 0x1 PUSH1 0xA0 SHL SUB AND EQ PUSH2 0x9F1 JUMPI PUSH1 0x40 MLOAD PUSH3 0x461BCD PUSH1 0xE5 SHL DUP2 MSTORE PUSH1 0x4 ADD PUSH2 0x11E SWAP1 PUSH2 0x17F1 JUMP JUMPDEST PUSH2 0xA03 PUSH2 0x9FC PUSH2 0xFD7 JUMP JUMPDEST DUP4 DUP4 PUSH2 0x105D JUMP JUMPDEST POP POP JUMP JUMPDEST CALLER PUSH2 0xA10 PUSH2 0xFD7 JUMP JUMPDEST PUSH1 0x1 PUSH1 0x1 PUSH1 0xA0 SHL SUB AND EQ PUSH2 0xA36 JUMPI PUSH1 0x40 MLOAD PUSH3 0x461BCD PUSH1 0xE5 SHL DUP2 MSTORE PUSH1 0x4 ADD PUSH2 0x11E SWAP1 PUSH2 0x17F1 JUMP JUMPDEST CALLER PUSH1 0x1 PUSH1 0x1 PUSH1 0xE0 SHL SUB NOT DUP4 DUP2 AND SWAP1 SUB PUSH2 0xA88 JUMPI PUSH1 0x40 MLOAD PUSH3 0x461BCD PUSH1 0xE5 SHL DUP2 MSTORE PUSH1 0x20 PUSH1 0x4 DUP3 ADD MSTORE PUSH1 0x14 PUSH1 0x24 DUP3 ADD MSTORE PUSH20 0x1A5B9D985B1A59081A5B9D195C999858D9481A59 PUSH1 0x62 SHL PUSH1 0x44 DUP3 ADD MSTORE PUSH1 0x64 ADD PUSH2 0x11E JUMP JUMPDEST PUSH1 0x1 PUSH1 0x1 PUSH1 0xA0 SHL SUB DUP2 AND PUSH0 SWAP1 DUP2 MSTORE PUSH1 0x2 PUSH1 0x20 SWAP1 DUP2 MSTORE PUSH1 0x40 DUP1 DUP4 KECCAK256 PUSH1 0x1 PUSH1 0x1 PUSH1 0xE0 SHL SUB NOT DUP8 AND DUP5 MSTORE SWAP2 DUP3 SWAP1 MSTORE SWAP1 SWAP2 KECCAK256 SLOAD PUSH1 0xFF AND DUP4 ISZERO ISZERO DUP2 ISZERO ISZERO EQ PUSH2 0xB88 JUMPI PUSH1 0x1 PUSH1 0x1 PUSH1 0xE0 SHL SUB NOT DUP6 AND PUSH0 SWAP1 DUP2 MSTORE PUSH1 0x20 DUP4 SWAP1 MSTORE PUSH1 0x40 SWAP1 KECCAK256 DUP1 SLOAD PUSH1 0xFF NOT AND DUP6 ISZERO DUP1 ISZERO SWAP2 SWAP1 SWAP2 OR SWAP1 SWAP2 SSTORE PUSH2 0xB3F JUMPI PUSH1 0x40 MLOAD PUSH1 0x1 PUSH1 0x1 PUSH1 0xE0 SHL SUB NOT DUP7 AND DUP2 MSTORE PUSH1 0x1 PUSH1 0x1 PUSH1 0xA0 SHL SUB DUP5 AND SWAP1 PUSH32 0x3D5024C13F12FA602DBF52B1979058940C224EBF170C83A4E358725AE50DB36D SWAP1 PUSH1 0x20 ADD PUSH1 0x40 MLOAD DUP1 SWAP2 SUB SWAP1 LOG2 PUSH2 0xB88 JUMP JUMPDEST PUSH1 0x40 MLOAD PUSH1 0x1 PUSH1 0x1 PUSH1 0xE0 SHL SUB NOT DUP7 AND DUP2 MSTORE PUSH1 0x1 PUSH1 0x1 PUSH1 0xA0 SHL SUB DUP5 AND SWAP1 PUSH32 0xF159D834F487747C1B3F17E2107743E42E6EECFF444D894E511C18943072B29F SWAP1 PUSH1 0x20 ADD PUSH1 0x40 MLOAD DUP1 SWAP2 SUB SWAP1 LOG2 JUMPDEST POP POP POP POP POP JUMP JUMPDEST PUSH0 PUSH2 0xB98 PUSH2 0xC7A JUMP JUMPDEST POP PUSH4 0xBC197C81 PUSH1 0xE0 SHL SWAP9 SWAP8 POP POP POP POP POP POP POP POP JUMP JUMPDEST PUSH0 PUSH2 0xBB6 PUSH2 0xC7A JUMP JUMPDEST POP PUSH4 0xF23A6E61 PUSH1 0xE0 SHL SWAP7 SWAP6 POP POP POP POP POP POP JUMP JUMPDEST CALLER PUSH0 PUSH2 0xBD3 PUSH2 0xFD7 JUMP JUMPDEST SWAP1 POP SWAP1 SWAP2 JUMP JUMPDEST PUSH0 PUSH1 0x1 PUSH1 0x1 PUSH1 0xE0 SHL SUB NOT DUP3 AND PUSH4 0xA85BD01 PUSH1 0xE1 SHL EQ DUP1 PUSH2 0xC09 JUMPI POP PUSH1 0x1 PUSH1 0x1 PUSH1 0xE0 SHL SUB NOT DUP3 AND PUSH4 0x2711897 PUSH1 0xE5 SHL EQ JUMPDEST DUP1 PUSH2 0xC24 JUMPI POP PUSH1 0x1 PUSH1 0x1 PUSH1 0xE0 SHL SUB NOT DUP3 AND PUSH4 0xB135D3F PUSH1 0xE1 SHL EQ JUMPDEST DUP1 PUSH2 0xC3F JUMPI POP PUSH1 0x1 PUSH1 0x1 PUSH1 0xE0 SHL SUB NOT DUP3 AND PUSH4 0x3157C6E1 PUSH1 0xE1 SHL EQ JUMPDEST DUP1 PUSH2 0xC5A JUMPI POP PUSH1 0x1 PUSH1 0x1 PUSH1 0xE0 SHL SUB NOT DUP3 AND PUSH4 0x9937293 PUSH1 0xE4 SHL EQ JUMPDEST DUP1 PUSH2 0x520 JUMPI POP PUSH1 0x1 PUSH1 0x1 PUSH1 0xE0 SHL SUB NOT DUP3 AND PUSH4 0x193E56B3 PUSH1 0xE2 SHL EQ SWAP3 SWAP2 POP POP JUMP JUMPDEST PUSH1 0x40 MLOAD PUSH4 0x5624B25B PUSH1 0xE0 SHL DUP2 MSTORE PUSH32 0x6C9A6C4A39284E37ED1CF53D337577D14212A4870FB976A4366C693B939918D5 PUSH1 0x4 DUP3 ADD MSTORE PUSH1 0x1 PUSH1 0x24 DUP3 ADD MSTORE PUSH0 SWAP1 CALLER SWAP1 PUSH4 0x5624B25B SWAP1 PUSH1 0x44 ADD PUSH0 PUSH1 0x40 MLOAD DUP1 DUP4 SUB DUP2 DUP7 GAS STATICCALL ISZERO DUP1 ISZERO PUSH2 0xCDB JUMPI RETURNDATASIZE PUSH0 PUSH0 RETURNDATACOPY RETURNDATASIZE PUSH0 REVERT JUMPDEST POP POP POP POP PUSH1 0x40 MLOAD RETURNDATASIZE PUSH0 DUP3 RETURNDATACOPY PUSH1 0x1F RETURNDATASIZE SWAP1 DUP2 ADD PUSH1 0x1F NOT AND DUP3 ADD PUSH1 0x40 MSTORE PUSH2 0xD02 SWAP2 SWAP1 DUP2 ADD SWAP1 PUSH2 0x1225 JUMP JUMPDEST SWAP1 POP PUSH0 DUP2 DUP1 PUSH1 0x20 ADD SWAP1 MLOAD DUP2 ADD SWAP1 PUSH2 0xD19 SWAP2 SWAP1 PUSH2 0x183C JUMP JUMPDEST SWAP1 POP PUSH1 0x1 PUSH1 0x1 PUSH1 0xA0 SHL SUB DUP2 AND ADDRESS EQ PUSH2 0xA03 JUMPI PUSH1 0x40 MLOAD PUSH3 0x461BCD PUSH1 0xE5 SHL DUP2 MSTORE PUSH1 0x20 PUSH1 0x4 DUP3 ADD MSTORE PUSH1 0x13 PUSH1 0x24 DUP3 ADD MSTORE PUSH19 0x1B9BDD08184819985B1B189858DAC818D85B1B PUSH1 0x6A SHL PUSH1 0x44 DUP3 ADD MSTORE PUSH1 0x64 ADD PUSH2 0x11E JUMP JUMPDEST PUSH1 0x60 PUSH1 0x19 PUSH1 0xF8 SHL PUSH1 0x1 PUSH1 0xF8 SHL DUP6 DUP6 DUP6 PUSH1 0x40 MLOAD PUSH1 0x20 ADD PUSH2 0xD89 SWAP3 SWAP2 SWAP1 PUSH2 0x1857 JUMP JUMPDEST PUSH1 0x40 DUP1 MLOAD DUP1 DUP4 SUB PUSH1 0x1F NOT ADD DUP2 MSTORE SWAP1 DUP3 SWAP1 MSTORE DUP1 MLOAD PUSH1 0x20 SWAP2 DUP3 ADD KECCAK256 PUSH1 0x1 PUSH1 0x1 PUSH1 0xF8 SHL SUB NOT SWAP6 DUP7 AND SWAP2 DUP4 ADD SWAP2 SWAP1 SWAP2 MSTORE SWAP3 SWAP1 SWAP4 AND PUSH1 0x21 DUP5 ADD MSTORE PUSH1 0x22 DUP4 ADD MSTORE PUSH1 0x42 DUP3 ADD MSTORE PUSH1 0x62 ADD PUSH1 0x40 MLOAD PUSH1 0x20 DUP2 DUP4 SUB SUB DUP2 MSTORE SWAP1 PUSH1 0x40 MSTORE SWAP1 POP SWAP4 SWAP3 POP POP POP JUMP JUMPDEST PUSH0 PUSH0 PUSH2 0xEA7 DUP6 PUSH1 0x1 PUSH1 0x1 PUSH1 0xA0 SHL SUB AND PUSH4 0xF698DA25 PUSH1 0x40 MLOAD DUP2 PUSH4 0xFFFFFFFF AND PUSH1 0xE0 SHL DUP2 MSTORE PUSH1 0x4 ADD PUSH1 0x20 PUSH1 0x40 MLOAD DUP1 DUP4 SUB DUP2 DUP7 GAS STATICCALL ISZERO DUP1 ISZERO PUSH2 0xE24 JUMPI RETURNDATASIZE PUSH0 PUSH0 RETURNDATACOPY RETURNDATASIZE PUSH0 REVERT JUMPDEST POP POP POP POP PUSH1 0x40 MLOAD RETURNDATASIZE PUSH1 0x1F NOT PUSH1 0x1F DUP3 ADD AND DUP3 ADD DUP1 PUSH1 0x40 MSTORE POP DUP2 ADD SWAP1 PUSH2 0xE48 SWAP2 SWAP1 PUSH2 0x1877 JUMP JUMPDEST PUSH1 0x40 DUP1 MLOAD PUSH1 0x20 DUP2 ADD DUP9 SWAP1 MSTORE PUSH32 0x60B3CBF8B4A223D68D641B3B6DDF9A298E7F33710CF3D3A9D1146B5A6150FBCA SWAP2 ADD PUSH1 0x40 DUP1 MLOAD PUSH1 0x1F NOT DUP2 DUP5 SUB ADD DUP2 MSTORE DUP3 DUP3 MSTORE DUP1 MLOAD PUSH1 0x20 SWAP2 DUP3 ADD KECCAK256 SWAP1 DUP4 ADD MSTORE ADD PUSH1 0x40 MLOAD PUSH1 0x20 DUP2 DUP4 SUB SUB DUP2 MSTORE SWAP1 PUSH1 0x40 MSTORE PUSH2 0xD69 JUMP JUMPDEST DUP1 MLOAD PUSH1 0x20 DUP3 ADD KECCAK256 DUP5 MLOAD SWAP2 SWAP3 POP SWAP1 PUSH0 SUB PUSH2 0xF68 JUMPI PUSH1 0x40 MLOAD PUSH4 0x5AE6BD37 PUSH1 0xE0 SHL DUP2 MSTORE PUSH1 0x4 DUP2 ADD DUP3 SWAP1 MSTORE PUSH1 0x1 PUSH1 0x1 PUSH1 0xA0 SHL SUB DUP8 AND SWAP1 PUSH4 0x5AE6BD37 SWAP1 PUSH1 0x24 ADD PUSH1 0x20 PUSH1 0x40 MLOAD DUP1 DUP4 SUB DUP2 DUP7 GAS STATICCALL ISZERO DUP1 ISZERO PUSH2 0xEFD JUMPI RETURNDATASIZE PUSH0 PUSH0 RETURNDATACOPY RETURNDATASIZE PUSH0 REVERT JUMPDEST POP POP POP POP PUSH1 0x40 MLOAD RETURNDATASIZE PUSH1 0x1F NOT PUSH1 0x1F DUP3 ADD AND DUP3 ADD DUP1 PUSH1 0x40 MSTORE POP DUP2 ADD SWAP1 PUSH2 0xF21 SWAP2 SWAP1 PUSH2 0x1877 JUMP JUMPDEST PUSH0 SUB PUSH2 0xF63 JUMPI PUSH1 0x40 MLOAD PUSH3 0x461BCD PUSH1 0xE5 SHL DUP2 MSTORE PUSH1 0x20 PUSH1 0x4 DUP3 ADD MSTORE PUSH1 0x11 PUSH1 0x24 DUP3 ADD MSTORE PUSH17 0x12185CDA081B9BDD08185C1C1C9BDD9959 PUSH1 0x7A SHL PUSH1 0x44 DUP3 ADD MSTORE PUSH1 0x64 ADD PUSH2 0x11E JUMP JUMPDEST PUSH2 0xFC5 JUMP JUMPDEST PUSH1 0x40 MLOAD PUSH4 0xF855438B PUSH1 0xE0 SHL DUP2 MSTORE PUSH1 0x1 PUSH1 0x1 PUSH1 0xA0 SHL SUB DUP8 AND SWAP1 PUSH4 0xF855438B SWAP1 PUSH2 0xF98 SWAP1 PUSH0 SWAP1 DUP6 SWAP1 DUP10 SWAP1 PUSH1 0x4 ADD PUSH2 0x188E JUMP JUMPDEST PUSH0 PUSH1 0x40 MLOAD DUP1 DUP4 SUB DUP2 DUP7 DUP1 EXTCODESIZE ISZERO DUP1 ISZERO PUSH2 0xFAE JUMPI PUSH0 PUSH0 REVERT JUMPDEST POP GAS STATICCALL ISZERO DUP1 ISZERO PUSH2 0xFC0 JUMPI RETURNDATASIZE PUSH0 PUSH0 RETURNDATACOPY RETURNDATASIZE PUSH0 REVERT JUMPDEST POP POP POP POP JUMPDEST POP PUSH4 0xB135D3F PUSH1 0xE1 SHL SWAP6 SWAP5 POP POP POP POP POP JUMP JUMPDEST PUSH0 PUSH1 0x14 CALLDATASIZE LT ISZERO PUSH2 0x1029 JUMPI PUSH1 0x40 MLOAD PUSH3 0x461BCD PUSH1 0xE5 SHL DUP2 MSTORE PUSH1 0x20 PUSH1 0x4 DUP3 ADD MSTORE PUSH1 0x17 PUSH1 0x24 DUP3 ADD MSTORE PUSH32 0x496E76616C69642063616C6C64617461206C656E677468000000000000000000 PUSH1 0x44 DUP3 ADD MSTORE PUSH1 0x64 ADD PUSH2 0x11E JUMP JUMPDEST POP PUSH1 0x13 NOT CALLDATASIZE ADD CALLDATALOAD PUSH1 0x60 SHR SWAP1 JUMP JUMPDEST PUSH0 DUP3 PUSH2 0x1046 JUMPI PUSH1 0x1 PUSH1 0xF8 SHL PUSH2 0x1048 JUMP JUMPDEST PUSH0 JUMPDEST DUP3 PUSH1 0x1 PUSH1 0x1 PUSH1 0xA0 SHL SUB AND OR PUSH0 SHL SWAP1 POP SWAP3 SWAP2 POP POP JUMP JUMPDEST PUSH1 0x1 PUSH1 0x1 PUSH1 0xA0 SHL SUB DUP4 AND PUSH0 SWAP1 DUP2 MSTORE PUSH1 0x20 DUP2 DUP2 MSTORE PUSH1 0x40 DUP1 DUP4 KECCAK256 PUSH1 0x1 PUSH1 0x1 PUSH1 0xE0 SHL SUB NOT DUP7 AND DUP5 MSTORE SWAP2 DUP3 SWAP1 MSTORE DUP3 KECCAK256 SLOAD SWAP1 SWAP2 PUSH2 0x10A4 DUP5 PUSH1 0xF8 DUP2 SWAP1 SHR ISZERO SWAP2 PUSH1 0x1 PUSH1 0x1 PUSH1 0xA0 SHL SUB SWAP1 SWAP2 AND SWAP1 JUMP JUMPDEST SWAP2 POP POP PUSH1 0x1 PUSH1 0x1 PUSH1 0xA0 SHL SUB DUP2 AND PUSH2 0x10B9 JUMPI PUSH0 SWAP4 POP JUMPDEST PUSH1 0x1 PUSH1 0x1 PUSH1 0xE0 SHL SUB NOT DUP6 AND PUSH0 DUP2 DUP2 MSTORE PUSH1 0x20 DUP6 DUP2 MSTORE PUSH1 0x40 SWAP2 DUP3 SWAP1 KECCAK256 DUP8 SWAP1 SSTORE DUP2 MLOAD SWAP3 DUP4 MSTORE DUP3 ADD DUP5 SWAP1 MSTORE DUP2 ADD DUP6 SWAP1 MSTORE PUSH1 0x1 PUSH1 0x1 PUSH1 0xA0 SHL SUB DUP8 AND SWAP1 PUSH32 0xE6E8AD7E5547DC860775F9F0638E195A4751A4CFBB7FD2AB60A52EB6C07082EC SWAP1 PUSH1 0x60 ADD PUSH1 0x40 MLOAD DUP1 SWAP2 SUB SWAP1 LOG2 POP POP POP POP POP POP JUMP JUMPDEST DUP2 DUP2 SUB DUP2 DUP2 GT ISZERO PUSH2 0x520 JUMPI PUSH4 0x4E487B71 PUSH1 0xE0 SHL PUSH0 MSTORE PUSH1 0x11 PUSH1 0x4 MSTORE PUSH1 0x24 PUSH0 REVERT JUMPDEST PUSH0 PUSH0 DUP6 DUP6 GT ISZERO PUSH2 0x1152 JUMPI PUSH0 PUSH0 REVERT JUMPDEST DUP4 DUP7 GT ISZERO PUSH2 0x115E JUMPI PUSH0 PUSH0 REVERT JUMPDEST POP POP DUP3 ADD SWAP4 SWAP2 SWAP1 SWAP3 SUB SWAP2 POP JUMP JUMPDEST PUSH1 0x1 PUSH1 0x1 PUSH1 0xA0 SHL SUB DUP7 DUP2 AND DUP3 MSTORE DUP6 AND PUSH1 0x20 DUP3 ADD MSTORE PUSH1 0x40 DUP2 ADD DUP5 SWAP1 MSTORE PUSH1 0x80 PUSH1 0x60 DUP3 ADD DUP2 SWAP1 MSTORE DUP2 ADD DUP3 SWAP1 MSTORE DUP2 DUP4 PUSH1 0xA0 DUP4 ADD CALLDATACOPY PUSH0 DUP2 DUP4 ADD PUSH1 0xA0 SWAP1 DUP2 ADD SWAP2 SWAP1 SWAP2 MSTORE PUSH1 0x1F SWAP1 SWAP3 ADD PUSH1 0x1F NOT AND ADD ADD SWAP5 SWAP4 POP POP POP POP JUMP JUMPDEST PUSH4 0x4E487B71 PUSH1 0xE0 SHL PUSH0 MSTORE PUSH1 0x41 PUSH1 0x4 MSTORE PUSH1 0x24 PUSH0 REVERT JUMPDEST PUSH1 0x40 MLOAD PUSH1 0x1F DUP3 ADD PUSH1 0x1F NOT AND DUP2 ADD PUSH1 0x1 PUSH1 0x1 PUSH1 0x40 SHL SUB DUP2 GT DUP3 DUP3 LT OR ISZERO PUSH2 0x11F7 JUMPI PUSH2 0x11F7 PUSH2 0x11BB JUMP JUMPDEST PUSH1 0x40 MSTORE SWAP2 SWAP1 POP JUMP JUMPDEST PUSH0 PUSH1 0x1 PUSH1 0x1 PUSH1 0x40 SHL SUB DUP3 GT ISZERO PUSH2 0x1217 JUMPI PUSH2 0x1217 PUSH2 0x11BB JUMP JUMPDEST POP PUSH1 0x1F ADD PUSH1 0x1F NOT AND PUSH1 0x20 ADD SWAP1 JUMP JUMPDEST PUSH0 PUSH1 0x20 DUP3 DUP5 SUB SLT ISZERO PUSH2 0x1235 JUMPI PUSH0 PUSH0 REVERT JUMPDEST DUP2 MLOAD PUSH1 0x1 PUSH1 0x1 PUSH1 0x40 SHL SUB DUP2 GT ISZERO PUSH2 0x124A JUMPI PUSH0 PUSH0 REVERT JUMPDEST DUP3 ADD PUSH1 0x1F DUP2 ADD DUP5 SGT PUSH2 0x125A JUMPI PUSH0 PUSH0 REVERT JUMPDEST DUP1 MLOAD PUSH2 0x126D PUSH2 0x1268 DUP3 PUSH2 0x11FF JUMP JUMPDEST PUSH2 0x11CF JUMP JUMPDEST DUP2 DUP2 MSTORE DUP6 PUSH1 0x20 DUP4 DUP6 ADD ADD GT ISZERO PUSH2 0x1281 JUMPI PUSH0 PUSH0 REVERT JUMPDEST DUP2 PUSH1 0x20 DUP5 ADD PUSH1 0x20 DUP4 ADD MCOPY PUSH0 SWAP2 DUP2 ADD PUSH1 0x20 ADD SWAP2 SWAP1 SWAP2 MSTORE SWAP5 SWAP4 POP POP POP POP JUMP JUMPDEST PUSH1 0x1 PUSH1 0x1 PUSH1 0xE0 SHL SUB NOT DUP2 AND DUP2 EQ PUSH2 0x12B3 JUMPI PUSH0 PUSH0 REVERT JUMPDEST POP JUMP JUMPDEST PUSH0 PUSH1 0x20 DUP3 DUP5 SUB SLT ISZERO PUSH2 0x12C6 JUMPI PUSH0 PUSH0 REVERT JUMPDEST DUP2 CALLDATALOAD PUSH2 0x6DD DUP2 PUSH2 0x129E JUMP JUMPDEST PUSH1 0x1 PUSH1 0x1 PUSH1 0xA0 SHL SUB DUP2 AND DUP2 EQ PUSH2 0x12B3 JUMPI PUSH0 PUSH0 REVERT JUMPDEST PUSH0 PUSH0 PUSH1 0x40 DUP4 DUP6 SUB SLT ISZERO PUSH2 0x12F6 JUMPI PUSH0 PUSH0 REVERT JUMPDEST DUP3 CALLDATALOAD PUSH2 0x1301 DUP2 PUSH2 0x12D1 JUMP JUMPDEST SWAP2 POP PUSH1 0x20 DUP4 ADD CALLDATALOAD PUSH2 0x1311 DUP2 PUSH2 0x129E JUMP JUMPDEST DUP1 SWAP2 POP POP SWAP3 POP SWAP3 SWAP1 POP JUMP JUMPDEST PUSH0 PUSH0 DUP4 PUSH1 0x1F DUP5 ADD SLT PUSH2 0x132C JUMPI PUSH0 PUSH0 REVERT JUMPDEST POP DUP2 CALLDATALOAD PUSH1 0x1 PUSH1 0x1 PUSH1 0x40 SHL SUB DUP2 GT ISZERO PUSH2 0x1342 JUMPI PUSH0 PUSH0 REVERT JUMPDEST PUSH1 0x20 DUP4 ADD SWAP2 POP DUP4 PUSH1 0x20 DUP3 DUP6 ADD ADD GT ISZERO PUSH2 0x1359 JUMPI PUSH0 PUSH0 REVERT JUMPDEST SWAP3 POP SWAP3 SWAP1 POP JUMP JUMPDEST PUSH0 PUSH0 PUSH0 PUSH0 PUSH0 PUSH1 0x80 DUP7 DUP9 SUB SLT ISZERO PUSH2 0x1374 JUMPI PUSH0 PUSH0 REVERT JUMPDEST DUP6 CALLDATALOAD PUSH2 0x137F DUP2 PUSH2 0x12D1 JUMP JUMPDEST SWAP5 POP PUSH1 0x20 DUP7 ADD CALLDATALOAD PUSH2 0x138F DUP2 PUSH2 0x12D1 JUMP JUMPDEST SWAP4 POP PUSH1 0x40 DUP7 ADD CALLDATALOAD SWAP3 POP PUSH1 0x60 DUP7 ADD CALLDATALOAD PUSH1 0x1 PUSH1 0x1 PUSH1 0x40 SHL SUB DUP2 GT ISZERO PUSH2 0x13B0 JUMPI PUSH0 PUSH0 REVERT JUMPDEST PUSH2 0x13BC DUP9 DUP3 DUP10 ADD PUSH2 0x131C JUMP JUMPDEST SWAP7 SWAP10 SWAP6 SWAP9 POP SWAP4 SWAP7 POP SWAP3 SWAP5 SWAP4 SWAP3 POP POP POP JUMP JUMPDEST PUSH0 PUSH0 PUSH0 PUSH1 0x40 DUP5 DUP7 SUB SLT ISZERO PUSH2 0x13DF JUMPI PUSH0 PUSH0 REVERT JUMPDEST DUP4 CALLDATALOAD SWAP3 POP PUSH1 0x20 DUP5 ADD CALLDATALOAD PUSH1 0x1 PUSH1 0x1 PUSH1 0x40 SHL SUB DUP2 GT ISZERO PUSH2 0x13FB JUMPI PUSH0 PUSH0 REVERT JUMPDEST PUSH2 0x1407 DUP7 DUP3 DUP8 ADD PUSH2 0x131C JUMP JUMPDEST SWAP5 SWAP8 SWAP1 SWAP7 POP SWAP4 SWAP5 POP POP POP POP JUMP JUMPDEST PUSH0 PUSH0 DUP4 PUSH1 0x1F DUP5 ADD SLT PUSH2 0x1424 JUMPI PUSH0 PUSH0 REVERT JUMPDEST POP DUP2 CALLDATALOAD PUSH1 0x1 PUSH1 0x1 PUSH1 0x40 SHL SUB DUP2 GT ISZERO PUSH2 0x143A JUMPI PUSH0 PUSH0 REVERT JUMPDEST PUSH1 0x20 DUP4 ADD SWAP2 POP DUP4 PUSH1 0x20 DUP3 PUSH1 0x5 SHL DUP6 ADD ADD GT ISZERO PUSH2 0x1359 JUMPI PUSH0 PUSH0 REVERT JUMPDEST PUSH0 PUSH0 PUSH0 PUSH1 0x40 DUP5 DUP7 SUB SLT ISZERO PUSH2 0x1466 JUMPI PUSH0 PUSH0 REVERT JUMPDEST DUP4 CALLDATALOAD PUSH2 0x1471 DUP2 PUSH2 0x129E JUMP JUMPDEST SWAP3 POP PUSH1 0x20 DUP5 ADD CALLDATALOAD PUSH1 0x1 PUSH1 0x1 PUSH1 0x40 SHL SUB DUP2 GT ISZERO PUSH2 0x148B JUMPI PUSH0 PUSH0 REVERT JUMPDEST PUSH2 0x1407 DUP7 DUP3 DUP8 ADD PUSH2 0x1414 JUMP JUMPDEST PUSH0 PUSH0 PUSH1 0x40 DUP4 DUP6 SUB SLT ISZERO PUSH2 0x14A8 JUMPI PUSH0 PUSH0 REVERT JUMPDEST DUP3 CALLDATALOAD SWAP2 POP PUSH1 0x20 DUP4 ADD CALLDATALOAD PUSH2 0x1311 DUP2 PUSH2 0x12D1 JUMP JUMPDEST PUSH0 PUSH0 PUSH1 0x40 DUP4 DUP6 SUB SLT ISZERO PUSH2 0x14CB JUMPI PUSH0 PUSH0 REVERT JUMPDEST DUP3 CALLDATALOAD PUSH2 0x14D6 DUP2 PUSH2 0x12D1 JUMP JUMPDEST SWAP5 PUSH1 0x20 SWAP4 SWAP1 SWAP4 ADD CALLDATALOAD SWAP4 POP POP POP JUMP JUMPDEST PUSH0 PUSH0 PUSH1 0x40 DUP4 DUP6 SUB SLT ISZERO PUSH2 0x14F5 JUMPI PUSH0 PUSH0 REVERT JUMPDEST DUP3 CALLDATALOAD PUSH2 0x14D6 DUP2 PUSH2 0x129E JUMP JUMPDEST PUSH0 PUSH0 PUSH1 0x40 DUP4 DUP6 SUB SLT ISZERO PUSH2 0x1511 JUMPI PUSH0 PUSH0 REVERT JUMPDEST DUP3 CALLDATALOAD PUSH2 0x151C DUP2 PUSH2 0x129E JUMP JUMPDEST SWAP2 POP PUSH1 0x20 DUP4 ADD CALLDATALOAD DUP1 ISZERO ISZERO DUP2 EQ PUSH2 0x1311 JUMPI PUSH0 PUSH0 REVERT JUMPDEST PUSH0 PUSH0 PUSH0 PUSH0 PUSH0 PUSH0 PUSH0 PUSH0 PUSH1 0xA0 DUP10 DUP12 SUB SLT ISZERO PUSH2 0x1547 JUMPI PUSH0 PUSH0 REVERT JUMPDEST DUP9 CALLDATALOAD PUSH2 0x1552 DUP2 PUSH2 0x12D1 JUMP JUMPDEST SWAP8 POP PUSH1 0x20 DUP10 ADD CALLDATALOAD PUSH2 0x1562 DUP2 PUSH2 0x12D1 JUMP JUMPDEST SWAP7 POP PUSH1 0x40 DUP10 ADD CALLDATALOAD PUSH1 0x1 PUSH1 0x1 PUSH1 0x40 SHL SUB DUP2 GT ISZERO PUSH2 0x157C JUMPI PUSH0 PUSH0 REVERT JUMPDEST PUSH2 0x1588 DUP12 DUP3 DUP13 ADD PUSH2 0x1414 JUMP JUMPDEST SWAP1 SWAP8 POP SWAP6 POP POP PUSH1 0x60 DUP10 ADD CALLDATALOAD PUSH1 0x1 PUSH1 0x1 PUSH1 0x40 SHL SUB DUP2 GT ISZERO PUSH2 0x15A6 JUMPI PUSH0 PUSH0 REVERT JUMPDEST PUSH2 0x15B2 DUP12 DUP3 DUP13 ADD PUSH2 0x1414 JUMP JUMPDEST SWAP1 SWAP6 POP SWAP4 POP POP PUSH1 0x80 DUP10 ADD CALLDATALOAD PUSH1 0x1 PUSH1 0x1 PUSH1 0x40 SHL SUB DUP2 GT ISZERO PUSH2 0x15D0 JUMPI PUSH0 PUSH0 REVERT JUMPDEST PUSH2 0x15DC DUP12 DUP3 DUP13 ADD PUSH2 0x131C JUMP JUMPDEST SWAP10 SWAP13 SWAP9 SWAP12 POP SWAP7 SWAP10 POP SWAP5 SWAP8 SWAP4 SWAP7 SWAP3 SWAP6 SWAP5 POP POP POP JUMP JUMPDEST PUSH0 PUSH0 PUSH0 PUSH0 PUSH0 PUSH0 PUSH1 0xA0 DUP8 DUP10 SUB SLT ISZERO PUSH2 0x1605 JUMPI PUSH0 PUSH0 REVERT JUMPDEST DUP7 CALLDATALOAD PUSH2 0x1610 DUP2 PUSH2 0x12D1 JUMP JUMPDEST SWAP6 POP PUSH1 0x20 DUP8 ADD CALLDATALOAD PUSH2 0x1620 DUP2 PUSH2 0x12D1 JUMP JUMPDEST SWAP5 POP PUSH1 0x40 DUP8 ADD CALLDATALOAD SWAP4 POP PUSH1 0x60 DUP8 ADD CALLDATALOAD SWAP3 POP PUSH1 0x80 DUP8 ADD CALLDATALOAD PUSH1 0x1 PUSH1 0x1 PUSH1 0x40 SHL SUB DUP2 GT ISZERO PUSH2 0x1648 JUMPI PUSH0 PUSH0 REVERT JUMPDEST PUSH2 0x1654 DUP10 DUP3 DUP11 ADD PUSH2 0x131C JUMP JUMPDEST SWAP8 SWAP11 SWAP7 SWAP10 POP SWAP5 SWAP8 POP SWAP3 SWAP6 SWAP4 SWAP5 SWAP3 POP POP POP JUMP JUMPDEST PUSH0 PUSH0 PUSH1 0x40 DUP4 DUP6 SUB SLT ISZERO PUSH2 0x1677 JUMPI PUSH0 PUSH0 REVERT JUMPDEST POP POP DUP1 CALLDATALOAD SWAP3 PUSH1 0x20 SWAP1 SWAP2 ADD CALLDATALOAD SWAP2 POP JUMP JUMPDEST PUSH0 DUP3 PUSH1 0x1F DUP4 ADD SLT PUSH2 0x1695 JUMPI PUSH0 PUSH0 REVERT JUMPDEST DUP2 CALLDATALOAD PUSH2 0x16A3 PUSH2 0x1268 DUP3 PUSH2 0x11FF JUMP JUMPDEST DUP2 DUP2 MSTORE DUP5 PUSH1 0x20 DUP4 DUP7 ADD ADD GT ISZERO PUSH2 0x16B7 JUMPI PUSH0 PUSH0 REVERT JUMPDEST DUP2 PUSH1 0x20 DUP6 ADD PUSH1 0x20 DUP4 ADD CALLDATACOPY PUSH0 SWAP2 DUP2 ADD PUSH1 0x20 ADD SWAP2 SWAP1 SWAP2 MSTORE SWAP4 SWAP3 POP POP POP JUMP JUMPDEST PUSH0 PUSH0 PUSH0 PUSH0 PUSH1 0x80 DUP6 DUP8 SUB SLT ISZERO PUSH2 0x16E6 JUMPI PUSH0 PUSH0 REVERT JUMPDEST DUP5 CALLDATALOAD SWAP4 POP PUSH1 0x20 DUP6 ADD CALLDATALOAD SWAP3 POP PUSH1 0x40 DUP6 ADD CALLDATALOAD PUSH1 0x1 PUSH1 0x1 PUSH1 0x40 SHL SUB DUP2 GT ISZERO PUSH2 0x1709 JUMPI PUSH0 PUSH0 REVERT JUMPDEST PUSH2 0x1715 DUP8 DUP3 DUP9 ADD PUSH2 0x1686 JUMP JUMPDEST SWAP3 POP POP PUSH1 0x60 DUP6 ADD CALLDATALOAD PUSH1 0x1 PUSH1 0x1 PUSH1 0x40 SHL SUB DUP2 GT ISZERO PUSH2 0x1730 JUMPI PUSH0 PUSH0 REVERT JUMPDEST PUSH2 0x173C DUP8 DUP3 DUP9 ADD PUSH2 0x1686 JUMP JUMPDEST SWAP2 POP POP SWAP3 SWAP6 SWAP2 SWAP5 POP SWAP3 POP JUMP JUMPDEST PUSH0 DUP2 MLOAD DUP1 DUP5 MSTORE DUP1 PUSH1 0x20 DUP5 ADD PUSH1 0x20 DUP7 ADD MCOPY PUSH0 PUSH1 0x20 DUP3 DUP7 ADD ADD MSTORE PUSH1 0x20 PUSH1 0x1F NOT PUSH1 0x1F DUP4 ADD AND DUP6 ADD ADD SWAP2 POP POP SWAP3 SWAP2 POP POP JUMP JUMPDEST PUSH1 0x1 PUSH1 0x1 PUSH1 0xA0 SHL SUB DUP9 DUP2 AND DUP3 MSTORE DUP8 AND PUSH1 0x20 DUP3 ADD MSTORE PUSH1 0x40 DUP2 ADD DUP7 SWAP1 MSTORE PUSH1 0x60 DUP2 ADD DUP6 SWAP1 MSTORE PUSH1 0x80 DUP2 ADD DUP5 SWAP1 MSTORE PUSH1 0xE0 PUSH1 0xA0 DUP3 ADD DUP2 SWAP1 MSTORE PUSH0 SWAP1 PUSH2 0x17B6 SWAP1 DUP4 ADD DUP6 PUSH2 0x1748 JUMP JUMPDEST DUP3 DUP2 SUB PUSH1 0xC0 DUP5 ADD MSTORE PUSH2 0x17C8 DUP2 DUP6 PUSH2 0x1748 JUMP JUMPDEST SWAP11 SWAP10 POP POP POP POP POP POP POP POP POP POP JUMP JUMPDEST PUSH0 PUSH1 0x20 DUP3 DUP5 SUB SLT ISZERO PUSH2 0x17E6 JUMPI PUSH0 PUSH0 REVERT JUMPDEST DUP2 MLOAD PUSH2 0x6DD DUP2 PUSH2 0x129E JUMP JUMPDEST PUSH1 0x20 DUP1 DUP3 MSTORE PUSH1 0x1E SWAP1 DUP3 ADD MSTORE PUSH32 0x6F6E6C7920736166652063616E2063616C6C2074686973206D6574686F640000 PUSH1 0x40 DUP3 ADD MSTORE PUSH1 0x60 ADD SWAP1 JUMP JUMPDEST PUSH4 0x4E487B71 PUSH1 0xE0 SHL PUSH0 MSTORE PUSH1 0x32 PUSH1 0x4 MSTORE PUSH1 0x24 PUSH0 REVERT JUMPDEST PUSH0 PUSH1 0x20 DUP3 DUP5 SUB SLT ISZERO PUSH2 0x184C JUMPI PUSH0 PUSH0 REVERT JUMPDEST DUP2 MLOAD PUSH2 0x6DD DUP2 PUSH2 0x12D1 JUMP JUMPDEST DUP3 DUP2 MSTORE PUSH0 DUP3 MLOAD DUP1 PUSH1 0x20 DUP6 ADD PUSH1 0x20 DUP6 ADD MCOPY PUSH0 SWAP3 ADD PUSH1 0x20 ADD SWAP2 DUP3 MSTORE POP SWAP3 SWAP2 POP POP JUMP JUMPDEST PUSH0 PUSH1 0x20 DUP3 DUP5 SUB SLT ISZERO PUSH2 0x1887 JUMPI PUSH0 PUSH0 REVERT JUMPDEST POP MLOAD SWAP2 SWAP1 POP JUMP JUMPDEST PUSH1 0x1 DUP1 PUSH1 0xA0 SHL SUB DUP5 AND DUP2 MSTORE DUP3 PUSH1 0x20 DUP3 ADD MSTORE PUSH1 0x60 PUSH1 0x40 DUP3 ADD MSTORE PUSH0 PUSH2 0x18B4 PUSH1 0x60 DUP4 ADD DUP5 PUSH2 0x1748 JUMP JUMPDEST SWAP6 SWAP5 POP POP POP POP POP JUMP INVALID LOG2 PUSH5 0x6970667358 0x22 SLT KECCAK256 0xD9 0x2F MSTORE8 0x2C GT PUSH18 0x729D65F0119BB2EC8B2526D0EA1DE05A57F3 MULMOD SIGNEXTEND DUP14 0xF8 COINBASE DUP2 0xC4 0xDE PUSH5 0x736F6C6343 STOP ADDMOD SHR STOP CALLER "},"methodIdentifiers":{"addSupportedInterfaceBatch(bytes4,bytes32[])":"327b533c","domainVerifiers(address,bytes32)":"51cad5ee","isValidSignature(bytes32,bytes)":"1626ba7e","onERC1155BatchReceived(address,address,uint256[],uint256[],bytes)":"bc197c81","onERC1155Received(address,address,uint256,uint256,bytes)":"f23a6e61","onERC721Received(address,address,uint256,bytes)":"150b7a02","removeSupportedInterfaceBatch(bytes4,bytes4[])":"61f5401b","safeInterfaces(address,bytes4)":"b435a13b","safeMethods(address,bytes4)":"0a3fe054","setDomainVerifier(bytes32,address)":"3365582c","setSafeMethod(bytes4,bytes32)":"64f95acc","setSupportedInterface(bytes4,bool)":"7f73528b","supportsInterface(bytes4)":"01ffc9a7"}}}}}