{"project/contracts/SimpleGuard.sol":{"SimpleGuard":{"abi":[{"inputs":[{"internalType":"uint256","name":"value","type":"uint256"}],"name":"NoMoreThan10","type":"error"},{"anonymous":false,"inputs":[{"indexed":true,"internalType":"address","name":"guard","type":"address"}],"name":"ChangedGuard","type":"event"},{"anonymous":false,"inputs":[{"indexed":false,"internalType":"bytes32","name":"hash","type":"bytes32"}],"name":"ExecutionSuccess","type":"event"},{"inputs":[{"internalType":"bytes32","name":"hash","type":"bytes32"},{"internalType":"bool","name":"success","type":"bool"}],"name":"checkAfterExecution","outputs":[],"stateMutability":"nonpayable","type":"function"},{"inputs":[{"internalType":"address","name":"to","type":"address"},{"internalType":"uint256","name":"value","type":"uint256"},{"internalType":"bytes","name":"data","type":"bytes"},{"internalType":"enum Enum.Operation","name":"operation","type":"uint8"},{"internalType":"uint256","name":"safeTxGas","type":"uint256"},{"internalType":"uint256","name":"baseGas","type":"uint256"},{"internalType":"uint256","name":"gasPrice","type":"uint256"},{"internalType":"address","name":"gasToken","type":"address"},{"internalType":"address payable","name":"refundReceiver","type":"address"},{"internalType":"bytes","name":"signatures","type":"bytes"},{"internalType":"address","name":"msgSender","type":"address"}],"name":"checkTransaction","outputs":[],"stateMutability":"nonpayable","type":"function"},{"inputs":[{"internalType":"address","name":"guard","type":"address"}],"name":"setGuard","outputs":[],"stateMutability":"nonpayable","type":"function"},{"inputs":[{"internalType":"bytes4","name":"interfaceId","type":"bytes4"}],"name":"supportsInterface","outputs":[{"internalType":"bool","name":"","type":"bool"}],"stateMutability":"view","type":"function"}],"evm":{"bytecode":{"linkReferences":{},"object":"6080604052348015600e575f5ffd5b506105588061001c5f395ff3fe608060405234801561000f575f5ffd5b506004361061004a575f3560e01c806301ffc9a71461004e57806375f0bb5214610075578063932713681461008a578063e19a9dd91461009d575b5f5ffd5b61006161005c3660046102d2565b6100b0565b604051901515815260200160405180910390f35b6100886100833660046103d4565b6100e6565b005b6100886100983660046104be565b610124565b6100886100ab3660046104ec565b610199565b5f6001600160e01b0319821663736bd41d60e11b14806100e057506001600160e01b031982166301ffc9a760e01b145b92915050565b678ac7230489e800008a11156101175760405163f0a5ef9560e01b8152600481018b90526024015b60405180910390fd5b5050505050505050505050565b806101625760405162461bcd60e51b815260206004820152600e60248201526d14dd58d8d95cdcc811985a5b195960921b604482015260640161010e565b6040518281527fdc29884a71d2bb98d3c53dc09718be05c7bfd142b7773a5c5cf2517629290ac09060200160405180910390a15050565b6101a1610293565b6001600160a01b0381161580159061022357506040516301ffc9a760e01b815263736bd41d60e11b60048201526001600160a01b038216906301ffc9a790602401602060405180830381865afa1580156101fd573d5f5f3e3d5ffd5b505050506040513d601f19601f820116820180604052508101906102219190610507565b155b156102395761023964047533330360dc1b6102ad565b7f4a204f620c8c5ccdca3fd54d003badd85ba500436a431f0cbda4f558c93c34c88190556040516001600160a01b038216907f1151116914515bc0891ff9047a6cb32cf902546f83066499bcf8ba33d2353fa2905f90a250565b3330146102ab576102ab64475330333160d81b6102ad565b565b60405162461bcd60e51b81526020600482015260056024820152816044820152606481fd5b5f602082840312156102e2575f5ffd5b81356001600160e01b0319811681146102f9575f5ffd5b9392505050565b6001600160a01b0381168114610314575f5ffd5b50565b803561032281610300565b919050565b634e487b7160e01b5f52604160045260245ffd5b5f82601f83011261034a575f5ffd5b813567ffffffffffffffff81111561036457610364610327565b604051601f8201601f19908116603f0116810167ffffffffffffffff8111828210171561039357610393610327565b6040528181528382016020018510156103aa575f5ffd5b816020850160208301375f918101602001919091529392505050565b803560028110610322575f5ffd5b5f5f5f5f5f5f5f5f5f5f5f6101608c8e0312156103ef575f5ffd5b6103f88c610317565b9a5060208c0135995060408c013567ffffffffffffffff81111561041a575f5ffd5b6104268e828f0161033b565b99505061043560608d016103c6565b975060808c0135965060a08c0135955060c08c0135945061045860e08d01610317565b93506104676101008d01610317565b92506101208c013567ffffffffffffffff811115610483575f5ffd5b61048f8e828f0161033b565b92505061049f6101408d01610317565b90509295989b509295989b9093969950565b8015158114610314575f5ffd5b5f5f604083850312156104cf575f5ffd5b8235915060208301356104e1816104b1565b809150509250929050565b5f602082840312156104fc575f5ffd5b81356102f981610300565b5f60208284031215610517575f5ffd5b81516102f9816104b156fea2646970667358221220bb3ff1566a85af7af625faea066c1d4d6c5fbb6c2ac76e585b110cce32edd13764736f6c634300081c0033","opcodes":"PUSH1 0x80 PUSH1 0x40 MSTORE CALLVALUE DUP1 ISZERO PUSH1 0xE JUMPI PUSH0 PUSH0 REVERT JUMPDEST POP PUSH2 0x558 DUP1 PUSH2 0x1C PUSH0 CODECOPY PUSH0 RETURN INVALID PUSH1 0x80 PUSH1 0x40 MSTORE CALLVALUE DUP1 ISZERO PUSH2 0xF JUMPI PUSH0 PUSH0 REVERT JUMPDEST POP PUSH1 0x4 CALLDATASIZE LT PUSH2 0x4A JUMPI PUSH0 CALLDATALOAD PUSH1 0xE0 SHR DUP1 PUSH4 0x1FFC9A7 EQ PUSH2 0x4E JUMPI DUP1 PUSH4 0x75F0BB52 EQ PUSH2 0x75 JUMPI DUP1 PUSH4 0x93271368 EQ PUSH2 0x8A JUMPI DUP1 PUSH4 0xE19A9DD9 EQ PUSH2 0x9D JUMPI JUMPDEST PUSH0 PUSH0 REVERT JUMPDEST PUSH2 0x61 PUSH2 0x5C CALLDATASIZE PUSH1 0x4 PUSH2 0x2D2 JUMP JUMPDEST PUSH2 0xB0 JUMP JUMPDEST PUSH1 0x40 MLOAD SWAP1 ISZERO ISZERO DUP2 MSTORE PUSH1 0x20 ADD PUSH1 0x40 MLOAD DUP1 SWAP2 SUB SWAP1 RETURN JUMPDEST PUSH2 0x88 PUSH2 0x83 CALLDATASIZE PUSH1 0x4 PUSH2 0x3D4 JUMP JUMPDEST PUSH2 0xE6 JUMP JUMPDEST STOP JUMPDEST PUSH2 0x88 PUSH2 0x98 CALLDATASIZE PUSH1 0x4 PUSH2 0x4BE JUMP JUMPDEST PUSH2 0x124 JUMP JUMPDEST PUSH2 0x88 PUSH2 0xAB CALLDATASIZE PUSH1 0x4 PUSH2 0x4EC JUMP JUMPDEST PUSH2 0x199 JUMP JUMPDEST PUSH0 PUSH1 0x1 PUSH1 0x1 PUSH1 0xE0 SHL SUB NOT DUP3 AND PUSH4 0x736BD41D PUSH1 0xE1 SHL EQ DUP1 PUSH2 0xE0 JUMPI POP PUSH1 0x1 PUSH1 0x1 PUSH1 0xE0 SHL SUB NOT DUP3 AND PUSH4 0x1FFC9A7 PUSH1 0xE0 SHL EQ JUMPDEST SWAP3 SWAP2 POP POP JUMP JUMPDEST PUSH8 0x8AC7230489E80000 DUP11 GT ISZERO PUSH2 0x117 JUMPI PUSH1 0x40 MLOAD PUSH4 0xF0A5EF95 PUSH1 0xE0 SHL DUP2 MSTORE PUSH1 0x4 DUP2 ADD DUP12 SWAP1 MSTORE PUSH1 0x24 ADD JUMPDEST PUSH1 0x40 MLOAD DUP1 SWAP2 SUB SWAP1 REVERT JUMPDEST POP POP POP POP POP POP POP POP POP POP POP JUMP JUMPDEST DUP1 PUSH2 0x162 JUMPI PUSH1 0x40 MLOAD PUSH3 0x461BCD PUSH1 0xE5 SHL DUP2 MSTORE PUSH1 0x20 PUSH1 0x4 DUP3 ADD MSTORE PUSH1 0xE PUSH1 0x24 DUP3 ADD MSTORE PUSH14 0x14DD58D8D95CDCC811985A5B1959 PUSH1 0x92 SHL PUSH1 0x44 DUP3 ADD MSTORE PUSH1 0x64 ADD PUSH2 0x10E JUMP JUMPDEST PUSH1 0x40 MLOAD DUP3 DUP2 MSTORE PUSH32 0xDC29884A71D2BB98D3C53DC09718BE05C7BFD142B7773A5C5CF2517629290AC0 SWAP1 PUSH1 0x20 ADD PUSH1 0x40 MLOAD DUP1 SWAP2 SUB SWAP1 LOG1 POP POP JUMP JUMPDEST PUSH2 0x1A1 PUSH2 0x293 JUMP JUMPDEST PUSH1 0x1 PUSH1 0x1 PUSH1 0xA0 SHL SUB DUP2 AND ISZERO DUP1 ISZERO SWAP1 PUSH2 0x223 JUMPI POP PUSH1 0x40 MLOAD PUSH4 0x1FFC9A7 PUSH1 0xE0 SHL DUP2 MSTORE PUSH4 0x736BD41D PUSH1 0xE1 SHL PUSH1 0x4 DUP3 ADD MSTORE PUSH1 0x1 PUSH1 0x1 PUSH1 0xA0 SHL SUB DUP3 AND SWAP1 PUSH4 0x1FFC9A7 SWAP1 PUSH1 0x24 ADD PUSH1 0x20 PUSH1 0x40 MLOAD DUP1 DUP4 SUB DUP2 DUP7 GAS STATICCALL ISZERO DUP1 ISZERO PUSH2 0x1FD JUMPI RETURNDATASIZE PUSH0 PUSH0 RETURNDATACOPY RETURNDATASIZE PUSH0 REVERT JUMPDEST POP POP POP POP PUSH1 0x40 MLOAD RETURNDATASIZE PUSH1 0x1F NOT PUSH1 0x1F DUP3 ADD AND DUP3 ADD DUP1 PUSH1 0x40 MSTORE POP DUP2 ADD SWAP1 PUSH2 0x221 SWAP2 SWAP1 PUSH2 0x507 JUMP JUMPDEST ISZERO JUMPDEST ISZERO PUSH2 0x239 JUMPI PUSH2 0x239 PUSH5 0x475333303 PUSH1 0xDC SHL PUSH2 0x2AD JUMP JUMPDEST PUSH32 0x4A204F620C8C5CCDCA3FD54D003BADD85BA500436A431F0CBDA4F558C93C34C8 DUP2 SWAP1 SSTORE PUSH1 0x40 MLOAD PUSH1 0x1 PUSH1 0x1 PUSH1 0xA0 SHL SUB DUP3 AND SWAP1 PUSH32 0x1151116914515BC0891FF9047A6CB32CF902546F83066499BCF8BA33D2353FA2 SWAP1 PUSH0 SWAP1 LOG2 POP JUMP JUMPDEST CALLER ADDRESS EQ PUSH2 0x2AB JUMPI PUSH2 0x2AB PUSH5 0x4753303331 PUSH1 0xD8 SHL PUSH2 0x2AD JUMP JUMPDEST JUMP JUMPDEST PUSH1 0x40 MLOAD PUSH3 0x461BCD PUSH1 0xE5 SHL DUP2 MSTORE PUSH1 0x20 PUSH1 0x4 DUP3 ADD MSTORE PUSH1 0x5 PUSH1 0x24 DUP3 ADD MSTORE DUP2 PUSH1 0x44 DUP3 ADD MSTORE PUSH1 0x64 DUP2 REVERT JUMPDEST PUSH0 PUSH1 0x20 DUP3 DUP5 SUB SLT ISZERO PUSH2 0x2E2 JUMPI PUSH0 PUSH0 REVERT JUMPDEST DUP2 CALLDATALOAD PUSH1 0x1 PUSH1 0x1 PUSH1 0xE0 SHL SUB NOT DUP2 AND DUP2 EQ PUSH2 0x2F9 JUMPI PUSH0 PUSH0 REVERT JUMPDEST SWAP4 SWAP3 POP POP POP JUMP JUMPDEST PUSH1 0x1 PUSH1 0x1 PUSH1 0xA0 SHL SUB DUP2 AND DUP2 EQ PUSH2 0x314 JUMPI PUSH0 PUSH0 REVERT JUMPDEST POP JUMP JUMPDEST DUP1 CALLDATALOAD PUSH2 0x322 DUP2 PUSH2 0x300 JUMP JUMPDEST SWAP2 SWAP1 POP JUMP JUMPDEST PUSH4 0x4E487B71 PUSH1 0xE0 SHL PUSH0 MSTORE PUSH1 0x41 PUSH1 0x4 MSTORE PUSH1 0x24 PUSH0 REVERT JUMPDEST PUSH0 DUP3 PUSH1 0x1F DUP4 ADD SLT PUSH2 0x34A JUMPI PUSH0 PUSH0 REVERT JUMPDEST DUP2 CALLDATALOAD PUSH8 0xFFFFFFFFFFFFFFFF DUP2 GT ISZERO PUSH2 0x364 JUMPI PUSH2 0x364 PUSH2 0x327 JUMP JUMPDEST PUSH1 0x40 MLOAD PUSH1 0x1F DUP3 ADD PUSH1 0x1F NOT SWAP1 DUP2 AND PUSH1 0x3F ADD AND DUP2 ADD PUSH8 0xFFFFFFFFFFFFFFFF DUP2 GT DUP3 DUP3 LT OR ISZERO PUSH2 0x393 JUMPI PUSH2 0x393 PUSH2 0x327 JUMP JUMPDEST PUSH1 0x40 MSTORE DUP2 DUP2 MSTORE DUP4 DUP3 ADD PUSH1 0x20 ADD DUP6 LT ISZERO PUSH2 0x3AA JUMPI PUSH0 PUSH0 REVERT JUMPDEST DUP2 PUSH1 0x20 DUP6 ADD PUSH1 0x20 DUP4 ADD CALLDATACOPY PUSH0 SWAP2 DUP2 ADD PUSH1 0x20 ADD SWAP2 SWAP1 SWAP2 MSTORE SWAP4 SWAP3 POP POP POP JUMP JUMPDEST DUP1 CALLDATALOAD PUSH1 0x2 DUP2 LT PUSH2 0x322 JUMPI PUSH0 PUSH0 REVERT JUMPDEST PUSH0 PUSH0 PUSH0 PUSH0 PUSH0 PUSH0 PUSH0 PUSH0 PUSH0 PUSH0 PUSH0 PUSH2 0x160 DUP13 DUP15 SUB SLT ISZERO PUSH2 0x3EF JUMPI PUSH0 PUSH0 REVERT JUMPDEST PUSH2 0x3F8 DUP13 PUSH2 0x317 JUMP JUMPDEST SWAP11 POP PUSH1 0x20 DUP13 ADD CALLDATALOAD SWAP10 POP PUSH1 0x40 DUP13 ADD CALLDATALOAD PUSH8 0xFFFFFFFFFFFFFFFF DUP2 GT ISZERO PUSH2 0x41A JUMPI PUSH0 PUSH0 REVERT JUMPDEST PUSH2 0x426 DUP15 DUP3 DUP16 ADD PUSH2 0x33B JUMP JUMPDEST SWAP10 POP POP PUSH2 0x435 PUSH1 0x60 DUP14 ADD PUSH2 0x3C6 JUMP JUMPDEST SWAP8 POP PUSH1 0x80 DUP13 ADD CALLDATALOAD SWAP7 POP PUSH1 0xA0 DUP13 ADD CALLDATALOAD SWAP6 POP PUSH1 0xC0 DUP13 ADD CALLDATALOAD SWAP5 POP PUSH2 0x458 PUSH1 0xE0 DUP14 ADD PUSH2 0x317 JUMP JUMPDEST SWAP4 POP PUSH2 0x467 PUSH2 0x100 DUP14 ADD PUSH2 0x317 JUMP JUMPDEST SWAP3 POP PUSH2 0x120 DUP13 ADD CALLDATALOAD PUSH8 0xFFFFFFFFFFFFFFFF DUP2 GT ISZERO PUSH2 0x483 JUMPI PUSH0 PUSH0 REVERT JUMPDEST PUSH2 0x48F DUP15 DUP3 DUP16 ADD PUSH2 0x33B JUMP JUMPDEST SWAP3 POP POP PUSH2 0x49F PUSH2 0x140 DUP14 ADD PUSH2 0x317 JUMP JUMPDEST SWAP1 POP SWAP3 SWAP6 SWAP9 SWAP12 POP SWAP3 SWAP6 SWAP9 SWAP12 SWAP1 SWAP4 SWAP7 SWAP10 POP JUMP JUMPDEST DUP1 ISZERO ISZERO DUP2 EQ PUSH2 0x314 JUMPI PUSH0 PUSH0 REVERT JUMPDEST PUSH0 PUSH0 PUSH1 0x40 DUP4 DUP6 SUB SLT ISZERO PUSH2 0x4CF JUMPI PUSH0 PUSH0 REVERT JUMPDEST DUP3 CALLDATALOAD SWAP2 POP PUSH1 0x20 DUP4 ADD CALLDATALOAD PUSH2 0x4E1 DUP2 PUSH2 0x4B1 JUMP JUMPDEST DUP1 SWAP2 POP POP SWAP3 POP SWAP3 SWAP1 POP JUMP JUMPDEST PUSH0 PUSH1 0x20 DUP3 DUP5 SUB SLT ISZERO PUSH2 0x4FC JUMPI PUSH0 PUSH0 REVERT JUMPDEST DUP2 CALLDATALOAD PUSH2 0x2F9 DUP2 PUSH2 0x300 JUMP JUMPDEST PUSH0 PUSH1 0x20 DUP3 DUP5 SUB SLT ISZERO PUSH2 0x517 JUMPI PUSH0 PUSH0 REVERT JUMPDEST DUP2 MLOAD PUSH2 0x2F9 DUP2 PUSH2 0x4B1 JUMP INVALID LOG2 PUSH5 0x6970667358 0x22 SLT KECCAK256 0xBB EXTCODEHASH CALL JUMP PUSH11 0x85AF7AF625FAEA066C1D4D PUSH13 0x5FBB6C2AC76E585B110CCE32ED 0xD1 CALLDATACOPY PUSH5 0x736F6C6343 STOP ADDMOD SHR STOP CALLER "},"methodIdentifiers":{"checkAfterExecution(bytes32,bool)":"93271368","checkTransaction(address,uint256,bytes,uint8,uint256,uint256,uint256,address,address,bytes,address)":"75f0bb52","setGuard(address)":"e19a9dd9","supportsInterface(bytes4)":"01ffc9a7"}}}}}