{"project/contracts/examples/guards/DelegateCallTransactionGuard.sol":{"DelegateCallTransactionGuard":{"abi":[{"inputs":[{"internalType":"address","name":"target","type":"address"}],"stateMutability":"nonpayable","type":"constructor"},{"stateMutability":"nonpayable","type":"fallback"},{"inputs":[],"name":"ALLOWED_TARGET","outputs":[{"internalType":"address","name":"","type":"address"}],"stateMutability":"view","type":"function"},{"inputs":[{"internalType":"bytes32","name":"","type":"bytes32"},{"internalType":"bool","name":"","type":"bool"}],"name":"checkAfterExecution","outputs":[],"stateMutability":"view","type":"function"},{"inputs":[{"internalType":"bytes32","name":"","type":"bytes32"},{"internalType":"bool","name":"","type":"bool"}],"name":"checkAfterModuleExecution","outputs":[],"stateMutability":"view","type":"function"},{"inputs":[{"internalType":"address","name":"to","type":"address"},{"internalType":"uint256","name":"value","type":"uint256"},{"internalType":"bytes","name":"data","type":"bytes"},{"internalType":"enum Enum.Operation","name":"operation","type":"uint8"},{"internalType":"address","name":"module","type":"address"}],"name":"checkModuleTransaction","outputs":[{"internalType":"bytes32","name":"moduleTxHash","type":"bytes32"}],"stateMutability":"view","type":"function"},{"inputs":[{"internalType":"address","name":"to","type":"address"},{"internalType":"uint256","name":"","type":"uint256"},{"internalType":"bytes","name":"","type":"bytes"},{"internalType":"enum Enum.Operation","name":"operation","type":"uint8"},{"internalType":"uint256","name":"","type":"uint256"},{"internalType":"uint256","name":"","type":"uint256"},{"internalType":"uint256","name":"","type":"uint256"},{"internalType":"address","name":"","type":"address"},{"internalType":"address payable","name":"","type":"address"},{"internalType":"bytes","name":"","type":"bytes"},{"internalType":"address","name":"","type":"address"}],"name":"checkTransaction","outputs":[],"stateMutability":"view","type":"function"},{"inputs":[{"internalType":"bytes4","name":"interfaceId","type":"bytes4"}],"name":"supportsInterface","outputs":[{"internalType":"bool","name":"","type":"bool"}],"stateMutability":"view","type":"function"}],"evm":{"bytecode":{"linkReferences":{},"object":"60a0604052348015600e575f5ffd5b506040516106b93803806106b9833981016040819052602b91603b565b6001600160a01b03166080526066565b5f60208284031215604a575f5ffd5b81516001600160a01b0381168114605f575f5ffd5b9392505050565b60805161062e61008b5f395f8181608f0152818161017f0152610256015261062e5ff3fe608060405234801561000f575f5ffd5b5060043610610060575f3560e01c806301ffc9a714610062578063250d6a911461008a5780632acc37aa146100c9578063728c2972146100db57806375f0bb52146100fc57806393271368146100c9575b005b6100756100703660046102dd565b61010f565b60405190151581526020015b60405180910390f35b6100b17f000000000000000000000000000000000000000000000000000000000000000081565b6040516001600160a01b039091168152602001610081565b6100606100d736600461030b565b5050565b6100ee6100e9366004610411565b610160565b604051908152602001610081565b61006061010a36600461048b565b610238565b5f6001600160e01b0319821663736bd41d60e11b148061013f57506001600160e01b03198216630b0803db60e31b145b8061015a57506001600160e01b031982166301ffc9a760e01b145b92915050565b5f600183600181111561017557610175610568565b1415806101b357507f00000000000000000000000000000000000000000000000000000000000000006001600160a01b0316866001600160a01b0316145b6101fe5760405162461bcd60e51b8152602060048201526017602482015276151a1a5cc818d85b1b081a5cc81c995cdd1c9a58dd1959604a1b60448201526064015b60405180910390fd5b858585858560405160200161021795949392919061057c565b60405160208183030381529060405280519060200120905095945050505050565b600188600181111561024c5761024c610568565b14158061028a57507f00000000000000000000000000000000000000000000000000000000000000006001600160a01b03168b6001600160a01b0316145b6102d05760405162461bcd60e51b8152602060048201526017602482015276151a1a5cc818d85b1b081a5cc81c995cdd1c9a58dd1959604a1b60448201526064016101f5565b5050505050505050505050565b5f602082840312156102ed575f5ffd5b81356001600160e01b031981168114610304575f5ffd5b9392505050565b5f5f6040838503121561031c575f5ffd5b8235915060208301358015158114610332575f5ffd5b809150509250929050565b6001600160a01b0381168114610351575f5ffd5b50565b803561035f8161033d565b919050565b634e487b7160e01b5f52604160045260245ffd5b5f82601f830112610387575f5ffd5b813567ffffffffffffffff8111156103a1576103a1610364565b604051601f8201601f19908116603f0116810167ffffffffffffffff811182821017156103d0576103d0610364565b6040528181528382016020018510156103e7575f5ffd5b816020850160208301375f918101602001919091529392505050565b80356002811061035f575f5ffd5b5f5f5f5f5f60a08688031215610425575f5ffd5b85356104308161033d565b945060208601359350604086013567ffffffffffffffff811115610452575f5ffd5b61045e88828901610378565b93505061046d60608701610403565b9150608086013561047d8161033d565b809150509295509295909350565b5f5f5f5f5f5f5f5f5f5f5f6101608c8e0312156104a6575f5ffd5b6104af8c610354565b9a5060208c0135995060408c013567ffffffffffffffff8111156104d1575f5ffd5b6104dd8e828f01610378565b9950506104ec60608d01610403565b975060808c0135965060a08c0135955060c08c0135945061050f60e08d01610354565b935061051e6101008d01610354565b92506101208c013567ffffffffffffffff81111561053a575f5ffd5b6105468e828f01610378565b9250506105566101408d01610354565b90509295989b509295989b9093969950565b634e487b7160e01b5f52602160045260245ffd5b6bffffffffffffffffffffffff198660601b1681528460148201525f84518060208701603485015e8083019050603481015f8152600286106105cc57634e487b7160e01b5f52602160045260245ffd5b60f89590951b909452505060601b6bffffffffffffffffffffffff19166035820152604901939250505056fea26469706673582212209f5522c6fccbebcd2e496e48666f8e22c64cfff886133cfbd1c62cc2d66f27f164736f6c634300081c0033","opcodes":"PUSH1 0xA0 PUSH1 0x40 MSTORE CALLVALUE DUP1 ISZERO PUSH1 0xE JUMPI PUSH0 PUSH0 REVERT JUMPDEST POP PUSH1 0x40 MLOAD PUSH2 0x6B9 CODESIZE SUB DUP1 PUSH2 0x6B9 DUP4 CODECOPY DUP2 ADD PUSH1 0x40 DUP2 SWAP1 MSTORE PUSH1 0x2B SWAP2 PUSH1 0x3B JUMP JUMPDEST PUSH1 0x1 PUSH1 0x1 PUSH1 0xA0 SHL SUB AND PUSH1 0x80 MSTORE PUSH1 0x66 JUMP JUMPDEST PUSH0 PUSH1 0x20 DUP3 DUP5 SUB SLT ISZERO PUSH1 0x4A JUMPI PUSH0 PUSH0 REVERT JUMPDEST DUP2 MLOAD PUSH1 0x1 PUSH1 0x1 PUSH1 0xA0 SHL SUB DUP2 AND DUP2 EQ PUSH1 0x5F JUMPI PUSH0 PUSH0 REVERT JUMPDEST SWAP4 SWAP3 POP POP POP JUMP JUMPDEST PUSH1 0x80 MLOAD PUSH2 0x62E PUSH2 0x8B PUSH0 CODECOPY PUSH0 DUP2 DUP2 PUSH1 0x8F ADD MSTORE DUP2 DUP2 PUSH2 0x17F ADD MSTORE PUSH2 0x256 ADD MSTORE PUSH2 0x62E PUSH0 RETURN INVALID PUSH1 0x80 PUSH1 0x40 MSTORE CALLVALUE DUP1 ISZERO PUSH2 0xF JUMPI PUSH0 PUSH0 REVERT JUMPDEST POP PUSH1 0x4 CALLDATASIZE LT PUSH2 0x60 JUMPI PUSH0 CALLDATALOAD PUSH1 0xE0 SHR DUP1 PUSH4 0x1FFC9A7 EQ PUSH2 0x62 JUMPI DUP1 PUSH4 0x250D6A91 EQ PUSH2 0x8A JUMPI DUP1 PUSH4 0x2ACC37AA EQ PUSH2 0xC9 JUMPI DUP1 PUSH4 0x728C2972 EQ PUSH2 0xDB JUMPI DUP1 PUSH4 0x75F0BB52 EQ PUSH2 0xFC JUMPI DUP1 PUSH4 0x93271368 EQ PUSH2 0xC9 JUMPI JUMPDEST STOP JUMPDEST PUSH2 0x75 PUSH2 0x70 CALLDATASIZE PUSH1 0x4 PUSH2 0x2DD JUMP JUMPDEST PUSH2 0x10F JUMP JUMPDEST PUSH1 0x40 MLOAD SWAP1 ISZERO ISZERO DUP2 MSTORE PUSH1 0x20 ADD JUMPDEST PUSH1 0x40 MLOAD DUP1 SWAP2 SUB SWAP1 RETURN JUMPDEST PUSH2 0xB1 PUSH32 0x0 DUP2 JUMP JUMPDEST PUSH1 0x40 MLOAD PUSH1 0x1 PUSH1 0x1 PUSH1 0xA0 SHL SUB SWAP1 SWAP2 AND DUP2 MSTORE PUSH1 0x20 ADD PUSH2 0x81 JUMP JUMPDEST PUSH2 0x60 PUSH2 0xD7 CALLDATASIZE PUSH1 0x4 PUSH2 0x30B JUMP JUMPDEST POP POP JUMP JUMPDEST PUSH2 0xEE PUSH2 0xE9 CALLDATASIZE PUSH1 0x4 PUSH2 0x411 JUMP JUMPDEST PUSH2 0x160 JUMP JUMPDEST PUSH1 0x40 MLOAD SWAP1 DUP2 MSTORE PUSH1 0x20 ADD PUSH2 0x81 JUMP JUMPDEST PUSH2 0x60 PUSH2 0x10A CALLDATASIZE PUSH1 0x4 PUSH2 0x48B JUMP JUMPDEST PUSH2 0x238 JUMP JUMPDEST PUSH0 PUSH1 0x1 PUSH1 0x1 PUSH1 0xE0 SHL SUB NOT DUP3 AND PUSH4 0x736BD41D PUSH1 0xE1 SHL EQ DUP1 PUSH2 0x13F JUMPI POP PUSH1 0x1 PUSH1 0x1 PUSH1 0xE0 SHL SUB NOT DUP3 AND PUSH4 0xB0803DB PUSH1 0xE3 SHL EQ JUMPDEST DUP1 PUSH2 0x15A JUMPI POP PUSH1 0x1 PUSH1 0x1 PUSH1 0xE0 SHL SUB NOT DUP3 AND PUSH4 0x1FFC9A7 PUSH1 0xE0 SHL EQ JUMPDEST SWAP3 SWAP2 POP POP JUMP JUMPDEST PUSH0 PUSH1 0x1 DUP4 PUSH1 0x1 DUP2 GT ISZERO PUSH2 0x175 JUMPI PUSH2 0x175 PUSH2 0x568 JUMP JUMPDEST EQ ISZERO DUP1 PUSH2 0x1B3 JUMPI POP PUSH32 0x0 PUSH1 0x1 PUSH1 0x1 PUSH1 0xA0 SHL SUB AND DUP7 PUSH1 0x1 PUSH1 0x1 PUSH1 0xA0 SHL SUB AND EQ JUMPDEST PUSH2 0x1FE JUMPI PUSH1 0x40 MLOAD PUSH3 0x461BCD PUSH1 0xE5 SHL DUP2 MSTORE PUSH1 0x20 PUSH1 0x4 DUP3 ADD MSTORE PUSH1 0x17 PUSH1 0x24 DUP3 ADD MSTORE PUSH23 0x151A1A5CC818D85B1B081A5CC81C995CDD1C9A58DD1959 PUSH1 0x4A SHL PUSH1 0x44 DUP3 ADD MSTORE PUSH1 0x64 ADD JUMPDEST PUSH1 0x40 MLOAD DUP1 SWAP2 SUB SWAP1 REVERT JUMPDEST DUP6 DUP6 DUP6 DUP6 DUP6 PUSH1 0x40 MLOAD PUSH1 0x20 ADD PUSH2 0x217 SWAP6 SWAP5 SWAP4 SWAP3 SWAP2 SWAP1 PUSH2 0x57C JUMP JUMPDEST PUSH1 0x40 MLOAD PUSH1 0x20 DUP2 DUP4 SUB SUB DUP2 MSTORE SWAP1 PUSH1 0x40 MSTORE DUP1 MLOAD SWAP1 PUSH1 0x20 ADD KECCAK256 SWAP1 POP SWAP6 SWAP5 POP POP POP POP POP JUMP JUMPDEST PUSH1 0x1 DUP9 PUSH1 0x1 DUP2 GT ISZERO PUSH2 0x24C JUMPI PUSH2 0x24C PUSH2 0x568 JUMP JUMPDEST EQ ISZERO DUP1 PUSH2 0x28A JUMPI POP PUSH32 0x0 PUSH1 0x1 PUSH1 0x1 PUSH1 0xA0 SHL SUB AND DUP12 PUSH1 0x1 PUSH1 0x1 PUSH1 0xA0 SHL SUB AND EQ JUMPDEST PUSH2 0x2D0 JUMPI PUSH1 0x40 MLOAD PUSH3 0x461BCD PUSH1 0xE5 SHL DUP2 MSTORE PUSH1 0x20 PUSH1 0x4 DUP3 ADD MSTORE PUSH1 0x17 PUSH1 0x24 DUP3 ADD MSTORE PUSH23 0x151A1A5CC818D85B1B081A5CC81C995CDD1C9A58DD1959 PUSH1 0x4A SHL PUSH1 0x44 DUP3 ADD MSTORE PUSH1 0x64 ADD PUSH2 0x1F5 JUMP JUMPDEST POP POP POP POP POP POP POP POP POP POP POP JUMP JUMPDEST PUSH0 PUSH1 0x20 DUP3 DUP5 SUB SLT ISZERO PUSH2 0x2ED JUMPI PUSH0 PUSH0 REVERT JUMPDEST DUP2 CALLDATALOAD PUSH1 0x1 PUSH1 0x1 PUSH1 0xE0 SHL SUB NOT DUP2 AND DUP2 EQ PUSH2 0x304 JUMPI PUSH0 PUSH0 REVERT JUMPDEST SWAP4 SWAP3 POP POP POP JUMP JUMPDEST PUSH0 PUSH0 PUSH1 0x40 DUP4 DUP6 SUB SLT ISZERO PUSH2 0x31C JUMPI PUSH0 PUSH0 REVERT JUMPDEST DUP3 CALLDATALOAD SWAP2 POP PUSH1 0x20 DUP4 ADD CALLDATALOAD DUP1 ISZERO ISZERO DUP2 EQ PUSH2 0x332 JUMPI PUSH0 PUSH0 REVERT JUMPDEST DUP1 SWAP2 POP POP SWAP3 POP SWAP3 SWAP1 POP JUMP JUMPDEST PUSH1 0x1 PUSH1 0x1 PUSH1 0xA0 SHL SUB DUP2 AND DUP2 EQ PUSH2 0x351 JUMPI PUSH0 PUSH0 REVERT JUMPDEST POP JUMP JUMPDEST DUP1 CALLDATALOAD PUSH2 0x35F DUP2 PUSH2 0x33D JUMP JUMPDEST SWAP2 SWAP1 POP JUMP JUMPDEST PUSH4 0x4E487B71 PUSH1 0xE0 SHL PUSH0 MSTORE PUSH1 0x41 PUSH1 0x4 MSTORE PUSH1 0x24 PUSH0 REVERT JUMPDEST PUSH0 DUP3 PUSH1 0x1F DUP4 ADD SLT PUSH2 0x387 JUMPI PUSH0 PUSH0 REVERT JUMPDEST DUP2 CALLDATALOAD PUSH8 0xFFFFFFFFFFFFFFFF DUP2 GT ISZERO PUSH2 0x3A1 JUMPI PUSH2 0x3A1 PUSH2 0x364 JUMP JUMPDEST PUSH1 0x40 MLOAD PUSH1 0x1F DUP3 ADD PUSH1 0x1F NOT SWAP1 DUP2 AND PUSH1 0x3F ADD AND DUP2 ADD PUSH8 0xFFFFFFFFFFFFFFFF DUP2 GT DUP3 DUP3 LT OR ISZERO PUSH2 0x3D0 JUMPI PUSH2 0x3D0 PUSH2 0x364 JUMP JUMPDEST PUSH1 0x40 MSTORE DUP2 DUP2 MSTORE DUP4 DUP3 ADD PUSH1 0x20 ADD DUP6 LT ISZERO PUSH2 0x3E7 JUMPI PUSH0 PUSH0 REVERT JUMPDEST DUP2 PUSH1 0x20 DUP6 ADD PUSH1 0x20 DUP4 ADD CALLDATACOPY PUSH0 SWAP2 DUP2 ADD PUSH1 0x20 ADD SWAP2 SWAP1 SWAP2 MSTORE SWAP4 SWAP3 POP POP POP JUMP JUMPDEST DUP1 CALLDATALOAD PUSH1 0x2 DUP2 LT PUSH2 0x35F JUMPI PUSH0 PUSH0 REVERT JUMPDEST PUSH0 PUSH0 PUSH0 PUSH0 PUSH0 PUSH1 0xA0 DUP7 DUP9 SUB SLT ISZERO PUSH2 0x425 JUMPI PUSH0 PUSH0 REVERT JUMPDEST DUP6 CALLDATALOAD PUSH2 0x430 DUP2 PUSH2 0x33D JUMP JUMPDEST SWAP5 POP PUSH1 0x20 DUP7 ADD CALLDATALOAD SWAP4 POP PUSH1 0x40 DUP7 ADD CALLDATALOAD PUSH8 0xFFFFFFFFFFFFFFFF DUP2 GT ISZERO PUSH2 0x452 JUMPI PUSH0 PUSH0 REVERT JUMPDEST PUSH2 0x45E DUP9 DUP3 DUP10 ADD PUSH2 0x378 JUMP JUMPDEST SWAP4 POP POP PUSH2 0x46D PUSH1 0x60 DUP8 ADD PUSH2 0x403 JUMP JUMPDEST SWAP2 POP PUSH1 0x80 DUP7 ADD CALLDATALOAD PUSH2 0x47D DUP2 PUSH2 0x33D JUMP JUMPDEST DUP1 SWAP2 POP POP SWAP3 SWAP6 POP SWAP3 SWAP6 SWAP1 SWAP4 POP JUMP JUMPDEST PUSH0 PUSH0 PUSH0 PUSH0 PUSH0 PUSH0 PUSH0 PUSH0 PUSH0 PUSH0 PUSH0 PUSH2 0x160 DUP13 DUP15 SUB SLT ISZERO PUSH2 0x4A6 JUMPI PUSH0 PUSH0 REVERT JUMPDEST PUSH2 0x4AF DUP13 PUSH2 0x354 JUMP JUMPDEST SWAP11 POP PUSH1 0x20 DUP13 ADD CALLDATALOAD SWAP10 POP PUSH1 0x40 DUP13 ADD CALLDATALOAD PUSH8 0xFFFFFFFFFFFFFFFF DUP2 GT ISZERO PUSH2 0x4D1 JUMPI PUSH0 PUSH0 REVERT JUMPDEST PUSH2 0x4DD DUP15 DUP3 DUP16 ADD PUSH2 0x378 JUMP JUMPDEST SWAP10 POP POP PUSH2 0x4EC PUSH1 0x60 DUP14 ADD PUSH2 0x403 JUMP JUMPDEST SWAP8 POP PUSH1 0x80 DUP13 ADD CALLDATALOAD SWAP7 POP PUSH1 0xA0 DUP13 ADD CALLDATALOAD SWAP6 POP PUSH1 0xC0 DUP13 ADD CALLDATALOAD SWAP5 POP PUSH2 0x50F PUSH1 0xE0 DUP14 ADD PUSH2 0x354 JUMP JUMPDEST SWAP4 POP PUSH2 0x51E PUSH2 0x100 DUP14 ADD PUSH2 0x354 JUMP JUMPDEST SWAP3 POP PUSH2 0x120 DUP13 ADD CALLDATALOAD PUSH8 0xFFFFFFFFFFFFFFFF DUP2 GT ISZERO PUSH2 0x53A JUMPI PUSH0 PUSH0 REVERT JUMPDEST PUSH2 0x546 DUP15 DUP3 DUP16 ADD PUSH2 0x378 JUMP JUMPDEST SWAP3 POP POP PUSH2 0x556 PUSH2 0x140 DUP14 ADD PUSH2 0x354 JUMP JUMPDEST SWAP1 POP SWAP3 SWAP6 SWAP9 SWAP12 POP SWAP3 SWAP6 SWAP9 SWAP12 SWAP1 SWAP4 SWAP7 SWAP10 POP JUMP JUMPDEST PUSH4 0x4E487B71 PUSH1 0xE0 SHL PUSH0 MSTORE PUSH1 0x21 PUSH1 0x4 MSTORE PUSH1 0x24 PUSH0 REVERT JUMPDEST PUSH12 0xFFFFFFFFFFFFFFFFFFFFFFFF NOT DUP7 PUSH1 0x60 SHL AND DUP2 MSTORE DUP5 PUSH1 0x14 DUP3 ADD MSTORE PUSH0 DUP5 MLOAD DUP1 PUSH1 0x20 DUP8 ADD PUSH1 0x34 DUP6 ADD MCOPY DUP1 DUP4 ADD SWAP1 POP PUSH1 0x34 DUP2 ADD PUSH0 DUP2 MSTORE PUSH1 0x2 DUP7 LT PUSH2 0x5CC JUMPI PUSH4 0x4E487B71 PUSH1 0xE0 SHL PUSH0 MSTORE PUSH1 0x21 PUSH1 0x4 MSTORE PUSH1 0x24 PUSH0 REVERT JUMPDEST PUSH1 0xF8 SWAP6 SWAP1 SWAP6 SHL SWAP1 SWAP5 MSTORE POP POP PUSH1 0x60 SHL PUSH12 0xFFFFFFFFFFFFFFFFFFFFFFFF NOT AND PUSH1 0x35 DUP3 ADD MSTORE PUSH1 0x49 ADD SWAP4 SWAP3 POP POP POP JUMP INVALID LOG2 PUSH5 0x6970667358 0x22 SLT KECCAK256 SWAP16 SSTORE 0x22 0xC6 0xFC 0xCB 0xEB 0xCD 0x2E BLOBHASH PUSH15 0x48666F8E22C64CFFF886133CFBD1C6 0x2C 0xC2 0xD6 PUSH16 0x27F164736F6C634300081C0033000000 "},"methodIdentifiers":{"ALLOWED_TARGET()":"250d6a91","checkAfterExecution(bytes32,bool)":"93271368","checkAfterModuleExecution(bytes32,bool)":"2acc37aa","checkModuleTransaction(address,uint256,bytes,uint8,address)":"728c2972","checkTransaction(address,uint256,bytes,uint8,uint256,uint256,uint256,address,address,bytes,address)":"75f0bb52","supportsInterface(bytes4)":"01ffc9a7"}}}}}