{
  "_format": "hh3-artifact-1",
  "contractName": "SafeToL2Setup",
  "sourceName": "contracts/libraries/SafeToL2Setup.sol",
  "abi": [
    {
      "inputs": [],
      "stateMutability": "nonpayable",
      "type": "constructor"
    },
    {
      "anonymous": false,
      "inputs": [
        {
          "indexed": false,
          "internalType": "address",
          "name": "singleton",
          "type": "address"
        }
      ],
      "name": "ChangedMasterCopy",
      "type": "event"
    },
    {
      "inputs": [
        {
          "internalType": "address",
          "name": "l2Singleton",
          "type": "address"
        }
      ],
      "name": "setupToL2",
      "outputs": [],
      "stateMutability": "nonpayable",
      "type": "function"
    }
  ],
  "bytecode": "0x60a0604052348015600e575f5ffd5b503060805260805161024861002a5f395f604c01526102485ff3fe608060405234801561000f575f5ffd5b5060043610610029575f3560e01c8063fe51f6431461002d575b5f5ffd5b61004061003b3660046101e5565b610042565b005b6001600160a01b037f00000000000000000000000000000000000000000000000000000000000000001630036100dc5760405162461bcd60e51b815260206004820152603460248201527f53616665546f4c3253657475702073686f756c64206f6e6c792062652063616c6044820152731b1959081d9a584819195b1959d85d1958d85b1b60621b60648201526084015b60405180910390fd5b600554156101375760405162461bcd60e51b815260206004820152602260248201527f53616665206d7573742068617665206e6f7420657865637574656420616e79206044820152610e8f60f31b60648201526084016100d3565b80803b5f036101885760405162461bcd60e51b815260206004820152601c60248201527f4163636f756e7420646f65736e277420636f6e7461696e20636f64650000000060448201526064016100d3565b466001146101e1575f80546001600160a01b0319166001600160a01b0384169081179091556040519081527f75e41bc35ff1bf14d81d1d2f649c0084a0f974f9289c803ec9898eeec4c8d0b89060200160405180910390a15b5050565b5f602082840312156101f5575f5ffd5b81356001600160a01b038116811461020b575f5ffd5b939250505056fea26469706673582212207605f7f3306438168d04a348394ac3a5782d6cbe211ed12f8a74e710bca0caa364736f6c634300081c0033",
  "linkReferences": {},
  "deployedLinkReferences": {},
  "immutableReferences": {
    "41": [
      {
        "length": 32,
        "start": 76
      }
    ]
  },
  "inputSourceName": "project/contracts/libraries/SafeToL2Setup.sol",
  "buildInfoId": "solc-0_8_28-fca088079255af35bb64786af54cfa6337cb4878"
}