{
  "_format": "hh3-artifact-1",
  "contractName": "CompatibilityFallbackHandler",
  "sourceName": "contracts/handler/CompatibilityFallbackHandler.sol",
  "abi": [
    {
      "inputs": [
        {
          "internalType": "contract ISafe",
          "name": "safe",
          "type": "address"
        },
        {
          "internalType": "bytes",
          "name": "message",
          "type": "bytes"
        }
      ],
      "name": "encodeMessageDataForSafe",
      "outputs": [
        {
          "internalType": "bytes",
          "name": "",
          "type": "bytes"
        }
      ],
      "stateMutability": "view",
      "type": "function"
    },
    {
      "inputs": [
        {
          "internalType": "address",
          "name": "to",
          "type": "address"
        },
        {
          "internalType": "uint256",
          "name": "value",
          "type": "uint256"
        },
        {
          "internalType": "bytes",
          "name": "data",
          "type": "bytes"
        },
        {
          "internalType": "enum Enum.Operation",
          "name": "operation",
          "type": "uint8"
        },
        {
          "internalType": "uint256",
          "name": "safeTxGas",
          "type": "uint256"
        },
        {
          "internalType": "uint256",
          "name": "baseGas",
          "type": "uint256"
        },
        {
          "internalType": "uint256",
          "name": "gasPrice",
          "type": "uint256"
        },
        {
          "internalType": "address",
          "name": "gasToken",
          "type": "address"
        },
        {
          "internalType": "address",
          "name": "refundReceiver",
          "type": "address"
        },
        {
          "internalType": "uint256",
          "name": "nonce",
          "type": "uint256"
        }
      ],
      "name": "encodeTransactionData",
      "outputs": [
        {
          "internalType": "bytes",
          "name": "",
          "type": "bytes"
        }
      ],
      "stateMutability": "view",
      "type": "function"
    },
    {
      "inputs": [
        {
          "internalType": "bytes",
          "name": "message",
          "type": "bytes"
        }
      ],
      "name": "getMessageHash",
      "outputs": [
        {
          "internalType": "bytes32",
          "name": "",
          "type": "bytes32"
        }
      ],
      "stateMutability": "view",
      "type": "function"
    },
    {
      "inputs": [
        {
          "internalType": "contract ISafe",
          "name": "safe",
          "type": "address"
        },
        {
          "internalType": "bytes",
          "name": "message",
          "type": "bytes"
        }
      ],
      "name": "getMessageHashForSafe",
      "outputs": [
        {
          "internalType": "bytes32",
          "name": "",
          "type": "bytes32"
        }
      ],
      "stateMutability": "view",
      "type": "function"
    },
    {
      "inputs": [],
      "name": "getModules",
      "outputs": [
        {
          "internalType": "address[]",
          "name": "",
          "type": "address[]"
        }
      ],
      "stateMutability": "view",
      "type": "function"
    },
    {
      "inputs": [
        {
          "internalType": "bytes32",
          "name": "_dataHash",
          "type": "bytes32"
        },
        {
          "internalType": "bytes",
          "name": "_signature",
          "type": "bytes"
        }
      ],
      "name": "isValidSignature",
      "outputs": [
        {
          "internalType": "bytes4",
          "name": "",
          "type": "bytes4"
        }
      ],
      "stateMutability": "view",
      "type": "function"
    },
    {
      "inputs": [
        {
          "internalType": "address",
          "name": "",
          "type": "address"
        },
        {
          "internalType": "address",
          "name": "",
          "type": "address"
        },
        {
          "internalType": "uint256[]",
          "name": "",
          "type": "uint256[]"
        },
        {
          "internalType": "uint256[]",
          "name": "",
          "type": "uint256[]"
        },
        {
          "internalType": "bytes",
          "name": "",
          "type": "bytes"
        }
      ],
      "name": "onERC1155BatchReceived",
      "outputs": [
        {
          "internalType": "bytes4",
          "name": "",
          "type": "bytes4"
        }
      ],
      "stateMutability": "view",
      "type": "function"
    },
    {
      "inputs": [
        {
          "internalType": "address",
          "name": "",
          "type": "address"
        },
        {
          "internalType": "address",
          "name": "",
          "type": "address"
        },
        {
          "internalType": "uint256",
          "name": "",
          "type": "uint256"
        },
        {
          "internalType": "uint256",
          "name": "",
          "type": "uint256"
        },
        {
          "internalType": "bytes",
          "name": "",
          "type": "bytes"
        }
      ],
      "name": "onERC1155Received",
      "outputs": [
        {
          "internalType": "bytes4",
          "name": "",
          "type": "bytes4"
        }
      ],
      "stateMutability": "view",
      "type": "function"
    },
    {
      "inputs": [
        {
          "internalType": "address",
          "name": "",
          "type": "address"
        },
        {
          "internalType": "address",
          "name": "",
          "type": "address"
        },
        {
          "internalType": "uint256",
          "name": "",
          "type": "uint256"
        },
        {
          "internalType": "bytes",
          "name": "",
          "type": "bytes"
        }
      ],
      "name": "onERC721Received",
      "outputs": [
        {
          "internalType": "bytes4",
          "name": "",
          "type": "bytes4"
        }
      ],
      "stateMutability": "view",
      "type": "function"
    },
    {
      "inputs": [
        {
          "internalType": "address",
          "name": "targetContract",
          "type": "address"
        },
        {
          "internalType": "bytes",
          "name": "calldataPayload",
          "type": "bytes"
        }
      ],
      "name": "simulate",
      "outputs": [
        {
          "internalType": "bytes",
          "name": "response",
          "type": "bytes"
        }
      ],
      "stateMutability": "nonpayable",
      "type": "function"
    },
    {
      "inputs": [
        {
          "internalType": "bytes4",
          "name": "interfaceId",
          "type": "bytes4"
        }
      ],
      "name": "supportsInterface",
      "outputs": [
        {
          "internalType": "bool",
          "name": "",
          "type": "bool"
        }
      ],
      "stateMutability": "view",
      "type": "function"
    },
    {
      "inputs": [
        {
          "internalType": "address",
          "name": "",
          "type": "address"
        },
        {
          "internalType": "address",
          "name": "",
          "type": "address"
        },
        {
          "internalType": "address",
          "name": "",
          "type": "address"
        },
        {
          "internalType": "uint256",
          "name": "",
          "type": "uint256"
        },
        {
          "internalType": "bytes",
          "name": "",
          "type": "bytes"
        },
        {
          "internalType": "bytes",
          "name": "",
          "type": "bytes"
        }
      ],
      "name": "tokensReceived",
      "outputs": [],
      "stateMutability": "pure",
      "type": "function"
    }
  ],
  "bytecode": "0x6080604052348015600e575f5ffd5b50611c6d8061001c5f395ff3fe608060405234801561000f575f5ffd5b50600436106100b1575f3560e01c80636ac247841161006f5780636ac24784146101c1578063b2494df3146101f1578063bc197c811461020f578063bd61951d1461023f578063e86637db1461026f578063f23a6e611461029f576100b1565b806223de29146100b557806301ffc9a7146100d15780630a1028c414610101578063150b7a02146101315780631626ba7e146101615780632303164014610191575b5f5ffd5b6100cf60048036038101906100ca9190610b77565b6102cf565b005b6100eb60048036038101906100e69190610c96565b6102d9565b6040516100f89190610cdb565b60405180910390f35b61011b60048036038101906101169190610e2c565b610412565b6040516101289190610e8b565b60405180910390f35b61014b60048036038101906101469190610ea4565b610424565b6040516101589190610f37565b60405180910390f35b61017b60048036038101906101769190610f7a565b610440565b6040516101889190610f37565b60405180910390f35b6101ab60048036038101906101a69190611023565b6105c4565b6040516101b891906110dd565b60405180910390f35b6101db60048036038101906101d69190611023565b6106be565b6040516101e89190610e8b565b60405180910390f35b6101f96106d8565b60405161020691906111b4565b60405180910390f35b61022960048036038101906102249190611229565b610769565b6040516102369190610f37565b60405180910390f35b61025960048036038101906102549190611300565b610788565b60405161026691906110dd565b60405180910390f35b61028960048036038101906102849190611380565b6107fe565b60405161029691906110dd565b60405180910390f35b6102b960048036038101906102b49190611479565b61092d565b6040516102c69190610f37565b60405180910390f35b5050505050505050565b5f7f4e2312e0000000000000000000000000000000000000000000000000000000007bffffffffffffffffffffffffffffffffffffffffffffffffffffffff1916827bffffffffffffffffffffffffffffffffffffffffffffffffffffffff191614806103a357507f150b7a02000000000000000000000000000000000000000000000000000000007bffffffffffffffffffffffffffffffffffffffffffffffffffffffff1916827bffffffffffffffffffffffffffffffffffffffffffffffffffffffff1916145b8061040b57507f01ffc9a7000000000000000000000000000000000000000000000000000000007bffffffffffffffffffffffffffffffffffffffffffffffffffffffff1916827bffffffffffffffffffffffffffffffffffffffffffffffffffffffff1916145b9050919050565b5f61041d33836106be565b9050919050565b5f61042d61094a565b63150b7a0260e01b905095945050505050565b5f5f3390505f61046f828760405160200161045b9190610e8b565b6040516020818303038152906040526105c4565b90505f818051906020012090505f8686905003610544575f8373ffffffffffffffffffffffffffffffffffffffff16635ae6bd37836040518263ffffffff1660e01b81526004016104c09190610e8b565b602060405180830381865afa1580156104db573d5f5f3e3d5ffd5b505050506040513d601f19601f820116820180604052508101906104ff9190611523565b0361053f576040517f08c379a0000000000000000000000000000000000000000000000000000000008152600401610536906115a8565b60405180910390fd5b6105b0565b8273ffffffffffffffffffffffffffffffffffffffff1663f855438b5f8389896040518563ffffffff1660e01b81526004016105839493929190611601565b5f6040518083038186803b158015610599575f5ffd5b505afa1580156105ab573d5f5f3e3d5ffd5b505050505b631626ba7e60e01b93505050509392505050565b60605f7f60b3cbf8b4a223d68d641b3b6ddf9a298e7f33710cf3d3a9d1146b5a6150fbca5f1b838051906020012060405160200161060392919061163f565b604051602081830303815290604052805190602001209050601960f81b600160f81b8573ffffffffffffffffffffffffffffffffffffffff1663f698da256040518163ffffffff1660e01b8152600401602060405180830381865afa15801561066e573d5f5f3e3d5ffd5b505050506040513d601f19601f82011682018060405250810190610692919061167a565b836040516020016106a69493929190611710565b60405160208183030381529060405291505092915050565b5f6106c983836105c4565b80519060200120905092915050565b60605f3390505f8173ffffffffffffffffffffffffffffffffffffffff1663cc2f84526001600a6040518363ffffffff1660e01b815260040161071c92919061179f565b5f60405180830381865afa158015610736573d5f5f3e3d5ffd5b505050506040513d5f823e3d601f19601f8201168201806040525081019061075e919061189a565b509050809250505090565b5f61077261094a565b63bc197c8160e01b905098975050505050505050565b60606040517fb4faba090000000000000000000000000000000000000000000000000000000081526004360360048083013760405f36835f335af160403d108117156107d2575f5ffd5b60208051016040519350808401604052806020853e5f516107f4578060208501fd5b5050509392505050565b60605f3390505f8173ffffffffffffffffffffffffffffffffffffffff1663f698da256040518163ffffffff1660e01b8152600401602060405180830381865afa15801561084e573d5f5f3e3d5ffd5b505050506040513d601f19601f82011682018060405250810190610872919061167a565b90505f7fbb8310d486368db6bd6f849402fdd73ad53d316b5a4b2644ad6efe0f941286d85f1b8f8f8f8f6040516108aa929190611922565b60405180910390208e8e8e8e8e8e8e6040516020016108d39b9a999897969594939291906119bc565b604051602081830303815290604052805190602001209050601960f81b600160f81b838360405160200161090a9493929190611710565b60405160208183030381529060405293505050509b9a5050505050505050505050565b5f61093661094a565b63f23a6e6160e01b90509695505050505050565b5f3373ffffffffffffffffffffffffffffffffffffffff16635624b25b7f6c9a6c4a39284e37ed1cf53d337577d14212a4870fb976a4366c693b939918d55f1b5f1c60016040518363ffffffff1660e01b81526004016109ab929190611a9e565b5f60405180830381865afa1580156109c5573d5f5f3e3d5ffd5b505050506040513d5f823e3d601f19601f820116820180604052508101906109ed9190611b33565b90505f81806020019051810190610a049190611ba4565b90503073ffffffffffffffffffffffffffffffffffffffff168173ffffffffffffffffffffffffffffffffffffffff1614610a74576040517f08c379a0000000000000000000000000000000000000000000000000000000008152600401610a6b90611c19565b60405180910390fd5b5050565b5f604051905090565b5f5ffd5b5f5ffd5b5f73ffffffffffffffffffffffffffffffffffffffff82169050919050565b5f610ab282610a89565b9050919050565b610ac281610aa8565b8114610acc575f5ffd5b50565b5f81359050610add81610ab9565b92915050565b5f819050919050565b610af581610ae3565b8114610aff575f5ffd5b50565b5f81359050610b1081610aec565b92915050565b5f5ffd5b5f5ffd5b5f5ffd5b5f5f83601f840112610b3757610b36610b16565b5b8235905067ffffffffffffffff811115610b5457610b53610b1a565b5b602083019150836001820283011115610b7057610b6f610b1e565b5b9250929050565b5f5f5f5f5f5f5f5f60c0898b031215610b9357610b92610a81565b5b5f610ba08b828c01610acf565b9850506020610bb18b828c01610acf565b9750506040610bc28b828c01610acf565b9650506060610bd38b828c01610b02565b955050608089013567ffffffffffffffff811115610bf457610bf3610a85565b5b610c008b828c01610b22565b945094505060a089013567ffffffffffffffff811115610c2357610c22610a85565b5b610c2f8b828c01610b22565b92509250509295985092959890939650565b5f7fffffffff0000000000000000000000000000000000000000000000000000000082169050919050565b610c7581610c41565b8114610c7f575f5ffd5b50565b5f81359050610c9081610c6c565b92915050565b5f60208284031215610cab57610caa610a81565b5b5f610cb884828501610c82565b91505092915050565b5f8115159050919050565b610cd581610cc1565b82525050565b5f602082019050610cee5f830184610ccc565b92915050565b5f5ffd5b5f601f19601f8301169050919050565b7f4e487b71000000000000000000000000000000000000000000000000000000005f52604160045260245ffd5b610d3e82610cf8565b810181811067ffffffffffffffff82111715610d5d57610d5c610d08565b5b80604052505050565b5f610d6f610a78565b9050610d7b8282610d35565b919050565b5f67ffffffffffffffff821115610d9a57610d99610d08565b5b610da382610cf8565b9050602081019050919050565b828183375f83830152505050565b5f610dd0610dcb84610d80565b610d66565b905082815260208101848484011115610dec57610deb610cf4565b5b610df7848285610db0565b509392505050565b5f82601f830112610e1357610e12610b16565b5b8135610e23848260208601610dbe565b91505092915050565b5f60208284031215610e4157610e40610a81565b5b5f82013567ffffffffffffffff811115610e5e57610e5d610a85565b5b610e6a84828501610dff565b91505092915050565b5f819050919050565b610e8581610e73565b82525050565b5f602082019050610e9e5f830184610e7c565b92915050565b5f5f5f5f5f60808688031215610ebd57610ebc610a81565b5b5f610eca88828901610acf565b9550506020610edb88828901610acf565b9450506040610eec88828901610b02565b935050606086013567ffffffffffffffff811115610f0d57610f0c610a85565b5b610f1988828901610b22565b92509250509295509295909350565b610f3181610c41565b82525050565b5f602082019050610f4a5f830184610f28565b92915050565b610f5981610e73565b8114610f63575f5ffd5b50565b5f81359050610f7481610f50565b92915050565b5f5f5f60408486031215610f9157610f90610a81565b5b5f610f9e86828701610f66565b935050602084013567ffffffffffffffff811115610fbf57610fbe610a85565b5b610fcb86828701610b22565b92509250509250925092565b5f610fe182610a89565b9050919050565b5f610ff282610fd7565b9050919050565b61100281610fe8565b811461100c575f5ffd5b50565b5f8135905061101d81610ff9565b92915050565b5f5f6040838503121561103957611038610a81565b5b5f6110468582860161100f565b925050602083013567ffffffffffffffff81111561106757611066610a85565b5b61107385828601610dff565b9150509250929050565b5f81519050919050565b5f82825260208201905092915050565b8281835e5f83830152505050565b5f6110af8261107d565b6110b98185611087565b93506110c9818560208601611097565b6110d281610cf8565b840191505092915050565b5f6020820190508181035f8301526110f581846110a5565b905092915050565b5f81519050919050565b5f82825260208201905092915050565b5f819050602082019050919050565b61112f81610aa8565b82525050565b5f6111408383611126565b60208301905092915050565b5f602082019050919050565b5f611162826110fd565b61116c8185611107565b935061117783611117565b805f5b838110156111a757815161118e8882611135565b97506111998361114c565b92505060018101905061117a565b5085935050505092915050565b5f6020820190508181035f8301526111cc8184611158565b905092915050565b5f5f83601f8401126111e9576111e8610b16565b5b8235905067ffffffffffffffff81111561120657611205610b1a565b5b60208301915083602082028301111561122257611221610b1e565b5b9250929050565b5f5f5f5f5f5f5f5f60a0898b03121561124557611244610a81565b5b5f6112528b828c01610acf565b98505060206112638b828c01610acf565b975050604089013567ffffffffffffffff81111561128457611283610a85565b5b6112908b828c016111d4565b9650965050606089013567ffffffffffffffff8111156112b3576112b2610a85565b5b6112bf8b828c016111d4565b9450945050608089013567ffffffffffffffff8111156112e2576112e1610a85565b5b6112ee8b828c01610b22565b92509250509295985092959890939650565b5f5f5f6040848603121561131757611316610a81565b5b5f61132486828701610acf565b935050602084013567ffffffffffffffff81111561134557611344610a85565b5b61135186828701610b22565b92509250509250925092565b60028110611369575f5ffd5b50565b5f8135905061137a8161135d565b92915050565b5f5f5f5f5f5f5f5f5f5f5f6101408c8e0312156113a05761139f610a81565b5b5f6113ad8e828f01610acf565b9b505060206113be8e828f01610b02565b9a505060408c013567ffffffffffffffff8111156113df576113de610a85565b5b6113eb8e828f01610b22565b995099505060606113fe8e828f0161136c565b975050608061140f8e828f01610b02565b96505060a06114208e828f01610b02565b95505060c06114318e828f01610b02565b94505060e06114428e828f01610acf565b9350506101006114548e828f01610acf565b9250506101206114668e828f01610b02565b9150509295989b509295989b9093969950565b5f5f5f5f5f5f60a0878903121561149357611492610a81565b5b5f6114a089828a01610acf565b96505060206114b189828a01610acf565b95505060406114c289828a01610b02565b94505060606114d389828a01610b02565b935050608087013567ffffffffffffffff8111156114f4576114f3610a85565b5b61150089828a01610b22565b92509250509295509295509295565b5f8151905061151d81610aec565b92915050565b5f6020828403121561153857611537610a81565b5b5f6115458482850161150f565b91505092915050565b5f82825260208201905092915050565b7f48617368206e6f7420617070726f7665640000000000000000000000000000005f82015250565b5f61159260118361154e565b915061159d8261155e565b602082019050919050565b5f6020820190508181035f8301526115bf81611586565b9050919050565b6115cf81610aa8565b82525050565b5f6115e08385611087565b93506115ed838584610db0565b6115f683610cf8565b840190509392505050565b5f6060820190506116145f8301876115c6565b6116216020830186610e7c565b81810360408301526116348184866115d5565b905095945050505050565b5f6040820190506116525f830185610e7c565b61165f6020830184610e7c565b9392505050565b5f8151905061167481610f50565b92915050565b5f6020828403121561168f5761168e610a81565b5b5f61169c84828501611666565b91505092915050565b5f7fff0000000000000000000000000000000000000000000000000000000000000082169050919050565b5f819050919050565b6116ea6116e5826116a5565b6116d0565b82525050565b5f819050919050565b61170a61170582610e73565b6116f0565b82525050565b5f61171b82876116d9565b60018201915061172b82866116d9565b60018201915061173b82856116f9565b60208201915061174b82846116f9565b60208201915081905095945050505050565b5f819050919050565b5f819050919050565b5f61178961178461177f8461175d565b611766565b610ae3565b9050919050565b6117998161176f565b82525050565b5f6040820190506117b25f8301856115c6565b6117bf6020830184611790565b9392505050565b5f67ffffffffffffffff8211156117e0576117df610d08565b5b602082029050602081019050919050565b5f815190506117ff81610ab9565b92915050565b5f611817611812846117c6565b610d66565b9050808382526020820190506020840283018581111561183a57611839610b1e565b5b835b81811015611863578061184f88826117f1565b84526020840193505060208101905061183c565b5050509392505050565b5f82601f83011261188157611880610b16565b5b8151611891848260208601611805565b91505092915050565b5f5f604083850312156118b0576118af610a81565b5b5f83015167ffffffffffffffff8111156118cd576118cc610a85565b5b6118d98582860161186d565b92505060206118ea858286016117f1565b9150509250929050565b5f81905092915050565b5f61190983856118f4565b9350611916838584610db0565b82840190509392505050565b5f61192e8284866118fe565b91508190509392505050565b61194381610ae3565b82525050565b7f4e487b71000000000000000000000000000000000000000000000000000000005f52602160045260245ffd5b6002811061198757611986611949565b5b50565b5f81905061199782611976565b919050565b5f6119a68261198a565b9050919050565b6119b68161199c565b82525050565b5f610160820190506119d05f83018e610e7c565b6119dd602083018d6115c6565b6119ea604083018c61193a565b6119f7606083018b610e7c565b611a04608083018a6119ad565b611a1160a083018961193a565b611a1e60c083018861193a565b611a2b60e083018761193a565b611a396101008301866115c6565b611a476101208301856115c6565b611a5561014083018461193a565b9c9b505050505050505050505050565b5f819050919050565b5f611a88611a83611a7e84611a65565b611766565b610ae3565b9050919050565b611a9881611a6e565b82525050565b5f604082019050611ab15f83018561193a565b611abe6020830184611a8f565b9392505050565b5f611ad7611ad284610d80565b610d66565b905082815260208101848484011115611af357611af2610cf4565b5b611afe848285611097565b509392505050565b5f82601f830112611b1a57611b19610b16565b5b8151611b2a848260208601611ac5565b91505092915050565b5f60208284031215611b4857611b47610a81565b5b5f82015167ffffffffffffffff811115611b6557611b64610a85565b5b611b7184828501611b06565b91505092915050565b611b8381610fd7565b8114611b8d575f5ffd5b50565b5f81519050611b9e81611b7a565b92915050565b5f60208284031215611bb957611bb8610a81565b5b5f611bc684828501611b90565b91505092915050565b7f6e6f7420612066616c6c6261636b2063616c6c000000000000000000000000005f82015250565b5f611c0360138361154e565b9150611c0e82611bcf565b602082019050919050565b5f6020820190508181035f830152611c3081611bf7565b905091905056fea2646970667358221220fe001dc16fbd8d1c7c8251134d170a2c4195ed470db79ec3fa2787086549ebc964736f6c634300081c0033",
  "linkReferences": {},
  "deployedLinkReferences": {},
  "immutableReferences": {},
  "inputSourceName": "project/contracts/handler/CompatibilityFallbackHandler.sol",
  "buildInfoId": "solc-0_8_28-ed2d128c3ac1e98a551cdd21051ecbf6dd081352"
}