{
  "_format": "hh3-artifact-1",
  "contractName": "Migration",
  "sourceName": "contracts/examples/libraries/Migrate_1_3_0_to_1_2_0.sol",
  "abi": [
    {
      "inputs": [
        {
          "internalType": "address",
          "name": "targetSingleton",
          "type": "address"
        }
      ],
      "stateMutability": "nonpayable",
      "type": "constructor"
    },
    {
      "anonymous": false,
      "inputs": [
        {
          "indexed": false,
          "internalType": "address",
          "name": "singleton",
          "type": "address"
        }
      ],
      "name": "ChangedMasterCopy",
      "type": "event"
    },
    {
      "inputs": [],
      "name": "MIGRATION_SINGLETON",
      "outputs": [
        {
          "internalType": "address",
          "name": "",
          "type": "address"
        }
      ],
      "stateMutability": "view",
      "type": "function"
    },
    {
      "inputs": [],
      "name": "SAFE_120_SINGLETON",
      "outputs": [
        {
          "internalType": "address",
          "name": "",
          "type": "address"
        }
      ],
      "stateMutability": "view",
      "type": "function"
    },
    {
      "inputs": [],
      "name": "migrate",
      "outputs": [],
      "stateMutability": "nonpayable",
      "type": "function"
    }
  ],
  "bytecode": "0x60c060405234801561000f575f5ffd5b5060405161034838038061034883398101604081905261002e916100a8565b6001600160a01b0381166100935760405162461bcd60e51b815260206004820152602260248201527f496e76616c69642073696e676c65746f6e20616464726573732070726f766964604482015261195960f21b606482015260840160405180910390fd5b6001600160a01b031660a052306080526100d5565b5f602082840312156100b8575f5ffd5b81516001600160a01b03811681146100ce575f5ffd5b9392505050565b60805160a0516102476101015f395f81816048015261015b01525f8181608b015260c101526102475ff3fe608060405234801561000f575f5ffd5b506004361061003f575f3560e01c806310dfd5061461004357806372f7a956146100865780638fd3ab80146100ad575b5f5ffd5b61006a7f000000000000000000000000000000000000000000000000000000000000000081565b6040516001600160a01b03909116815260200160405180910390f35b61006a7f000000000000000000000000000000000000000000000000000000000000000081565b6100b56100b7565b005b6001600160a01b037f000000000000000000000000000000000000000000000000000000000000000016300361014c5760405162461bcd60e51b815260206004820152603060248201527f4d6967726174696f6e2073686f756c64206f6e6c792062652063616c6c65642060448201526f1d9a584819195b1959d85d1958d85b1b60821b606482015260840160405180910390fd5b5f80546001600160a01b0319167f00000000000000000000000000000000000000000000000000000000000000006001600160a01b0316179055604080517f035aff83d86937d35b32e04f0ddc6ff469290eef2f1b692d8a815c89404d47496020820152309181019190915260600160408051808303601f190181529082905280516020918201206006555f546001600160a01b031682527f75e41bc35ff1bf14d81d1d2f649c0084a0f974f9289c803ec9898eeec4c8d0b8910160405180910390a156fea264697066735822122031d4f5cd23de2547f3e4e5304833c335b9b6d6c7fe91f53beae7996d5e36f96764736f6c634300081c0033",
  "linkReferences": {},
  "deployedLinkReferences": {},
  "immutableReferences": {
    "11": [
      {
        "length": 32,
        "start": 139
      },
      {
        "length": 32,
        "start": 193
      }
    ],
    "13": [
      {
        "length": 32,
        "start": 72
      },
      {
        "length": 32,
        "start": 347
      }
    ]
  },
  "inputSourceName": "project/contracts/examples/libraries/Migrate_1_3_0_to_1_2_0.sol",
  "buildInfoId": "solc-0_8_28-213bde19eae4bf311aa7ffc14d4455b21ea8e014"
}