{
  "_format": "hh3-artifact-1",
  "contractName": "SingletonFactory",
  "sourceName": "contracts/SingletonFactory.sol",
  "abi": [
    {
      "inputs": [
        {
          "internalType": "uint256",
          "name": "",
          "type": "uint256"
        }
      ],
      "name": "createdContracts",
      "outputs": [
        {
          "internalType": "address",
          "name": "",
          "type": "address"
        }
      ],
      "stateMutability": "view",
      "type": "function"
    },
    {
      "inputs": [
        {
          "internalType": "bytes",
          "name": "_initCode",
          "type": "bytes"
        },
        {
          "internalType": "bytes32",
          "name": "_salt",
          "type": "bytes32"
        }
      ],
      "name": "deploy",
      "outputs": [
        {
          "internalType": "address payable",
          "name": "createdContract",
          "type": "address"
        }
      ],
      "stateMutability": "nonpayable",
      "type": "function"
    }
  ],
  "bytecode": "0x6080604052348015600e575f5ffd5b506104428061001c5f395ff3fe608060405234801561000f575f5ffd5b5060043610610034575f3560e01c806308811397146100385780634af63f0214610068575b5f5ffd5b610052600480360381019061004d9190610187565b610098565b60405161005f91906101f1565b60405180910390f35b610082600480360381019061007d9190610379565b6100d2565b60405161008f91906103f3565b60405180910390f35b5f81815481106100a6575f80fd5b905f5260205f20015f915054906101000a900473ffffffffffffffffffffffffffffffffffffffff1681565b5f818351602085015ff590505f81908060018154018082558091505060019003905f5260205f20015f9091909190916101000a81548173ffffffffffffffffffffffffffffffffffffffff021916908373ffffffffffffffffffffffffffffffffffffffff16021790555092915050565b5f604051905090565b5f5ffd5b5f5ffd5b5f819050919050565b61016681610154565b8114610170575f5ffd5b50565b5f813590506101818161015d565b92915050565b5f6020828403121561019c5761019b61014c565b5b5f6101a984828501610173565b91505092915050565b5f73ffffffffffffffffffffffffffffffffffffffff82169050919050565b5f6101db826101b2565b9050919050565b6101eb816101d1565b82525050565b5f6020820190506102045f8301846101e2565b92915050565b5f5ffd5b5f5ffd5b5f601f19601f8301169050919050565b7f4e487b71000000000000000000000000000000000000000000000000000000005f52604160045260245ffd5b61025882610212565b810181811067ffffffffffffffff8211171561027757610276610222565b5b80604052505050565b5f610289610143565b9050610295828261024f565b919050565b5f67ffffffffffffffff8211156102b4576102b3610222565b5b6102bd82610212565b9050602081019050919050565b828183375f83830152505050565b5f6102ea6102e58461029a565b610280565b9050828152602081018484840111156103065761030561020e565b5b6103118482856102ca565b509392505050565b5f82601f83011261032d5761032c61020a565b5b813561033d8482602086016102d8565b91505092915050565b5f819050919050565b61035881610346565b8114610362575f5ffd5b50565b5f813590506103738161034f565b92915050565b5f5f6040838503121561038f5761038e61014c565b5b5f83013567ffffffffffffffff8111156103ac576103ab610150565b5b6103b885828601610319565b92505060206103c985828601610365565b9150509250929050565b5f6103dd826101b2565b9050919050565b6103ed816103d3565b82525050565b5f6020820190506104065f8301846103e4565b9291505056fea264697066735822122014c82c817efe5c36d81e9165f3e77d96e0a30d45ec7c53d2c82f9c9df0e93f3f64736f6c634300081c0033",
  "linkReferences": {},
  "deployedLinkReferences": {},
  "immutableReferences": {},
  "inputSourceName": "project/contracts/SingletonFactory.sol",
  "buildInfoId": "solc-0_8_28-ed2d128c3ac1e98a551cdd21051ecbf6dd081352"
}