{
  "_format": "hh3-artifact-1",
  "contractName": "ReentrancyTransactionGuard",
  "sourceName": "contracts/examples/guards/ReentrancyTransactionGuard.sol",
  "abi": [
    {
      "stateMutability": "nonpayable",
      "type": "fallback"
    },
    {
      "inputs": [
        {
          "internalType": "bytes32",
          "name": "",
          "type": "bytes32"
        },
        {
          "internalType": "bool",
          "name": "",
          "type": "bool"
        }
      ],
      "name": "checkAfterExecution",
      "outputs": [],
      "stateMutability": "nonpayable",
      "type": "function"
    },
    {
      "inputs": [
        {
          "internalType": "bytes32",
          "name": "",
          "type": "bytes32"
        },
        {
          "internalType": "bool",
          "name": "",
          "type": "bool"
        }
      ],
      "name": "checkAfterModuleExecution",
      "outputs": [],
      "stateMutability": "nonpayable",
      "type": "function"
    },
    {
      "inputs": [
        {
          "internalType": "address",
          "name": "to",
          "type": "address"
        },
        {
          "internalType": "uint256",
          "name": "value",
          "type": "uint256"
        },
        {
          "internalType": "bytes",
          "name": "data",
          "type": "bytes"
        },
        {
          "internalType": "enum Enum.Operation",
          "name": "operation",
          "type": "uint8"
        },
        {
          "internalType": "address",
          "name": "module",
          "type": "address"
        }
      ],
      "name": "checkModuleTransaction",
      "outputs": [
        {
          "internalType": "bytes32",
          "name": "moduleTxHash",
          "type": "bytes32"
        }
      ],
      "stateMutability": "nonpayable",
      "type": "function"
    },
    {
      "inputs": [
        {
          "internalType": "address",
          "name": "",
          "type": "address"
        },
        {
          "internalType": "uint256",
          "name": "",
          "type": "uint256"
        },
        {
          "internalType": "bytes",
          "name": "",
          "type": "bytes"
        },
        {
          "internalType": "enum Enum.Operation",
          "name": "",
          "type": "uint8"
        },
        {
          "internalType": "uint256",
          "name": "",
          "type": "uint256"
        },
        {
          "internalType": "uint256",
          "name": "",
          "type": "uint256"
        },
        {
          "internalType": "uint256",
          "name": "",
          "type": "uint256"
        },
        {
          "internalType": "address",
          "name": "",
          "type": "address"
        },
        {
          "internalType": "address payable",
          "name": "",
          "type": "address"
        },
        {
          "internalType": "bytes",
          "name": "",
          "type": "bytes"
        },
        {
          "internalType": "address",
          "name": "",
          "type": "address"
        }
      ],
      "name": "checkTransaction",
      "outputs": [],
      "stateMutability": "nonpayable",
      "type": "function"
    },
    {
      "inputs": [
        {
          "internalType": "bytes4",
          "name": "interfaceId",
          "type": "bytes4"
        }
      ],
      "name": "supportsInterface",
      "outputs": [
        {
          "internalType": "bool",
          "name": "",
          "type": "bool"
        }
      ],
      "stateMutability": "view",
      "type": "function"
    }
  ],
  "bytecode": "0x6080604052348015600e575f5ffd5b506105bb8061001c5f395ff3fe608060405234801561000f575f5ffd5b5060043610610055575f3560e01c806301ffc9a7146100575780632acc37aa1461007f578063728c2972146100ba57806375f0bb52146100db578063932713681461007f575b005b61006a61006536600461027e565b6100ee565b60405190151581526020015b60405180910390f35b61005561008d3660046102ac565b50507f7c1d45961c2d0298f999d2c3d4a7a5e0f688d137f4c32466e3056a97e673b83a805460ff19169055565b6100cd6100c83660046103b2565b61013f565b604051908152602001610076565b6100556100e936600461042c565b6101fd565b5f6001600160e01b0319821663736bd41d60e11b148061011e57506001600160e01b03198216630b0803db60e31b145b8061013957506001600160e01b031982166301ffc9a760e01b145b92915050565b5f8585858585604051602001610159959493929190610509565b6040516020818303038152906040528051906020012090505f6101997f7c1d45961c2d0298f999d2c3d4a7a5e0f688d137f4c32466e3056a97e673b83a90565b805490915060ff16156101e95760405162461bcd60e51b81526020600482015260136024820152721499595b9d1c985b98de4819195d1958dd1959606a1b60448201526064015b60405180910390fd5b805460ff1916600117905595945050505050565b7f7c1d45961c2d0298f999d2c3d4a7a5e0f688d137f4c32466e3056a97e673b83a805460ff16156102665760405162461bcd60e51b81526020600482015260136024820152721499595b9d1c985b98de4819195d1958dd1959606a1b60448201526064016101e0565b805460ff191660011790555050505050505050505050565b5f6020828403121561028e575f5ffd5b81356001600160e01b0319811681146102a5575f5ffd5b9392505050565b5f5f604083850312156102bd575f5ffd5b82359150602083013580151581146102d3575f5ffd5b809150509250929050565b6001600160a01b03811681146102f2575f5ffd5b50565b8035610300816102de565b919050565b634e487b7160e01b5f52604160045260245ffd5b5f82601f830112610328575f5ffd5b813567ffffffffffffffff81111561034257610342610305565b604051601f8201601f19908116603f0116810167ffffffffffffffff8111828210171561037157610371610305565b604052818152838201602001851015610388575f5ffd5b816020850160208301375f918101602001919091529392505050565b803560028110610300575f5ffd5b5f5f5f5f5f60a086880312156103c6575f5ffd5b85356103d1816102de565b945060208601359350604086013567ffffffffffffffff8111156103f3575f5ffd5b6103ff88828901610319565b93505061040e606087016103a4565b9150608086013561041e816102de565b809150509295509295909350565b5f5f5f5f5f5f5f5f5f5f5f6101608c8e031215610447575f5ffd5b6104508c6102f5565b9a5060208c0135995060408c013567ffffffffffffffff811115610472575f5ffd5b61047e8e828f01610319565b99505061048d60608d016103a4565b975060808c0135965060a08c0135955060c08c013594506104b060e08d016102f5565b93506104bf6101008d016102f5565b92506101208c013567ffffffffffffffff8111156104db575f5ffd5b6104e78e828f01610319565b9250506104f76101408d016102f5565b90509295989b509295989b9093969950565b6bffffffffffffffffffffffff198660601b1681528460148201525f84518060208701603485015e8083019050603481015f81526002861061055957634e487b7160e01b5f52602160045260245ffd5b60f89590951b909452505060601b6bffffffffffffffffffffffff19166035820152604901939250505056fea2646970667358221220313fa111e811802d59da324880999a718ed058a92ca5df63def3c3f31907039d64736f6c634300081c0033",
  "linkReferences": {},
  "deployedLinkReferences": {},
  "immutableReferences": {},
  "inputSourceName": "project/contracts/examples/guards/ReentrancyTransactionGuard.sol",
  "buildInfoId": "solc-0_8_28-9765a700b3d21723092e167447eff86d20b928eb"
}