{
  "_format": "hh-sol-artifact-1",
  "contractName": "ReentrancyTransactionGuard",
  "sourceName": "contracts/examples/guards/ReentrancyTransactionGuard.sol",
  "abi": [
    {
      "stateMutability": "nonpayable",
      "type": "fallback"
    },
    {
      "inputs": [
        {
          "internalType": "bytes32",
          "name": "",
          "type": "bytes32"
        },
        {
          "internalType": "bool",
          "name": "",
          "type": "bool"
        }
      ],
      "name": "checkAfterExecution",
      "outputs": [],
      "stateMutability": "nonpayable",
      "type": "function"
    },
    {
      "inputs": [
        {
          "internalType": "bytes32",
          "name": "",
          "type": "bytes32"
        },
        {
          "internalType": "bool",
          "name": "",
          "type": "bool"
        }
      ],
      "name": "checkAfterModuleExecution",
      "outputs": [],
      "stateMutability": "nonpayable",
      "type": "function"
    },
    {
      "inputs": [
        {
          "internalType": "address",
          "name": "to",
          "type": "address"
        },
        {
          "internalType": "uint256",
          "name": "value",
          "type": "uint256"
        },
        {
          "internalType": "bytes",
          "name": "data",
          "type": "bytes"
        },
        {
          "internalType": "enum Enum.Operation",
          "name": "operation",
          "type": "uint8"
        },
        {
          "internalType": "address",
          "name": "module",
          "type": "address"
        }
      ],
      "name": "checkModuleTransaction",
      "outputs": [
        {
          "internalType": "bytes32",
          "name": "moduleTxHash",
          "type": "bytes32"
        }
      ],
      "stateMutability": "nonpayable",
      "type": "function"
    },
    {
      "inputs": [
        {
          "internalType": "address",
          "name": "",
          "type": "address"
        },
        {
          "internalType": "uint256",
          "name": "",
          "type": "uint256"
        },
        {
          "internalType": "bytes",
          "name": "",
          "type": "bytes"
        },
        {
          "internalType": "enum Enum.Operation",
          "name": "",
          "type": "uint8"
        },
        {
          "internalType": "uint256",
          "name": "",
          "type": "uint256"
        },
        {
          "internalType": "uint256",
          "name": "",
          "type": "uint256"
        },
        {
          "internalType": "uint256",
          "name": "",
          "type": "uint256"
        },
        {
          "internalType": "address",
          "name": "",
          "type": "address"
        },
        {
          "internalType": "address payable",
          "name": "",
          "type": "address"
        },
        {
          "internalType": "bytes",
          "name": "",
          "type": "bytes"
        },
        {
          "internalType": "address",
          "name": "",
          "type": "address"
        }
      ],
      "name": "checkTransaction",
      "outputs": [],
      "stateMutability": "nonpayable",
      "type": "function"
    },
    {
      "inputs": [
        {
          "internalType": "bytes4",
          "name": "interfaceId",
          "type": "bytes4"
        }
      ],
      "name": "supportsInterface",
      "outputs": [
        {
          "internalType": "bool",
          "name": "",
          "type": "bool"
        }
      ],
      "stateMutability": "view",
      "type": "function"
    }
  ],
  "bytecode": "0x608060405234801561001057600080fd5b50610c2b806100206000396000f3fe608060405234801561001057600080fd5b506004361061005b5760003560e01c806301ffc9a71461005e5780632acc37aa1461008e578063728c2972146100aa57806375f0bb52146100da57806393271368146100f65761005c565b5b005b61007860048036038101906100739190610476565b610112565b60405161008591906104be565b60405180910390f35b6100a860048036038101906100a3919061053b565b61024c565b005b6100c460048036038101906100bf919061077a565b610274565b6040516100d19190610820565b60405180910390f35b6100f460048036038101906100ef9190610879565b61032c565b005b610110600480360381019061010b919061053b565b6103b5565b005b60007fe6d7a83a000000000000000000000000000000000000000000000000000000007bffffffffffffffffffffffffffffffffffffffffffffffffffffffff1916827bffffffffffffffffffffffffffffffffffffffffffffffffffffffff191614806101dd57507f58401ed8000000000000000000000000000000000000000000000000000000007bffffffffffffffffffffffffffffffffffffffffffffffffffffffff1916827bffffffffffffffffffffffffffffffffffffffffffffffffffffffff1916145b8061024557507f01ffc9a7000000000000000000000000000000000000000000000000000000007bffffffffffffffffffffffffffffffffffffffffffffffffffffffff1916827bffffffffffffffffffffffffffffffffffffffffffffffffffffffff1916145b9050919050565b60006102566103dd565b60000160006101000a81548160ff0219169083151502179055505050565b6000858585858560405160200161028f959493929190610b1d565b60405160208183030381529060405280519060200120905060006102b16103dd565b90508060000160009054906101000a900460ff1615610305576040517f08c379a00000000000000000000000000000000000000000000000000000000081526004016102fc90610bd5565b60405180910390fd5b60018160000160006101000a81548160ff0219169083151502179055505095945050505050565b60006103366103dd565b90508060000160009054906101000a900460ff161561038a576040517f08c379a000000000000000000000000000000000000000000000000000000000815260040161038190610bd5565b60405180910390fd5b60018160000160006101000a81548160ff021916908315150217905550505050505050505050505050565b60006103bf6103dd565b60000160006101000a81548160ff0219169083151502179055505050565b6000807f7c1d45961c2d0298f999d2c3d4a7a5e0f688d137f4c32466e3056a97e673b83a90508091505090565b6000604051905090565b600080fd5b600080fd5b60007fffffffff0000000000000000000000000000000000000000000000000000000082169050919050565b6104538161041e565b811461045e57600080fd5b50565b6000813590506104708161044a565b92915050565b60006020828403121561048c5761048b610414565b5b600061049a84828501610461565b91505092915050565b60008115159050919050565b6104b8816104a3565b82525050565b60006020820190506104d360008301846104af565b92915050565b6000819050919050565b6104ec816104d9565b81146104f757600080fd5b50565b600081359050610509816104e3565b92915050565b610518816104a3565b811461052357600080fd5b50565b6000813590506105358161050f565b92915050565b6000806040838503121561055257610551610414565b5b6000610560858286016104fa565b925050602061057185828601610526565b9150509250929050565b600073ffffffffffffffffffffffffffffffffffffffff82169050919050565b60006105a68261057b565b9050919050565b6105b68161059b565b81146105c157600080fd5b50565b6000813590506105d3816105ad565b92915050565b6000819050919050565b6105ec816105d9565b81146105f757600080fd5b50565b600081359050610609816105e3565b92915050565b600080fd5b600080fd5b6000601f19601f8301169050919050565b7f4e487b7100000000000000000000000000000000000000000000000000000000600052604160045260246000fd5b61066282610619565b810181811067ffffffffffffffff821117156106815761068061062a565b5b80604052505050565b600061069461040a565b90506106a08282610659565b919050565b600067ffffffffffffffff8211156106c0576106bf61062a565b5b6106c982610619565b9050602081019050919050565b82818337600083830152505050565b60006106f86106f3846106a5565b61068a565b90508281526020810184848401111561071457610713610614565b5b61071f8482856106d6565b509392505050565b600082601f83011261073c5761073b61060f565b5b813561074c8482602086016106e5565b91505092915050565b6002811061076257600080fd5b50565b60008135905061077481610755565b92915050565b600080600080600060a0868803121561079657610795610414565b5b60006107a4888289016105c4565b95505060206107b5888289016105fa565b945050604086013567ffffffffffffffff8111156107d6576107d5610419565b5b6107e288828901610727565b93505060606107f388828901610765565b9250506080610804888289016105c4565b9150509295509295909350565b61081a816104d9565b82525050565b60006020820190506108356000830184610811565b92915050565b60006108468261057b565b9050919050565b6108568161083b565b811461086157600080fd5b50565b6000813590506108738161084d565b92915050565b60008060008060008060008060008060006101608c8e03121561089f5761089e610414565b5b60006108ad8e828f016105c4565b9b505060206108be8e828f016105fa565b9a505060408c013567ffffffffffffffff8111156108df576108de610419565b5b6108eb8e828f01610727565b99505060606108fc8e828f01610765565b985050608061090d8e828f016105fa565b97505060a061091e8e828f016105fa565b96505060c061092f8e828f016105fa565b95505060e06109408e828f016105c4565b9450506101006109528e828f01610864565b9350506101208c013567ffffffffffffffff81111561097457610973610419565b5b6109808e828f01610727565b9250506101406109928e828f016105c4565b9150509295989b509295989b9093969950565b60008160601b9050919050565b60006109bd826109a5565b9050919050565b60006109cf826109b2565b9050919050565b6109e76109e28261059b565b6109c4565b82525050565b6000819050919050565b610a08610a03826105d9565b6109ed565b82525050565b600081519050919050565b600081905092915050565b60005b83811015610a42578082015181840152602081019050610a27565b60008484015250505050565b6000610a5982610a0e565b610a638185610a19565b9350610a73818560208601610a24565b80840191505092915050565b7f4e487b7100000000000000000000000000000000000000000000000000000000600052602160045260246000fd5b60028110610abf57610abe610a7f565b5b50565b6000819050610ad082610aae565b919050565b6000610ae082610ac2565b9050919050565b60008160f81b9050919050565b6000610aff82610ae7565b9050919050565b610b17610b1282610ad5565b610af4565b82525050565b6000610b2982886109d6565b601482019150610b3982876109f7565b602082019150610b498286610a4e565b9150610b558285610b06565b600182019150610b6582846109d6565b6014820191508190509695505050505050565b600082825260208201905092915050565b7f5265656e7472616e637920646574656374656400000000000000000000000000600082015250565b6000610bbf601383610b78565b9150610bca82610b89565b602082019050919050565b60006020820190508181036000830152610bee81610bb2565b905091905056fea264697066735822122091e82c1b95cd7e8b768c422c02c796b6a4958618d02c291e0be42f0fb38f2d5a64736f6c63430008140033",
  "linkReferences": {},
  "deployedLinkReferences": {}
}