{
  "_format": "hh-sol-artifact-1",
  "contractName": "SimpleGuard",
  "sourceName": "contracts/SimpleGuard.sol",
  "abi": [
    {
      "inputs": [
        {
          "internalType": "uint256",
          "name": "value",
          "type": "uint256"
        }
      ],
      "name": "NoMoreThan10",
      "type": "error"
    },
    {
      "anonymous": false,
      "inputs": [
        {
          "indexed": true,
          "internalType": "address",
          "name": "guard",
          "type": "address"
        }
      ],
      "name": "ChangedGuard",
      "type": "event"
    },
    {
      "anonymous": false,
      "inputs": [
        {
          "indexed": false,
          "internalType": "bytes32",
          "name": "hash",
          "type": "bytes32"
        }
      ],
      "name": "ExecutionSuccess",
      "type": "event"
    },
    {
      "inputs": [
        {
          "internalType": "bytes32",
          "name": "hash",
          "type": "bytes32"
        },
        {
          "internalType": "bool",
          "name": "success",
          "type": "bool"
        }
      ],
      "name": "checkAfterExecution",
      "outputs": [],
      "stateMutability": "nonpayable",
      "type": "function"
    },
    {
      "inputs": [
        {
          "internalType": "address",
          "name": "to",
          "type": "address"
        },
        {
          "internalType": "uint256",
          "name": "value",
          "type": "uint256"
        },
        {
          "internalType": "bytes",
          "name": "data",
          "type": "bytes"
        },
        {
          "internalType": "enum Enum.Operation",
          "name": "operation",
          "type": "uint8"
        },
        {
          "internalType": "uint256",
          "name": "safeTxGas",
          "type": "uint256"
        },
        {
          "internalType": "uint256",
          "name": "baseGas",
          "type": "uint256"
        },
        {
          "internalType": "uint256",
          "name": "gasPrice",
          "type": "uint256"
        },
        {
          "internalType": "address",
          "name": "gasToken",
          "type": "address"
        },
        {
          "internalType": "address payable",
          "name": "refundReceiver",
          "type": "address"
        },
        {
          "internalType": "bytes",
          "name": "signatures",
          "type": "bytes"
        },
        {
          "internalType": "address",
          "name": "msgSender",
          "type": "address"
        }
      ],
      "name": "checkTransaction",
      "outputs": [],
      "stateMutability": "nonpayable",
      "type": "function"
    },
    {
      "inputs": [
        {
          "internalType": "address",
          "name": "guard",
          "type": "address"
        }
      ],
      "name": "setGuard",
      "outputs": [],
      "stateMutability": "nonpayable",
      "type": "function"
    },
    {
      "inputs": [
        {
          "internalType": "bytes4",
          "name": "interfaceId",
          "type": "bytes4"
        }
      ],
      "name": "supportsInterface",
      "outputs": [
        {
          "internalType": "bool",
          "name": "",
          "type": "bool"
        }
      ],
      "stateMutability": "view",
      "type": "function"
    }
  ],
  "bytecode": "0x608060405234801561001057600080fd5b50610b08806100206000396000f3fe608060405234801561001057600080fd5b506004361061004c5760003560e01c806301ffc9a71461005157806375f0bb5214610081578063932713681461009d578063e19a9dd9146100b9575b600080fd5b61006b600480360381019061006691906104fa565b6100d5565b6040516100789190610542565b60405180910390f35b61009b6004803603810190610096919061079a565b6101a7565b005b6100b760048036038101906100b29190610928565b610201565b005b6100d360048036038101906100ce9190610968565b61027c565b005b60007fe6d7a83a000000000000000000000000000000000000000000000000000000007bffffffffffffffffffffffffffffffffffffffffffffffffffffffff1916827bffffffffffffffffffffffffffffffffffffffffffffffffffffffff191614806101a057507f01ffc9a7000000000000000000000000000000000000000000000000000000007bffffffffffffffffffffffffffffffffffffffffffffffffffffffff1916827bffffffffffffffffffffffffffffffffffffffffffffffffffffffff1916145b9050919050565b678ac7230489e800008a11156101f457896040517ff0a5ef950000000000000000000000000000000000000000000000000000000081526004016101eb91906109a4565b60405180910390fd5b5050505050505050505050565b80610241576040517f08c379a000000000000000000000000000000000000000000000000000000000815260040161023890610a1c565b60405180910390fd5b7fdc29884a71d2bb98d3c53dc09718be05c7bfd142b7773a5c5cf2517629290ac0826040516102709190610a4b565b60405180910390a15050565b6102846103f0565b600073ffffffffffffffffffffffffffffffffffffffff168173ffffffffffffffffffffffffffffffffffffffff161415801561035857508073ffffffffffffffffffffffffffffffffffffffff166301ffc9a77fe6d7a83a000000000000000000000000000000000000000000000000000000006040518263ffffffff1660e01b81526004016103159190610a75565b602060405180830381865afa158015610332573d6000803e3d6000fd5b505050506040513d601f19601f820116820180604052508101906103569190610aa5565b155b15610387576103867f475333303000000000000000000000000000000000000000000000000000000061044f565b5b807f4a204f620c8c5ccdca3fd54d003badd85ba500436a431f0cbda4f558c93c34c8558073ffffffffffffffffffffffffffffffffffffffff167f1151116914515bc0891ff9047a6cb32cf902546f83066499bcf8ba33d2353fa260405160405180910390a250565b3073ffffffffffffffffffffffffffffffffffffffff163373ffffffffffffffffffffffffffffffffffffffff161461044d5761044c7f475330333100000000000000000000000000000000000000000000000000000061044f565b5b565b6040517f08c379a00000000000000000000000000000000000000000000000000000000081526020600482015260056024820152816044820152606481fd5b6000604051905090565b600080fd5b600080fd5b60007fffffffff0000000000000000000000000000000000000000000000000000000082169050919050565b6104d7816104a2565b81146104e257600080fd5b50565b6000813590506104f4816104ce565b92915050565b6000602082840312156105105761050f610498565b5b600061051e848285016104e5565b91505092915050565b60008115159050919050565b61053c81610527565b82525050565b60006020820190506105576000830184610533565b92915050565b600073ffffffffffffffffffffffffffffffffffffffff82169050919050565b60006105888261055d565b9050919050565b6105988161057d565b81146105a357600080fd5b50565b6000813590506105b58161058f565b92915050565b6000819050919050565b6105ce816105bb565b81146105d957600080fd5b50565b6000813590506105eb816105c5565b92915050565b600080fd5b600080fd5b6000601f19601f8301169050919050565b7f4e487b7100000000000000000000000000000000000000000000000000000000600052604160045260246000fd5b610644826105fb565b810181811067ffffffffffffffff821117156106635761066261060c565b5b80604052505050565b600061067661048e565b9050610682828261063b565b919050565b600067ffffffffffffffff8211156106a2576106a161060c565b5b6106ab826105fb565b9050602081019050919050565b82818337600083830152505050565b60006106da6106d584610687565b61066c565b9050828152602081018484840111156106f6576106f56105f6565b5b6107018482856106b8565b509392505050565b600082601f83011261071e5761071d6105f1565b5b813561072e8482602086016106c7565b91505092915050565b6002811061074457600080fd5b50565b60008135905061075681610737565b92915050565b60006107678261055d565b9050919050565b6107778161075c565b811461078257600080fd5b50565b6000813590506107948161076e565b92915050565b60008060008060008060008060008060006101608c8e0312156107c0576107bf610498565b5b60006107ce8e828f016105a6565b9b505060206107df8e828f016105dc565b9a505060408c013567ffffffffffffffff811115610800576107ff61049d565b5b61080c8e828f01610709565b995050606061081d8e828f01610747565b985050608061082e8e828f016105dc565b97505060a061083f8e828f016105dc565b96505060c06108508e828f016105dc565b95505060e06108618e828f016105a6565b9450506101006108738e828f01610785565b9350506101208c013567ffffffffffffffff8111156108955761089461049d565b5b6108a18e828f01610709565b9250506101406108b38e828f016105a6565b9150509295989b509295989b9093969950565b6000819050919050565b6108d9816108c6565b81146108e457600080fd5b50565b6000813590506108f6816108d0565b92915050565b61090581610527565b811461091057600080fd5b50565b600081359050610922816108fc565b92915050565b6000806040838503121561093f5761093e610498565b5b600061094d858286016108e7565b925050602061095e85828601610913565b9150509250929050565b60006020828403121561097e5761097d610498565b5b600061098c848285016105a6565b91505092915050565b61099e816105bb565b82525050565b60006020820190506109b96000830184610995565b92915050565b600082825260208201905092915050565b7f53756363657373204661696c6564000000000000000000000000000000000000600082015250565b6000610a06600e836109bf565b9150610a11826109d0565b602082019050919050565b60006020820190508181036000830152610a35816109f9565b9050919050565b610a45816108c6565b82525050565b6000602082019050610a606000830184610a3c565b92915050565b610a6f816104a2565b82525050565b6000602082019050610a8a6000830184610a66565b92915050565b600081519050610a9f816108fc565b92915050565b600060208284031215610abb57610aba610498565b5b6000610ac984828501610a90565b9150509291505056fea264697066735822122096b21e00599b1b257ef6750bb75edfeb3a051dfc7d783294701c671afa83b65d64736f6c63430008140033",
  "linkReferences": {},
  "deployedLinkReferences": {}
}