{
  "_format": "hh-sol-artifact-1",
  "contractName": "Safe",
  "sourceName": "contracts/Safe.sol",
  "abi": [
    {
      "inputs": [],
      "stateMutability": "nonpayable",
      "type": "constructor"
    },
    {
      "anonymous": false,
      "inputs": [
        {
          "indexed": true,
          "internalType": "address",
          "name": "owner",
          "type": "address"
        }
      ],
      "name": "AddedOwner",
      "type": "event"
    },
    {
      "anonymous": false,
      "inputs": [
        {
          "indexed": true,
          "internalType": "bytes32",
          "name": "approvedHash",
          "type": "bytes32"
        },
        {
          "indexed": true,
          "internalType": "address",
          "name": "owner",
          "type": "address"
        }
      ],
      "name": "ApproveHash",
      "type": "event"
    },
    {
      "anonymous": false,
      "inputs": [
        {
          "indexed": true,
          "internalType": "address",
          "name": "handler",
          "type": "address"
        }
      ],
      "name": "ChangedFallbackHandler",
      "type": "event"
    },
    {
      "anonymous": false,
      "inputs": [
        {
          "indexed": true,
          "internalType": "address",
          "name": "guard",
          "type": "address"
        }
      ],
      "name": "ChangedGuard",
      "type": "event"
    },
    {
      "anonymous": false,
      "inputs": [
        {
          "indexed": true,
          "internalType": "address",
          "name": "moduleGuard",
          "type": "address"
        }
      ],
      "name": "ChangedModuleGuard",
      "type": "event"
    },
    {
      "anonymous": false,
      "inputs": [
        {
          "indexed": false,
          "internalType": "uint256",
          "name": "threshold",
          "type": "uint256"
        }
      ],
      "name": "ChangedThreshold",
      "type": "event"
    },
    {
      "anonymous": false,
      "inputs": [
        {
          "indexed": true,
          "internalType": "address",
          "name": "module",
          "type": "address"
        }
      ],
      "name": "DisabledModule",
      "type": "event"
    },
    {
      "anonymous": false,
      "inputs": [
        {
          "indexed": true,
          "internalType": "address",
          "name": "module",
          "type": "address"
        }
      ],
      "name": "EnabledModule",
      "type": "event"
    },
    {
      "anonymous": false,
      "inputs": [
        {
          "indexed": true,
          "internalType": "bytes32",
          "name": "txHash",
          "type": "bytes32"
        },
        {
          "indexed": false,
          "internalType": "uint256",
          "name": "payment",
          "type": "uint256"
        }
      ],
      "name": "ExecutionFailure",
      "type": "event"
    },
    {
      "anonymous": false,
      "inputs": [
        {
          "indexed": true,
          "internalType": "address",
          "name": "module",
          "type": "address"
        }
      ],
      "name": "ExecutionFromModuleFailure",
      "type": "event"
    },
    {
      "anonymous": false,
      "inputs": [
        {
          "indexed": true,
          "internalType": "address",
          "name": "module",
          "type": "address"
        }
      ],
      "name": "ExecutionFromModuleSuccess",
      "type": "event"
    },
    {
      "anonymous": false,
      "inputs": [
        {
          "indexed": true,
          "internalType": "bytes32",
          "name": "txHash",
          "type": "bytes32"
        },
        {
          "indexed": false,
          "internalType": "uint256",
          "name": "payment",
          "type": "uint256"
        }
      ],
      "name": "ExecutionSuccess",
      "type": "event"
    },
    {
      "anonymous": false,
      "inputs": [
        {
          "indexed": true,
          "internalType": "address",
          "name": "owner",
          "type": "address"
        }
      ],
      "name": "RemovedOwner",
      "type": "event"
    },
    {
      "anonymous": false,
      "inputs": [
        {
          "indexed": true,
          "internalType": "address",
          "name": "sender",
          "type": "address"
        },
        {
          "indexed": false,
          "internalType": "uint256",
          "name": "value",
          "type": "uint256"
        }
      ],
      "name": "SafeReceived",
      "type": "event"
    },
    {
      "anonymous": false,
      "inputs": [
        {
          "indexed": true,
          "internalType": "address",
          "name": "initiator",
          "type": "address"
        },
        {
          "indexed": false,
          "internalType": "address[]",
          "name": "owners",
          "type": "address[]"
        },
        {
          "indexed": false,
          "internalType": "uint256",
          "name": "threshold",
          "type": "uint256"
        },
        {
          "indexed": false,
          "internalType": "address",
          "name": "initializer",
          "type": "address"
        },
        {
          "indexed": false,
          "internalType": "address",
          "name": "fallbackHandler",
          "type": "address"
        }
      ],
      "name": "SafeSetup",
      "type": "event"
    },
    {
      "anonymous": false,
      "inputs": [
        {
          "indexed": true,
          "internalType": "bytes32",
          "name": "msgHash",
          "type": "bytes32"
        }
      ],
      "name": "SignMsg",
      "type": "event"
    },
    {
      "stateMutability": "nonpayable",
      "type": "fallback"
    },
    {
      "inputs": [],
      "name": "VERSION",
      "outputs": [
        {
          "internalType": "string",
          "name": "",
          "type": "string"
        }
      ],
      "stateMutability": "view",
      "type": "function"
    },
    {
      "inputs": [
        {
          "internalType": "address",
          "name": "owner",
          "type": "address"
        },
        {
          "internalType": "uint256",
          "name": "_threshold",
          "type": "uint256"
        }
      ],
      "name": "addOwnerWithThreshold",
      "outputs": [],
      "stateMutability": "nonpayable",
      "type": "function"
    },
    {
      "inputs": [
        {
          "internalType": "bytes32",
          "name": "hashToApprove",
          "type": "bytes32"
        }
      ],
      "name": "approveHash",
      "outputs": [],
      "stateMutability": "nonpayable",
      "type": "function"
    },
    {
      "inputs": [
        {
          "internalType": "address",
          "name": "",
          "type": "address"
        },
        {
          "internalType": "bytes32",
          "name": "",
          "type": "bytes32"
        }
      ],
      "name": "approvedHashes",
      "outputs": [
        {
          "internalType": "uint256",
          "name": "",
          "type": "uint256"
        }
      ],
      "stateMutability": "view",
      "type": "function"
    },
    {
      "inputs": [
        {
          "internalType": "uint256",
          "name": "_threshold",
          "type": "uint256"
        }
      ],
      "name": "changeThreshold",
      "outputs": [],
      "stateMutability": "nonpayable",
      "type": "function"
    },
    {
      "inputs": [
        {
          "internalType": "bytes32",
          "name": "dataHash",
          "type": "bytes32"
        },
        {
          "internalType": "bytes",
          "name": "data",
          "type": "bytes"
        },
        {
          "internalType": "bytes",
          "name": "signatures",
          "type": "bytes"
        },
        {
          "internalType": "uint256",
          "name": "requiredSignatures",
          "type": "uint256"
        }
      ],
      "name": "checkNSignatures",
      "outputs": [],
      "stateMutability": "view",
      "type": "function"
    },
    {
      "inputs": [
        {
          "internalType": "address",
          "name": "executor",
          "type": "address"
        },
        {
          "internalType": "bytes32",
          "name": "dataHash",
          "type": "bytes32"
        },
        {
          "internalType": "bytes",
          "name": "signatures",
          "type": "bytes"
        },
        {
          "internalType": "uint256",
          "name": "requiredSignatures",
          "type": "uint256"
        }
      ],
      "name": "checkNSignatures",
      "outputs": [],
      "stateMutability": "view",
      "type": "function"
    },
    {
      "inputs": [
        {
          "internalType": "bytes32",
          "name": "dataHash",
          "type": "bytes32"
        },
        {
          "internalType": "bytes",
          "name": "data",
          "type": "bytes"
        },
        {
          "internalType": "bytes",
          "name": "signatures",
          "type": "bytes"
        }
      ],
      "name": "checkSignatures",
      "outputs": [],
      "stateMutability": "view",
      "type": "function"
    },
    {
      "inputs": [
        {
          "internalType": "address",
          "name": "executor",
          "type": "address"
        },
        {
          "internalType": "bytes32",
          "name": "dataHash",
          "type": "bytes32"
        },
        {
          "internalType": "bytes",
          "name": "signatures",
          "type": "bytes"
        }
      ],
      "name": "checkSignatures",
      "outputs": [],
      "stateMutability": "view",
      "type": "function"
    },
    {
      "inputs": [
        {
          "internalType": "address",
          "name": "prevModule",
          "type": "address"
        },
        {
          "internalType": "address",
          "name": "module",
          "type": "address"
        }
      ],
      "name": "disableModule",
      "outputs": [],
      "stateMutability": "nonpayable",
      "type": "function"
    },
    {
      "inputs": [],
      "name": "domainSeparator",
      "outputs": [
        {
          "internalType": "bytes32",
          "name": "",
          "type": "bytes32"
        }
      ],
      "stateMutability": "view",
      "type": "function"
    },
    {
      "inputs": [
        {
          "internalType": "address",
          "name": "module",
          "type": "address"
        }
      ],
      "name": "enableModule",
      "outputs": [],
      "stateMutability": "nonpayable",
      "type": "function"
    },
    {
      "inputs": [
        {
          "internalType": "address",
          "name": "to",
          "type": "address"
        },
        {
          "internalType": "uint256",
          "name": "value",
          "type": "uint256"
        },
        {
          "internalType": "bytes",
          "name": "data",
          "type": "bytes"
        },
        {
          "internalType": "enum Enum.Operation",
          "name": "operation",
          "type": "uint8"
        },
        {
          "internalType": "uint256",
          "name": "safeTxGas",
          "type": "uint256"
        },
        {
          "internalType": "uint256",
          "name": "baseGas",
          "type": "uint256"
        },
        {
          "internalType": "uint256",
          "name": "gasPrice",
          "type": "uint256"
        },
        {
          "internalType": "address",
          "name": "gasToken",
          "type": "address"
        },
        {
          "internalType": "address payable",
          "name": "refundReceiver",
          "type": "address"
        },
        {
          "internalType": "bytes",
          "name": "signatures",
          "type": "bytes"
        }
      ],
      "name": "execTransaction",
      "outputs": [
        {
          "internalType": "bool",
          "name": "success",
          "type": "bool"
        }
      ],
      "stateMutability": "payable",
      "type": "function"
    },
    {
      "inputs": [
        {
          "internalType": "address",
          "name": "to",
          "type": "address"
        },
        {
          "internalType": "uint256",
          "name": "value",
          "type": "uint256"
        },
        {
          "internalType": "bytes",
          "name": "data",
          "type": "bytes"
        },
        {
          "internalType": "enum Enum.Operation",
          "name": "operation",
          "type": "uint8"
        }
      ],
      "name": "execTransactionFromModule",
      "outputs": [
        {
          "internalType": "bool",
          "name": "success",
          "type": "bool"
        }
      ],
      "stateMutability": "nonpayable",
      "type": "function"
    },
    {
      "inputs": [
        {
          "internalType": "address",
          "name": "to",
          "type": "address"
        },
        {
          "internalType": "uint256",
          "name": "value",
          "type": "uint256"
        },
        {
          "internalType": "bytes",
          "name": "data",
          "type": "bytes"
        },
        {
          "internalType": "enum Enum.Operation",
          "name": "operation",
          "type": "uint8"
        }
      ],
      "name": "execTransactionFromModuleReturnData",
      "outputs": [
        {
          "internalType": "bool",
          "name": "success",
          "type": "bool"
        },
        {
          "internalType": "bytes",
          "name": "returnData",
          "type": "bytes"
        }
      ],
      "stateMutability": "nonpayable",
      "type": "function"
    },
    {
      "inputs": [
        {
          "internalType": "address",
          "name": "start",
          "type": "address"
        },
        {
          "internalType": "uint256",
          "name": "pageSize",
          "type": "uint256"
        }
      ],
      "name": "getModulesPaginated",
      "outputs": [
        {
          "internalType": "address[]",
          "name": "array",
          "type": "address[]"
        },
        {
          "internalType": "address",
          "name": "next",
          "type": "address"
        }
      ],
      "stateMutability": "view",
      "type": "function"
    },
    {
      "inputs": [],
      "name": "getOwners",
      "outputs": [
        {
          "internalType": "address[]",
          "name": "",
          "type": "address[]"
        }
      ],
      "stateMutability": "view",
      "type": "function"
    },
    {
      "inputs": [
        {
          "internalType": "uint256",
          "name": "offset",
          "type": "uint256"
        },
        {
          "internalType": "uint256",
          "name": "length",
          "type": "uint256"
        }
      ],
      "name": "getStorageAt",
      "outputs": [
        {
          "internalType": "bytes",
          "name": "",
          "type": "bytes"
        }
      ],
      "stateMutability": "view",
      "type": "function"
    },
    {
      "inputs": [],
      "name": "getThreshold",
      "outputs": [
        {
          "internalType": "uint256",
          "name": "",
          "type": "uint256"
        }
      ],
      "stateMutability": "view",
      "type": "function"
    },
    {
      "inputs": [
        {
          "internalType": "address",
          "name": "to",
          "type": "address"
        },
        {
          "internalType": "uint256",
          "name": "value",
          "type": "uint256"
        },
        {
          "internalType": "bytes",
          "name": "data",
          "type": "bytes"
        },
        {
          "internalType": "enum Enum.Operation",
          "name": "operation",
          "type": "uint8"
        },
        {
          "internalType": "uint256",
          "name": "safeTxGas",
          "type": "uint256"
        },
        {
          "internalType": "uint256",
          "name": "baseGas",
          "type": "uint256"
        },
        {
          "internalType": "uint256",
          "name": "gasPrice",
          "type": "uint256"
        },
        {
          "internalType": "address",
          "name": "gasToken",
          "type": "address"
        },
        {
          "internalType": "address",
          "name": "refundReceiver",
          "type": "address"
        },
        {
          "internalType": "uint256",
          "name": "_nonce",
          "type": "uint256"
        }
      ],
      "name": "getTransactionHash",
      "outputs": [
        {
          "internalType": "bytes32",
          "name": "txHash",
          "type": "bytes32"
        }
      ],
      "stateMutability": "view",
      "type": "function"
    },
    {
      "inputs": [
        {
          "internalType": "address",
          "name": "module",
          "type": "address"
        }
      ],
      "name": "isModuleEnabled",
      "outputs": [
        {
          "internalType": "bool",
          "name": "",
          "type": "bool"
        }
      ],
      "stateMutability": "view",
      "type": "function"
    },
    {
      "inputs": [
        {
          "internalType": "address",
          "name": "owner",
          "type": "address"
        }
      ],
      "name": "isOwner",
      "outputs": [
        {
          "internalType": "bool",
          "name": "",
          "type": "bool"
        }
      ],
      "stateMutability": "view",
      "type": "function"
    },
    {
      "inputs": [],
      "name": "nonce",
      "outputs": [
        {
          "internalType": "uint256",
          "name": "",
          "type": "uint256"
        }
      ],
      "stateMutability": "view",
      "type": "function"
    },
    {
      "inputs": [
        {
          "internalType": "address",
          "name": "prevOwner",
          "type": "address"
        },
        {
          "internalType": "address",
          "name": "owner",
          "type": "address"
        },
        {
          "internalType": "uint256",
          "name": "_threshold",
          "type": "uint256"
        }
      ],
      "name": "removeOwner",
      "outputs": [],
      "stateMutability": "nonpayable",
      "type": "function"
    },
    {
      "inputs": [
        {
          "internalType": "address",
          "name": "handler",
          "type": "address"
        }
      ],
      "name": "setFallbackHandler",
      "outputs": [],
      "stateMutability": "nonpayable",
      "type": "function"
    },
    {
      "inputs": [
        {
          "internalType": "address",
          "name": "guard",
          "type": "address"
        }
      ],
      "name": "setGuard",
      "outputs": [],
      "stateMutability": "nonpayable",
      "type": "function"
    },
    {
      "inputs": [
        {
          "internalType": "address",
          "name": "moduleGuard",
          "type": "address"
        }
      ],
      "name": "setModuleGuard",
      "outputs": [],
      "stateMutability": "nonpayable",
      "type": "function"
    },
    {
      "inputs": [
        {
          "internalType": "address[]",
          "name": "_owners",
          "type": "address[]"
        },
        {
          "internalType": "uint256",
          "name": "_threshold",
          "type": "uint256"
        },
        {
          "internalType": "address",
          "name": "to",
          "type": "address"
        },
        {
          "internalType": "bytes",
          "name": "data",
          "type": "bytes"
        },
        {
          "internalType": "address",
          "name": "fallbackHandler",
          "type": "address"
        },
        {
          "internalType": "address",
          "name": "paymentToken",
          "type": "address"
        },
        {
          "internalType": "uint256",
          "name": "payment",
          "type": "uint256"
        },
        {
          "internalType": "address payable",
          "name": "paymentReceiver",
          "type": "address"
        }
      ],
      "name": "setup",
      "outputs": [],
      "stateMutability": "nonpayable",
      "type": "function"
    },
    {
      "inputs": [
        {
          "internalType": "bytes32",
          "name": "",
          "type": "bytes32"
        }
      ],
      "name": "signedMessages",
      "outputs": [
        {
          "internalType": "uint256",
          "name": "",
          "type": "uint256"
        }
      ],
      "stateMutability": "view",
      "type": "function"
    },
    {
      "inputs": [
        {
          "internalType": "address",
          "name": "targetContract",
          "type": "address"
        },
        {
          "internalType": "bytes",
          "name": "calldataPayload",
          "type": "bytes"
        }
      ],
      "name": "simulateAndRevert",
      "outputs": [],
      "stateMutability": "nonpayable",
      "type": "function"
    },
    {
      "inputs": [
        {
          "internalType": "address",
          "name": "prevOwner",
          "type": "address"
        },
        {
          "internalType": "address",
          "name": "oldOwner",
          "type": "address"
        },
        {
          "internalType": "address",
          "name": "newOwner",
          "type": "address"
        }
      ],
      "name": "swapOwner",
      "outputs": [],
      "stateMutability": "nonpayable",
      "type": "function"
    },
    {
      "stateMutability": "payable",
      "type": "receive"
    }
  ],
  "bytecode": "0x608060405234801561001057600080fd5b50600160048190555061589280620000296000396000f3fe6080604052600436106101dc5760003560e01c8063affed0e011610102578063e19a9dd911610095578063f698da2511610064578063f698da25146107af578063f855438b146107da578063f8dc5dd914610803578063ffa1ad741461082c57610231565b8063e19a9dd914610709578063e318b52b14610732578063e75235b81461075b578063f08a03231461078657610231565b8063d4d9bdcd116100d1578063d4d9bdcd14610651578063d8d11f781461067a578063e009cfde146106b7578063e068df37146106e057610231565b8063affed0e014610596578063b4faba09146105c1578063b63e800d146105ea578063cc2f84521461061357610231565b80635624b25b1161017a5780636a761202116101495780636a761202146104d55780637d83297414610505578063934f3a1114610542578063a0e67e2b1461056b57610231565b80635624b25b146104095780635ae6bd3714610446578063610b592514610483578063694e80c3146104ac57610231565b80632d9ad53d116101b65780632d9ad53d146103145780632f54bf6e14610351578063468721a71461038e5780635229073f146103cb57610231565b80630d582f131461029957806312fb68e0146102c25780631fcac7f3146102eb57610231565b36610231573373ffffffffffffffffffffffffffffffffffffffff167f3d0ce9bfc3ed7d6862dbb28b2dea94561fe714a1b4d019aa8af39730d1ad7c3d3460405161022791906141e1565b60405180910390a2005b34801561023d57600080fd5b507f6c9a6c4a39284e37ed1cf53d337577d14212a4870fb976a4366c693b939918d5548061026a57600080f35b60405136600082373360601b3682015260008060143601836000865af13d6000833e80610295573d82fd5b3d82f35b3480156102a557600080fd5b506102c060048036038101906102bb919061429a565b610857565b005b3480156102ce57600080fd5b506102e960048036038101906102e491906144b6565b610bb5565b005b3480156102f757600080fd5b50610312600480360381019061030d919061455a565b610bc8565b005b34801561032057600080fd5b5061033b600480360381019061033691906145dd565b610fa5565b6040516103489190614625565b60405180910390f35b34801561035d57600080fd5b50610378600480360381019061037391906145dd565b611077565b6040516103859190614625565b60405180910390f35b34801561039a57600080fd5b506103b560048036038101906103b09190614665565b611147565b6040516103c29190614625565b60405180910390f35b3480156103d757600080fd5b506103f260048036038101906103ed9190614665565b6111a0565b604051610400929190614767565b60405180910390f35b34801561041557600080fd5b50610430600480360381019061042b9190614797565b611215565b60405161043d91906147d7565b60405180910390f35b34801561045257600080fd5b5061046d600480360381019061046891906147f9565b6112a3565b60405161047a91906141e1565b60405180910390f35b34801561048f57600080fd5b506104aa60048036038101906104a591906145dd565b6112bb565b005b3480156104b857600080fd5b506104d360048036038101906104ce9190614826565b6115b9565b005b6104ef60048036038101906104ea9190614891565b611668565b6040516104fc9190614625565b60405180910390f35b34801561051157600080fd5b5061052c600480360381019061052791906149ad565b6119e4565b60405161053991906141e1565b60405180910390f35b34801561054e57600080fd5b50610569600480360381019061056491906149ed565b611a09565b005b34801561057757600080fd5b50610580611a1a565b60405161058d9190614b3b565b60405180910390f35b3480156105a257600080fd5b506105ab611bd0565b6040516105b891906141e1565b60405180910390f35b3480156105cd57600080fd5b506105e860048036038101906105e39190614b5d565b611bd6565b005b3480156105f657600080fd5b50610611600480360381019061060c9190614c0f565b611bfd565b005b34801561061f57600080fd5b5061063a6004803603810190610635919061429a565b611d50565b604051610648929190614d15565b60405180910390f35b34801561065d57600080fd5b50610678600480360381019061067391906147f9565b61204c565b005b34801561068657600080fd5b506106a1600480360381019061069c9190614d45565b6121a6565b6040516106ae9190614e54565b60405180910390f35b3480156106c357600080fd5b506106de60048036038101906106d99190614e6f565b61224f565b005b3480156106ec57600080fd5b50610707600480360381019061070291906145dd565b61254c565b005b34801561071557600080fd5b50610730600480360381019061072b91906145dd565b6126c9565b005b34801561073e57600080fd5b5061075960048036038101906107549190614eaf565b61283d565b005b34801561076757600080fd5b50610770612d85565b60405161077d91906141e1565b60405180910390f35b34801561079257600080fd5b506107ad60048036038101906107a891906145dd565b612d8f565b005b3480156107bb57600080fd5b506107c4612de6565b6040516107d19190614e54565b60405180910390f35b3480156107e657600080fd5b5061080160048036038101906107fc9190614f02565b612e40565b005b34801561080f57600080fd5b5061082a60048036038101906108259190614f71565b612e8b565b005b34801561083857600080fd5b506108416131e2565b60405161084e9190615019565b60405180910390f35b61085f61321b565b600073ffffffffffffffffffffffffffffffffffffffff168273ffffffffffffffffffffffffffffffffffffffff1614806108c65750600173ffffffffffffffffffffffffffffffffffffffff168273ffffffffffffffffffffffffffffffffffffffff16145b806108fc57503073ffffffffffffffffffffffffffffffffffffffff168273ffffffffffffffffffffffffffffffffffffffff16145b1561092b5761092a7f475332303300000000000000000000000000000000000000000000000000000061327a565b5b600073ffffffffffffffffffffffffffffffffffffffff16600260008473ffffffffffffffffffffffffffffffffffffffff1673ffffffffffffffffffffffffffffffffffffffff16815260200190815260200160002060009054906101000a900473ffffffffffffffffffffffffffffffffffffffff1673ffffffffffffffffffffffffffffffffffffffff16146109e8576109e77f475332303400000000000000000000000000000000000000000000000000000061327a565b5b60026000600173ffffffffffffffffffffffffffffffffffffffff1673ffffffffffffffffffffffffffffffffffffffff16815260200190815260200160002060009054906101000a900473ffffffffffffffffffffffffffffffffffffffff16600260008473ffffffffffffffffffffffffffffffffffffffff1673ffffffffffffffffffffffffffffffffffffffff16815260200190815260200160002060006101000a81548173ffffffffffffffffffffffffffffffffffffffff021916908373ffffffffffffffffffffffffffffffffffffffff1602179055508160026000600173ffffffffffffffffffffffffffffffffffffffff1673ffffffffffffffffffffffffffffffffffffffff16815260200190815260200160002060006101000a81548173ffffffffffffffffffffffffffffffffffffffff021916908373ffffffffffffffffffffffffffffffffffffffff160217905550600360008154610b549061506a565b919050819055508173ffffffffffffffffffffffffffffffffffffffff167f9465fa0c962cc76958e6373a993326400c1c94f8be2fe3a952adfa7f60b2ea2660405160405180910390a28060045414610bb157610bb0816115b9565b5b5050565b610bc133868484610bc8565b5050505050565b610bdc6041826132b990919063ffffffff16565b82511015610c0e57610c0d7f475330323000000000000000000000000000000000000000000000000000000061327a565b5b6000808060008060005b86811015610f9957610c2a88826132fd565b8260ff16925080945081955082965050505060008403610ca6578260001c9450610c5e6041886132b990919063ffffffff16565b8260001c1015610c9257610c917f475330323100000000000000000000000000000000000000000000000000000061327a565b5b610ca1858a8a8560001c61332c565b610e59565b60018403610d74578260001c94508473ffffffffffffffffffffffffffffffffffffffff168a73ffffffffffffffffffffffffffffffffffffffff1614158015610d4057506000600860008773ffffffffffffffffffffffffffffffffffffffff1673ffffffffffffffffffffffffffffffffffffffff16815260200190815260200160002060008b815260200190815260200160002054145b15610d6f57610d6e7f475330323500000000000000000000000000000000000000000000000000000061327a565b5b610e58565b601e841115610e0557600189604051602001610d90919061512a565b60405160208183030381529060405280519060200120600486610db39190615150565b858560405160008152602001604052604051610dd294939291906151a0565b6020604051602081039080840390855afa158015610df4573d6000803e3d6000fd5b505050602060405103519450610e57565b60018985858560405160008152602001604052604051610e2894939291906151a0565b6020604051602081039080840390855afa158015610e4a573d6000803e3d6000fd5b5050506020604051035194505b5b5b8573ffffffffffffffffffffffffffffffffffffffff168573ffffffffffffffffffffffffffffffffffffffff16111580610f1f5750600073ffffffffffffffffffffffffffffffffffffffff16600260008773ffffffffffffffffffffffffffffffffffffffff1673ffffffffffffffffffffffffffffffffffffffff16815260200190815260200160002060009054906101000a900473ffffffffffffffffffffffffffffffffffffffff1673ffffffffffffffffffffffffffffffffffffffff16145b80610f565750600173ffffffffffffffffffffffffffffffffffffffff168573ffffffffffffffffffffffffffffffffffffffff16145b15610f8557610f847f475330323600000000000000000000000000000000000000000000000000000061327a565b5b84955080610f929061506a565b9050610c18565b50505050505050505050565b60008173ffffffffffffffffffffffffffffffffffffffff16600173ffffffffffffffffffffffffffffffffffffffff16141580156110705750600073ffffffffffffffffffffffffffffffffffffffff16600160008473ffffffffffffffffffffffffffffffffffffffff1673ffffffffffffffffffffffffffffffffffffffff16815260200190815260200160002060009054906101000a900473ffffffffffffffffffffffffffffffffffffffff1673ffffffffffffffffffffffffffffffffffffffff1614155b9050919050565b6000600173ffffffffffffffffffffffffffffffffffffffff168273ffffffffffffffffffffffffffffffffffffffff16148061113f5750600073ffffffffffffffffffffffffffffffffffffffff16600260008473ffffffffffffffffffffffffffffffffffffffff1673ffffffffffffffffffffffffffffffffffffffff16815260200190815260200160002060009054906101000a900473ffffffffffffffffffffffffffffffffffffffff1673ffffffffffffffffffffffffffffffffffffffff16145b159050919050565b6000806000611158878787876134d8565b91509150611189878787877fffffffffffffffffffffffffffffffffffffffffffffffffffffffffffffffff6136aa565b9250611196828285613703565b5050949350505050565b600060606000806111b3888888886134d8565b915091506111e4888888887fffffffffffffffffffffffffffffffffffffffffffffffffffffffffffffffff6136aa565b9350604051925060203d0183016040523d83523d6000602085013e61120a828286613703565b505094509492505050565b60606000600583901b67ffffffffffffffff8111156112375761123661438b565b5b6040519080825280601f01601f1916602001820160405280156112695781602001600182028036833780820191505090505b50905060005b838110156112985780850154806020830260208501015250806112919061506a565b905061126f565b508091505092915050565b60076020528060005260406000206000915090505481565b6112c361321b565b600073ffffffffffffffffffffffffffffffffffffffff168173ffffffffffffffffffffffffffffffffffffffff16148061132a5750600173ffffffffffffffffffffffffffffffffffffffff168173ffffffffffffffffffffffffffffffffffffffff16145b15611359576113587f475331303100000000000000000000000000000000000000000000000000000061327a565b5b600073ffffffffffffffffffffffffffffffffffffffff16600160008373ffffffffffffffffffffffffffffffffffffffff1673ffffffffffffffffffffffffffffffffffffffff16815260200190815260200160002060009054906101000a900473ffffffffffffffffffffffffffffffffffffffff1673ffffffffffffffffffffffffffffffffffffffff1614611416576114157f475331303200000000000000000000000000000000000000000000000000000061327a565b5b60016000600173ffffffffffffffffffffffffffffffffffffffff1673ffffffffffffffffffffffffffffffffffffffff16815260200190815260200160002060009054906101000a900473ffffffffffffffffffffffffffffffffffffffff16600160008373ffffffffffffffffffffffffffffffffffffffff1673ffffffffffffffffffffffffffffffffffffffff16815260200190815260200160002060006101000a81548173ffffffffffffffffffffffffffffffffffffffff021916908373ffffffffffffffffffffffffffffffffffffffff1602179055508060016000600173ffffffffffffffffffffffffffffffffffffffff1673ffffffffffffffffffffffffffffffffffffffff16815260200190815260200160002060006101000a81548173ffffffffffffffffffffffffffffffffffffffff021916908373ffffffffffffffffffffffffffffffffffffffff1602179055508073ffffffffffffffffffffffffffffffffffffffff167fecdf3a3effea5783a3c4c2140e677577666428d44ed9d474a0b3a4c9943f844060405160405180910390a250565b6115c161321b565b6003548111156115f5576115f47f475332303100000000000000000000000000000000000000000000000000000061327a565b5b60008103611627576116267f475332303200000000000000000000000000000000000000000000000000000061327a565b5b806004819055507f610f7ff2b304ae8903c3de74c60c6ab1f7d6226b3f52c5161905bb5ad4039c938160405161165d91906141e1565b60405180910390a150565b600061167d8c8c8c8c8c8c8c8c8c8c8c61383c565b60006116a88d8d8d8d8d8d8d8d8d8d6005600081548092919061169f9061506a565b919050556121a6565b90506116b5338285612e40565b60006116bf613849565b9050600073ffffffffffffffffffffffffffffffffffffffff168173ffffffffffffffffffffffffffffffffffffffff1614611777578073ffffffffffffffffffffffffffffffffffffffff166375f0bb528f8f8f8f8f8f8f8f8f8f8f336040518d63ffffffff1660e01b81526004016117449c9b9a99989796959493929190615298565b600060405180830381600087803b15801561175e57600080fd5b505af1158015611772573d6000803e3d6000fd5b505050505b6101f46117aa6109c48b61178b9190615353565b603f60068d901b61179c91906153b6565b61387290919063ffffffff16565b6117b49190615353565b5a10156117e5576117e47f475330313000000000000000000000000000000000000000000000000000000061327a565b5b60005a90506118578f8f8f8f8080601f016020809104026020016040519081016040528093929190818152602001838380828437600081840152601f19601f820116905080830192505050505050508e60008d14611843578e611852565b6109c45a6118519190615150565b5b6136aa565b935061186c5a8261388c90919063ffffffff16565b90508315801561187c575060008a145b80156118885750600088145b15611899576040513d6000823e3d81fd5b6000808911156118b3576118b0828b8b8b8b6138b5565b90505b84156118f657837f442e715f626346e8c54381002da614f62bee8d27386535b2521ec8540898556e826040516118e991906141e1565b60405180910390a261192f565b837f23428b18acfb3ea64b08dc0c1d296ea9c09702c09083ca5272e64d115b687d238260405161192691906141e1565b60405180910390a25b5050600073ffffffffffffffffffffffffffffffffffffffff168173ffffffffffffffffffffffffffffffffffffffff16146119d3578073ffffffffffffffffffffffffffffffffffffffff16639327136883856040518363ffffffff1660e01b81526004016119a09291906153e7565b600060405180830381600087803b1580156119ba57600080fd5b505af11580156119ce573d6000803e3d6000fd5b505050505b50509b9a5050505050505050505050565b6008602052816000526040600020602052806000526040600020600091509150505481565b611a14338583612e40565b50505050565b6060600060035467ffffffffffffffff811115611a3a57611a3961438b565b5b604051908082528060200260200182016040528015611a685781602001602082028036833780820191505090505b50905060008060026000600173ffffffffffffffffffffffffffffffffffffffff1673ffffffffffffffffffffffffffffffffffffffff16815260200190815260200160002060009054906101000a900473ffffffffffffffffffffffffffffffffffffffff1690505b600173ffffffffffffffffffffffffffffffffffffffff168173ffffffffffffffffffffffffffffffffffffffff1614611bc75780838381518110611b1a57611b19615410565b5b602002602001019073ffffffffffffffffffffffffffffffffffffffff16908173ffffffffffffffffffffffffffffffffffffffff1681525050600260008273ffffffffffffffffffffffffffffffffffffffff1673ffffffffffffffffffffffffffffffffffffffff16815260200190815260200160002060009054906101000a900473ffffffffffffffffffffffffffffffffffffffff16905081611bc09061506a565b9150611ad2565b82935050505090565b60055481565b600080825160208401855af46040518181523d60208201523d6000604083013e60403d0181fd5b3373ffffffffffffffffffffffffffffffffffffffff167f141df868a6331af528e38c83b7aa03edc19be66e37ae67f9285bf4f8e3c6a1a88b8b8b8b89604051611c4b9594939291906154ca565b60405180910390a2611c9e8a8a80806020026020016040519081016040528093929190818152602001838360200280828437600081840152601f19601f8201169050808301925050505050505089613a6b565b600073ffffffffffffffffffffffffffffffffffffffff168473ffffffffffffffffffffffffffffffffffffffff1614611cdc57611cdb84613e21565b5b611d2a8787878080601f016020809104026020016040519081016040528093929190818152602001838380828437600081840152601f19601f82011690508083019250505050505050613ea4565b6000821115611d4457611d42826000600186856138b5565b505b50505050505050505050565b60606000600173ffffffffffffffffffffffffffffffffffffffff168473ffffffffffffffffffffffffffffffffffffffff1614158015611d975750611d9584610fa5565b155b15611dc657611dc57f475331303500000000000000000000000000000000000000000000000000000061327a565b5b60008303611df857611df77f475331303600000000000000000000000000000000000000000000000000000061327a565b5b8267ffffffffffffffff811115611e1257611e1161438b565b5b604051908082528060200260200182016040528015611e405781602001602082028036833780820191505090505b5091506000600160008673ffffffffffffffffffffffffffffffffffffffff1673ffffffffffffffffffffffffffffffffffffffff16815260200190815260200160002060009054906101000a900473ffffffffffffffffffffffffffffffffffffffff1691505b600073ffffffffffffffffffffffffffffffffffffffff168273ffffffffffffffffffffffffffffffffffffffff1614158015611f125750600173ffffffffffffffffffffffffffffffffffffffff168273ffffffffffffffffffffffffffffffffffffffff1614155b8015611f1d57508381105b15611fe35781838281518110611f3657611f35615410565b5b602002602001019073ffffffffffffffffffffffffffffffffffffffff16908173ffffffffffffffffffffffffffffffffffffffff1681525050600160008373ffffffffffffffffffffffffffffffffffffffff1673ffffffffffffffffffffffffffffffffffffffff16815260200190815260200160002060009054906101000a900473ffffffffffffffffffffffffffffffffffffffff16915080611fdc9061506a565b9050611ea8565b600173ffffffffffffffffffffffffffffffffffffffff168273ffffffffffffffffffffffffffffffffffffffff161461204157826001826120259190615150565b8151811061203657612035615410565b5b602002602001015191505b808352509250929050565b600073ffffffffffffffffffffffffffffffffffffffff16600260003373ffffffffffffffffffffffffffffffffffffffff1673ffffffffffffffffffffffffffffffffffffffff16815260200190815260200160002060009054906101000a900473ffffffffffffffffffffffffffffffffffffffff1673ffffffffffffffffffffffffffffffffffffffff1603612109576121087f475330333000000000000000000000000000000000000000000000000000000061327a565b5b6001600860003373ffffffffffffffffffffffffffffffffffffffff1673ffffffffffffffffffffffffffffffffffffffff1681526020019081526020016000206000838152602001908152602001600020819055503373ffffffffffffffffffffffffffffffffffffffff16817ff2a0eb156472d1440255b0d7c1e19cc07115d1051fe605b0dce69acfec884d9c60405160405180910390a350565b6000806121b1612de6565b90506040518a8c82378a81207fbb8310d486368db6bd6f849402fdd73ad53d316b5a4b2644ad6efe0f941286d882528e60208301528d60408301528060608301528a60808301528960a08301528860c08301528760e08301528661010083015285610120830152846101408301526101608220604083015261190182528260208301526042601e83012093505050509b9a5050505050505050505050565b61225761321b565b600073ffffffffffffffffffffffffffffffffffffffff168173ffffffffffffffffffffffffffffffffffffffff1614806122be5750600173ffffffffffffffffffffffffffffffffffffffff168173ffffffffffffffffffffffffffffffffffffffff16145b156122ed576122ec7f475331303100000000000000000000000000000000000000000000000000000061327a565b5b8073ffffffffffffffffffffffffffffffffffffffff16600160008473ffffffffffffffffffffffffffffffffffffffff1673ffffffffffffffffffffffffffffffffffffffff16815260200190815260200160002060009054906101000a900473ffffffffffffffffffffffffffffffffffffffff1673ffffffffffffffffffffffffffffffffffffffff16146123a9576123a87f475331303300000000000000000000000000000000000000000000000000000061327a565b5b600160008273ffffffffffffffffffffffffffffffffffffffff1673ffffffffffffffffffffffffffffffffffffffff16815260200190815260200160002060009054906101000a900473ffffffffffffffffffffffffffffffffffffffff16600160008473ffffffffffffffffffffffffffffffffffffffff1673ffffffffffffffffffffffffffffffffffffffff16815260200190815260200160002060006101000a81548173ffffffffffffffffffffffffffffffffffffffff021916908373ffffffffffffffffffffffffffffffffffffffff1602179055506000600160008373ffffffffffffffffffffffffffffffffffffffff1673ffffffffffffffffffffffffffffffffffffffff16815260200190815260200160002060006101000a81548173ffffffffffffffffffffffffffffffffffffffff021916908373ffffffffffffffffffffffffffffffffffffffff1602179055508073ffffffffffffffffffffffffffffffffffffffff167faab4fa2b463f581b2b32cb3b7e3b704b9ce37cc209b5fb4d77e593ace405427660405160405180910390a25050565b61255461321b565b600073ffffffffffffffffffffffffffffffffffffffff168173ffffffffffffffffffffffffffffffffffffffff161415801561262857508073ffffffffffffffffffffffffffffffffffffffff166301ffc9a77f58401ed8000000000000000000000000000000000000000000000000000000006040518263ffffffff1660e01b81526004016125e59190615553565b602060405180830381865afa158015612602573d6000803e3d6000fd5b505050506040513d601f19601f82011682018060405250810190612626919061559a565b155b15612657576126567f475333303100000000000000000000000000000000000000000000000000000061327a565b5b60007fb104e0b93118902c651344349b610029d694cfdec91c589c91ebafbcd028994760001b90508181558173ffffffffffffffffffffffffffffffffffffffff167fcd1966d6be16bc0c030cc741a06c6e0efaf8d00de2c8b6a9e11827e125de8bb860405160405180910390a25050565b6126d161321b565b600073ffffffffffffffffffffffffffffffffffffffff168173ffffffffffffffffffffffffffffffffffffffff16141580156127a557508073ffffffffffffffffffffffffffffffffffffffff166301ffc9a77fe6d7a83a000000000000000000000000000000000000000000000000000000006040518263ffffffff1660e01b81526004016127629190615553565b602060405180830381865afa15801561277f573d6000803e3d6000fd5b505050506040513d601f19601f820116820180604052508101906127a3919061559a565b155b156127d4576127d37f475333303000000000000000000000000000000000000000000000000000000061327a565b5b807f4a204f620c8c5ccdca3fd54d003badd85ba500436a431f0cbda4f558c93c34c8558073ffffffffffffffffffffffffffffffffffffffff167f1151116914515bc0891ff9047a6cb32cf902546f83066499bcf8ba33d2353fa260405160405180910390a250565b61284561321b565b600073ffffffffffffffffffffffffffffffffffffffff168173ffffffffffffffffffffffffffffffffffffffff1614806128ac5750600173ffffffffffffffffffffffffffffffffffffffff168173ffffffffffffffffffffffffffffffffffffffff16145b806128e257503073ffffffffffffffffffffffffffffffffffffffff168173ffffffffffffffffffffffffffffffffffffffff16145b15612911576129107f475332303300000000000000000000000000000000000000000000000000000061327a565b5b600073ffffffffffffffffffffffffffffffffffffffff16600260008373ffffffffffffffffffffffffffffffffffffffff1673ffffffffffffffffffffffffffffffffffffffff16815260200190815260200160002060009054906101000a900473ffffffffffffffffffffffffffffffffffffffff1673ffffffffffffffffffffffffffffffffffffffff16146129ce576129cd7f475332303400000000000000000000000000000000000000000000000000000061327a565b5b600073ffffffffffffffffffffffffffffffffffffffff168273ffffffffffffffffffffffffffffffffffffffff161480612a355750600173ffffffffffffffffffffffffffffffffffffffff168273ffffffffffffffffffffffffffffffffffffffff16145b15612a6457612a637f475332303300000000000000000000000000000000000000000000000000000061327a565b5b8173ffffffffffffffffffffffffffffffffffffffff16600260008573ffffffffffffffffffffffffffffffffffffffff1673ffffffffffffffffffffffffffffffffffffffff16815260200190815260200160002060009054906101000a900473ffffffffffffffffffffffffffffffffffffffff1673ffffffffffffffffffffffffffffffffffffffff1614612b2057612b1f7f475332303500000000000000000000000000000000000000000000000000000061327a565b5b600260008373ffffffffffffffffffffffffffffffffffffffff1673ffffffffffffffffffffffffffffffffffffffff16815260200190815260200160002060009054906101000a900473ffffffffffffffffffffffffffffffffffffffff16600260008373ffffffffffffffffffffffffffffffffffffffff1673ffffffffffffffffffffffffffffffffffffffff16815260200190815260200160002060006101000a81548173ffffffffffffffffffffffffffffffffffffffff021916908373ffffffffffffffffffffffffffffffffffffffff16021790555080600260008573ffffffffffffffffffffffffffffffffffffffff1673ffffffffffffffffffffffffffffffffffffffff16815260200190815260200160002060006101000a81548173ffffffffffffffffffffffffffffffffffffffff021916908373ffffffffffffffffffffffffffffffffffffffff1602179055506000600260008473ffffffffffffffffffffffffffffffffffffffff1673ffffffffffffffffffffffffffffffffffffffff16815260200190815260200160002060006101000a81548173ffffffffffffffffffffffffffffffffffffffff021916908373ffffffffffffffffffffffffffffffffffffffff1602179055508173ffffffffffffffffffffffffffffffffffffffff167ff8d49fc529812e9a7c5c50e69c20f0dccc0db8fa95c98bc58cc9a4f1c1299eaf60405160405180910390a28073ffffffffffffffffffffffffffffffffffffffff167f9465fa0c962cc76958e6373a993326400c1c94f8be2fe3a952adfa7f60b2ea2660405160405180910390a2505050565b6000600454905090565b612d9761321b565b612da081613e21565b8073ffffffffffffffffffffffffffffffffffffffff167f5ac6c46c93c8d0e53714ba3b53db3e7c046da994313d7ed0d192028bc7c228b060405160405180910390a250565b6000804690507f47e79534a245952e8b16893a336b85a3d9ea9fa8c573f3d803afb92a7946921860001b8130604051602001612e2493929190615626565b6040516020818303038152906040528051906020012091505090565b6000600454905060008103612e7957612e787f475330303100000000000000000000000000000000000000000000000000000061327a565b5b612e8584848484610bc8565b50505050565b612e9361321b565b80600360008154612ea39061565d565b9190508190551015612ed957612ed87f475332303100000000000000000000000000000000000000000000000000000061327a565b5b600073ffffffffffffffffffffffffffffffffffffffff168273ffffffffffffffffffffffffffffffffffffffff161480612f405750600173ffffffffffffffffffffffffffffffffffffffff168273ffffffffffffffffffffffffffffffffffffffff16145b15612f6f57612f6e7f475332303300000000000000000000000000000000000000000000000000000061327a565b5b8173ffffffffffffffffffffffffffffffffffffffff16600260008573ffffffffffffffffffffffffffffffffffffffff1673ffffffffffffffffffffffffffffffffffffffff16815260200190815260200160002060009054906101000a900473ffffffffffffffffffffffffffffffffffffffff1673ffffffffffffffffffffffffffffffffffffffff161461302b5761302a7f475332303500000000000000000000000000000000000000000000000000000061327a565b5b600260008373ffffffffffffffffffffffffffffffffffffffff1673ffffffffffffffffffffffffffffffffffffffff16815260200190815260200160002060009054906101000a900473ffffffffffffffffffffffffffffffffffffffff16600260008573ffffffffffffffffffffffffffffffffffffffff1673ffffffffffffffffffffffffffffffffffffffff16815260200190815260200160002060006101000a81548173ffffffffffffffffffffffffffffffffffffffff021916908373ffffffffffffffffffffffffffffffffffffffff1602179055506000600260008473ffffffffffffffffffffffffffffffffffffffff1673ffffffffffffffffffffffffffffffffffffffff16815260200190815260200160002060006101000a81548173ffffffffffffffffffffffffffffffffffffffff021916908373ffffffffffffffffffffffffffffffffffffffff1602179055508173ffffffffffffffffffffffffffffffffffffffff167ff8d49fc529812e9a7c5c50e69c20f0dccc0db8fa95c98bc58cc9a4f1c1299eaf60405160405180910390a280600454146131dd576131dc816115b9565b5b505050565b6040518060400160405280600581526020017f312e352e3000000000000000000000000000000000000000000000000000000081525081565b3073ffffffffffffffffffffffffffffffffffffffff163373ffffffffffffffffffffffffffffffffffffffff1614613278576132777f475330333100000000000000000000000000000000000000000000000000000061327a565b5b565b6040517f08c379a00000000000000000000000000000000000000000000000000000000081526020600482015260056024820152816044820152606481fd5b60008083036132cb57600090506132f7565b600082846132d99190615686565b90508284826132e891906153b6565b146132f257600080fd5b809150505b92915050565b6000806000836041026020810186015192506040810186015191506060810186015160001a9350509250925092565b81516133426020836140ae90919063ffffffff16565b1115613372576133717f475330323200000000000000000000000000000000000000000000000000000061327a565b5b600060208284010151905082516133a5826133976020866140ae90919063ffffffff16565b6140ae90919063ffffffff16565b11156133d5576133d47f475330323300000000000000000000000000000000000000000000000000000061327a565b5b60606020838501019050631626ba7e60e01b7bffffffffffffffffffffffffffffffffffffffffffffffffffffffff19168673ffffffffffffffffffffffffffffffffffffffff16631626ba7e87846040518363ffffffff1660e01b81526004016134419291906156c8565b602060405180830381865afa15801561345e573d6000803e3d6000fd5b505050506040513d601f19601f820116820180604052508101906134829190615724565b7bffffffffffffffffffffffffffffffffffffffffffffffffffffffff1916146134d0576134cf7f475330323400000000000000000000000000000000000000000000000000000061327a565b5b505050505050565b6000806134e7868686866140d6565b6134ef6140dc565b9150600173ffffffffffffffffffffffffffffffffffffffff163373ffffffffffffffffffffffffffffffffffffffff1614806135b75750600073ffffffffffffffffffffffffffffffffffffffff16600160003373ffffffffffffffffffffffffffffffffffffffff1673ffffffffffffffffffffffffffffffffffffffff16815260200190815260200160002060009054906101000a900473ffffffffffffffffffffffffffffffffffffffff1673ffffffffffffffffffffffffffffffffffffffff16145b156135e6576135e57f475331303400000000000000000000000000000000000000000000000000000061327a565b5b600073ffffffffffffffffffffffffffffffffffffffff168273ffffffffffffffffffffffffffffffffffffffff16146136a1578173ffffffffffffffffffffffffffffffffffffffff1663728c297287878787336040518663ffffffff1660e01b815260040161365b959493929190615751565b6020604051808303816000875af115801561367a573d6000803e3d6000fd5b505050506040513d601f19601f8201168201806040525081019061369e91906157c0565b90505b94509492505050565b60006001808111156136bf576136be615212565b5b8360018111156136d2576136d1615212565b5b036136ea576000808551602087018986f490506136fa565b600080855160208701888a87f190505b95945050505050565b600073ffffffffffffffffffffffffffffffffffffffff168373ffffffffffffffffffffffffffffffffffffffff16146137a5578273ffffffffffffffffffffffffffffffffffffffff16632acc37aa83836040518363ffffffff1660e01b81526004016137729291906153e7565b600060405180830381600087803b15801561378c57600080fd5b505af11580156137a0573d6000803e3d6000fd5b505050505b80156137f3573373ffffffffffffffffffffffffffffffffffffffff167f6895c13664aa4f67288b25d7a21d7aaa34916e355fb9b6fae0a139a9085becb860405160405180910390a2613837565b3373ffffffffffffffffffffffffffffffffffffffff167facd2c8702804128fdb0db2bb49f6d127dd0181c13fd45dbfe16de0930e2bd37560405160405180910390a25b505050565b5050505050505050505050565b60007f4a204f620c8c5ccdca3fd54d003badd85ba500436a431f0cbda4f558c93c34c854905090565b6000818310156138825781613884565b825b905092915050565b60008282111561389b57600080fd5b600082846138a99190615150565b90508091505092915050565b600080600073ffffffffffffffffffffffffffffffffffffffff168373ffffffffffffffffffffffffffffffffffffffff16146138f257826138f4565b325b9050600073ffffffffffffffffffffffffffffffffffffffff168473ffffffffffffffffffffffffffffffffffffffff1603613a005761395d3a861061393a573a61393c565b855b61394f888a6140ae90919063ffffffff16565b6132b990919063ffffffff16565b915060008173ffffffffffffffffffffffffffffffffffffffff16836040516139859061581e565b60006040518083038185875af1925050503d80600081146139c2576040519150601f19603f3d011682016040523d82523d6000602084013e6139c7565b606091505b50509050806139fa576139f97f475330313100000000000000000000000000000000000000000000000000000061327a565b5b50613a61565b613a2585613a17888a6140ae90919063ffffffff16565b6132b990919063ffffffff16565b9150613a3284828461410d565b613a6057613a5f7f475330313200000000000000000000000000000000000000000000000000000061327a565b5b5b5095945050505050565b60006004541115613aa057613a9f7f475332303000000000000000000000000000000000000000000000000000000061327a565b5b8151811115613ad357613ad27f475332303100000000000000000000000000000000000000000000000000000061327a565b5b60008103613b0557613b047f475332303200000000000000000000000000000000000000000000000000000061327a565b5b60006001905060008351905060005b81811015613d8d576000858281518110613b3157613b30615410565b5b60200260200101519050600073ffffffffffffffffffffffffffffffffffffffff168173ffffffffffffffffffffffffffffffffffffffff161480613ba25750600173ffffffffffffffffffffffffffffffffffffffff168173ffffffffffffffffffffffffffffffffffffffff16145b80613bd857503073ffffffffffffffffffffffffffffffffffffffff168173ffffffffffffffffffffffffffffffffffffffff16145b80613c0e57508073ffffffffffffffffffffffffffffffffffffffff168473ffffffffffffffffffffffffffffffffffffffff16145b15613c3d57613c3c7f475332303300000000000000000000000000000000000000000000000000000061327a565b5b600073ffffffffffffffffffffffffffffffffffffffff16600260008373ffffffffffffffffffffffffffffffffffffffff1673ffffffffffffffffffffffffffffffffffffffff16815260200190815260200160002060009054906101000a900473ffffffffffffffffffffffffffffffffffffffff1673ffffffffffffffffffffffffffffffffffffffff1614613cfa57613cf97f475332303400000000000000000000000000000000000000000000000000000061327a565b5b80600260008673ffffffffffffffffffffffffffffffffffffffff1673ffffffffffffffffffffffffffffffffffffffff16815260200190815260200160002060006101000a81548173ffffffffffffffffffffffffffffffffffffffff021916908373ffffffffffffffffffffffffffffffffffffffff1602179055508093505080613d869061506a565b9050613b14565b506001600260008473ffffffffffffffffffffffffffffffffffffffff1673ffffffffffffffffffffffffffffffffffffffff16815260200190815260200160002060006101000a81548173ffffffffffffffffffffffffffffffffffffffff021916908373ffffffffffffffffffffffffffffffffffffffff160217905550806003819055508260048190555050505050565b3073ffffffffffffffffffffffffffffffffffffffff168173ffffffffffffffffffffffffffffffffffffffff1603613e7e57613e7d7f475334303000000000000000000000000000000000000000000000000000000061327a565b5b807f6c9a6c4a39284e37ed1cf53d337577d14212a4870fb976a4366c693b939918d55550565b600073ffffffffffffffffffffffffffffffffffffffff1660016000600173ffffffffffffffffffffffffffffffffffffffff1673ffffffffffffffffffffffffffffffffffffffff16815260200190815260200160002060009054906101000a900473ffffffffffffffffffffffffffffffffffffffff1673ffffffffffffffffffffffffffffffffffffffff1614613f6257613f617f475331303000000000000000000000000000000000000000000000000000000061327a565b5b6001806000600173ffffffffffffffffffffffffffffffffffffffff1673ffffffffffffffffffffffffffffffffffffffff16815260200190815260200160002060006101000a81548173ffffffffffffffffffffffffffffffffffffffff021916908373ffffffffffffffffffffffffffffffffffffffff160217905550600073ffffffffffffffffffffffffffffffffffffffff168273ffffffffffffffffffffffffffffffffffffffff16146140aa5761401e826141b5565b61404c5761404b7f475330303200000000000000000000000000000000000000000000000000000061327a565b5b61407b8260008360017fffffffffffffffffffffffffffffffffffffffffffffffffffffffffffffffff6136aa565b6140a9576140a87f475330303000000000000000000000000000000000000000000000000000000061327a565b5b5b5050565b60008082846140bd9190615353565b9050838110156140cc57600080fd5b8091505092915050565b50505050565b6000807fb104e0b93118902c651344349b610029d694cfdec91c589c91ebafbcd028994760001b9050805491505090565b60008063a9059cbb8484604051602401614128929190615833565b6040516020818303038152906040529060e01b6020820180517bffffffffffffffffffffffffffffffffffffffffffffffffffffffff83818316178352505050509050602060008251602084016000896127105a03f13d6000811461419857602081146141a057600093506141ab565b8193506141ab565b600051158215171593505b5050509392505050565b600080823b905060008111915050919050565b6000819050919050565b6141db816141c8565b82525050565b60006020820190506141f660008301846141d2565b92915050565b6000604051905090565b600080fd5b600080fd5b600073ffffffffffffffffffffffffffffffffffffffff82169050919050565b600061423b82614210565b9050919050565b61424b81614230565b811461425657600080fd5b50565b60008135905061426881614242565b92915050565b614277816141c8565b811461428257600080fd5b50565b6000813590506142948161426e565b92915050565b600080604083850312156142b1576142b0614206565b5b60006142bf85828601614259565b92505060206142d085828601614285565b9150509250929050565b6000819050919050565b6142ed816142da565b81146142f857600080fd5b50565b60008135905061430a816142e4565b92915050565b600080fd5b600080fd5b600080fd5b60008083601f84011261433557614334614310565b5b8235905067ffffffffffffffff81111561435257614351614315565b5b60208301915083600182028301111561436e5761436d61431a565b5b9250929050565b600080fd5b6000601f19601f8301169050919050565b7f4e487b7100000000000000000000000000000000000000000000000000000000600052604160045260246000fd5b6143c38261437a565b810181811067ffffffffffffffff821117156143e2576143e161438b565b5b80604052505050565b60006143f56141fc565b905061440182826143ba565b919050565b600067ffffffffffffffff8211156144215761442061438b565b5b61442a8261437a565b9050602081019050919050565b82818337600083830152505050565b600061445961445484614406565b6143eb565b90508281526020810184848401111561447557614474614375565b5b614480848285614437565b509392505050565b600082601f83011261449d5761449c614310565b5b81356144ad848260208601614446565b91505092915050565b6000806000806000608086880312156144d2576144d1614206565b5b60006144e0888289016142fb565b955050602086013567ffffffffffffffff8111156145015761450061420b565b5b61450d8882890161431f565b9450945050604086013567ffffffffffffffff8111156145305761452f61420b565b5b61453c88828901614488565b925050606061454d88828901614285565b9150509295509295909350565b6000806000806080858703121561457457614573614206565b5b600061458287828801614259565b9450506020614593878288016142fb565b935050604085013567ffffffffffffffff8111156145b4576145b361420b565b5b6145c087828801614488565b92505060606145d187828801614285565b91505092959194509250565b6000602082840312156145f3576145f2614206565b5b600061460184828501614259565b91505092915050565b60008115159050919050565b61461f8161460a565b82525050565b600060208201905061463a6000830184614616565b92915050565b6002811061464d57600080fd5b50565b60008135905061465f81614640565b92915050565b6000806000806080858703121561467f5761467e614206565b5b600061468d87828801614259565b945050602061469e87828801614285565b935050604085013567ffffffffffffffff8111156146bf576146be61420b565b5b6146cb87828801614488565b92505060606146dc87828801614650565b91505092959194509250565b600081519050919050565b600082825260208201905092915050565b60005b83811015614722578082015181840152602081019050614707565b60008484015250505050565b6000614739826146e8565b61474381856146f3565b9350614753818560208601614704565b61475c8161437a565b840191505092915050565b600060408201905061477c6000830185614616565b818103602083015261478e818461472e565b90509392505050565b600080604083850312156147ae576147ad614206565b5b60006147bc85828601614285565b92505060206147cd85828601614285565b9150509250929050565b600060208201905081810360008301526147f1818461472e565b905092915050565b60006020828403121561480f5761480e614206565b5b600061481d848285016142fb565b91505092915050565b60006020828403121561483c5761483b614206565b5b600061484a84828501614285565b91505092915050565b600061485e82614210565b9050919050565b61486e81614853565b811461487957600080fd5b50565b60008135905061488b81614865565b92915050565b60008060008060008060008060008060006101408c8e0312156148b7576148b6614206565b5b60006148c58e828f01614259565b9b505060206148d68e828f01614285565b9a505060408c013567ffffffffffffffff8111156148f7576148f661420b565b5b6149038e828f0161431f565b995099505060606149168e828f01614650565b97505060806149278e828f01614285565b96505060a06149388e828f01614285565b95505060c06149498e828f01614285565b94505060e061495a8e828f01614259565b93505061010061496c8e828f0161487c565b9250506101208c013567ffffffffffffffff81111561498e5761498d61420b565b5b61499a8e828f01614488565b9150509295989b509295989b9093969950565b600080604083850312156149c4576149c3614206565b5b60006149d285828601614259565b92505060206149e3858286016142fb565b9150509250929050565b60008060008060608587031215614a0757614a06614206565b5b6000614a15878288016142fb565b945050602085013567ffffffffffffffff811115614a3657614a3561420b565b5b614a428782880161431f565b9350935050604085013567ffffffffffffffff811115614a6557614a6461420b565b5b614a7187828801614488565b91505092959194509250565b600081519050919050565b600082825260208201905092915050565b6000819050602082019050919050565b614ab281614230565b82525050565b6000614ac48383614aa9565b60208301905092915050565b6000602082019050919050565b6000614ae882614a7d565b614af28185614a88565b9350614afd83614a99565b8060005b83811015614b2e578151614b158882614ab8565b9750614b2083614ad0565b925050600181019050614b01565b5085935050505092915050565b60006020820190508181036000830152614b558184614add565b905092915050565b60008060408385031215614b7457614b73614206565b5b6000614b8285828601614259565b925050602083013567ffffffffffffffff811115614ba357614ba261420b565b5b614baf85828601614488565b9150509250929050565b60008083601f840112614bcf57614bce614310565b5b8235905067ffffffffffffffff811115614bec57614beb614315565b5b602083019150836020820283011115614c0857614c0761431a565b5b9250929050565b6000806000806000806000806000806101008b8d031215614c3357614c32614206565b5b60008b013567ffffffffffffffff811115614c5157614c5061420b565b5b614c5d8d828e01614bb9565b9a509a50506020614c708d828e01614285565b9850506040614c818d828e01614259565b97505060608b013567ffffffffffffffff811115614ca257614ca161420b565b5b614cae8d828e0161431f565b96509650506080614cc18d828e01614259565b94505060a0614cd28d828e01614259565b93505060c0614ce38d828e01614285565b92505060e0614cf48d828e0161487c565b9150509295989b9194979a5092959850565b614d0f81614230565b82525050565b60006040820190508181036000830152614d2f8185614add565b9050614d3e6020830184614d06565b9392505050565b60008060008060008060008060008060006101408c8e031215614d6b57614d6a614206565b5b6000614d798e828f01614259565b9b50506020614d8a8e828f01614285565b9a505060408c013567ffffffffffffffff811115614dab57614daa61420b565b5b614db78e828f0161431f565b99509950506060614dca8e828f01614650565b9750506080614ddb8e828f01614285565b96505060a0614dec8e828f01614285565b95505060c0614dfd8e828f01614285565b94505060e0614e0e8e828f01614259565b935050610100614e208e828f01614259565b925050610120614e328e828f01614285565b9150509295989b509295989b9093969950565b614e4e816142da565b82525050565b6000602082019050614e696000830184614e45565b92915050565b60008060408385031215614e8657614e85614206565b5b6000614e9485828601614259565b9250506020614ea585828601614259565b9150509250929050565b600080600060608486031215614ec857614ec7614206565b5b6000614ed686828701614259565b9350506020614ee786828701614259565b9250506040614ef886828701614259565b9150509250925092565b600080600060608486031215614f1b57614f1a614206565b5b6000614f2986828701614259565b9350506020614f3a868287016142fb565b925050604084013567ffffffffffffffff811115614f5b57614f5a61420b565b5b614f6786828701614488565b9150509250925092565b600080600060608486031215614f8a57614f89614206565b5b6000614f9886828701614259565b9350506020614fa986828701614259565b9250506040614fba86828701614285565b9150509250925092565b600081519050919050565b600082825260208201905092915050565b6000614feb82614fc4565b614ff58185614fcf565b9350615005818560208601614704565b61500e8161437a565b840191505092915050565b600060208201905081810360008301526150338184614fe0565b905092915050565b7f4e487b7100000000000000000000000000000000000000000000000000000000600052601160045260246000fd5b6000615075826141c8565b91507fffffffffffffffffffffffffffffffffffffffffffffffffffffffffffffffff82036150a7576150a661503b565b5b600182019050919050565b600081905092915050565b7f19457468657265756d205369676e6564204d6573736167653a0a333200000000600082015250565b60006150f3601c836150b2565b91506150fe826150bd565b601c82019050919050565b6000819050919050565b61512461511f826142da565b615109565b82525050565b6000615135826150e6565b91506151418284615113565b60208201915081905092915050565b600061515b826141c8565b9150615166836141c8565b925082820390508181111561517e5761517d61503b565b5b92915050565b600060ff82169050919050565b61519a81615184565b82525050565b60006080820190506151b56000830187614e45565b6151c26020830186615191565b6151cf6040830185614e45565b6151dc6060830184614e45565b95945050505050565b60006151f183856146f3565b93506151fe838584614437565b6152078361437a565b840190509392505050565b7f4e487b7100000000000000000000000000000000000000000000000000000000600052602160045260246000fd5b6002811061525257615251615212565b5b50565b600081905061526382615241565b919050565b600061527382615255565b9050919050565b61528381615268565b82525050565b61529281614853565b82525050565b6000610160820190506152ae600083018f614d06565b6152bb602083018e6141d2565b81810360408301526152ce818c8e6151e5565b90506152dd606083018b61527a565b6152ea608083018a6141d2565b6152f760a08301896141d2565b61530460c08301886141d2565b61531160e0830187614d06565b61531f610100830186615289565b818103610120830152615332818561472e565b9050615342610140830184614d06565b9d9c50505050505050505050505050565b600061535e826141c8565b9150615369836141c8565b92508282019050808211156153815761538061503b565b5b92915050565b7f4e487b7100000000000000000000000000000000000000000000000000000000600052601260045260246000fd5b60006153c1826141c8565b91506153cc836141c8565b9250826153dc576153db615387565b5b828204905092915050565b60006040820190506153fc6000830185614e45565b6154096020830184614616565b9392505050565b7f4e487b7100000000000000000000000000000000000000000000000000000000600052603260045260246000fd5b6000819050919050565b60006154586020840184614259565b905092915050565b6000602082019050919050565b60006154798385614a88565b93506154848261543f565b8060005b858110156154bd5761549a8284615449565b6154a48882614ab8565b97506154af83615460565b925050600181019050615488565b5085925050509392505050565b600060808201905081810360008301526154e581878961546d565b90506154f460208301866141d2565b6155016040830185614d06565b61550e6060830184614d06565b9695505050505050565b60007fffffffff0000000000000000000000000000000000000000000000000000000082169050919050565b61554d81615518565b82525050565b60006020820190506155686000830184615544565b92915050565b6155778161460a565b811461558257600080fd5b50565b6000815190506155948161556e565b92915050565b6000602082840312156155b0576155af614206565b5b60006155be84828501615585565b91505092915050565b6000819050919050565b60006155ec6155e76155e284614210565b6155c7565b614210565b9050919050565b60006155fe826155d1565b9050919050565b6000615610826155f3565b9050919050565b61562081615605565b82525050565b600060608201905061563b6000830186614e45565b61564860208301856141d2565b6156556040830184615617565b949350505050565b6000615668826141c8565b91506000820361567b5761567a61503b565b5b600182039050919050565b6000615691826141c8565b915061569c836141c8565b92508282026156aa816141c8565b915082820484148315176156c1576156c061503b565b5b5092915050565b60006040820190506156dd6000830185614e45565b81810360208301526156ef818461472e565b90509392505050565b61570181615518565b811461570c57600080fd5b50565b60008151905061571e816156f8565b92915050565b60006020828403121561573a57615739614206565b5b60006157488482850161570f565b91505092915050565b600060a0820190506157666000830188614d06565b61577360208301876141d2565b8181036040830152615785818661472e565b9050615794606083018561527a565b6157a16080830184614d06565b9695505050505050565b6000815190506157ba816142e4565b92915050565b6000602082840312156157d6576157d5614206565b5b60006157e4848285016157ab565b91505092915050565b600081905092915050565b50565b60006158086000836157ed565b9150615813826157f8565b600082019050919050565b6000615829826157fb565b9150819050919050565b60006040820190506158486000830185614d06565b61585560208301846141d2565b939250505056fea264697066735822122054bd8a2cd11c7ad5e289e43233a04c5b78df175cf32cedd3abc670ec783e74df64736f6c63430008140033",
  "linkReferences": {},
  "deployedLinkReferences": {}
}