{
  "_format": "hh-sol-artifact-1",
  "contractName": "SafeL2",
  "sourceName": "contracts/SafeL2.sol",
  "abi": [
    {
      "anonymous": false,
      "inputs": [
        {
          "indexed": true,
          "internalType": "address",
          "name": "owner",
          "type": "address"
        }
      ],
      "name": "AddedOwner",
      "type": "event"
    },
    {
      "anonymous": false,
      "inputs": [
        {
          "indexed": true,
          "internalType": "bytes32",
          "name": "approvedHash",
          "type": "bytes32"
        },
        {
          "indexed": true,
          "internalType": "address",
          "name": "owner",
          "type": "address"
        }
      ],
      "name": "ApproveHash",
      "type": "event"
    },
    {
      "anonymous": false,
      "inputs": [
        {
          "indexed": true,
          "internalType": "address",
          "name": "handler",
          "type": "address"
        }
      ],
      "name": "ChangedFallbackHandler",
      "type": "event"
    },
    {
      "anonymous": false,
      "inputs": [
        {
          "indexed": true,
          "internalType": "address",
          "name": "guard",
          "type": "address"
        }
      ],
      "name": "ChangedGuard",
      "type": "event"
    },
    {
      "anonymous": false,
      "inputs": [
        {
          "indexed": true,
          "internalType": "address",
          "name": "moduleGuard",
          "type": "address"
        }
      ],
      "name": "ChangedModuleGuard",
      "type": "event"
    },
    {
      "anonymous": false,
      "inputs": [
        {
          "indexed": false,
          "internalType": "uint256",
          "name": "threshold",
          "type": "uint256"
        }
      ],
      "name": "ChangedThreshold",
      "type": "event"
    },
    {
      "anonymous": false,
      "inputs": [
        {
          "indexed": true,
          "internalType": "address",
          "name": "module",
          "type": "address"
        }
      ],
      "name": "DisabledModule",
      "type": "event"
    },
    {
      "anonymous": false,
      "inputs": [
        {
          "indexed": true,
          "internalType": "address",
          "name": "module",
          "type": "address"
        }
      ],
      "name": "EnabledModule",
      "type": "event"
    },
    {
      "anonymous": false,
      "inputs": [
        {
          "indexed": true,
          "internalType": "bytes32",
          "name": "txHash",
          "type": "bytes32"
        },
        {
          "indexed": false,
          "internalType": "uint256",
          "name": "payment",
          "type": "uint256"
        }
      ],
      "name": "ExecutionFailure",
      "type": "event"
    },
    {
      "anonymous": false,
      "inputs": [
        {
          "indexed": true,
          "internalType": "address",
          "name": "module",
          "type": "address"
        }
      ],
      "name": "ExecutionFromModuleFailure",
      "type": "event"
    },
    {
      "anonymous": false,
      "inputs": [
        {
          "indexed": true,
          "internalType": "address",
          "name": "module",
          "type": "address"
        }
      ],
      "name": "ExecutionFromModuleSuccess",
      "type": "event"
    },
    {
      "anonymous": false,
      "inputs": [
        {
          "indexed": true,
          "internalType": "bytes32",
          "name": "txHash",
          "type": "bytes32"
        },
        {
          "indexed": false,
          "internalType": "uint256",
          "name": "payment",
          "type": "uint256"
        }
      ],
      "name": "ExecutionSuccess",
      "type": "event"
    },
    {
      "anonymous": false,
      "inputs": [
        {
          "indexed": true,
          "internalType": "address",
          "name": "owner",
          "type": "address"
        }
      ],
      "name": "RemovedOwner",
      "type": "event"
    },
    {
      "anonymous": false,
      "inputs": [
        {
          "indexed": false,
          "internalType": "address",
          "name": "module",
          "type": "address"
        },
        {
          "indexed": false,
          "internalType": "address",
          "name": "to",
          "type": "address"
        },
        {
          "indexed": false,
          "internalType": "uint256",
          "name": "value",
          "type": "uint256"
        },
        {
          "indexed": false,
          "internalType": "bytes",
          "name": "data",
          "type": "bytes"
        },
        {
          "indexed": false,
          "internalType": "enum Enum.Operation",
          "name": "operation",
          "type": "uint8"
        }
      ],
      "name": "SafeModuleTransaction",
      "type": "event"
    },
    {
      "anonymous": false,
      "inputs": [
        {
          "indexed": false,
          "internalType": "address",
          "name": "to",
          "type": "address"
        },
        {
          "indexed": false,
          "internalType": "uint256",
          "name": "value",
          "type": "uint256"
        },
        {
          "indexed": false,
          "internalType": "bytes",
          "name": "data",
          "type": "bytes"
        },
        {
          "indexed": false,
          "internalType": "enum Enum.Operation",
          "name": "operation",
          "type": "uint8"
        },
        {
          "indexed": false,
          "internalType": "uint256",
          "name": "safeTxGas",
          "type": "uint256"
        },
        {
          "indexed": false,
          "internalType": "uint256",
          "name": "baseGas",
          "type": "uint256"
        },
        {
          "indexed": false,
          "internalType": "uint256",
          "name": "gasPrice",
          "type": "uint256"
        },
        {
          "indexed": false,
          "internalType": "address",
          "name": "gasToken",
          "type": "address"
        },
        {
          "indexed": false,
          "internalType": "address payable",
          "name": "refundReceiver",
          "type": "address"
        },
        {
          "indexed": false,
          "internalType": "bytes",
          "name": "signatures",
          "type": "bytes"
        },
        {
          "indexed": false,
          "internalType": "bytes",
          "name": "additionalInfo",
          "type": "bytes"
        }
      ],
      "name": "SafeMultiSigTransaction",
      "type": "event"
    },
    {
      "anonymous": false,
      "inputs": [
        {
          "indexed": true,
          "internalType": "address",
          "name": "sender",
          "type": "address"
        },
        {
          "indexed": false,
          "internalType": "uint256",
          "name": "value",
          "type": "uint256"
        }
      ],
      "name": "SafeReceived",
      "type": "event"
    },
    {
      "anonymous": false,
      "inputs": [
        {
          "indexed": true,
          "internalType": "address",
          "name": "initiator",
          "type": "address"
        },
        {
          "indexed": false,
          "internalType": "address[]",
          "name": "owners",
          "type": "address[]"
        },
        {
          "indexed": false,
          "internalType": "uint256",
          "name": "threshold",
          "type": "uint256"
        },
        {
          "indexed": false,
          "internalType": "address",
          "name": "initializer",
          "type": "address"
        },
        {
          "indexed": false,
          "internalType": "address",
          "name": "fallbackHandler",
          "type": "address"
        }
      ],
      "name": "SafeSetup",
      "type": "event"
    },
    {
      "anonymous": false,
      "inputs": [
        {
          "indexed": true,
          "internalType": "bytes32",
          "name": "msgHash",
          "type": "bytes32"
        }
      ],
      "name": "SignMsg",
      "type": "event"
    },
    {
      "stateMutability": "nonpayable",
      "type": "fallback"
    },
    {
      "inputs": [],
      "name": "VERSION",
      "outputs": [
        {
          "internalType": "string",
          "name": "",
          "type": "string"
        }
      ],
      "stateMutability": "view",
      "type": "function"
    },
    {
      "inputs": [
        {
          "internalType": "address",
          "name": "owner",
          "type": "address"
        },
        {
          "internalType": "uint256",
          "name": "_threshold",
          "type": "uint256"
        }
      ],
      "name": "addOwnerWithThreshold",
      "outputs": [],
      "stateMutability": "nonpayable",
      "type": "function"
    },
    {
      "inputs": [
        {
          "internalType": "bytes32",
          "name": "hashToApprove",
          "type": "bytes32"
        }
      ],
      "name": "approveHash",
      "outputs": [],
      "stateMutability": "nonpayable",
      "type": "function"
    },
    {
      "inputs": [
        {
          "internalType": "address",
          "name": "",
          "type": "address"
        },
        {
          "internalType": "bytes32",
          "name": "",
          "type": "bytes32"
        }
      ],
      "name": "approvedHashes",
      "outputs": [
        {
          "internalType": "uint256",
          "name": "",
          "type": "uint256"
        }
      ],
      "stateMutability": "view",
      "type": "function"
    },
    {
      "inputs": [
        {
          "internalType": "uint256",
          "name": "_threshold",
          "type": "uint256"
        }
      ],
      "name": "changeThreshold",
      "outputs": [],
      "stateMutability": "nonpayable",
      "type": "function"
    },
    {
      "inputs": [
        {
          "internalType": "bytes32",
          "name": "dataHash",
          "type": "bytes32"
        },
        {
          "internalType": "bytes",
          "name": "data",
          "type": "bytes"
        },
        {
          "internalType": "bytes",
          "name": "signatures",
          "type": "bytes"
        },
        {
          "internalType": "uint256",
          "name": "requiredSignatures",
          "type": "uint256"
        }
      ],
      "name": "checkNSignatures",
      "outputs": [],
      "stateMutability": "view",
      "type": "function"
    },
    {
      "inputs": [
        {
          "internalType": "address",
          "name": "executor",
          "type": "address"
        },
        {
          "internalType": "bytes32",
          "name": "dataHash",
          "type": "bytes32"
        },
        {
          "internalType": "bytes",
          "name": "signatures",
          "type": "bytes"
        },
        {
          "internalType": "uint256",
          "name": "requiredSignatures",
          "type": "uint256"
        }
      ],
      "name": "checkNSignatures",
      "outputs": [],
      "stateMutability": "view",
      "type": "function"
    },
    {
      "inputs": [
        {
          "internalType": "bytes32",
          "name": "dataHash",
          "type": "bytes32"
        },
        {
          "internalType": "bytes",
          "name": "data",
          "type": "bytes"
        },
        {
          "internalType": "bytes",
          "name": "signatures",
          "type": "bytes"
        }
      ],
      "name": "checkSignatures",
      "outputs": [],
      "stateMutability": "view",
      "type": "function"
    },
    {
      "inputs": [
        {
          "internalType": "address",
          "name": "executor",
          "type": "address"
        },
        {
          "internalType": "bytes32",
          "name": "dataHash",
          "type": "bytes32"
        },
        {
          "internalType": "bytes",
          "name": "signatures",
          "type": "bytes"
        }
      ],
      "name": "checkSignatures",
      "outputs": [],
      "stateMutability": "view",
      "type": "function"
    },
    {
      "inputs": [
        {
          "internalType": "address",
          "name": "prevModule",
          "type": "address"
        },
        {
          "internalType": "address",
          "name": "module",
          "type": "address"
        }
      ],
      "name": "disableModule",
      "outputs": [],
      "stateMutability": "nonpayable",
      "type": "function"
    },
    {
      "inputs": [],
      "name": "domainSeparator",
      "outputs": [
        {
          "internalType": "bytes32",
          "name": "",
          "type": "bytes32"
        }
      ],
      "stateMutability": "view",
      "type": "function"
    },
    {
      "inputs": [
        {
          "internalType": "address",
          "name": "module",
          "type": "address"
        }
      ],
      "name": "enableModule",
      "outputs": [],
      "stateMutability": "nonpayable",
      "type": "function"
    },
    {
      "inputs": [
        {
          "internalType": "address",
          "name": "to",
          "type": "address"
        },
        {
          "internalType": "uint256",
          "name": "value",
          "type": "uint256"
        },
        {
          "internalType": "bytes",
          "name": "data",
          "type": "bytes"
        },
        {
          "internalType": "enum Enum.Operation",
          "name": "operation",
          "type": "uint8"
        },
        {
          "internalType": "uint256",
          "name": "safeTxGas",
          "type": "uint256"
        },
        {
          "internalType": "uint256",
          "name": "baseGas",
          "type": "uint256"
        },
        {
          "internalType": "uint256",
          "name": "gasPrice",
          "type": "uint256"
        },
        {
          "internalType": "address",
          "name": "gasToken",
          "type": "address"
        },
        {
          "internalType": "address payable",
          "name": "refundReceiver",
          "type": "address"
        },
        {
          "internalType": "bytes",
          "name": "signatures",
          "type": "bytes"
        }
      ],
      "name": "execTransaction",
      "outputs": [
        {
          "internalType": "bool",
          "name": "success",
          "type": "bool"
        }
      ],
      "stateMutability": "payable",
      "type": "function"
    },
    {
      "inputs": [
        {
          "internalType": "address",
          "name": "to",
          "type": "address"
        },
        {
          "internalType": "uint256",
          "name": "value",
          "type": "uint256"
        },
        {
          "internalType": "bytes",
          "name": "data",
          "type": "bytes"
        },
        {
          "internalType": "enum Enum.Operation",
          "name": "operation",
          "type": "uint8"
        }
      ],
      "name": "execTransactionFromModule",
      "outputs": [
        {
          "internalType": "bool",
          "name": "success",
          "type": "bool"
        }
      ],
      "stateMutability": "nonpayable",
      "type": "function"
    },
    {
      "inputs": [
        {
          "internalType": "address",
          "name": "to",
          "type": "address"
        },
        {
          "internalType": "uint256",
          "name": "value",
          "type": "uint256"
        },
        {
          "internalType": "bytes",
          "name": "data",
          "type": "bytes"
        },
        {
          "internalType": "enum Enum.Operation",
          "name": "operation",
          "type": "uint8"
        }
      ],
      "name": "execTransactionFromModuleReturnData",
      "outputs": [
        {
          "internalType": "bool",
          "name": "success",
          "type": "bool"
        },
        {
          "internalType": "bytes",
          "name": "returnData",
          "type": "bytes"
        }
      ],
      "stateMutability": "nonpayable",
      "type": "function"
    },
    {
      "inputs": [
        {
          "internalType": "address",
          "name": "start",
          "type": "address"
        },
        {
          "internalType": "uint256",
          "name": "pageSize",
          "type": "uint256"
        }
      ],
      "name": "getModulesPaginated",
      "outputs": [
        {
          "internalType": "address[]",
          "name": "array",
          "type": "address[]"
        },
        {
          "internalType": "address",
          "name": "next",
          "type": "address"
        }
      ],
      "stateMutability": "view",
      "type": "function"
    },
    {
      "inputs": [],
      "name": "getOwners",
      "outputs": [
        {
          "internalType": "address[]",
          "name": "",
          "type": "address[]"
        }
      ],
      "stateMutability": "view",
      "type": "function"
    },
    {
      "inputs": [
        {
          "internalType": "uint256",
          "name": "offset",
          "type": "uint256"
        },
        {
          "internalType": "uint256",
          "name": "length",
          "type": "uint256"
        }
      ],
      "name": "getStorageAt",
      "outputs": [
        {
          "internalType": "bytes",
          "name": "",
          "type": "bytes"
        }
      ],
      "stateMutability": "view",
      "type": "function"
    },
    {
      "inputs": [],
      "name": "getThreshold",
      "outputs": [
        {
          "internalType": "uint256",
          "name": "",
          "type": "uint256"
        }
      ],
      "stateMutability": "view",
      "type": "function"
    },
    {
      "inputs": [
        {
          "internalType": "address",
          "name": "to",
          "type": "address"
        },
        {
          "internalType": "uint256",
          "name": "value",
          "type": "uint256"
        },
        {
          "internalType": "bytes",
          "name": "data",
          "type": "bytes"
        },
        {
          "internalType": "enum Enum.Operation",
          "name": "operation",
          "type": "uint8"
        },
        {
          "internalType": "uint256",
          "name": "safeTxGas",
          "type": "uint256"
        },
        {
          "internalType": "uint256",
          "name": "baseGas",
          "type": "uint256"
        },
        {
          "internalType": "uint256",
          "name": "gasPrice",
          "type": "uint256"
        },
        {
          "internalType": "address",
          "name": "gasToken",
          "type": "address"
        },
        {
          "internalType": "address",
          "name": "refundReceiver",
          "type": "address"
        },
        {
          "internalType": "uint256",
          "name": "_nonce",
          "type": "uint256"
        }
      ],
      "name": "getTransactionHash",
      "outputs": [
        {
          "internalType": "bytes32",
          "name": "txHash",
          "type": "bytes32"
        }
      ],
      "stateMutability": "view",
      "type": "function"
    },
    {
      "inputs": [
        {
          "internalType": "address",
          "name": "module",
          "type": "address"
        }
      ],
      "name": "isModuleEnabled",
      "outputs": [
        {
          "internalType": "bool",
          "name": "",
          "type": "bool"
        }
      ],
      "stateMutability": "view",
      "type": "function"
    },
    {
      "inputs": [
        {
          "internalType": "address",
          "name": "owner",
          "type": "address"
        }
      ],
      "name": "isOwner",
      "outputs": [
        {
          "internalType": "bool",
          "name": "",
          "type": "bool"
        }
      ],
      "stateMutability": "view",
      "type": "function"
    },
    {
      "inputs": [],
      "name": "nonce",
      "outputs": [
        {
          "internalType": "uint256",
          "name": "",
          "type": "uint256"
        }
      ],
      "stateMutability": "view",
      "type": "function"
    },
    {
      "inputs": [
        {
          "internalType": "address",
          "name": "prevOwner",
          "type": "address"
        },
        {
          "internalType": "address",
          "name": "owner",
          "type": "address"
        },
        {
          "internalType": "uint256",
          "name": "_threshold",
          "type": "uint256"
        }
      ],
      "name": "removeOwner",
      "outputs": [],
      "stateMutability": "nonpayable",
      "type": "function"
    },
    {
      "inputs": [
        {
          "internalType": "address",
          "name": "handler",
          "type": "address"
        }
      ],
      "name": "setFallbackHandler",
      "outputs": [],
      "stateMutability": "nonpayable",
      "type": "function"
    },
    {
      "inputs": [
        {
          "internalType": "address",
          "name": "guard",
          "type": "address"
        }
      ],
      "name": "setGuard",
      "outputs": [],
      "stateMutability": "nonpayable",
      "type": "function"
    },
    {
      "inputs": [
        {
          "internalType": "address",
          "name": "moduleGuard",
          "type": "address"
        }
      ],
      "name": "setModuleGuard",
      "outputs": [],
      "stateMutability": "nonpayable",
      "type": "function"
    },
    {
      "inputs": [
        {
          "internalType": "address[]",
          "name": "_owners",
          "type": "address[]"
        },
        {
          "internalType": "uint256",
          "name": "_threshold",
          "type": "uint256"
        },
        {
          "internalType": "address",
          "name": "to",
          "type": "address"
        },
        {
          "internalType": "bytes",
          "name": "data",
          "type": "bytes"
        },
        {
          "internalType": "address",
          "name": "fallbackHandler",
          "type": "address"
        },
        {
          "internalType": "address",
          "name": "paymentToken",
          "type": "address"
        },
        {
          "internalType": "uint256",
          "name": "payment",
          "type": "uint256"
        },
        {
          "internalType": "address payable",
          "name": "paymentReceiver",
          "type": "address"
        }
      ],
      "name": "setup",
      "outputs": [],
      "stateMutability": "nonpayable",
      "type": "function"
    },
    {
      "inputs": [
        {
          "internalType": "bytes32",
          "name": "",
          "type": "bytes32"
        }
      ],
      "name": "signedMessages",
      "outputs": [
        {
          "internalType": "uint256",
          "name": "",
          "type": "uint256"
        }
      ],
      "stateMutability": "view",
      "type": "function"
    },
    {
      "inputs": [
        {
          "internalType": "address",
          "name": "targetContract",
          "type": "address"
        },
        {
          "internalType": "bytes",
          "name": "calldataPayload",
          "type": "bytes"
        }
      ],
      "name": "simulateAndRevert",
      "outputs": [],
      "stateMutability": "nonpayable",
      "type": "function"
    },
    {
      "inputs": [
        {
          "internalType": "address",
          "name": "prevOwner",
          "type": "address"
        },
        {
          "internalType": "address",
          "name": "oldOwner",
          "type": "address"
        },
        {
          "internalType": "address",
          "name": "newOwner",
          "type": "address"
        }
      ],
      "name": "swapOwner",
      "outputs": [],
      "stateMutability": "nonpayable",
      "type": "function"
    },
    {
      "stateMutability": "payable",
      "type": "receive"
    }
  ],
  "bytecode": "0x608060405234801561001057600080fd5b506001600481905550615a9e80620000296000396000f3fe6080604052600436106101dc5760003560e01c8063affed0e011610102578063e19a9dd911610095578063f698da2511610064578063f698da25146107af578063f855438b146107da578063f8dc5dd914610803578063ffa1ad741461082c57610231565b8063e19a9dd914610709578063e318b52b14610732578063e75235b81461075b578063f08a03231461078657610231565b8063d4d9bdcd116100d1578063d4d9bdcd14610651578063d8d11f781461067a578063e009cfde146106b7578063e068df37146106e057610231565b8063affed0e014610596578063b4faba09146105c1578063b63e800d146105ea578063cc2f84521461061357610231565b80635624b25b1161017a5780636a761202116101495780636a761202146104d55780637d83297414610505578063934f3a1114610542578063a0e67e2b1461056b57610231565b80635624b25b146104095780635ae6bd3714610446578063610b592514610483578063694e80c3146104ac57610231565b80632d9ad53d116101b65780632d9ad53d146103145780632f54bf6e14610351578063468721a71461038e5780635229073f146103cb57610231565b80630d582f131461029957806312fb68e0146102c25780631fcac7f3146102eb57610231565b36610231573373ffffffffffffffffffffffffffffffffffffffff167f3d0ce9bfc3ed7d6862dbb28b2dea94561fe714a1b4d019aa8af39730d1ad7c3d34604051610227919061429a565b60405180910390a2005b34801561023d57600080fd5b507f6c9a6c4a39284e37ed1cf53d337577d14212a4870fb976a4366c693b939918d5548061026a57600080f35b60405136600082373360601b3682015260008060143601836000865af13d6000833e80610295573d82fd5b3d82f35b3480156102a557600080fd5b506102c060048036038101906102bb9190614353565b610857565b005b3480156102ce57600080fd5b506102e960048036038101906102e4919061456f565b610bb5565b005b3480156102f757600080fd5b50610312600480360381019061030d9190614613565b610bc8565b005b34801561032057600080fd5b5061033b60048036038101906103369190614696565b610fa5565b60405161034891906146de565b60405180910390f35b34801561035d57600080fd5b5061037860048036038101906103739190614696565b611077565b60405161038591906146de565b60405180910390f35b34801561039a57600080fd5b506103b560048036038101906103b0919061471e565b611147565b6040516103c291906146de565b60405180910390f35b3480156103d757600080fd5b506103f260048036038101906103ed919061471e565b6111a0565b604051610400929190614820565b60405180910390f35b34801561041557600080fd5b50610430600480360381019061042b9190614850565b611215565b60405161043d9190614890565b60405180910390f35b34801561045257600080fd5b5061046d600480360381019061046891906148b2565b6112a3565b60405161047a919061429a565b60405180910390f35b34801561048f57600080fd5b506104aa60048036038101906104a59190614696565b6112bb565b005b3480156104b857600080fd5b506104d360048036038101906104ce91906148df565b6115b9565b005b6104ef60048036038101906104ea919061494a565b611668565b6040516104fc91906146de565b60405180910390f35b34801561051157600080fd5b5061052c60048036038101906105279190614a66565b6119e4565b604051610539919061429a565b60405180910390f35b34801561054e57600080fd5b5061056960048036038101906105649190614aa6565b611a09565b005b34801561057757600080fd5b50610580611a1a565b60405161058d9190614bf4565b60405180910390f35b3480156105a257600080fd5b506105ab611bd0565b6040516105b8919061429a565b60405180910390f35b3480156105cd57600080fd5b506105e860048036038101906105e39190614c16565b611bd6565b005b3480156105f657600080fd5b50610611600480360381019061060c9190614cc8565b611bfd565b005b34801561061f57600080fd5b5061063a60048036038101906106359190614353565b611d50565b604051610648929190614dce565b60405180910390f35b34801561065d57600080fd5b50610678600480360381019061067391906148b2565b61204c565b005b34801561068657600080fd5b506106a1600480360381019061069c9190614dfe565b6121a6565b6040516106ae9190614f0d565b60405180910390f35b3480156106c357600080fd5b506106de60048036038101906106d99190614f28565b61224f565b005b3480156106ec57600080fd5b5061070760048036038101906107029190614696565b61254c565b005b34801561071557600080fd5b50610730600480360381019061072b9190614696565b6126c9565b005b34801561073e57600080fd5b5061075960048036038101906107549190614f68565b61283d565b005b34801561076757600080fd5b50610770612d85565b60405161077d919061429a565b60405180910390f35b34801561079257600080fd5b506107ad60048036038101906107a89190614696565b612d8f565b005b3480156107bb57600080fd5b506107c4612de6565b6040516107d19190614f0d565b60405180910390f35b3480156107e657600080fd5b5061080160048036038101906107fc9190614fbb565b612e40565b005b34801561080f57600080fd5b5061082a6004803603810190610825919061502a565b612e8b565b005b34801561083857600080fd5b506108416131e2565b60405161084e91906150d2565b60405180910390f35b61085f61321b565b600073ffffffffffffffffffffffffffffffffffffffff168273ffffffffffffffffffffffffffffffffffffffff1614806108c65750600173ffffffffffffffffffffffffffffffffffffffff168273ffffffffffffffffffffffffffffffffffffffff16145b806108fc57503073ffffffffffffffffffffffffffffffffffffffff168273ffffffffffffffffffffffffffffffffffffffff16145b1561092b5761092a7f475332303300000000000000000000000000000000000000000000000000000061327a565b5b600073ffffffffffffffffffffffffffffffffffffffff16600260008473ffffffffffffffffffffffffffffffffffffffff1673ffffffffffffffffffffffffffffffffffffffff16815260200190815260200160002060009054906101000a900473ffffffffffffffffffffffffffffffffffffffff1673ffffffffffffffffffffffffffffffffffffffff16146109e8576109e77f475332303400000000000000000000000000000000000000000000000000000061327a565b5b60026000600173ffffffffffffffffffffffffffffffffffffffff1673ffffffffffffffffffffffffffffffffffffffff16815260200190815260200160002060009054906101000a900473ffffffffffffffffffffffffffffffffffffffff16600260008473ffffffffffffffffffffffffffffffffffffffff1673ffffffffffffffffffffffffffffffffffffffff16815260200190815260200160002060006101000a81548173ffffffffffffffffffffffffffffffffffffffff021916908373ffffffffffffffffffffffffffffffffffffffff1602179055508160026000600173ffffffffffffffffffffffffffffffffffffffff1673ffffffffffffffffffffffffffffffffffffffff16815260200190815260200160002060006101000a81548173ffffffffffffffffffffffffffffffffffffffff021916908373ffffffffffffffffffffffffffffffffffffffff160217905550600360008154610b5490615123565b919050819055508173ffffffffffffffffffffffffffffffffffffffff167f9465fa0c962cc76958e6373a993326400c1c94f8be2fe3a952adfa7f60b2ea2660405160405180910390a28060045414610bb157610bb0816115b9565b5b5050565b610bc133868484610bc8565b5050505050565b610bdc6041826132b990919063ffffffff16565b82511015610c0e57610c0d7f475330323000000000000000000000000000000000000000000000000000000061327a565b5b6000808060008060005b86811015610f9957610c2a88826132fd565b8260ff16925080945081955082965050505060008403610ca6578260001c9450610c5e6041886132b990919063ffffffff16565b8260001c1015610c9257610c917f475330323100000000000000000000000000000000000000000000000000000061327a565b5b610ca1858a8a8560001c61332c565b610e59565b60018403610d74578260001c94508473ffffffffffffffffffffffffffffffffffffffff168a73ffffffffffffffffffffffffffffffffffffffff1614158015610d4057506000600860008773ffffffffffffffffffffffffffffffffffffffff1673ffffffffffffffffffffffffffffffffffffffff16815260200190815260200160002060008b815260200190815260200160002054145b15610d6f57610d6e7f475330323500000000000000000000000000000000000000000000000000000061327a565b5b610e58565b601e841115610e0557600189604051602001610d9091906151e3565b60405160208183030381529060405280519060200120600486610db39190615209565b858560405160008152602001604052604051610dd29493929190615259565b6020604051602081039080840390855afa158015610df4573d6000803e3d6000fd5b505050602060405103519450610e57565b60018985858560405160008152602001604052604051610e289493929190615259565b6020604051602081039080840390855afa158015610e4a573d6000803e3d6000fd5b5050506020604051035194505b5b5b8573ffffffffffffffffffffffffffffffffffffffff168573ffffffffffffffffffffffffffffffffffffffff16111580610f1f5750600073ffffffffffffffffffffffffffffffffffffffff16600260008773ffffffffffffffffffffffffffffffffffffffff1673ffffffffffffffffffffffffffffffffffffffff16815260200190815260200160002060009054906101000a900473ffffffffffffffffffffffffffffffffffffffff1673ffffffffffffffffffffffffffffffffffffffff16145b80610f565750600173ffffffffffffffffffffffffffffffffffffffff168573ffffffffffffffffffffffffffffffffffffffff16145b15610f8557610f847f475330323600000000000000000000000000000000000000000000000000000061327a565b5b84955080610f9290615123565b9050610c18565b50505050505050505050565b60008173ffffffffffffffffffffffffffffffffffffffff16600173ffffffffffffffffffffffffffffffffffffffff16141580156110705750600073ffffffffffffffffffffffffffffffffffffffff16600160008473ffffffffffffffffffffffffffffffffffffffff1673ffffffffffffffffffffffffffffffffffffffff16815260200190815260200160002060009054906101000a900473ffffffffffffffffffffffffffffffffffffffff1673ffffffffffffffffffffffffffffffffffffffff1614155b9050919050565b6000600173ffffffffffffffffffffffffffffffffffffffff168273ffffffffffffffffffffffffffffffffffffffff16148061113f5750600073ffffffffffffffffffffffffffffffffffffffff16600260008473ffffffffffffffffffffffffffffffffffffffff1673ffffffffffffffffffffffffffffffffffffffff16815260200190815260200160002060009054906101000a900473ffffffffffffffffffffffffffffffffffffffff1673ffffffffffffffffffffffffffffffffffffffff16145b159050919050565b6000806000611158878787876134d8565b91509150611189878787877fffffffffffffffffffffffffffffffffffffffffffffffffffffffffffffffff6136aa565b9250611196828285613703565b5050949350505050565b600060606000806111b3888888886134d8565b915091506111e4888888887fffffffffffffffffffffffffffffffffffffffffffffffffffffffffffffffff6136aa565b9350604051925060203d0183016040523d83523d6000602085013e61120a828286613703565b505094509492505050565b60606000600583901b67ffffffffffffffff81111561123757611236614444565b5b6040519080825280601f01601f1916602001820160405280156112695781602001600182028036833780820191505090505b50905060005b8381101561129857808501548060208302602085010152508061129190615123565b905061126f565b508091505092915050565b60076020528060005260406000206000915090505481565b6112c361321b565b600073ffffffffffffffffffffffffffffffffffffffff168173ffffffffffffffffffffffffffffffffffffffff16148061132a5750600173ffffffffffffffffffffffffffffffffffffffff168173ffffffffffffffffffffffffffffffffffffffff16145b15611359576113587f475331303100000000000000000000000000000000000000000000000000000061327a565b5b600073ffffffffffffffffffffffffffffffffffffffff16600160008373ffffffffffffffffffffffffffffffffffffffff1673ffffffffffffffffffffffffffffffffffffffff16815260200190815260200160002060009054906101000a900473ffffffffffffffffffffffffffffffffffffffff1673ffffffffffffffffffffffffffffffffffffffff1614611416576114157f475331303200000000000000000000000000000000000000000000000000000061327a565b5b60016000600173ffffffffffffffffffffffffffffffffffffffff1673ffffffffffffffffffffffffffffffffffffffff16815260200190815260200160002060009054906101000a900473ffffffffffffffffffffffffffffffffffffffff16600160008373ffffffffffffffffffffffffffffffffffffffff1673ffffffffffffffffffffffffffffffffffffffff16815260200190815260200160002060006101000a81548173ffffffffffffffffffffffffffffffffffffffff021916908373ffffffffffffffffffffffffffffffffffffffff1602179055508060016000600173ffffffffffffffffffffffffffffffffffffffff1673ffffffffffffffffffffffffffffffffffffffff16815260200190815260200160002060006101000a81548173ffffffffffffffffffffffffffffffffffffffff021916908373ffffffffffffffffffffffffffffffffffffffff1602179055508073ffffffffffffffffffffffffffffffffffffffff167fecdf3a3effea5783a3c4c2140e677577666428d44ed9d474a0b3a4c9943f844060405160405180910390a250565b6115c161321b565b6003548111156115f5576115f47f475332303100000000000000000000000000000000000000000000000000000061327a565b5b60008103611627576116267f475332303200000000000000000000000000000000000000000000000000000061327a565b5b806004819055507f610f7ff2b304ae8903c3de74c60c6ab1f7d6226b3f52c5161905bb5ad4039c938160405161165d919061429a565b60405180910390a150565b600061167d8c8c8c8c8c8c8c8c8c8c8c61383c565b60006116a88d8d8d8d8d8d8d8d8d8d6005600081548092919061169f90615123565b919050556121a6565b90506116b5338285612e40565b60006116bf6138c3565b9050600073ffffffffffffffffffffffffffffffffffffffff168173ffffffffffffffffffffffffffffffffffffffff1614611777578073ffffffffffffffffffffffffffffffffffffffff166375f0bb528f8f8f8f8f8f8f8f8f8f8f336040518d63ffffffff1660e01b81526004016117449c9b9a99989796959493929190615351565b600060405180830381600087803b15801561175e57600080fd5b505af1158015611772573d6000803e3d6000fd5b505050505b6101f46117aa6109c48b61178b919061540c565b603f60068d901b61179c919061546f565b6138ec90919063ffffffff16565b6117b4919061540c565b5a10156117e5576117e47f475330313000000000000000000000000000000000000000000000000000000061327a565b5b60005a90506118578f8f8f8f8080601f016020809104026020016040519081016040528093929190818152602001838380828437600081840152601f19601f820116905080830192505050505050508e60008d14611843578e611852565b6109c45a6118519190615209565b5b6136aa565b935061186c5a8261390690919063ffffffff16565b90508315801561187c575060008a145b80156118885750600088145b15611899576040513d6000823e3d81fd5b6000808911156118b3576118b0828b8b8b8b61392f565b90505b84156118f657837f442e715f626346e8c54381002da614f62bee8d27386535b2521ec8540898556e826040516118e9919061429a565b60405180910390a261192f565b837f23428b18acfb3ea64b08dc0c1d296ea9c09702c09083ca5272e64d115b687d2382604051611926919061429a565b60405180910390a25b5050600073ffffffffffffffffffffffffffffffffffffffff168173ffffffffffffffffffffffffffffffffffffffff16146119d3578073ffffffffffffffffffffffffffffffffffffffff16639327136883856040518363ffffffff1660e01b81526004016119a09291906154a0565b600060405180830381600087803b1580156119ba57600080fd5b505af11580156119ce573d6000803e3d6000fd5b505050505b50509b9a5050505050505050505050565b6008602052816000526040600020602052806000526040600020600091509150505481565b611a14338583612e40565b50505050565b6060600060035467ffffffffffffffff811115611a3a57611a39614444565b5b604051908082528060200260200182016040528015611a685781602001602082028036833780820191505090505b50905060008060026000600173ffffffffffffffffffffffffffffffffffffffff1673ffffffffffffffffffffffffffffffffffffffff16815260200190815260200160002060009054906101000a900473ffffffffffffffffffffffffffffffffffffffff1690505b600173ffffffffffffffffffffffffffffffffffffffff168173ffffffffffffffffffffffffffffffffffffffff1614611bc75780838381518110611b1a57611b196154c9565b5b602002602001019073ffffffffffffffffffffffffffffffffffffffff16908173ffffffffffffffffffffffffffffffffffffffff1681525050600260008273ffffffffffffffffffffffffffffffffffffffff1673ffffffffffffffffffffffffffffffffffffffff16815260200190815260200160002060009054906101000a900473ffffffffffffffffffffffffffffffffffffffff16905081611bc090615123565b9150611ad2565b82935050505090565b60055481565b600080825160208401855af46040518181523d60208201523d6000604083013e60403d0181fd5b3373ffffffffffffffffffffffffffffffffffffffff167f141df868a6331af528e38c83b7aa03edc19be66e37ae67f9285bf4f8e3c6a1a88b8b8b8b89604051611c4b959493929190615583565b60405180910390a2611c9e8a8a80806020026020016040519081016040528093929190818152602001838360200280828437600081840152601f19601f8201169050808301925050505050505089613ae5565b600073ffffffffffffffffffffffffffffffffffffffff168473ffffffffffffffffffffffffffffffffffffffff1614611cdc57611cdb84613e9b565b5b611d2a8787878080601f016020809104026020016040519081016040528093929190818152602001838380828437600081840152601f19601f82011690508083019250505050505050613f1e565b6000821115611d4457611d428260006001868561392f565b505b50505050505050505050565b60606000600173ffffffffffffffffffffffffffffffffffffffff168473ffffffffffffffffffffffffffffffffffffffff1614158015611d975750611d9584610fa5565b155b15611dc657611dc57f475331303500000000000000000000000000000000000000000000000000000061327a565b5b60008303611df857611df77f475331303600000000000000000000000000000000000000000000000000000061327a565b5b8267ffffffffffffffff811115611e1257611e11614444565b5b604051908082528060200260200182016040528015611e405781602001602082028036833780820191505090505b5091506000600160008673ffffffffffffffffffffffffffffffffffffffff1673ffffffffffffffffffffffffffffffffffffffff16815260200190815260200160002060009054906101000a900473ffffffffffffffffffffffffffffffffffffffff1691505b600073ffffffffffffffffffffffffffffffffffffffff168273ffffffffffffffffffffffffffffffffffffffff1614158015611f125750600173ffffffffffffffffffffffffffffffffffffffff168273ffffffffffffffffffffffffffffffffffffffff1614155b8015611f1d57508381105b15611fe35781838281518110611f3657611f356154c9565b5b602002602001019073ffffffffffffffffffffffffffffffffffffffff16908173ffffffffffffffffffffffffffffffffffffffff1681525050600160008373ffffffffffffffffffffffffffffffffffffffff1673ffffffffffffffffffffffffffffffffffffffff16815260200190815260200160002060009054906101000a900473ffffffffffffffffffffffffffffffffffffffff16915080611fdc90615123565b9050611ea8565b600173ffffffffffffffffffffffffffffffffffffffff168273ffffffffffffffffffffffffffffffffffffffff161461204157826001826120259190615209565b81518110612036576120356154c9565b5b602002602001015191505b808352509250929050565b600073ffffffffffffffffffffffffffffffffffffffff16600260003373ffffffffffffffffffffffffffffffffffffffff1673ffffffffffffffffffffffffffffffffffffffff16815260200190815260200160002060009054906101000a900473ffffffffffffffffffffffffffffffffffffffff1673ffffffffffffffffffffffffffffffffffffffff1603612109576121087f475330333000000000000000000000000000000000000000000000000000000061327a565b5b6001600860003373ffffffffffffffffffffffffffffffffffffffff1673ffffffffffffffffffffffffffffffffffffffff1681526020019081526020016000206000838152602001908152602001600020819055503373ffffffffffffffffffffffffffffffffffffffff16817ff2a0eb156472d1440255b0d7c1e19cc07115d1051fe605b0dce69acfec884d9c60405160405180910390a350565b6000806121b1612de6565b90506040518a8c82378a81207fbb8310d486368db6bd6f849402fdd73ad53d316b5a4b2644ad6efe0f941286d882528e60208301528d60408301528060608301528a60808301528960a08301528860c08301528760e08301528661010083015285610120830152846101408301526101608220604083015261190182528260208301526042601e83012093505050509b9a5050505050505050505050565b61225761321b565b600073ffffffffffffffffffffffffffffffffffffffff168173ffffffffffffffffffffffffffffffffffffffff1614806122be5750600173ffffffffffffffffffffffffffffffffffffffff168173ffffffffffffffffffffffffffffffffffffffff16145b156122ed576122ec7f475331303100000000000000000000000000000000000000000000000000000061327a565b5b8073ffffffffffffffffffffffffffffffffffffffff16600160008473ffffffffffffffffffffffffffffffffffffffff1673ffffffffffffffffffffffffffffffffffffffff16815260200190815260200160002060009054906101000a900473ffffffffffffffffffffffffffffffffffffffff1673ffffffffffffffffffffffffffffffffffffffff16146123a9576123a87f475331303300000000000000000000000000000000000000000000000000000061327a565b5b600160008273ffffffffffffffffffffffffffffffffffffffff1673ffffffffffffffffffffffffffffffffffffffff16815260200190815260200160002060009054906101000a900473ffffffffffffffffffffffffffffffffffffffff16600160008473ffffffffffffffffffffffffffffffffffffffff1673ffffffffffffffffffffffffffffffffffffffff16815260200190815260200160002060006101000a81548173ffffffffffffffffffffffffffffffffffffffff021916908373ffffffffffffffffffffffffffffffffffffffff1602179055506000600160008373ffffffffffffffffffffffffffffffffffffffff1673ffffffffffffffffffffffffffffffffffffffff16815260200190815260200160002060006101000a81548173ffffffffffffffffffffffffffffffffffffffff021916908373ffffffffffffffffffffffffffffffffffffffff1602179055508073ffffffffffffffffffffffffffffffffffffffff167faab4fa2b463f581b2b32cb3b7e3b704b9ce37cc209b5fb4d77e593ace405427660405160405180910390a25050565b61255461321b565b600073ffffffffffffffffffffffffffffffffffffffff168173ffffffffffffffffffffffffffffffffffffffff161415801561262857508073ffffffffffffffffffffffffffffffffffffffff166301ffc9a77f58401ed8000000000000000000000000000000000000000000000000000000006040518263ffffffff1660e01b81526004016125e5919061560c565b602060405180830381865afa158015612602573d6000803e3d6000fd5b505050506040513d601f19601f820116820180604052508101906126269190615653565b155b15612657576126567f475333303100000000000000000000000000000000000000000000000000000061327a565b5b60007fb104e0b93118902c651344349b610029d694cfdec91c589c91ebafbcd028994760001b90508181558173ffffffffffffffffffffffffffffffffffffffff167fcd1966d6be16bc0c030cc741a06c6e0efaf8d00de2c8b6a9e11827e125de8bb860405160405180910390a25050565b6126d161321b565b600073ffffffffffffffffffffffffffffffffffffffff168173ffffffffffffffffffffffffffffffffffffffff16141580156127a557508073ffffffffffffffffffffffffffffffffffffffff166301ffc9a77fe6d7a83a000000000000000000000000000000000000000000000000000000006040518263ffffffff1660e01b8152600401612762919061560c565b602060405180830381865afa15801561277f573d6000803e3d6000fd5b505050506040513d601f19601f820116820180604052508101906127a39190615653565b155b156127d4576127d37f475333303000000000000000000000000000000000000000000000000000000061327a565b5b807f4a204f620c8c5ccdca3fd54d003badd85ba500436a431f0cbda4f558c93c34c8558073ffffffffffffffffffffffffffffffffffffffff167f1151116914515bc0891ff9047a6cb32cf902546f83066499bcf8ba33d2353fa260405160405180910390a250565b61284561321b565b600073ffffffffffffffffffffffffffffffffffffffff168173ffffffffffffffffffffffffffffffffffffffff1614806128ac5750600173ffffffffffffffffffffffffffffffffffffffff168173ffffffffffffffffffffffffffffffffffffffff16145b806128e257503073ffffffffffffffffffffffffffffffffffffffff168173ffffffffffffffffffffffffffffffffffffffff16145b15612911576129107f475332303300000000000000000000000000000000000000000000000000000061327a565b5b600073ffffffffffffffffffffffffffffffffffffffff16600260008373ffffffffffffffffffffffffffffffffffffffff1673ffffffffffffffffffffffffffffffffffffffff16815260200190815260200160002060009054906101000a900473ffffffffffffffffffffffffffffffffffffffff1673ffffffffffffffffffffffffffffffffffffffff16146129ce576129cd7f475332303400000000000000000000000000000000000000000000000000000061327a565b5b600073ffffffffffffffffffffffffffffffffffffffff168273ffffffffffffffffffffffffffffffffffffffff161480612a355750600173ffffffffffffffffffffffffffffffffffffffff168273ffffffffffffffffffffffffffffffffffffffff16145b15612a6457612a637f475332303300000000000000000000000000000000000000000000000000000061327a565b5b8173ffffffffffffffffffffffffffffffffffffffff16600260008573ffffffffffffffffffffffffffffffffffffffff1673ffffffffffffffffffffffffffffffffffffffff16815260200190815260200160002060009054906101000a900473ffffffffffffffffffffffffffffffffffffffff1673ffffffffffffffffffffffffffffffffffffffff1614612b2057612b1f7f475332303500000000000000000000000000000000000000000000000000000061327a565b5b600260008373ffffffffffffffffffffffffffffffffffffffff1673ffffffffffffffffffffffffffffffffffffffff16815260200190815260200160002060009054906101000a900473ffffffffffffffffffffffffffffffffffffffff16600260008373ffffffffffffffffffffffffffffffffffffffff1673ffffffffffffffffffffffffffffffffffffffff16815260200190815260200160002060006101000a81548173ffffffffffffffffffffffffffffffffffffffff021916908373ffffffffffffffffffffffffffffffffffffffff16021790555080600260008573ffffffffffffffffffffffffffffffffffffffff1673ffffffffffffffffffffffffffffffffffffffff16815260200190815260200160002060006101000a81548173ffffffffffffffffffffffffffffffffffffffff021916908373ffffffffffffffffffffffffffffffffffffffff1602179055506000600260008473ffffffffffffffffffffffffffffffffffffffff1673ffffffffffffffffffffffffffffffffffffffff16815260200190815260200160002060006101000a81548173ffffffffffffffffffffffffffffffffffffffff021916908373ffffffffffffffffffffffffffffffffffffffff1602179055508173ffffffffffffffffffffffffffffffffffffffff167ff8d49fc529812e9a7c5c50e69c20f0dccc0db8fa95c98bc58cc9a4f1c1299eaf60405160405180910390a28073ffffffffffffffffffffffffffffffffffffffff167f9465fa0c962cc76958e6373a993326400c1c94f8be2fe3a952adfa7f60b2ea2660405160405180910390a2505050565b6000600454905090565b612d9761321b565b612da081613e9b565b8073ffffffffffffffffffffffffffffffffffffffff167f5ac6c46c93c8d0e53714ba3b53db3e7c046da994313d7ed0d192028bc7c228b060405160405180910390a250565b6000804690507f47e79534a245952e8b16893a336b85a3d9ea9fa8c573f3d803afb92a7946921860001b8130604051602001612e24939291906156df565b6040516020818303038152906040528051906020012091505090565b6000600454905060008103612e7957612e787f475330303100000000000000000000000000000000000000000000000000000061327a565b5b612e8584848484610bc8565b50505050565b612e9361321b565b80600360008154612ea390615716565b9190508190551015612ed957612ed87f475332303100000000000000000000000000000000000000000000000000000061327a565b5b600073ffffffffffffffffffffffffffffffffffffffff168273ffffffffffffffffffffffffffffffffffffffff161480612f405750600173ffffffffffffffffffffffffffffffffffffffff168273ffffffffffffffffffffffffffffffffffffffff16145b15612f6f57612f6e7f475332303300000000000000000000000000000000000000000000000000000061327a565b5b8173ffffffffffffffffffffffffffffffffffffffff16600260008573ffffffffffffffffffffffffffffffffffffffff1673ffffffffffffffffffffffffffffffffffffffff16815260200190815260200160002060009054906101000a900473ffffffffffffffffffffffffffffffffffffffff1673ffffffffffffffffffffffffffffffffffffffff161461302b5761302a7f475332303500000000000000000000000000000000000000000000000000000061327a565b5b600260008373ffffffffffffffffffffffffffffffffffffffff1673ffffffffffffffffffffffffffffffffffffffff16815260200190815260200160002060009054906101000a900473ffffffffffffffffffffffffffffffffffffffff16600260008573ffffffffffffffffffffffffffffffffffffffff1673ffffffffffffffffffffffffffffffffffffffff16815260200190815260200160002060006101000a81548173ffffffffffffffffffffffffffffffffffffffff021916908373ffffffffffffffffffffffffffffffffffffffff1602179055506000600260008473ffffffffffffffffffffffffffffffffffffffff1673ffffffffffffffffffffffffffffffffffffffff16815260200190815260200160002060006101000a81548173ffffffffffffffffffffffffffffffffffffffff021916908373ffffffffffffffffffffffffffffffffffffffff1602179055508173ffffffffffffffffffffffffffffffffffffffff167ff8d49fc529812e9a7c5c50e69c20f0dccc0db8fa95c98bc58cc9a4f1c1299eaf60405160405180910390a280600454146131dd576131dc816115b9565b5b505050565b6040518060400160405280600581526020017f312e352e3000000000000000000000000000000000000000000000000000000081525081565b3073ffffffffffffffffffffffffffffffffffffffff163373ffffffffffffffffffffffffffffffffffffffff1614613278576132777f475330333100000000000000000000000000000000000000000000000000000061327a565b5b565b6040517f08c379a00000000000000000000000000000000000000000000000000000000081526020600482015260056024820152816044820152606481fd5b60008083036132cb57600090506132f7565b600082846132d9919061573f565b90508284826132e8919061546f565b146132f257600080fd5b809150505b92915050565b6000806000836041026020810186015192506040810186015191506060810186015160001a9350509250925092565b815161334260208361412890919063ffffffff16565b1115613372576133717f475330323200000000000000000000000000000000000000000000000000000061327a565b5b600060208284010151905082516133a58261339760208661412890919063ffffffff16565b61412890919063ffffffff16565b11156133d5576133d47f475330323300000000000000000000000000000000000000000000000000000061327a565b5b60606020838501019050631626ba7e60e01b7bffffffffffffffffffffffffffffffffffffffffffffffffffffffff19168673ffffffffffffffffffffffffffffffffffffffff16631626ba7e87846040518363ffffffff1660e01b8152600401613441929190615781565b602060405180830381865afa15801561345e573d6000803e3d6000fd5b505050506040513d601f19601f8201168201806040525081019061348291906157dd565b7bffffffffffffffffffffffffffffffffffffffffffffffffffffffff1916146134d0576134cf7f475330323400000000000000000000000000000000000000000000000000000061327a565b5b505050505050565b6000806134e786868686614150565b6134ef614195565b9150600173ffffffffffffffffffffffffffffffffffffffff163373ffffffffffffffffffffffffffffffffffffffff1614806135b75750600073ffffffffffffffffffffffffffffffffffffffff16600160003373ffffffffffffffffffffffffffffffffffffffff1673ffffffffffffffffffffffffffffffffffffffff16815260200190815260200160002060009054906101000a900473ffffffffffffffffffffffffffffffffffffffff1673ffffffffffffffffffffffffffffffffffffffff16145b156135e6576135e57f475331303400000000000000000000000000000000000000000000000000000061327a565b5b600073ffffffffffffffffffffffffffffffffffffffff168273ffffffffffffffffffffffffffffffffffffffff16146136a1578173ffffffffffffffffffffffffffffffffffffffff1663728c297287878787336040518663ffffffff1660e01b815260040161365b95949392919061580a565b6020604051808303816000875af115801561367a573d6000803e3d6000fd5b505050506040513d601f19601f8201168201806040525081019061369e9190615879565b90505b94509492505050565b60006001808111156136bf576136be6152cb565b5b8360018111156136d2576136d16152cb565b5b036136ea576000808551602087018986f490506136fa565b600080855160208701888a87f190505b95945050505050565b600073ffffffffffffffffffffffffffffffffffffffff168373ffffffffffffffffffffffffffffffffffffffff16146137a5578273ffffffffffffffffffffffffffffffffffffffff16632acc37aa83836040518363ffffffff1660e01b81526004016137729291906154a0565b600060405180830381600087803b15801561378c57600080fd5b505af11580156137a0573d6000803e3d6000fd5b505050505b80156137f3573373ffffffffffffffffffffffffffffffffffffffff167f6895c13664aa4f67288b25d7a21d7aaa34916e355fb9b6fae0a139a9085becb860405160405180910390a2613837565b3373ffffffffffffffffffffffffffffffffffffffff167facd2c8702804128fdb0db2bb49f6d127dd0181c13fd45dbfe16de0930e2bd37560405160405180910390a25b505050565b606060055433600454604051602001613857939291906158a6565b60405160208183030381529060405290507f66753cd2356569ee081232e3be8909b950e0a76c1f8460c3a5e3c2be32b11bed8c8c8c8c8c8c8c8c8c8c8c8c6040516138ad9c9b9a999897969594939291906158dd565b60405180910390a1505050505050505050505050565b60007f4a204f620c8c5ccdca3fd54d003badd85ba500436a431f0cbda4f558c93c34c854905090565b6000818310156138fc57816138fe565b825b905092915050565b60008282111561391557600080fd5b600082846139239190615209565b90508091505092915050565b600080600073ffffffffffffffffffffffffffffffffffffffff168373ffffffffffffffffffffffffffffffffffffffff161461396c578261396e565b325b9050600073ffffffffffffffffffffffffffffffffffffffff168473ffffffffffffffffffffffffffffffffffffffff1603613a7a576139d73a86106139b4573a6139b6565b855b6139c9888a61412890919063ffffffff16565b6132b990919063ffffffff16565b915060008173ffffffffffffffffffffffffffffffffffffffff16836040516139ff906159d0565b60006040518083038185875af1925050503d8060008114613a3c576040519150601f19603f3d011682016040523d82523d6000602084013e613a41565b606091505b5050905080613a7457613a737f475330313100000000000000000000000000000000000000000000000000000061327a565b5b50613adb565b613a9f85613a91888a61412890919063ffffffff16565b6132b990919063ffffffff16565b9150613aac8482846141c6565b613ada57613ad97f475330313200000000000000000000000000000000000000000000000000000061327a565b5b5b5095945050505050565b60006004541115613b1a57613b197f475332303000000000000000000000000000000000000000000000000000000061327a565b5b8151811115613b4d57613b4c7f475332303100000000000000000000000000000000000000000000000000000061327a565b5b60008103613b7f57613b7e7f475332303200000000000000000000000000000000000000000000000000000061327a565b5b60006001905060008351905060005b81811015613e07576000858281518110613bab57613baa6154c9565b5b60200260200101519050600073ffffffffffffffffffffffffffffffffffffffff168173ffffffffffffffffffffffffffffffffffffffff161480613c1c5750600173ffffffffffffffffffffffffffffffffffffffff168173ffffffffffffffffffffffffffffffffffffffff16145b80613c5257503073ffffffffffffffffffffffffffffffffffffffff168173ffffffffffffffffffffffffffffffffffffffff16145b80613c8857508073ffffffffffffffffffffffffffffffffffffffff168473ffffffffffffffffffffffffffffffffffffffff16145b15613cb757613cb67f475332303300000000000000000000000000000000000000000000000000000061327a565b5b600073ffffffffffffffffffffffffffffffffffffffff16600260008373ffffffffffffffffffffffffffffffffffffffff1673ffffffffffffffffffffffffffffffffffffffff16815260200190815260200160002060009054906101000a900473ffffffffffffffffffffffffffffffffffffffff1673ffffffffffffffffffffffffffffffffffffffff1614613d7457613d737f475332303400000000000000000000000000000000000000000000000000000061327a565b5b80600260008673ffffffffffffffffffffffffffffffffffffffff1673ffffffffffffffffffffffffffffffffffffffff16815260200190815260200160002060006101000a81548173ffffffffffffffffffffffffffffffffffffffff021916908373ffffffffffffffffffffffffffffffffffffffff1602179055508093505080613e0090615123565b9050613b8e565b506001600260008473ffffffffffffffffffffffffffffffffffffffff1673ffffffffffffffffffffffffffffffffffffffff16815260200190815260200160002060006101000a81548173ffffffffffffffffffffffffffffffffffffffff021916908373ffffffffffffffffffffffffffffffffffffffff160217905550806003819055508260048190555050505050565b3073ffffffffffffffffffffffffffffffffffffffff168173ffffffffffffffffffffffffffffffffffffffff1603613ef857613ef77f475334303000000000000000000000000000000000000000000000000000000061327a565b5b807f6c9a6c4a39284e37ed1cf53d337577d14212a4870fb976a4366c693b939918d55550565b600073ffffffffffffffffffffffffffffffffffffffff1660016000600173ffffffffffffffffffffffffffffffffffffffff1673ffffffffffffffffffffffffffffffffffffffff16815260200190815260200160002060009054906101000a900473ffffffffffffffffffffffffffffffffffffffff1673ffffffffffffffffffffffffffffffffffffffff1614613fdc57613fdb7f475331303000000000000000000000000000000000000000000000000000000061327a565b5b6001806000600173ffffffffffffffffffffffffffffffffffffffff1673ffffffffffffffffffffffffffffffffffffffff16815260200190815260200160002060006101000a81548173ffffffffffffffffffffffffffffffffffffffff021916908373ffffffffffffffffffffffffffffffffffffffff160217905550600073ffffffffffffffffffffffffffffffffffffffff168273ffffffffffffffffffffffffffffffffffffffff1614614124576140988261426e565b6140c6576140c57f475330303200000000000000000000000000000000000000000000000000000061327a565b5b6140f58260008360017fffffffffffffffffffffffffffffffffffffffffffffffffffffffffffffffff6136aa565b614123576141227f475330303000000000000000000000000000000000000000000000000000000061327a565b5b5b5050565b6000808284614137919061540c565b90508381101561414657600080fd5b8091505092915050565b7fb648d3644f584ed1c2232d53c46d87e693586486ad0d1175f8656013110b714e33858585856040516141879594939291906159e5565b60405180910390a150505050565b6000807fb104e0b93118902c651344349b610029d694cfdec91c589c91ebafbcd028994760001b9050805491505090565b60008063a9059cbb84846040516024016141e1929190615a3f565b6040516020818303038152906040529060e01b6020820180517bffffffffffffffffffffffffffffffffffffffffffffffffffffffff83818316178352505050509050602060008251602084016000896127105a03f13d6000811461425157602081146142595760009350614264565b819350614264565b600051158215171593505b5050509392505050565b600080823b905060008111915050919050565b6000819050919050565b61429481614281565b82525050565b60006020820190506142af600083018461428b565b92915050565b6000604051905090565b600080fd5b600080fd5b600073ffffffffffffffffffffffffffffffffffffffff82169050919050565b60006142f4826142c9565b9050919050565b614304816142e9565b811461430f57600080fd5b50565b600081359050614321816142fb565b92915050565b61433081614281565b811461433b57600080fd5b50565b60008135905061434d81614327565b92915050565b6000806040838503121561436a576143696142bf565b5b600061437885828601614312565b92505060206143898582860161433e565b9150509250929050565b6000819050919050565b6143a681614393565b81146143b157600080fd5b50565b6000813590506143c38161439d565b92915050565b600080fd5b600080fd5b600080fd5b60008083601f8401126143ee576143ed6143c9565b5b8235905067ffffffffffffffff81111561440b5761440a6143ce565b5b602083019150836001820283011115614427576144266143d3565b5b9250929050565b600080fd5b6000601f19601f8301169050919050565b7f4e487b7100000000000000000000000000000000000000000000000000000000600052604160045260246000fd5b61447c82614433565b810181811067ffffffffffffffff8211171561449b5761449a614444565b5b80604052505050565b60006144ae6142b5565b90506144ba8282614473565b919050565b600067ffffffffffffffff8211156144da576144d9614444565b5b6144e382614433565b9050602081019050919050565b82818337600083830152505050565b600061451261450d846144bf565b6144a4565b90508281526020810184848401111561452e5761452d61442e565b5b6145398482856144f0565b509392505050565b600082601f830112614556576145556143c9565b5b81356145668482602086016144ff565b91505092915050565b60008060008060006080868803121561458b5761458a6142bf565b5b6000614599888289016143b4565b955050602086013567ffffffffffffffff8111156145ba576145b96142c4565b5b6145c6888289016143d8565b9450945050604086013567ffffffffffffffff8111156145e9576145e86142c4565b5b6145f588828901614541565b92505060606146068882890161433e565b9150509295509295909350565b6000806000806080858703121561462d5761462c6142bf565b5b600061463b87828801614312565b945050602061464c878288016143b4565b935050604085013567ffffffffffffffff81111561466d5761466c6142c4565b5b61467987828801614541565b925050606061468a8782880161433e565b91505092959194509250565b6000602082840312156146ac576146ab6142bf565b5b60006146ba84828501614312565b91505092915050565b60008115159050919050565b6146d8816146c3565b82525050565b60006020820190506146f360008301846146cf565b92915050565b6002811061470657600080fd5b50565b600081359050614718816146f9565b92915050565b60008060008060808587031215614738576147376142bf565b5b600061474687828801614312565b94505060206147578782880161433e565b935050604085013567ffffffffffffffff811115614778576147776142c4565b5b61478487828801614541565b925050606061479587828801614709565b91505092959194509250565b600081519050919050565b600082825260208201905092915050565b60005b838110156147db5780820151818401526020810190506147c0565b60008484015250505050565b60006147f2826147a1565b6147fc81856147ac565b935061480c8185602086016147bd565b61481581614433565b840191505092915050565b600060408201905061483560008301856146cf565b818103602083015261484781846147e7565b90509392505050565b60008060408385031215614867576148666142bf565b5b60006148758582860161433e565b92505060206148868582860161433e565b9150509250929050565b600060208201905081810360008301526148aa81846147e7565b905092915050565b6000602082840312156148c8576148c76142bf565b5b60006148d6848285016143b4565b91505092915050565b6000602082840312156148f5576148f46142bf565b5b60006149038482850161433e565b91505092915050565b6000614917826142c9565b9050919050565b6149278161490c565b811461493257600080fd5b50565b6000813590506149448161491e565b92915050565b60008060008060008060008060008060006101408c8e0312156149705761496f6142bf565b5b600061497e8e828f01614312565b9b5050602061498f8e828f0161433e565b9a505060408c013567ffffffffffffffff8111156149b0576149af6142c4565b5b6149bc8e828f016143d8565b995099505060606149cf8e828f01614709565b97505060806149e08e828f0161433e565b96505060a06149f18e828f0161433e565b95505060c0614a028e828f0161433e565b94505060e0614a138e828f01614312565b935050610100614a258e828f01614935565b9250506101208c013567ffffffffffffffff811115614a4757614a466142c4565b5b614a538e828f01614541565b9150509295989b509295989b9093969950565b60008060408385031215614a7d57614a7c6142bf565b5b6000614a8b85828601614312565b9250506020614a9c858286016143b4565b9150509250929050565b60008060008060608587031215614ac057614abf6142bf565b5b6000614ace878288016143b4565b945050602085013567ffffffffffffffff811115614aef57614aee6142c4565b5b614afb878288016143d8565b9350935050604085013567ffffffffffffffff811115614b1e57614b1d6142c4565b5b614b2a87828801614541565b91505092959194509250565b600081519050919050565b600082825260208201905092915050565b6000819050602082019050919050565b614b6b816142e9565b82525050565b6000614b7d8383614b62565b60208301905092915050565b6000602082019050919050565b6000614ba182614b36565b614bab8185614b41565b9350614bb683614b52565b8060005b83811015614be7578151614bce8882614b71565b9750614bd983614b89565b925050600181019050614bba565b5085935050505092915050565b60006020820190508181036000830152614c0e8184614b96565b905092915050565b60008060408385031215614c2d57614c2c6142bf565b5b6000614c3b85828601614312565b925050602083013567ffffffffffffffff811115614c5c57614c5b6142c4565b5b614c6885828601614541565b9150509250929050565b60008083601f840112614c8857614c876143c9565b5b8235905067ffffffffffffffff811115614ca557614ca46143ce565b5b602083019150836020820283011115614cc157614cc06143d3565b5b9250929050565b6000806000806000806000806000806101008b8d031215614cec57614ceb6142bf565b5b60008b013567ffffffffffffffff811115614d0a57614d096142c4565b5b614d168d828e01614c72565b9a509a50506020614d298d828e0161433e565b9850506040614d3a8d828e01614312565b97505060608b013567ffffffffffffffff811115614d5b57614d5a6142c4565b5b614d678d828e016143d8565b96509650506080614d7a8d828e01614312565b94505060a0614d8b8d828e01614312565b93505060c0614d9c8d828e0161433e565b92505060e0614dad8d828e01614935565b9150509295989b9194979a5092959850565b614dc8816142e9565b82525050565b60006040820190508181036000830152614de88185614b96565b9050614df76020830184614dbf565b9392505050565b60008060008060008060008060008060006101408c8e031215614e2457614e236142bf565b5b6000614e328e828f01614312565b9b50506020614e438e828f0161433e565b9a505060408c013567ffffffffffffffff811115614e6457614e636142c4565b5b614e708e828f016143d8565b99509950506060614e838e828f01614709565b9750506080614e948e828f0161433e565b96505060a0614ea58e828f0161433e565b95505060c0614eb68e828f0161433e565b94505060e0614ec78e828f01614312565b935050610100614ed98e828f01614312565b925050610120614eeb8e828f0161433e565b9150509295989b509295989b9093969950565b614f0781614393565b82525050565b6000602082019050614f226000830184614efe565b92915050565b60008060408385031215614f3f57614f3e6142bf565b5b6000614f4d85828601614312565b9250506020614f5e85828601614312565b9150509250929050565b600080600060608486031215614f8157614f806142bf565b5b6000614f8f86828701614312565b9350506020614fa086828701614312565b9250506040614fb186828701614312565b9150509250925092565b600080600060608486031215614fd457614fd36142bf565b5b6000614fe286828701614312565b9350506020614ff3868287016143b4565b925050604084013567ffffffffffffffff811115615014576150136142c4565b5b61502086828701614541565b9150509250925092565b600080600060608486031215615043576150426142bf565b5b600061505186828701614312565b935050602061506286828701614312565b92505060406150738682870161433e565b9150509250925092565b600081519050919050565b600082825260208201905092915050565b60006150a48261507d565b6150ae8185615088565b93506150be8185602086016147bd565b6150c781614433565b840191505092915050565b600060208201905081810360008301526150ec8184615099565b905092915050565b7f4e487b7100000000000000000000000000000000000000000000000000000000600052601160045260246000fd5b600061512e82614281565b91507fffffffffffffffffffffffffffffffffffffffffffffffffffffffffffffffff82036151605761515f6150f4565b5b600182019050919050565b600081905092915050565b7f19457468657265756d205369676e6564204d6573736167653a0a333200000000600082015250565b60006151ac601c8361516b565b91506151b782615176565b601c82019050919050565b6000819050919050565b6151dd6151d882614393565b6151c2565b82525050565b60006151ee8261519f565b91506151fa82846151cc565b60208201915081905092915050565b600061521482614281565b915061521f83614281565b9250828203905081811115615237576152366150f4565b5b92915050565b600060ff82169050919050565b6152538161523d565b82525050565b600060808201905061526e6000830187614efe565b61527b602083018661524a565b6152886040830185614efe565b6152956060830184614efe565b95945050505050565b60006152aa83856147ac565b93506152b78385846144f0565b6152c083614433565b840190509392505050565b7f4e487b7100000000000000000000000000000000000000000000000000000000600052602160045260246000fd5b6002811061530b5761530a6152cb565b5b50565b600081905061531c826152fa565b919050565b600061532c8261530e565b9050919050565b61533c81615321565b82525050565b61534b8161490c565b82525050565b600061016082019050615367600083018f614dbf565b615374602083018e61428b565b8181036040830152615387818c8e61529e565b9050615396606083018b615333565b6153a3608083018a61428b565b6153b060a083018961428b565b6153bd60c083018861428b565b6153ca60e0830187614dbf565b6153d8610100830186615342565b8181036101208301526153eb81856147e7565b90506153fb610140830184614dbf565b9d9c50505050505050505050505050565b600061541782614281565b915061542283614281565b925082820190508082111561543a576154396150f4565b5b92915050565b7f4e487b7100000000000000000000000000000000000000000000000000000000600052601260045260246000fd5b600061547a82614281565b915061548583614281565b92508261549557615494615440565b5b828204905092915050565b60006040820190506154b56000830185614efe565b6154c260208301846146cf565b9392505050565b7f4e487b7100000000000000000000000000000000000000000000000000000000600052603260045260246000fd5b6000819050919050565b60006155116020840184614312565b905092915050565b6000602082019050919050565b60006155328385614b41565b935061553d826154f8565b8060005b85811015615576576155538284615502565b61555d8882614b71565b975061556883615519565b925050600181019050615541565b5085925050509392505050565b6000608082019050818103600083015261559e818789615526565b90506155ad602083018661428b565b6155ba6040830185614dbf565b6155c76060830184614dbf565b9695505050505050565b60007fffffffff0000000000000000000000000000000000000000000000000000000082169050919050565b615606816155d1565b82525050565b600060208201905061562160008301846155fd565b92915050565b615630816146c3565b811461563b57600080fd5b50565b60008151905061564d81615627565b92915050565b600060208284031215615669576156686142bf565b5b60006156778482850161563e565b91505092915050565b6000819050919050565b60006156a56156a061569b846142c9565b615680565b6142c9565b9050919050565b60006156b78261568a565b9050919050565b60006156c9826156ac565b9050919050565b6156d9816156be565b82525050565b60006060820190506156f46000830186614efe565b615701602083018561428b565b61570e60408301846156d0565b949350505050565b600061572182614281565b915060008203615734576157336150f4565b5b600182039050919050565b600061574a82614281565b915061575583614281565b925082820261576381614281565b9150828204841483151761577a576157796150f4565b5b5092915050565b60006040820190506157966000830185614efe565b81810360208301526157a881846147e7565b90509392505050565b6157ba816155d1565b81146157c557600080fd5b50565b6000815190506157d7816157b1565b92915050565b6000602082840312156157f3576157f26142bf565b5b6000615801848285016157c8565b91505092915050565b600060a08201905061581f6000830188614dbf565b61582c602083018761428b565b818103604083015261583e81866147e7565b905061584d6060830185615333565b61585a6080830184614dbf565b9695505050505050565b6000815190506158738161439d565b92915050565b60006020828403121561588f5761588e6142bf565b5b600061589d84828501615864565b91505092915050565b60006060820190506158bb600083018661428b565b6158c86020830185614dbf565b6158d5604083018461428b565b949350505050565b6000610160820190506158f3600083018f614dbf565b615900602083018e61428b565b8181036040830152615913818c8e61529e565b9050615922606083018b615333565b61592f608083018a61428b565b61593c60a083018961428b565b61594960c083018861428b565b61595660e0830187614dbf565b615964610100830186615342565b81810361012083015261597781856147e7565b905081810361014083015261598c81846147e7565b90509d9c50505050505050505050505050565b600081905092915050565b50565b60006159ba60008361599f565b91506159c5826159aa565b600082019050919050565b60006159db826159ad565b9150819050919050565b600060a0820190506159fa6000830188614dbf565b615a076020830187614dbf565b615a14604083018661428b565b8181036060830152615a2681856147e7565b9050615a356080830184615333565b9695505050505050565b6000604082019050615a546000830185614dbf565b615a61602083018461428b565b939250505056fea2646970667358221220236460f80af53de1539a82f8add314322682e818d483567f0c14fdd9e045a19464736f6c63430008140033",
  "linkReferences": {},
  "deployedLinkReferences": {}
}