{
  "_format": "hh-sol-artifact-1",
  "contractName": "DebugTransactionGuard",
  "sourceName": "contracts/examples/guards/DebugTransactionGuard.sol",
  "abi": [
    {
      "anonymous": false,
      "inputs": [
        {
          "indexed": true,
          "internalType": "address",
          "name": "safe",
          "type": "address"
        },
        {
          "indexed": true,
          "internalType": "bytes32",
          "name": "txHash",
          "type": "bytes32"
        },
        {
          "indexed": true,
          "internalType": "uint256",
          "name": "nonce",
          "type": "uint256"
        },
        {
          "indexed": false,
          "internalType": "bool",
          "name": "success",
          "type": "bool"
        }
      ],
      "name": "GasUsage",
      "type": "event"
    },
    {
      "anonymous": false,
      "inputs": [
        {
          "indexed": true,
          "internalType": "bytes32",
          "name": "txHash",
          "type": "bytes32"
        },
        {
          "indexed": false,
          "internalType": "address",
          "name": "to",
          "type": "address"
        },
        {
          "indexed": false,
          "internalType": "uint256",
          "name": "value",
          "type": "uint256"
        },
        {
          "indexed": false,
          "internalType": "bytes",
          "name": "data",
          "type": "bytes"
        },
        {
          "indexed": false,
          "internalType": "enum Enum.Operation",
          "name": "operation",
          "type": "uint8"
        },
        {
          "indexed": false,
          "internalType": "address",
          "name": "module",
          "type": "address"
        }
      ],
      "name": "ModuleTransactionDetails",
      "type": "event"
    },
    {
      "anonymous": false,
      "inputs": [
        {
          "indexed": true,
          "internalType": "address",
          "name": "safe",
          "type": "address"
        },
        {
          "indexed": true,
          "internalType": "bytes32",
          "name": "txHash",
          "type": "bytes32"
        },
        {
          "indexed": false,
          "internalType": "address",
          "name": "to",
          "type": "address"
        },
        {
          "indexed": false,
          "internalType": "uint256",
          "name": "value",
          "type": "uint256"
        },
        {
          "indexed": false,
          "internalType": "bytes",
          "name": "data",
          "type": "bytes"
        },
        {
          "indexed": false,
          "internalType": "enum Enum.Operation",
          "name": "operation",
          "type": "uint8"
        },
        {
          "indexed": false,
          "internalType": "uint256",
          "name": "safeTxGas",
          "type": "uint256"
        },
        {
          "indexed": false,
          "internalType": "bool",
          "name": "usesRefund",
          "type": "bool"
        },
        {
          "indexed": false,
          "internalType": "uint256",
          "name": "nonce",
          "type": "uint256"
        },
        {
          "indexed": false,
          "internalType": "bytes",
          "name": "signatures",
          "type": "bytes"
        },
        {
          "indexed": false,
          "internalType": "address",
          "name": "executor",
          "type": "address"
        }
      ],
      "name": "TransactionDetails",
      "type": "event"
    },
    {
      "stateMutability": "nonpayable",
      "type": "fallback"
    },
    {
      "inputs": [
        {
          "internalType": "bytes32",
          "name": "txHash",
          "type": "bytes32"
        },
        {
          "internalType": "bool",
          "name": "success",
          "type": "bool"
        }
      ],
      "name": "checkAfterExecution",
      "outputs": [],
      "stateMutability": "nonpayable",
      "type": "function"
    },
    {
      "inputs": [
        {
          "internalType": "bytes32",
          "name": "txHash",
          "type": "bytes32"
        },
        {
          "internalType": "bool",
          "name": "success",
          "type": "bool"
        }
      ],
      "name": "checkAfterModuleExecution",
      "outputs": [],
      "stateMutability": "nonpayable",
      "type": "function"
    },
    {
      "inputs": [
        {
          "internalType": "address",
          "name": "to",
          "type": "address"
        },
        {
          "internalType": "uint256",
          "name": "value",
          "type": "uint256"
        },
        {
          "internalType": "bytes",
          "name": "data",
          "type": "bytes"
        },
        {
          "internalType": "enum Enum.Operation",
          "name": "operation",
          "type": "uint8"
        },
        {
          "internalType": "address",
          "name": "module",
          "type": "address"
        }
      ],
      "name": "checkModuleTransaction",
      "outputs": [
        {
          "internalType": "bytes32",
          "name": "moduleTxHash",
          "type": "bytes32"
        }
      ],
      "stateMutability": "nonpayable",
      "type": "function"
    },
    {
      "inputs": [
        {
          "internalType": "address",
          "name": "to",
          "type": "address"
        },
        {
          "internalType": "uint256",
          "name": "value",
          "type": "uint256"
        },
        {
          "internalType": "bytes",
          "name": "data",
          "type": "bytes"
        },
        {
          "internalType": "enum Enum.Operation",
          "name": "operation",
          "type": "uint8"
        },
        {
          "internalType": "uint256",
          "name": "safeTxGas",
          "type": "uint256"
        },
        {
          "internalType": "uint256",
          "name": "baseGas",
          "type": "uint256"
        },
        {
          "internalType": "uint256",
          "name": "gasPrice",
          "type": "uint256"
        },
        {
          "internalType": "address",
          "name": "gasToken",
          "type": "address"
        },
        {
          "internalType": "address payable",
          "name": "refundReceiver",
          "type": "address"
        },
        {
          "internalType": "bytes",
          "name": "signatures",
          "type": "bytes"
        },
        {
          "internalType": "address",
          "name": "executor",
          "type": "address"
        }
      ],
      "name": "checkTransaction",
      "outputs": [],
      "stateMutability": "nonpayable",
      "type": "function"
    },
    {
      "inputs": [
        {
          "internalType": "bytes4",
          "name": "interfaceId",
          "type": "bytes4"
        }
      ],
      "name": "supportsInterface",
      "outputs": [
        {
          "internalType": "bool",
          "name": "",
          "type": "bool"
        }
      ],
      "stateMutability": "view",
      "type": "function"
    },
    {
      "inputs": [
        {
          "internalType": "bytes32",
          "name": "",
          "type": "bytes32"
        }
      ],
      "name": "txNonces",
      "outputs": [
        {
          "internalType": "uint256",
          "name": "",
          "type": "uint256"
        }
      ],
      "stateMutability": "view",
      "type": "function"
    }
  ],
  "bytecode": "0x608060405234801561001057600080fd5b50611140806100206000396000f3fe608060405234801561001057600080fd5b50600436106100665760003560e01c806301ffc9a7146100695780632acc37aa14610099578063728c2972146100b557806375f0bb52146100e55780639327136814610101578063ddbdba631461011d57610067565b5b005b610083600480360381019061007e91906105ee565b61014d565b6040516100909190610636565b60405180910390f35b6100b360048036038101906100ae91906106b3565b610287565b005b6100cf60048036038101906100ca91906108f2565b61028b565b6040516100dc9190610998565b60405180910390f35b6100ff60048036038101906100fa91906109f1565b610307565b005b61011b600480360381019061011691906106b3565b6104a3565b005b61013760048036038101906101329190610b1d565b61056a565b6040516101449190610b59565b60405180910390f35b60007fe6d7a83a000000000000000000000000000000000000000000000000000000007bffffffffffffffffffffffffffffffffffffffffffffffffffffffff1916827bffffffffffffffffffffffffffffffffffffffffffffffffffffffff1916148061021857507f58401ed8000000000000000000000000000000000000000000000000000000007bffffffffffffffffffffffffffffffffffffffffffffffffffffffff1916827bffffffffffffffffffffffffffffffffffffffffffffffffffffffff1916145b8061028057507f01ffc9a7000000000000000000000000000000000000000000000000000000007bffffffffffffffffffffffffffffffffffffffffffffffffffffffff1916827bffffffffffffffffffffffffffffffffffffffffffffffffffffffff1916145b9050919050565b5050565b600085858585856040516020016102a6959493929190610cec565b604051602081830303815290604052805190602001209050807f1725771f9d6c4dbc65eb80aabd07685699bb88d63af391840cf6749871bfb43f87878787876040516102f6959493929190610daf565b60405180910390a295945050505050565b600080600033905060018173ffffffffffffffffffffffffffffffffffffffff1663affed0e06040518163ffffffff1660e01b8152600401602060405180830381865afa15801561035c573d6000803e3d6000fd5b505050506040513d601f19601f820116820180604052508101906103809190610e1e565b61038a9190610e7a565b92508073ffffffffffffffffffffffffffffffffffffffff1663d8d11f788f8f8f8f8f8f8f8f8f8d6040518b63ffffffff1660e01b81526004016103d79a99989796959493929190610f0d565b602060405180830381865afa1580156103f4573d6000803e3d6000fd5b505050506040513d601f19601f820116820180604052508101906104189190610fc5565b915050803373ffffffffffffffffffffffffffffffffffffffff167fa65fef32cd19a6639a4bf7a6d196f132c151e4f0bbd2706f7f831b3a778e1ac08f8f8f8f8f60008f118a8d8d60405161047599989796959493929190610ff2565b60405180910390a3816000808381526020019081526020016000208190555050505050505050505050505050565b6000806000848152602001908152602001600020549050600081036104fd576040517f08c379a00000000000000000000000000000000000000000000000000000000081526004016104f4906110ea565b60405180910390fd5b60008060008581526020019081526020016000208190555080833373ffffffffffffffffffffffffffffffffffffffff167f0dcc0fb56a30b6fe6b188f45b47369bc7f3c928a9748e245a79fc3f54ddd05688560405161055d9190610636565b60405180910390a4505050565b60006020528060005260406000206000915090505481565b6000604051905090565b600080fd5b600080fd5b60007fffffffff0000000000000000000000000000000000000000000000000000000082169050919050565b6105cb81610596565b81146105d657600080fd5b50565b6000813590506105e8816105c2565b92915050565b6000602082840312156106045761060361058c565b5b6000610612848285016105d9565b91505092915050565b60008115159050919050565b6106308161061b565b82525050565b600060208201905061064b6000830184610627565b92915050565b6000819050919050565b61066481610651565b811461066f57600080fd5b50565b6000813590506106818161065b565b92915050565b6106908161061b565b811461069b57600080fd5b50565b6000813590506106ad81610687565b92915050565b600080604083850312156106ca576106c961058c565b5b60006106d885828601610672565b92505060206106e98582860161069e565b9150509250929050565b600073ffffffffffffffffffffffffffffffffffffffff82169050919050565b600061071e826106f3565b9050919050565b61072e81610713565b811461073957600080fd5b50565b60008135905061074b81610725565b92915050565b6000819050919050565b61076481610751565b811461076f57600080fd5b50565b6000813590506107818161075b565b92915050565b600080fd5b600080fd5b6000601f19601f8301169050919050565b7f4e487b7100000000000000000000000000000000000000000000000000000000600052604160045260246000fd5b6107da82610791565b810181811067ffffffffffffffff821117156107f9576107f86107a2565b5b80604052505050565b600061080c610582565b905061081882826107d1565b919050565b600067ffffffffffffffff821115610838576108376107a2565b5b61084182610791565b9050602081019050919050565b82818337600083830152505050565b600061087061086b8461081d565b610802565b90508281526020810184848401111561088c5761088b61078c565b5b61089784828561084e565b509392505050565b600082601f8301126108b4576108b3610787565b5b81356108c484826020860161085d565b91505092915050565b600281106108da57600080fd5b50565b6000813590506108ec816108cd565b92915050565b600080600080600060a0868803121561090e5761090d61058c565b5b600061091c8882890161073c565b955050602061092d88828901610772565b945050604086013567ffffffffffffffff81111561094e5761094d610591565b5b61095a8882890161089f565b935050606061096b888289016108dd565b925050608061097c8882890161073c565b9150509295509295909350565b61099281610651565b82525050565b60006020820190506109ad6000830184610989565b92915050565b60006109be826106f3565b9050919050565b6109ce816109b3565b81146109d957600080fd5b50565b6000813590506109eb816109c5565b92915050565b60008060008060008060008060008060006101608c8e031215610a1757610a1661058c565b5b6000610a258e828f0161073c565b9b50506020610a368e828f01610772565b9a505060408c013567ffffffffffffffff811115610a5757610a56610591565b5b610a638e828f0161089f565b9950506060610a748e828f016108dd565b9850506080610a858e828f01610772565b97505060a0610a968e828f01610772565b96505060c0610aa78e828f01610772565b95505060e0610ab88e828f0161073c565b945050610100610aca8e828f016109dc565b9350506101208c013567ffffffffffffffff811115610aec57610aeb610591565b5b610af88e828f0161089f565b925050610140610b0a8e828f0161073c565b9150509295989b509295989b9093969950565b600060208284031215610b3357610b3261058c565b5b6000610b4184828501610672565b91505092915050565b610b5381610751565b82525050565b6000602082019050610b6e6000830184610b4a565b92915050565b60008160601b9050919050565b6000610b8c82610b74565b9050919050565b6000610b9e82610b81565b9050919050565b610bb6610bb182610713565b610b93565b82525050565b6000819050919050565b610bd7610bd282610751565b610bbc565b82525050565b600081519050919050565b600081905092915050565b60005b83811015610c11578082015181840152602081019050610bf6565b60008484015250505050565b6000610c2882610bdd565b610c328185610be8565b9350610c42818560208601610bf3565b80840191505092915050565b7f4e487b7100000000000000000000000000000000000000000000000000000000600052602160045260246000fd5b60028110610c8e57610c8d610c4e565b5b50565b6000819050610c9f82610c7d565b919050565b6000610caf82610c91565b9050919050565b60008160f81b9050919050565b6000610cce82610cb6565b9050919050565b610ce6610ce182610ca4565b610cc3565b82525050565b6000610cf88288610ba5565b601482019150610d088287610bc6565b602082019150610d188286610c1d565b9150610d248285610cd5565b600182019150610d348284610ba5565b6014820191508190509695505050505050565b610d5081610713565b82525050565b600082825260208201905092915050565b6000610d7282610bdd565b610d7c8185610d56565b9350610d8c818560208601610bf3565b610d9581610791565b840191505092915050565b610da981610ca4565b82525050565b600060a082019050610dc46000830188610d47565b610dd16020830187610b4a565b8181036040830152610de38186610d67565b9050610df26060830185610da0565b610dff6080830184610d47565b9695505050505050565b600081519050610e188161075b565b92915050565b600060208284031215610e3457610e3361058c565b5b6000610e4284828501610e09565b91505092915050565b7f4e487b7100000000000000000000000000000000000000000000000000000000600052601160045260246000fd5b6000610e8582610751565b9150610e9083610751565b9250828203905081811115610ea857610ea7610e4b565b5b92915050565b6000819050919050565b6000610ed3610ece610ec9846106f3565b610eae565b6106f3565b9050919050565b6000610ee582610eb8565b9050919050565b6000610ef782610eda565b9050919050565b610f0781610eec565b82525050565b600061014082019050610f23600083018d610d47565b610f30602083018c610b4a565b8181036040830152610f42818b610d67565b9050610f51606083018a610da0565b610f5e6080830189610b4a565b610f6b60a0830188610b4a565b610f7860c0830187610b4a565b610f8560e0830186610d47565b610f93610100830185610efe565b610fa1610120830184610b4a565b9b9a5050505050505050505050565b600081519050610fbf8161065b565b92915050565b600060208284031215610fdb57610fda61058c565b5b6000610fe984828501610fb0565b91505092915050565b600061012082019050611008600083018c610d47565b611015602083018b610b4a565b8181036040830152611027818a610d67565b90506110366060830189610da0565b6110436080830188610b4a565b61105060a0830187610627565b61105d60c0830186610b4a565b81810360e083015261106f8185610d67565b905061107f610100830184610d47565b9a9950505050505050505050565b600082825260208201905092915050565b7f436f756c64206e6f7420676574206e6f6e636500000000000000000000000000600082015250565b60006110d460138361108d565b91506110df8261109e565b602082019050919050565b60006020820190508181036000830152611103816110c7565b905091905056fea26469706673582212207bdab6f5f6808cef086d12be68a5815f7ce6175a6d70a4945bff65ee0f9f876564736f6c63430008140033",
  "linkReferences": {},
  "deployedLinkReferences": {}
}