{
  "_format": "hh-sol-artifact-1",
  "contractName": "SafeProxyFactory",
  "sourceName": "contracts/proxies/SafeProxyFactory.sol",
  "abi": [
    {
      "anonymous": false,
      "inputs": [
        {
          "indexed": true,
          "internalType": "contract SafeProxy",
          "name": "proxy",
          "type": "address"
        },
        {
          "indexed": false,
          "internalType": "address",
          "name": "singleton",
          "type": "address"
        },
        {
          "indexed": false,
          "internalType": "bytes",
          "name": "initializer",
          "type": "bytes"
        },
        {
          "indexed": false,
          "internalType": "uint256",
          "name": "saltNonce",
          "type": "uint256"
        },
        {
          "indexed": false,
          "internalType": "uint256",
          "name": "chainId",
          "type": "uint256"
        }
      ],
      "name": "ChainSpecificProxyCreationL2",
      "type": "event"
    },
    {
      "anonymous": false,
      "inputs": [
        {
          "indexed": true,
          "internalType": "contract SafeProxy",
          "name": "proxy",
          "type": "address"
        },
        {
          "indexed": false,
          "internalType": "address",
          "name": "singleton",
          "type": "address"
        }
      ],
      "name": "ProxyCreation",
      "type": "event"
    },
    {
      "anonymous": false,
      "inputs": [
        {
          "indexed": true,
          "internalType": "contract SafeProxy",
          "name": "proxy",
          "type": "address"
        },
        {
          "indexed": false,
          "internalType": "address",
          "name": "singleton",
          "type": "address"
        },
        {
          "indexed": false,
          "internalType": "bytes",
          "name": "initializer",
          "type": "bytes"
        },
        {
          "indexed": false,
          "internalType": "uint256",
          "name": "saltNonce",
          "type": "uint256"
        }
      ],
      "name": "ProxyCreationL2",
      "type": "event"
    },
    {
      "inputs": [
        {
          "internalType": "address",
          "name": "_singleton",
          "type": "address"
        },
        {
          "internalType": "bytes",
          "name": "initializer",
          "type": "bytes"
        },
        {
          "internalType": "uint256",
          "name": "saltNonce",
          "type": "uint256"
        }
      ],
      "name": "createChainSpecificProxyWithNonce",
      "outputs": [
        {
          "internalType": "contract SafeProxy",
          "name": "proxy",
          "type": "address"
        }
      ],
      "stateMutability": "nonpayable",
      "type": "function"
    },
    {
      "inputs": [
        {
          "internalType": "address",
          "name": "_singleton",
          "type": "address"
        },
        {
          "internalType": "bytes",
          "name": "initializer",
          "type": "bytes"
        },
        {
          "internalType": "uint256",
          "name": "saltNonce",
          "type": "uint256"
        }
      ],
      "name": "createChainSpecificProxyWithNonceL2",
      "outputs": [
        {
          "internalType": "contract SafeProxy",
          "name": "proxy",
          "type": "address"
        }
      ],
      "stateMutability": "nonpayable",
      "type": "function"
    },
    {
      "inputs": [
        {
          "internalType": "address",
          "name": "_singleton",
          "type": "address"
        },
        {
          "internalType": "bytes",
          "name": "initializer",
          "type": "bytes"
        },
        {
          "internalType": "uint256",
          "name": "saltNonce",
          "type": "uint256"
        }
      ],
      "name": "createProxyWithNonce",
      "outputs": [
        {
          "internalType": "contract SafeProxy",
          "name": "proxy",
          "type": "address"
        }
      ],
      "stateMutability": "nonpayable",
      "type": "function"
    },
    {
      "inputs": [
        {
          "internalType": "address",
          "name": "_singleton",
          "type": "address"
        },
        {
          "internalType": "bytes",
          "name": "initializer",
          "type": "bytes"
        },
        {
          "internalType": "uint256",
          "name": "saltNonce",
          "type": "uint256"
        }
      ],
      "name": "createProxyWithNonceL2",
      "outputs": [
        {
          "internalType": "contract SafeProxy",
          "name": "proxy",
          "type": "address"
        }
      ],
      "stateMutability": "nonpayable",
      "type": "function"
    },
    {
      "inputs": [],
      "name": "getChainId",
      "outputs": [
        {
          "internalType": "uint256",
          "name": "",
          "type": "uint256"
        }
      ],
      "stateMutability": "view",
      "type": "function"
    },
    {
      "inputs": [],
      "name": "proxyCreationCode",
      "outputs": [
        {
          "internalType": "bytes",
          "name": "",
          "type": "bytes"
        }
      ],
      "stateMutability": "pure",
      "type": "function"
    }
  ],
  "bytecode": "0x608060405234801561001057600080fd5b50610f2f806100206000396000f3fe60806040523480156200001157600080fd5b50600436106200006a5760003560e01c80631688f0b9146200006f5780631a334b0b14620000a55780633408e47014620000db5780634662f9d614620000fd57806353e5d9351462000133578063ec9e80bb1462000155575b600080fd5b6200008d600480360381019062000087919062000789565b6200018b565b6040516200009c91906200086f565b60405180910390f35b620000c36004803603810190620000bd919062000789565b62000229565b604051620000d291906200086f565b60405180910390f35b620000e5620002a0565b604051620000f491906200089d565b60405180910390f35b6200011b600480360381019062000115919062000789565b620002ad565b6040516200012a91906200086f565b60405180910390f35b6200013d62000319565b6040516200014c919062000943565b60405180910390f35b6200017360048036038101906200016d919062000789565b62000346565b6040516200018291906200086f565b60405180910390f35b600080838051906020012083604051602001620001aa929190620009bb565b604051602081830303815290604052805190602001209050620001cf858583620003ef565b91508173ffffffffffffffffffffffffffffffffffffffff167f4f51faf6c4561ff95f067657e43439f0f856d97c04d9ec9070a6199ad418e23586604051620002199190620009fc565b60405180910390a2509392505050565b60006200023884848462000346565b90508073ffffffffffffffffffffffffffffffffffffffff167f7a1c96f74273709828c0e67ab96189772005d3b4948bc6902693eb21e4e2cc6a8585856200027f620002a0565b60405162000291949392919062000a19565b60405180910390a29392505050565b6000804690508091505090565b6000620002bc8484846200018b565b90508073ffffffffffffffffffffffffffffffffffffffff167f6e78ae8c51534f0b801d7aa7cce5a2113f3c3368c61b06fa61415f361d4004318585856040516200030a9392919062000a6d565b60405180910390a29392505050565b6060604051806020016200032d9062000565565b6020820181038252601f19601f82011660405250905090565b6000808380519060200120836200035c620002a0565b604051602001620003709392919062000ab1565b60405160208183030381529060405280519060200120905062000395858583620003ef565b91508173ffffffffffffffffffffffffffffffffffffffff167f4f51faf6c4561ff95f067657e43439f0f856d97c04d9ec9070a6199ad418e23586604051620003df9190620009fc565b60405180910390a2509392505050565b6000620003fc8462000552565b6200043e576040517f08c379a0000000000000000000000000000000000000000000000000000000008152600401620004359062000b55565b60405180910390fd5b600060405180602001620004529062000565565b6020820181038252601f19601f820116604052508573ffffffffffffffffffffffffffffffffffffffff166040516020016200049092919062000bb9565b6040516020818303038152906040529050828151826020016000f59150600073ffffffffffffffffffffffffffffffffffffffff168273ffffffffffffffffffffffffffffffffffffffff16036200051f576040517f08c379a0000000000000000000000000000000000000000000000000000000008152600401620005169062000c35565b60405180910390fd5b6000845111156200054a576000808551602087016000865af162000549576040513d6000823e3d81fd5b5b509392505050565b600080823b905060008111915050919050565b6102a28062000c5883390190565b6000604051905090565b600080fd5b600080fd5b600073ffffffffffffffffffffffffffffffffffffffff82169050919050565b6000620005b48262000587565b9050919050565b620005c681620005a7565b8114620005d257600080fd5b50565b600081359050620005e681620005bb565b92915050565b600080fd5b600080fd5b6000601f19601f8301169050919050565b7f4e487b7100000000000000000000000000000000000000000000000000000000600052604160045260246000fd5b6200064182620005f6565b810181811067ffffffffffffffff8211171562000663576200066262000607565b5b80604052505050565b60006200067862000573565b905062000686828262000636565b919050565b600067ffffffffffffffff821115620006a957620006a862000607565b5b620006b482620005f6565b9050602081019050919050565b82818337600083830152505050565b6000620006e7620006e1846200068b565b6200066c565b905082815260208101848484011115620007065762000705620005f1565b5b62000713848285620006c1565b509392505050565b600082601f830112620007335762000732620005ec565b5b813562000745848260208601620006d0565b91505092915050565b6000819050919050565b62000763816200074e565b81146200076f57600080fd5b50565b600081359050620007838162000758565b92915050565b600080600060608486031215620007a557620007a46200057d565b5b6000620007b586828701620005d5565b935050602084013567ffffffffffffffff811115620007d957620007d862000582565b5b620007e7868287016200071b565b9250506040620007fa8682870162000772565b9150509250925092565b6000819050919050565b60006200082f62000829620008238462000587565b62000804565b62000587565b9050919050565b600062000843826200080e565b9050919050565b6000620008578262000836565b9050919050565b62000869816200084a565b82525050565b60006020820190506200088660008301846200085e565b92915050565b62000897816200074e565b82525050565b6000602082019050620008b460008301846200088c565b92915050565b600081519050919050565b600082825260208201905092915050565b60005b83811015620008f6578082015181840152602081019050620008d9565b60008484015250505050565b60006200090f82620008ba565b6200091b8185620008c5565b93506200092d818560208601620008d6565b6200093881620005f6565b840191505092915050565b600060208201905081810360008301526200095f818462000902565b905092915050565b6000819050919050565b6000819050919050565b620009906200098a8262000967565b62000971565b82525050565b6000819050919050565b620009b5620009af826200074e565b62000996565b82525050565b6000620009c982856200097b565b602082019150620009db8284620009a0565b6020820191508190509392505050565b620009f681620005a7565b82525050565b600060208201905062000a136000830184620009eb565b92915050565b600060808201905062000a306000830187620009eb565b818103602083015262000a44818662000902565b905062000a5560408301856200088c565b62000a6460608301846200088c565b95945050505050565b600060608201905062000a846000830186620009eb565b818103602083015262000a98818562000902565b905062000aa960408301846200088c565b949350505050565b600062000abf82866200097b565b60208201915062000ad18285620009a0565b60208201915062000ae38284620009a0565b602082019150819050949350505050565b600082825260208201905092915050565b7f53696e676c65746f6e20636f6e7472616374206e6f74206465706c6f79656400600082015250565b600062000b3d601f8362000af4565b915062000b4a8262000b05565b602082019050919050565b6000602082019050818103600083015262000b708162000b2e565b9050919050565b600081905092915050565b600062000b8f82620008ba565b62000b9b818562000b77565b935062000bad818560208601620008d6565b80840191505092915050565b600062000bc7828562000b82565b915062000bd58284620009a0565b6020820191508190509392505050565b7f437265617465322063616c6c206661696c656400000000000000000000000000600082015250565b600062000c1d60138362000af4565b915062000c2a8262000be5565b602082019050919050565b6000602082019050818103600083015262000c508162000c0e565b905091905056fe608060405234801561001057600080fd5b506040516102a23803806102a28339818101604052810190610032919061014a565b600073ffffffffffffffffffffffffffffffffffffffff168173ffffffffffffffffffffffffffffffffffffffff16036100a1576040517f08c379a0000000000000000000000000000000000000000000000000000000008152600401610098906101fa565b60405180910390fd5b806000806101000a81548173ffffffffffffffffffffffffffffffffffffffff021916908373ffffffffffffffffffffffffffffffffffffffff1602179055505061021a565b600080fd5b600073ffffffffffffffffffffffffffffffffffffffff82169050919050565b6000610117826100ec565b9050919050565b6101278161010c565b811461013257600080fd5b50565b6000815190506101448161011e565b92915050565b6000602082840312156101605761015f6100e7565b5b600061016e84828501610135565b91505092915050565b600082825260208201905092915050565b7f496e76616c69642073696e676c65746f6e20616464726573732070726f76696460008201527f6564000000000000000000000000000000000000000000000000000000000000602082015250565b60006101e4602283610177565b91506101ef82610188565b604082019050919050565b60006020820190508181036000830152610213816101d7565b9050919050565b607a806102286000396000f3fe608060405260005463a619486e60003560e01c036023578060601b606c5260206060f35b3660008037600080366000845af43d6000803e80603f573d6000fd5b3d6000f3fea2646970667358221220d8a9153291b6b23395dbac479739b06d9be04d51986d9bc14bbbeb1f18082f4264736f6c63430008140033a26469706673582212202b01e9a3570d095b9928476be11846f69ab69c3795e1a8152c3f3ea4094d964864736f6c63430008140033",
  "linkReferences": {},
  "deployedLinkReferences": {}
}