{
  "_format": "hh-sol-artifact-1",
  "contractName": "DelegateCallTransactionGuard",
  "sourceName": "contracts/examples/guards/DelegateCallTransactionGuard.sol",
  "abi": [
    {
      "inputs": [
        {
          "internalType": "address",
          "name": "target",
          "type": "address"
        }
      ],
      "stateMutability": "nonpayable",
      "type": "constructor"
    },
    {
      "stateMutability": "nonpayable",
      "type": "fallback"
    },
    {
      "inputs": [],
      "name": "ALLOWED_TARGET",
      "outputs": [
        {
          "internalType": "address",
          "name": "",
          "type": "address"
        }
      ],
      "stateMutability": "view",
      "type": "function"
    },
    {
      "inputs": [
        {
          "internalType": "bytes32",
          "name": "",
          "type": "bytes32"
        },
        {
          "internalType": "bool",
          "name": "",
          "type": "bool"
        }
      ],
      "name": "checkAfterExecution",
      "outputs": [],
      "stateMutability": "view",
      "type": "function"
    },
    {
      "inputs": [
        {
          "internalType": "bytes32",
          "name": "",
          "type": "bytes32"
        },
        {
          "internalType": "bool",
          "name": "",
          "type": "bool"
        }
      ],
      "name": "checkAfterModuleExecution",
      "outputs": [],
      "stateMutability": "view",
      "type": "function"
    },
    {
      "inputs": [
        {
          "internalType": "address",
          "name": "to",
          "type": "address"
        },
        {
          "internalType": "uint256",
          "name": "value",
          "type": "uint256"
        },
        {
          "internalType": "bytes",
          "name": "data",
          "type": "bytes"
        },
        {
          "internalType": "enum Enum.Operation",
          "name": "operation",
          "type": "uint8"
        },
        {
          "internalType": "address",
          "name": "module",
          "type": "address"
        }
      ],
      "name": "checkModuleTransaction",
      "outputs": [
        {
          "internalType": "bytes32",
          "name": "moduleTxHash",
          "type": "bytes32"
        }
      ],
      "stateMutability": "view",
      "type": "function"
    },
    {
      "inputs": [
        {
          "internalType": "address",
          "name": "to",
          "type": "address"
        },
        {
          "internalType": "uint256",
          "name": "",
          "type": "uint256"
        },
        {
          "internalType": "bytes",
          "name": "",
          "type": "bytes"
        },
        {
          "internalType": "enum Enum.Operation",
          "name": "operation",
          "type": "uint8"
        },
        {
          "internalType": "uint256",
          "name": "",
          "type": "uint256"
        },
        {
          "internalType": "uint256",
          "name": "",
          "type": "uint256"
        },
        {
          "internalType": "uint256",
          "name": "",
          "type": "uint256"
        },
        {
          "internalType": "address",
          "name": "",
          "type": "address"
        },
        {
          "internalType": "address payable",
          "name": "",
          "type": "address"
        },
        {
          "internalType": "bytes",
          "name": "",
          "type": "bytes"
        },
        {
          "internalType": "address",
          "name": "",
          "type": "address"
        }
      ],
      "name": "checkTransaction",
      "outputs": [],
      "stateMutability": "view",
      "type": "function"
    },
    {
      "inputs": [
        {
          "internalType": "bytes4",
          "name": "interfaceId",
          "type": "bytes4"
        }
      ],
      "name": "supportsInterface",
      "outputs": [
        {
          "internalType": "bool",
          "name": "",
          "type": "bool"
        }
      ],
      "stateMutability": "view",
      "type": "function"
    }
  ],
  "bytecode": "0x60a060405234801561001057600080fd5b50604051610dd4380380610dd4833981810160405281019061003291906100cf565b8073ffffffffffffffffffffffffffffffffffffffff1660808173ffffffffffffffffffffffffffffffffffffffff1681525050506100fc565b600080fd5b600073ffffffffffffffffffffffffffffffffffffffff82169050919050565b600061009c82610071565b9050919050565b6100ac81610091565b81146100b757600080fd5b50565b6000815190506100c9816100a3565b92915050565b6000602082840312156100e5576100e461006c565b5b60006100f3848285016100ba565b91505092915050565b608051610caf61012560003960008181610277015281816102cf01526103c60152610caf6000f3fe608060405234801561001057600080fd5b50600436106100665760003560e01c806301ffc9a714610069578063250d6a91146100995780632acc37aa146100b7578063728c2972146100d357806375f0bb5214610103578063932713681461011f57610067565b5b005b610083600480360381019061007e91906104d0565b61013b565b6040516100909190610518565b60405180910390f35b6100a1610275565b6040516100ae9190610574565b60405180910390f35b6100d160048036038101906100cc91906105f1565b610299565b005b6100ed60048036038101906100e891906107fe565b61029d565b6040516100fa91906108a4565b60405180910390f35b61011d600480360381019061011891906108fd565b610396565b005b610139600480360381019061013491906105f1565b610460565b005b60007fe6d7a83a000000000000000000000000000000000000000000000000000000007bffffffffffffffffffffffffffffffffffffffffffffffffffffffff1916827bffffffffffffffffffffffffffffffffffffffffffffffffffffffff1916148061020657507f58401ed8000000000000000000000000000000000000000000000000000000007bffffffffffffffffffffffffffffffffffffffffffffffffffffffff1916827bffffffffffffffffffffffffffffffffffffffffffffffffffffffff1916145b8061026e57507f01ffc9a7000000000000000000000000000000000000000000000000000000007bffffffffffffffffffffffffffffffffffffffffffffffffffffffff1916827bffffffffffffffffffffffffffffffffffffffffffffffffffffffff1916145b9050919050565b7f000000000000000000000000000000000000000000000000000000000000000081565b5050565b60006001808111156102b2576102b1610a29565b5b8360018111156102c5576102c4610a29565b5b14158061031d57507f000000000000000000000000000000000000000000000000000000000000000073ffffffffffffffffffffffffffffffffffffffff168673ffffffffffffffffffffffffffffffffffffffff16145b61035c576040517f08c379a000000000000000000000000000000000000000000000000000000000815260040161035390610ab5565b60405180910390fd5b8585858585604051602001610375959493929190610c1e565b60405160208183030381529060405280519060200120905095945050505050565b6001808111156103a9576103a8610a29565b5b8860018111156103bc576103bb610a29565b5b14158061041457507f000000000000000000000000000000000000000000000000000000000000000073ffffffffffffffffffffffffffffffffffffffff168b73ffffffffffffffffffffffffffffffffffffffff16145b610453576040517f08c379a000000000000000000000000000000000000000000000000000000000815260040161044a90610ab5565b60405180910390fd5b5050505050505050505050565b5050565b6000604051905090565b600080fd5b600080fd5b60007fffffffff0000000000000000000000000000000000000000000000000000000082169050919050565b6104ad81610478565b81146104b857600080fd5b50565b6000813590506104ca816104a4565b92915050565b6000602082840312156104e6576104e561046e565b5b60006104f4848285016104bb565b91505092915050565b60008115159050919050565b610512816104fd565b82525050565b600060208201905061052d6000830184610509565b92915050565b600073ffffffffffffffffffffffffffffffffffffffff82169050919050565b600061055e82610533565b9050919050565b61056e81610553565b82525050565b60006020820190506105896000830184610565565b92915050565b6000819050919050565b6105a28161058f565b81146105ad57600080fd5b50565b6000813590506105bf81610599565b92915050565b6105ce816104fd565b81146105d957600080fd5b50565b6000813590506105eb816105c5565b92915050565b600080604083850312156106085761060761046e565b5b6000610616858286016105b0565b9250506020610627858286016105dc565b9150509250929050565b61063a81610553565b811461064557600080fd5b50565b60008135905061065781610631565b92915050565b6000819050919050565b6106708161065d565b811461067b57600080fd5b50565b60008135905061068d81610667565b92915050565b600080fd5b600080fd5b6000601f19601f8301169050919050565b7f4e487b7100000000000000000000000000000000000000000000000000000000600052604160045260246000fd5b6106e68261069d565b810181811067ffffffffffffffff82111715610705576107046106ae565b5b80604052505050565b6000610718610464565b905061072482826106dd565b919050565b600067ffffffffffffffff821115610744576107436106ae565b5b61074d8261069d565b9050602081019050919050565b82818337600083830152505050565b600061077c61077784610729565b61070e565b90508281526020810184848401111561079857610797610698565b5b6107a384828561075a565b509392505050565b600082601f8301126107c0576107bf610693565b5b81356107d0848260208601610769565b91505092915050565b600281106107e657600080fd5b50565b6000813590506107f8816107d9565b92915050565b600080600080600060a0868803121561081a5761081961046e565b5b600061082888828901610648565b95505060206108398882890161067e565b945050604086013567ffffffffffffffff81111561085a57610859610473565b5b610866888289016107ab565b9350506060610877888289016107e9565b925050608061088888828901610648565b9150509295509295909350565b61089e8161058f565b82525050565b60006020820190506108b96000830184610895565b92915050565b60006108ca82610533565b9050919050565b6108da816108bf565b81146108e557600080fd5b50565b6000813590506108f7816108d1565b92915050565b60008060008060008060008060008060006101608c8e0312156109235761092261046e565b5b60006109318e828f01610648565b9b505060206109428e828f0161067e565b9a505060408c013567ffffffffffffffff81111561096357610962610473565b5b61096f8e828f016107ab565b99505060606109808e828f016107e9565b98505060806109918e828f0161067e565b97505060a06109a28e828f0161067e565b96505060c06109b38e828f0161067e565b95505060e06109c48e828f01610648565b9450506101006109d68e828f016108e8565b9350506101208c013567ffffffffffffffff8111156109f8576109f7610473565b5b610a048e828f016107ab565b925050610140610a168e828f01610648565b9150509295989b509295989b9093969950565b7f4e487b7100000000000000000000000000000000000000000000000000000000600052602160045260246000fd5b600082825260208201905092915050565b7f546869732063616c6c2069732072657374726963746564000000000000000000600082015250565b6000610a9f601783610a58565b9150610aaa82610a69565b602082019050919050565b60006020820190508181036000830152610ace81610a92565b9050919050565b60008160601b9050919050565b6000610aed82610ad5565b9050919050565b6000610aff82610ae2565b9050919050565b610b17610b1282610553565b610af4565b82525050565b6000819050919050565b610b38610b338261065d565b610b1d565b82525050565b600081519050919050565b600081905092915050565b60005b83811015610b72578082015181840152602081019050610b57565b60008484015250505050565b6000610b8982610b3e565b610b938185610b49565b9350610ba3818560208601610b54565b80840191505092915050565b60028110610bc057610bbf610a29565b5b50565b6000819050610bd182610baf565b919050565b6000610be182610bc3565b9050919050565b60008160f81b9050919050565b6000610c0082610be8565b9050919050565b610c18610c1382610bd6565b610bf5565b82525050565b6000610c2a8288610b06565b601482019150610c3a8287610b27565b602082019150610c4a8286610b7e565b9150610c568285610c07565b600182019150610c668284610b06565b601482019150819050969550505050505056fea264697066735822122044842cf3805f012987487ba540ef3e2ce21b93e111701163b0a37c8995b408d064736f6c63430008140033",
  "linkReferences": {},
  "deployedLinkReferences": {}
}