{
  "_format": "hh-sol-artifact-1",
  "contractName": "SafeMigration",
  "sourceName": "contracts/libraries/SafeMigration.sol",
  "abi": [
    {
      "inputs": [
        {
          "internalType": "address",
          "name": "safeSingleton",
          "type": "address"
        },
        {
          "internalType": "address",
          "name": "safeL2Singleton",
          "type": "address"
        },
        {
          "internalType": "address",
          "name": "fallbackHandler",
          "type": "address"
        }
      ],
      "stateMutability": "nonpayable",
      "type": "constructor"
    },
    {
      "anonymous": false,
      "inputs": [
        {
          "indexed": false,
          "internalType": "address",
          "name": "singleton",
          "type": "address"
        }
      ],
      "name": "ChangedMasterCopy",
      "type": "event"
    },
    {
      "inputs": [],
      "name": "MIGRATION_SINGLETON",
      "outputs": [
        {
          "internalType": "address",
          "name": "",
          "type": "address"
        }
      ],
      "stateMutability": "view",
      "type": "function"
    },
    {
      "inputs": [],
      "name": "SAFE_FALLBACK_HANDLER",
      "outputs": [
        {
          "internalType": "address",
          "name": "",
          "type": "address"
        }
      ],
      "stateMutability": "view",
      "type": "function"
    },
    {
      "inputs": [],
      "name": "SAFE_L2_SINGLETON",
      "outputs": [
        {
          "internalType": "address",
          "name": "",
          "type": "address"
        }
      ],
      "stateMutability": "view",
      "type": "function"
    },
    {
      "inputs": [],
      "name": "SAFE_SINGLETON",
      "outputs": [
        {
          "internalType": "address",
          "name": "",
          "type": "address"
        }
      ],
      "stateMutability": "view",
      "type": "function"
    },
    {
      "inputs": [],
      "name": "migrateL2Singleton",
      "outputs": [],
      "stateMutability": "nonpayable",
      "type": "function"
    },
    {
      "inputs": [],
      "name": "migrateL2WithFallbackHandler",
      "outputs": [],
      "stateMutability": "nonpayable",
      "type": "function"
    },
    {
      "inputs": [],
      "name": "migrateSingleton",
      "outputs": [],
      "stateMutability": "nonpayable",
      "type": "function"
    },
    {
      "inputs": [],
      "name": "migrateWithFallbackHandler",
      "outputs": [],
      "stateMutability": "nonpayable",
      "type": "function"
    }
  ],
  "bytecode": "0x6101006040523480156200001257600080fd5b5060405162000cb638038062000cb6833981810160405281019062000038919062000287565b3073ffffffffffffffffffffffffffffffffffffffff1660808173ffffffffffffffffffffffffffffffffffffffff16815250506200007d836200020a60201b60201c565b620000bf576040517f08c379a0000000000000000000000000000000000000000000000000000000008152600401620000b69062000344565b60405180910390fd5b620000d0826200020a60201b60201c565b62000112576040517f08c379a00000000000000000000000000000000000000000000000000000000081526004016200010990620003dc565b60405180910390fd5b62000123816200020a60201b60201c565b62000165576040517f08c379a00000000000000000000000000000000000000000000000000000000081526004016200015c906200044e565b60405180910390fd5b8273ffffffffffffffffffffffffffffffffffffffff1660a08173ffffffffffffffffffffffffffffffffffffffff16815250508173ffffffffffffffffffffffffffffffffffffffff1660c08173ffffffffffffffffffffffffffffffffffffffff16815250508073ffffffffffffffffffffffffffffffffffffffff1660e08173ffffffffffffffffffffffffffffffffffffffff168152505050505062000470565b600080823b905060008111915050919050565b600080fd5b600073ffffffffffffffffffffffffffffffffffffffff82169050919050565b60006200024f8262000222565b9050919050565b620002618162000242565b81146200026d57600080fd5b50565b600081519050620002818162000256565b92915050565b600080600060608486031215620002a357620002a26200021d565b5b6000620002b38682870162000270565b9350506020620002c68682870162000270565b9250506040620002d98682870162000270565b9150509250925092565b600082825260208201905092915050565b7f536166652053696e676c65746f6e206973206e6f74206465706c6f7965640000600082015250565b60006200032c601e83620002e3565b91506200033982620002f4565b602082019050919050565b600060208201905081810360008301526200035f816200031d565b9050919050565b7f536166652053696e676c65746f6e20284c3229206973206e6f74206465706c6f60008201527f7965640000000000000000000000000000000000000000000000000000000000602082015250565b6000620003c4602383620002e3565b9150620003d18262000366565b604082019050919050565b60006020820190508181036000830152620003f781620003b5565b9050919050565b7f66616c6c6261636b2068616e646c6572206973206e6f74206465706c6f796564600082015250565b600062000436602083620002e3565b91506200044382620003fe565b602082019050919050565b60006020820190508181036000830152620004698162000427565b9050919050565b60805160a05160c05160e0516107c6620004f0600039600081816102760152818161034c01526104db0152600081816101bd0152818161023e01526103e1015260008181610405015281816105da015261065b01526000818161012f0152818161029a015281816103bd01528181610429015261054c01526107c66000f3fe608060405234801561001057600080fd5b50600436106100885760003560e01c80639bf47d6e1161005b5780639bf47d6e146100dd578063caa12add146100fb578063ed007fc614610119578063f6682ab01461012357610088565b806307f464a41461008d5780630d7101f71461009757806368cb3d94146100b557806372f7a956146100bf575b600080fd5b61009561012d565b005b61009f610274565b6040516100ac91906106d2565b60405180910390f35b6100bd610298565b005b6100c76103bb565b6040516100d491906106d2565b60405180910390f35b6100e56103df565b6040516100f291906106d2565b60405180910390f35b610103610403565b60405161011091906106d2565b60405180910390f35b610121610427565b005b61012b61054a565b005b7f000000000000000000000000000000000000000000000000000000000000000073ffffffffffffffffffffffffffffffffffffffff163073ffffffffffffffffffffffffffffffffffffffff16036101bb576040517f08c379a00000000000000000000000000000000000000000000000000000000081526004016101b290610770565b60405180910390fd5b7f00000000000000000000000000000000000000000000000000000000000000006000806101000a81548173ffffffffffffffffffffffffffffffffffffffff021916908373ffffffffffffffffffffffffffffffffffffffff1602179055507f75e41bc35ff1bf14d81d1d2f649c0084a0f974f9289c803ec9898eeec4c8d0b87f000000000000000000000000000000000000000000000000000000000000000060405161026a91906106d2565b60405180910390a1565b7f000000000000000000000000000000000000000000000000000000000000000081565b7f000000000000000000000000000000000000000000000000000000000000000073ffffffffffffffffffffffffffffffffffffffff163073ffffffffffffffffffffffffffffffffffffffff1603610326576040517f08c379a000000000000000000000000000000000000000000000000000000000815260040161031d90610770565b60405180910390fd5b61032e61012d565b3073ffffffffffffffffffffffffffffffffffffffff1663f08a03237f00000000000000000000000000000000000000000000000000000000000000006040518263ffffffff1660e01b815260040161038791906106d2565b600060405180830381600087803b1580156103a157600080fd5b505af11580156103b5573d6000803e3d6000fd5b50505050565b7f000000000000000000000000000000000000000000000000000000000000000081565b7f000000000000000000000000000000000000000000000000000000000000000081565b7f000000000000000000000000000000000000000000000000000000000000000081565b7f000000000000000000000000000000000000000000000000000000000000000073ffffffffffffffffffffffffffffffffffffffff163073ffffffffffffffffffffffffffffffffffffffff16036104b5576040517f08c379a00000000000000000000000000000000000000000000000000000000081526004016104ac90610770565b60405180910390fd5b6104bd61054a565b3073ffffffffffffffffffffffffffffffffffffffff1663f08a03237f00000000000000000000000000000000000000000000000000000000000000006040518263ffffffff1660e01b815260040161051691906106d2565b600060405180830381600087803b15801561053057600080fd5b505af1158015610544573d6000803e3d6000fd5b50505050565b7f000000000000000000000000000000000000000000000000000000000000000073ffffffffffffffffffffffffffffffffffffffff163073ffffffffffffffffffffffffffffffffffffffff16036105d8576040517f08c379a00000000000000000000000000000000000000000000000000000000081526004016105cf90610770565b60405180910390fd5b7f00000000000000000000000000000000000000000000000000000000000000006000806101000a81548173ffffffffffffffffffffffffffffffffffffffff021916908373ffffffffffffffffffffffffffffffffffffffff1602179055507f75e41bc35ff1bf14d81d1d2f649c0084a0f974f9289c803ec9898eeec4c8d0b87f000000000000000000000000000000000000000000000000000000000000000060405161068791906106d2565b60405180910390a1565b600073ffffffffffffffffffffffffffffffffffffffff82169050919050565b60006106bc82610691565b9050919050565b6106cc816106b1565b82525050565b60006020820190506106e760008301846106c3565b92915050565b600082825260208201905092915050565b7f4d6967726174696f6e2073686f756c64206f6e6c792062652063616c6c65642060008201527f7669612064656c656761746563616c6c00000000000000000000000000000000602082015250565b600061075a6030836106ed565b9150610765826106fe565b604082019050919050565b600060208201905081810360008301526107898161074d565b905091905056fea264697066735822122014aec403aa620bc8bfb24fd1bc5fc60a9445fab6f0bf662bc1b4d22741bf2ff764736f6c63430008140033",
  "linkReferences": {},
  "deployedLinkReferences": {}
}