{
  "_format": "hh3-artifact-1",
  "contractName": "SafeMigration",
  "sourceName": "contracts/libraries/SafeMigration.sol",
  "abi": [
    {
      "inputs": [
        {
          "internalType": "address",
          "name": "safeSingleton",
          "type": "address"
        },
        {
          "internalType": "address",
          "name": "safeL2Singleton",
          "type": "address"
        },
        {
          "internalType": "address",
          "name": "fallbackHandler",
          "type": "address"
        }
      ],
      "stateMutability": "nonpayable",
      "type": "constructor"
    },
    {
      "anonymous": false,
      "inputs": [
        {
          "indexed": false,
          "internalType": "address",
          "name": "singleton",
          "type": "address"
        }
      ],
      "name": "ChangedMasterCopy",
      "type": "event"
    },
    {
      "inputs": [],
      "name": "MIGRATION_SINGLETON",
      "outputs": [
        {
          "internalType": "address",
          "name": "",
          "type": "address"
        }
      ],
      "stateMutability": "view",
      "type": "function"
    },
    {
      "inputs": [],
      "name": "SAFE_FALLBACK_HANDLER",
      "outputs": [
        {
          "internalType": "address",
          "name": "",
          "type": "address"
        }
      ],
      "stateMutability": "view",
      "type": "function"
    },
    {
      "inputs": [],
      "name": "SAFE_L2_SINGLETON",
      "outputs": [
        {
          "internalType": "address",
          "name": "",
          "type": "address"
        }
      ],
      "stateMutability": "view",
      "type": "function"
    },
    {
      "inputs": [],
      "name": "SAFE_SINGLETON",
      "outputs": [
        {
          "internalType": "address",
          "name": "",
          "type": "address"
        }
      ],
      "stateMutability": "view",
      "type": "function"
    },
    {
      "inputs": [],
      "name": "migrateL2Singleton",
      "outputs": [],
      "stateMutability": "nonpayable",
      "type": "function"
    },
    {
      "inputs": [],
      "name": "migrateL2WithFallbackHandler",
      "outputs": [],
      "stateMutability": "nonpayable",
      "type": "function"
    },
    {
      "inputs": [],
      "name": "migrateSingleton",
      "outputs": [],
      "stateMutability": "nonpayable",
      "type": "function"
    },
    {
      "inputs": [],
      "name": "migrateWithFallbackHandler",
      "outputs": [],
      "stateMutability": "nonpayable",
      "type": "function"
    }
  ],
  "bytecode": "0x610100604052348015610010575f5ffd5b50604051610c48380380610c4883398181016040528101906100329190610263565b3073ffffffffffffffffffffffffffffffffffffffff1660808173ffffffffffffffffffffffffffffffffffffffff1681525050610075836101f460201b60201c565b6100b4576040517f08c379a00000000000000000000000000000000000000000000000000000000081526004016100ab9061030d565b60405180910390fd5b6100c3826101f460201b60201c565b610102576040517f08c379a00000000000000000000000000000000000000000000000000000000081526004016100f99061039b565b60405180910390fd5b610111816101f460201b60201c565b610150576040517f08c379a000000000000000000000000000000000000000000000000000000000815260040161014790610403565b60405180910390fd5b8273ffffffffffffffffffffffffffffffffffffffff1660a08173ffffffffffffffffffffffffffffffffffffffff16815250508173ffffffffffffffffffffffffffffffffffffffff1660c08173ffffffffffffffffffffffffffffffffffffffff16815250508073ffffffffffffffffffffffffffffffffffffffff1660e08173ffffffffffffffffffffffffffffffffffffffff1681525050505050610421565b5f5f823b90505f8111915050919050565b5f5ffd5b5f73ffffffffffffffffffffffffffffffffffffffff82169050919050565b5f61023282610209565b9050919050565b61024281610228565b811461024c575f5ffd5b50565b5f8151905061025d81610239565b92915050565b5f5f5f6060848603121561027a57610279610205565b5b5f6102878682870161024f565b93505060206102988682870161024f565b92505060406102a98682870161024f565b9150509250925092565b5f82825260208201905092915050565b7f536166652053696e676c65746f6e206973206e6f74206465706c6f79656400005f82015250565b5f6102f7601e836102b3565b9150610302826102c3565b602082019050919050565b5f6020820190508181035f830152610324816102eb565b9050919050565b7f536166652053696e676c65746f6e20284c3229206973206e6f74206465706c6f5f8201527f7965640000000000000000000000000000000000000000000000000000000000602082015250565b5f6103856023836102b3565b91506103908261032b565b604082019050919050565b5f6020820190508181035f8301526103b281610379565b9050919050565b7f66616c6c6261636b2068616e646c6572206973206e6f74206465706c6f7965645f82015250565b5f6103ed6020836102b3565b91506103f8826103b9565b602082019050919050565b5f6020820190508181035f83015261041a816103e1565b9050919050565b60805160a05160c05160e0516107ae61049a5f395f81816102720152818161034801526104d201525f81816101ba0152818161023a01526103d801525f81816103fc015281816105cc015261064c01525f818161012c01528181610296015281816103b401528181610420015261053e01526107ae5ff3fe608060405234801561000f575f5ffd5b5060043610610086575f3560e01c80639bf47d6e116100595780639bf47d6e146100da578063caa12add146100f8578063ed007fc614610116578063f6682ab01461012057610086565b806307f464a41461008a5780630d7101f71461009457806368cb3d94146100b257806372f7a956146100bc575b5f5ffd5b61009261012a565b005b61009c610270565b6040516100a991906106c1565b60405180910390f35b6100ba610294565b005b6100c46103b2565b6040516100d191906106c1565b60405180910390f35b6100e26103d6565b6040516100ef91906106c1565b60405180910390f35b6101006103fa565b60405161010d91906106c1565b60405180910390f35b61011e61041e565b005b61012861053c565b005b7f000000000000000000000000000000000000000000000000000000000000000073ffffffffffffffffffffffffffffffffffffffff163073ffffffffffffffffffffffffffffffffffffffff16036101b8576040517f08c379a00000000000000000000000000000000000000000000000000000000081526004016101af9061075a565b60405180910390fd5b7f00000000000000000000000000000000000000000000000000000000000000005f5f6101000a81548173ffffffffffffffffffffffffffffffffffffffff021916908373ffffffffffffffffffffffffffffffffffffffff1602179055507f75e41bc35ff1bf14d81d1d2f649c0084a0f974f9289c803ec9898eeec4c8d0b87f000000000000000000000000000000000000000000000000000000000000000060405161026691906106c1565b60405180910390a1565b7f000000000000000000000000000000000000000000000000000000000000000081565b7f000000000000000000000000000000000000000000000000000000000000000073ffffffffffffffffffffffffffffffffffffffff163073ffffffffffffffffffffffffffffffffffffffff1603610322576040517f08c379a00000000000000000000000000000000000000000000000000000000081526004016103199061075a565b60405180910390fd5b61032a61012a565b3073ffffffffffffffffffffffffffffffffffffffff1663f08a03237f00000000000000000000000000000000000000000000000000000000000000006040518263ffffffff1660e01b815260040161038391906106c1565b5f604051808303815f87803b15801561039a575f5ffd5b505af11580156103ac573d5f5f3e3d5ffd5b50505050565b7f000000000000000000000000000000000000000000000000000000000000000081565b7f000000000000000000000000000000000000000000000000000000000000000081565b7f000000000000000000000000000000000000000000000000000000000000000081565b7f000000000000000000000000000000000000000000000000000000000000000073ffffffffffffffffffffffffffffffffffffffff163073ffffffffffffffffffffffffffffffffffffffff16036104ac576040517f08c379a00000000000000000000000000000000000000000000000000000000081526004016104a39061075a565b60405180910390fd5b6104b461053c565b3073ffffffffffffffffffffffffffffffffffffffff1663f08a03237f00000000000000000000000000000000000000000000000000000000000000006040518263ffffffff1660e01b815260040161050d91906106c1565b5f604051808303815f87803b158015610524575f5ffd5b505af1158015610536573d5f5f3e3d5ffd5b50505050565b7f000000000000000000000000000000000000000000000000000000000000000073ffffffffffffffffffffffffffffffffffffffff163073ffffffffffffffffffffffffffffffffffffffff16036105ca576040517f08c379a00000000000000000000000000000000000000000000000000000000081526004016105c19061075a565b60405180910390fd5b7f00000000000000000000000000000000000000000000000000000000000000005f5f6101000a81548173ffffffffffffffffffffffffffffffffffffffff021916908373ffffffffffffffffffffffffffffffffffffffff1602179055507f75e41bc35ff1bf14d81d1d2f649c0084a0f974f9289c803ec9898eeec4c8d0b87f000000000000000000000000000000000000000000000000000000000000000060405161067891906106c1565b60405180910390a1565b5f73ffffffffffffffffffffffffffffffffffffffff82169050919050565b5f6106ab82610682565b9050919050565b6106bb816106a1565b82525050565b5f6020820190506106d45f8301846106b2565b92915050565b5f82825260208201905092915050565b7f4d6967726174696f6e2073686f756c64206f6e6c792062652063616c6c6564205f8201527f7669612064656c656761746563616c6c00000000000000000000000000000000602082015250565b5f6107446030836106da565b915061074f826106ea565b604082019050919050565b5f6020820190508181035f83015261077181610738565b905091905056fea26469706673582212208ec592af0146a1f897663c030dd6d2eb5bbbde364078c4068c7ad929adb725d764736f6c634300081c0033",
  "linkReferences": {},
  "deployedLinkReferences": {},
  "immutableReferences": {
    "6276": [
      {
        "length": 32,
        "start": 300
      },
      {
        "length": 32,
        "start": 662
      },
      {
        "length": 32,
        "start": 948
      },
      {
        "length": 32,
        "start": 1056
      },
      {
        "length": 32,
        "start": 1342
      }
    ],
    "6279": [
      {
        "length": 32,
        "start": 1020
      },
      {
        "length": 32,
        "start": 1484
      },
      {
        "length": 32,
        "start": 1612
      }
    ],
    "6282": [
      {
        "length": 32,
        "start": 442
      },
      {
        "length": 32,
        "start": 570
      },
      {
        "length": 32,
        "start": 984
      }
    ],
    "6285": [
      {
        "length": 32,
        "start": 626
      },
      {
        "length": 32,
        "start": 840
      },
      {
        "length": 32,
        "start": 1234
      }
    ]
  },
  "inputSourceName": "project/contracts/libraries/SafeMigration.sol",
  "buildInfoId": "solc-0_8_28-ed2d128c3ac1e98a551cdd21051ecbf6dd081352"
}